{"abi":[{"type":"function","name":"MEMBER_ROLE","inputs":[],"outputs":[{"name":"","type":"uint256","internalType":"uint256"}],"stateMutability":"view"},{"type":"function","name":"PUBLIC_ROLE","inputs":[],"outputs":[{"name":"","type":"uint256","internalType":"uint256"}],"stateMutability":"view"},{"type":"function","name":"executeLaw","inputs":[{"name":"caller","type":"address","internalType":"address"},{"name":"lawId","type":"uint16","internalType":"uint16"},{"name":"lawCalldata","type":"bytes","internalType":"bytes"},{"name":"nonce","type":"uint256","internalType":"uint256"}],"outputs":[{"name":"success","type":"bool","internalType":"bool"}],"stateMutability":"nonpayable"},{"type":"function","name":"getConfig","inputs":[{"name":"powers","type":"address","internalType":"address"},{"name":"lawId","type":"uint16","internalType":"uint16"}],"outputs":[{"name":"config","type":"bytes","internalType":"bytes"}],"stateMutability":"view"},{"type":"function","name":"getConfigData","inputs":[{"name":"powers","type":"address","internalType":"address"},{"name":"lawId","type":"uint16","internalType":"uint16"}],"outputs":[{"name":"","type":"tuple","internalType":"struct AdoptEasyRPGFGovernance.ConfigData","components":[{"name":"allo","type":"address","internalType":"address"},{"name":"statementOfIntentAddress","type":"address","internalType":"address"},{"name":"alloDistributeAddress","type":"address","internalType":"address"},{"name":"createPoolLawId","type":"uint16","internalType":"uint16"}]}],"stateMutability":"view"},{"type":"function","name":"getInputParams","inputs":[{"name":"powers","type":"address","internalType":"address"},{"name":"lawId","type":"uint16","internalType":"uint16"}],"outputs":[{"name":"inputParams","type":"bytes","internalType":"bytes"}],"stateMutability":"view"},{"type":"function","name":"getNameDescription","inputs":[{"name":"powers","type":"address","internalType":"address"},{"name":"lawId","type":"uint16","internalType":"uint16"}],"outputs":[{"name":"nameDescription","type":"string","internalType":"string"}],"stateMutability":"view"},{"type":"function","name":"handleRequest","inputs":[{"name":"caller","type":"address","internalType":"address"},{"name":"powers","type":"address","internalType":"address"},{"name":"lawId","type":"uint16","internalType":"uint16"},{"name":"lawCalldata","type":"bytes","internalType":"bytes"},{"name":"nonce","type":"uint256","internalType":"uint256"}],"outputs":[{"name":"actionId","type":"uint256","internalType":"uint256"},{"name":"targets","type":"address[]","internalType":"address[]"},{"name":"values","type":"uint256[]","internalType":"uint256[]"},{"name":"calldatas","type":"bytes[]","internalType":"bytes[]"}],"stateMutability":"view"},{"type":"function","name":"initializeLaw","inputs":[{"name":"index","type":"uint16","internalType":"uint16"},{"name":"nameDescription","type":"string","internalType":"string"},{"name":"inputParamsAbi","type":"bytes","internalType":"bytes"},{"name":"config","type":"bytes","internalType":"bytes"}],"outputs":[],"stateMutability":"nonpayable"},{"type":"function","name":"lawConfig","inputs":[{"name":"lawHash","type":"bytes32","internalType":"bytes32"}],"outputs":[{"name":"allo","type":"address","internalType":"address"},{"name":"statementOfIntentAddress","type":"address","internalType":"address"},{"name":"alloDistributeAddress","type":"address","internalType":"address"},{"name":"createPoolLawId","type":"uint16","internalType":"uint16"}],"stateMutability":"view"},{"type":"function","name":"laws","inputs":[{"name":"lawHash","type":"bytes32","internalType":"bytes32"}],"outputs":[{"name":"nameDescription","type":"string","internalType":"string"},{"name":"inputParams","type":"bytes","internalType":"bytes"},{"name":"config","type":"bytes","internalType":"bytes"},{"name":"powers","type":"address","internalType":"address"}],"stateMutability":"view"},{"type":"function","name":"supportsInterface","inputs":[{"name":"interfaceId","type":"bytes4","internalType":"bytes4"}],"outputs":[{"name":"","type":"bool","internalType":"bool"}],"stateMutability":"view"},{"type":"event","name":"Law__Deployed","inputs":[{"name":"configParams","type":"bytes","indexed":false,"internalType":"bytes"}],"anonymous":false},{"type":"event","name":"Law__Initialized","inputs":[{"name":"powers","type":"address","indexed":true,"internalType":"address"},{"name":"index","type":"uint16","indexed":true,"internalType":"uint16"},{"name":"nameDescription","type":"string","indexed":false,"internalType":"string"},{"name":"inputParams","type":"bytes","indexed":false,"internalType":"bytes"},{"name":"config","type":"bytes","indexed":false,"internalType":"bytes"}],"anonymous":false},{"type":"error","name":"CannotDecodePoolId","inputs":[]},{"type":"error","name":"CannotDecodeSourceInputs","inputs":[]},{"type":"error","name":"InvalidSourceAction","inputs":[]},{"type":"error","name":"LawNotConfigured","inputs":[]}],"bytecode":{"object":"0x6080604052348015600e575f80fd5b50612ad08061001c5f395ff3fe608060405234801561000f575f80fd5b50600436106100cf575f3560e01c80637bf5b2fb1161007d578063d8a941f411610058578063d8a941f4146101ba578063e33459a3146101cd578063eb5a1b7c14610236575f80fd5b80637bf5b2fb1461018c578063a10f469e1461019f578063c0d27aad146101a7575f80fd5b80630db07d58116100ad5780630db07d58146101305780633ca7c02a14610153578063552cb37214610169575f80fd5b806301ffc9a7146100d3578063040b1100146100fb5780630d15772114610110575b5f80fd5b6100e66100e1366004611c69565b6102b5565b60405190151581526020015b60405180910390f35b61010e610109366004611d98565b6102eb565b005b61012361011e366004611e60565b6104bc565b6040516100f29190611ec5565b61014361013e366004611ed7565b6105e5565b6040516100f29493929190611eee565b61015b5f1981565b6040519081526020016100f2565b61017c610177366004611f41565b6107a7565b6040516100f29493929190612086565b6100e661019a3660046120cf565b6114d8565b61015b600581565b6101236101b5366004611e60565b61162f565b6101236101c8366004611e60565b6116d5565b6101e06101db366004611e60565b61177b565b6040516100f291905f6080820190506001600160a01b0383511682526001600160a01b0360208401511660208301526001600160a01b03604084015116604083015261ffff606084015116606083015292915050565b610281610244366004611ed7565b600160208190525f91825260409091208054918101546002909101546001600160a01b039283169291821691811690600160a01b900461ffff1684565b604080516001600160a01b0395861681529385166020850152919093169082015261ffff90911660608201526080016100f2565b5f6001600160e01b03198216632ad2108960e01b14806102e557506301ffc9a760e01b6001600160e01b03198316145b92915050565b80515f036103405760405162461bcd60e51b815260206004820152600f60248201527f436f6e666967207265717569726564000000000000000000000000000000000060448201526064015b60405180910390fd5b5f805f80848060200190518101906103589190612174565b60405163195cb93f60e31b815233600482015261ffff8d166024820152939750919550935091505f9073__$da6f5012babb472fe138ca3bf3d5984061$__9063cae5c9f890604401602060405180830381865af41580156103bb573d5f803e3d5ffd5b505050506040513d601f19601f820116820180604052508101906103df91906121d0565b604080516080810182526001600160a01b038089168252878116602080840191825288831684860190815261ffff808a16606087019081525f898152600194859052979097209551865490861673ffffffffffffffffffffffffffffffffffffffff199182161787559351928601805493861693909416929092179092559051600290930180549451909116600160a01b027fffffffffffffffffffff00000000000000000000000000000000000000000000909416929091169190911791909117905590506104b1898989896118b5565b505050505050505050565b60405163195cb93f60e31b81526001600160a01b038316600482015261ffff821660248201526060905f90819073__$da6f5012babb472fe138ca3bf3d5984061$__9063cae5c9f890604401602060405180830381865af4158015610523573d5f803e3d5ffd5b505050506040513d601f19601f8201168201806040525081019061054791906121d0565b81526020019081526020015f205f018054610561906121e7565b80601f016020809104026020016040519081016040528092919081815260200182805461058d906121e7565b80156105d85780601f106105af576101008083540402835291602001916105d8565b820191905f5260205f20905b8154815290600101906020018083116105bb57829003601f168201915b5050505050905092915050565b5f602081905290815260409020805481906105ff906121e7565b80601f016020809104026020016040519081016040528092919081815260200182805461062b906121e7565b80156106765780601f1061064d57610100808354040283529160200191610676565b820191905f5260205f20905b81548152906001019060200180831161065957829003601f168201915b50505050509080600101805461068b906121e7565b80601f01602080910402602001604051908101604052809291908181526020018280546106b7906121e7565b80156107025780601f106106d957610100808354040283529160200191610702565b820191905f5260205f20905b8154815290600101906020018083116106e557829003601f168201915b505050505090806002018054610717906121e7565b80601f0160208091040260200160405190810160405280929190818152602001828054610743906121e7565b801561078e5780601f106107655761010080835404028352916020019161078e565b820191905f5260205f20905b81548152906001019060200180831161077157829003601f168201915b505050600390930154919250506001600160a01b031684565b60405163195cb93f60e31b81526001600160a01b038516600482015261ffff841660248201525f9060609081908190849073__$da6f5012babb472fe138ca3bf3d5984061$__9063cae5c9f890604401602060405180830381865af4158015610812573d5f803e3d5ffd5b505050506040513d601f19601f8201168201806040525081019061083691906121d0565b5f81815260016020818152604092839020835160808101855281546001600160a01b039081168083529483015481169382019390935260029091015491821693810193909352600160a01b900461ffff166060830152919250906108ad57604051631546598b60e01b815260040160405180910390fd5b604080516102e0810182525f80825260208083018290528284018290526060808401819052608080850184905260a080860183905260c080870186905260e080880187905261010080890188905261012089018890526101408901889052610160890186905261018089018690526101a089018690526101c089018690526101e0890186905289518082018b52888152808801899052808b018990528087018990528086018990528085018990528084018990528083018990526102008a015289518082018b52888152808801899052808b018990528087018990528086018990528085018990528084018990528083018990526102208a015289518082018b52888152808801899052808b018990528087018990528086018990528085018990528084018990528083018990526102408a015289518086018b52868152808801899052808b018790528a518083018c528981528089018a9052808c018a90528088018a90528087018a90528086018a90528085018a90528084018a9052818801526102608a015289518086018b52868152808801899052808b018790528a518083018c528981528089018a9052808c018a90528088018a90528087018a90528086018a90528085018a90528084018a9052818801526102808a015289518086018b52868152808801899052808b018790528a519182018b528882529681018890529889018790528885018790529288018690529087018590528601849052850192909252808201939093526102a08201929092526102c081019190915260405163831af37960e01b815261ffff8b1660048201525f906001600160a01b038d169063831af3799060240161010060405180830381865afa158015610b34573d5f803e3d5ffd5b505050506040513d601f19601f82011682018060405250810190610b589190612242565b9050806080015161ffff165f03610bb15760405162461bcd60e51b815260206004820152601160248201527f46756c66696c6c6564206e6f74207365740000000000000000000000000000006044820152606401610337565b6080810151604051630bcec85560e01b815273__$da6f5012babb472fe138ca3bf3d5984061$__91630bcec85591610bf091908e908e906004016122e1565b602060405180830381865af4158015610c0b573d5f803e3d5ffd5b505050506040513d601f19601f82011682018060405250810190610c2f91906121d0565b808352604051634583476b60e01b815260048101919091526001600160a01b038d1690634583476b9060240160e060405180830381865afa158015610c76573d5f803e3d5ffd5b505050506040513d601f19601f82011682018060405250810190610c9a9190612322565b50505065ffffffffffff166040860152505061ffff908116602084018190526060850151909116141580610cd85750604082015165ffffffffffff16155b15610cf657604051630f7f29e160e11b815260040160405180910390fd5b81516040516330f92d2760e11b815260048101919091526001600160a01b038d16906361f25a4e906024015f60405180830381865afa158015610d3b573d5f803e3d5ffd5b505050506040513d5f823e601f3d908101601f19168201604052610d6291908101906123f3565b606083018190528051610d7d916020918101820191016121d0565b608083018190525f03610da357604051631797992b60e01b815260040160405180910390fd5b8151604051636c815f9d60e11b815260048101919091526001600160a01b038d169063d902bf3a906024015f60405180830381865afa158015610de8573d5f803e3d5ffd5b505050506040513d5f823e601f3d908101601f19168201604052610e0f91908101906123f3565b60a083018190528051610e2a9160209181018201910161242d565b61ffff1660c08501525050604080516301022e5160e61b815290516001600160a01b038e169163408b94409160048083019260209291908290030181865afa158015610e78573d5f803e3d5ffd5b505050506040513d601f19601f82011682018060405250810190610e9c919061246d565b61ffff1660e083018190526101008301819052610eba906001612488565b61ffff1661012083015260e0820151610ed4906002612488565b61ffff166101408301526080820151610eec90611a88565b604051602001610efc91906124c5565b60408051808303601f19018152918152610160840191909152805160028082526060820190925290816020015b6060815260200190600190039081610f295750506101c0830190815260408051808201909152601481527f616464726573735b5d20726563697069656e74730000000000000000000000006020820152905180515f90610f8b57610f8b61250b565b60200260200101819052506040518060400160405280601181526020017f75696e743235365b5d20616d6f756e7473000000000000000000000000000000815250826101c00151600181518110610fe457610fe461250b565b6020026020010181905250816101c00151604051602001611005919061251f565b60408051601f198184030181529181526101e08401918252610200840180515f199052805160646020918201528151603360e0909101528151600a60c0909101528251608080820185526101608801518252888301516001600160a01b03169282019290925293519284019290925251606083015261026084019190915282015161108f90611a88565b60405160200161109f9190612582565b60408051601f1981840301815291815261018084019182526102208401805160059052805160646020918201528151604260e0909101528151601960c090910152610100860151825161ffff9091166080918201528351808201855294518552878201516001600160a01b0316918501919091526101e08601519284019290925251606083015261028084019190915282015161113b90611a88565b60405160200161114b91906125c8565b60408051808303601f190181529181526101a08401919091528351608084015182516001600160a01b0390921660208301529181019190915260600160408051808303601f190181529181526102c0840191825260c08401516102408501805161ffff928316905261010086015181519083166080918201526101208701518251931660a090930192909252825191820183526101a08601518252868301516001600160a01b03166020830152925181830152915160608301526102a08401919091525163054591f760e11b81526003600482015273__$da6f5012babb472fe138ca3bf3d5984061$__90630a8b23ee906024015f60405180830381865af4158015611259573d5f803e3d5ffd5b505050506040513d5f823e601f3d908101601f191682016040526112809190810190612715565b825192995090975095508c908890600290811061129f5761129f61250b565b60200260200101906001600160a01b031690816001600160a01b0316815250876001815181106112d1576112d161250b565b60200260200101906001600160a01b031690816001600160a01b0316815250875f815181106113025761130261250b565b60200260200101906001600160a01b031690816001600160a01b0316815250505f866002815181106113365761133661250b565b6020026020010181815250866001815181106113545761135461250b565b6020026020010181815250865f815181106113715761137161250b565b602090810291909101015261026082015160405163a3a86b4760e01b9161139a91602401612805565b604051602081830303815290604052906001600160e01b0319166020820180516001600160e01b038381831617835250505050855f815181106113df576113df61250b565b602090810291909101015261028082015160405163a3a86b4760e01b9161140891602401612805565b604051602081830303815290604052906001600160e01b0319166020820180516001600160e01b0383818316178352505050508560018151811061144e5761144e61250b565b60209081029190910101526102a082015160405163a3a86b4760e01b9161147791602401612805565b604051602081830303815290604052906001600160e01b0319166020820180516001600160e01b038381831617835250505050856002815181106114bd576114bd61250b565b60200260200101819052505050505095509550955095915050565b60405163195cb93f60e31b815233600482015261ffff851660248201525f90819073__$da6f5012babb472fe138ca3bf3d5984061$__9063cae5c9f890604401602060405180830381865af4158015611533573d5f803e3d5ffd5b505050506040513d601f19601f8201168201806040525081019061155791906121d0565b5f818152602081905260409020600301549091506001600160a01b031633146115c25760405162461bcd60e51b815260206004820152600b60248201527f4f6e6c7920506f776572730000000000000000000000000000000000000000006044820152606401610337565b5f805f806116098b338c8c8c8080601f0160208091040260200160405190810160405280939291908181526020018383808284375f920191909152508e92506107a7915050565b935093509350935061161e8a85858585611b2d565b5060019a9950505050505050505050565b60405163195cb93f60e31b81526001600160a01b038316600482015261ffff821660248201526060905f90819073__$da6f5012babb472fe138ca3bf3d5984061$__9063cae5c9f890604401602060405180830381865af4158015611696573d5f803e3d5ffd5b505050506040513d601f19601f820116820180604052508101906116ba91906121d0565b81526020019081526020015f206002018054610561906121e7565b60405163195cb93f60e31b81526001600160a01b038316600482015261ffff821660248201526060905f90819073__$da6f5012babb472fe138ca3bf3d5984061$__9063cae5c9f890604401602060405180830381865af415801561173c573d5f803e3d5ffd5b505050506040513d601f19601f8201168201806040525081019061176091906121d0565b81526020019081526020015f206001018054610561906121e7565b604080516080810182525f80825260208201819052918101829052606081019190915260405163195cb93f60e31b81526001600160a01b038416600482015261ffff831660248201525f9073__$da6f5012babb472fe138ca3bf3d5984061$__9063cae5c9f890604401602060405180830381865af4158015611800573d5f803e3d5ffd5b505050506040513d601f19601f8201168201806040525081019061182491906121d0565b5f818152600160205260409020549091506001600160a01b031661185b57604051631546598b60e01b815260040160405180910390fd5b5f90815260016020818152604092839020835160808101855281546001600160a01b039081168252938201548416928101929092526002015491821692810192909252600160a01b900461ffff1660608201529392505050565b60405163195cb93f60e31b815233600482015261ffff851660248201525f9073__$da6f5012babb472fe138ca3bf3d5984061$__9063cae5c9f890604401602060405180830381865af415801561190e573d5f803e3d5ffd5b505050506040513d601f19601f8201168201806040525081019061193291906121d0565b60405163cb4a15c560e01b815290915073__$da6f5012babb472fe138ca3bf3d5984061$__9063cb4a15c59061197290879060019060ff906004016128dc565b5f6040518083038186803b158015611988575f80fd5b505af415801561199a573d5f803e3d5ffd5b50506040805160808101825287815260208082018890528183018790523360608301525f86815290819052919091208151919350915081906119dc9082612949565b50602082015160018201906119f19082612949565b5060408201516002820190611a069082612949565b50606091909101516003909101805473ffffffffffffffffffffffffffffffffffffffff19166001600160a01b0390921691909117905560405161ffff86169033907f3325fccc62d4919a3b0d34ea1fe03878a5248dd1bc36dd8d4316eafc2b8d0adf90611a7990889088908890612a04565b60405180910390a35050505050565b60605f611a9483611b88565b60010190505f8167ffffffffffffffff811115611ab357611ab3611ca9565b6040519080825280601f01601f191660200182016040528015611add576020820181803683370190505b5090508181016020015b5f19017f3031323334353637383961626364656600000000000000000000000000000000600a86061a8153600a8504945084611ae7575b509392505050565b5050505050565b825115611b2657604051630de6a60160e01b81523390630de6a60190611b5f9088908890889088908890600401612a46565b5f604051808303815f87803b158015611b76575f80fd5b505af11580156104b1573d5f803e3d5ffd5b5f807a184f03e93ff9f4daa797ed6e38ed64bf6a1f0100000000000000008310611bd0577a184f03e93ff9f4daa797ed6e38ed64bf6a1f010000000000000000830492506040015b6d04ee2d6d415b85acef81000000008310611bfc576d04ee2d6d415b85acef8100000000830492506020015b662386f26fc100008310611c1a57662386f26fc10000830492506010015b6305f5e1008310611c32576305f5e100830492506008015b6127108310611c4657612710830492506004015b60648310611c58576064830492506002015b600a83106102e55760010192915050565b5f60208284031215611c79575f80fd5b81356001600160e01b031981168114611c90575f80fd5b9392505050565b61ffff81168114611ca6575f80fd5b50565b634e487b7160e01b5f52604160045260245ffd5b604051610100810167ffffffffffffffff81118282101715611ce157611ce1611ca9565b60405290565b604051601f8201601f1916810167ffffffffffffffff81118282101715611d1057611d10611ca9565b604052919050565b5f67ffffffffffffffff821115611d3157611d31611ca9565b50601f01601f191660200190565b5f611d51611d4c84611d18565b611ce7565b9050828152838383011115611d64575f80fd5b828260208301375f602084830101529392505050565b5f82601f830112611d89575f80fd5b611c9083833560208501611d3f565b5f805f8060808587031215611dab575f80fd5b8435611db681611c97565b9350602085013567ffffffffffffffff811115611dd1575f80fd5b8501601f81018713611de1575f80fd5b611df087823560208401611d3f565b935050604085013567ffffffffffffffff811115611e0c575f80fd5b611e1887828801611d7a565b925050606085013567ffffffffffffffff811115611e34575f80fd5b611e4087828801611d7a565b91505092959194509250565b6001600160a01b0381168114611ca6575f80fd5b5f8060408385031215611e71575f80fd5b8235611e7c81611e4c565b91506020830135611e8c81611c97565b809150509250929050565b5f81518084528060208401602086015e5f602082860101526020601f19601f83011685010191505092915050565b602081525f611c906020830184611e97565b5f60208284031215611ee7575f80fd5b5035919050565b608081525f611f006080830187611e97565b8281036020840152611f128187611e97565b90508281036040840152611f268186611e97565b9150506001600160a01b038316606083015295945050505050565b5f805f805f60a08688031215611f55575f80fd5b8535611f6081611e4c565b94506020860135611f7081611e4c565b93506040860135611f8081611c97565b9250606086013567ffffffffffffffff811115611f9b575f80fd5b611fa788828901611d7a565b95989497509295608001359392505050565b5f8151808452602084019350602083015f5b82811015611ff25781516001600160a01b0316865260209586019590910190600101611fcb565b5093949350505050565b5f8151808452602084019350602083015f5b82811015611ff257815186526020958601959091019060010161200e565b5f82825180855260208501945060208160051b830101602085015f5b8381101561207a57601f19858403018852612064838351611e97565b6020988901989093509190910190600101612048565b50909695505050505050565b848152608060208201525f61209e6080830186611fb9565b82810360408401526120b08186611ffc565b905082810360608401526120c4818561202c565b979650505050505050565b5f805f805f608086880312156120e3575f80fd5b85356120ee81611e4c565b945060208601356120fe81611c97565b9350604086013567ffffffffffffffff811115612119575f80fd5b8601601f81018813612129575f80fd5b803567ffffffffffffffff81111561213f575f80fd5b886020828401011115612150575f80fd5b959894975060200195606001359392505050565b805161216f81611c97565b919050565b5f805f8060808587031215612187575f80fd5b845161219281611e4c565b60208601519094506121a381611e4c565b60408601519093506121b481611e4c565b60608601519092506121c581611c97565b939692955090935050565b5f602082840312156121e0575f80fd5b5051919050565b600181811c908216806121fb57607f821691505b60208210810361221957634e487b7160e01b5f52602260045260245ffd5b50919050565b805163ffffffff8116811461216f575f80fd5b805160ff8116811461216f575f80fd5b5f610100828403128015612254575f80fd5b5061225d611cbd565b8251815261226d6020840161221f565b602082015261227e6040840161221f565b604082015261228f6060840161221f565b606082015260808301516122a281611c97565b60808201526122b360a08401612164565b60a08201526122c460c08401612232565b60c08201526122d560e08401612232565b60e08201529392505050565b61ffff84168152606060208201525f6122fd6060830185611e97565b9050826040830152949350505050565b805165ffffffffffff8116811461216f575f80fd5b5f805f805f805f60e0888a031215612338575f80fd5b875161234381611c97565b96506123516020890161230d565b955061235f6040890161230d565b945061236d6060890161230d565b935061237b6080890161230d565b925060a088015161238b81611e4c565b60c09890980151969995985093969295919492935090919050565b5f82601f8301126123b5575f80fd5b81516123c3611d4c82611d18565b8181528460208386010111156123d7575f80fd5b8160208501602083015e5f918101602001919091529392505050565b5f60208284031215612403575f80fd5b815167ffffffffffffffff811115612419575f80fd5b612425848285016123a6565b949350505050565b5f805f6060848603121561243f575f80fd5b835161244a81611e4c565b60208501516040860151919450925061246281611c97565b809150509250925092565b5f6020828403121561247d575f80fd5b8151611c9081611c97565b61ffff81811683821601908111156102e557634e487b7160e01b5f52601160045260245ffd5b5f81518060208401855e5f93019283525090919050565b6402837b7b6160dd1b81525f6124de60058301846124ae565b7f3a2050726f706f7365205061796f75740000000000000000000000000000000081526010019392505050565b634e487b7160e01b5f52603260045260245ffd5b5f602082016020835280845180835260408501915060408160051b8601019250602086015f5b8281101561257657603f19878603018452612561858351611e97565b94506020938401939190910190600101612545565b50929695505050505050565b6402837b7b6160dd1b81525f61259b60058301846124ae565b7f3a205665746f205061796f7574000000000000000000000000000000000000008152600d019392505050565b6402837b7b6160dd1b81525f6125e160058301846124ae565b7f3a2045786563757465205061796f75740000000000000000000000000000000081526010019392505050565b5f67ffffffffffffffff82111561262757612627611ca9565b5060051b60200190565b5f82601f830112612640575f80fd5b815161264e611d4c8261260e565b8082825260208201915060208360051b86010192508583111561266f575f80fd5b602085015b8381101561268c578051835260209283019201612674565b5095945050505050565b5f82601f8301126126a5575f80fd5b81516126b3611d4c8261260e565b8082825260208201915060208360051b8601019250858311156126d4575f80fd5b602085015b8381101561268c57805167ffffffffffffffff8111156126f7575f80fd5b612706886020838a01016123a6565b845250602092830192016126d9565b5f805f60608486031215612727575f80fd5b835167ffffffffffffffff81111561273d575f80fd5b8401601f8101861361274d575f80fd5b805161275b611d4c8261260e565b8082825260208201915060208360051b85010192508883111561277c575f80fd5b6020840193505b828410156127a757835161279681611e4c565b825260209384019390910190612783565b80965050505050602084015167ffffffffffffffff8111156127c7575f80fd5b6127d386828701612631565b925050604084015167ffffffffffffffff8111156127ef575f80fd5b6127fb86828701612696565b9150509250925092565b602081525f82516101606020840152612822610180840182611e97565b90506001600160a01b0360208501511660408401526040840151601f198483030160608501526128528282611e97565b91505060608401518051608085015263ffffffff60208201511660a085015263ffffffff60408201511660c085015263ffffffff60608201511660e085015260808101516128a761010086018261ffff169052565b5060a081015161ffff81166101208601525060c081015160ff81166101408601525060e0015160ff8116610160850152611b1e565b606081525f6128ee6060830186611e97565b60208301949094525060400152919050565b601f82111561294457805f5260205f20601f840160051c810160208510156129255750805b601f840160051c820191505b81811015611b26575f8155600101612931565b505050565b815167ffffffffffffffff81111561296357612963611ca9565b6129778161297184546121e7565b84612900565b6020601f8211600181146129a9575f83156129925750848201515b5f19600385901b1c1916600184901b178455611b26565b5f84815260208120601f198516915b828110156129d857878501518255602094850194600190920191016129b8565b50848210156129f557868401515f19600387901b60f8161c191681555b50505050600190811b01905550565b606081525f612a166060830186611e97565b8281036020840152612a288186611e97565b90508281036040840152612a3c8185611e97565b9695505050505050565b61ffff8616815284602082015260a060408201525f612a6860a0830186611fb9565b8281036060840152612a7a8186611ffc565b90508281036080840152612a8e818561202c565b9897505050505050505056fea2646970667358221220094cae8ad2895f969c86016b08decf5bddac05d7a7dfaa499bbde903037a7f6264736f6c634300081a0033","linkReferences":{"src/libraries/LawUtilities.sol":{"LawUtilities":[{"start":927,"length":20},{"start":1287,"length":20},{"start":2038,"length":20},{"start":3041,"length":20},{"start":4670,"length":20},{"start":5399,"length":20},{"start":5754,"length":20},{"start":5920,"length":20},{"start":6116,"length":20},{"start":6386,"length":20},{"start":6496,"length":20}]}}},"methodIdentifiers":{"MEMBER_ROLE()":"a10f469e","PUBLIC_ROLE()":"3ca7c02a","executeLaw(address,uint16,bytes,uint256)":"7bf5b2fb","getConfig(address,uint16)":"c0d27aad","getConfigData(address,uint16)":"e33459a3","getInputParams(address,uint16)":"d8a941f4","getNameDescription(address,uint16)":"0d157721","handleRequest(address,address,uint16,bytes,uint256)":"552cb372","initializeLaw(uint16,string,bytes,bytes)":"040b1100","lawConfig(bytes32)":"eb5a1b7c","laws(bytes32)":"0db07d58","supportsInterface(bytes4)":"01ffc9a7"},"id":128}