{"abi":[{"type":"function","name":"DEFAULT_ADMIN_ROLE","inputs":[],"outputs":[{"name":"","type":"bytes32","internalType":"bytes32"}],"stateMutability":"view"},{"type":"function","name":"NATIVE","inputs":[],"outputs":[{"name":"","type":"address","internalType":"address"}],"stateMutability":"view"},{"type":"function","name":"addPoolManager","inputs":[{"name":"_poolId","type":"uint256","internalType":"uint256"},{"name":"_manager","type":"address","internalType":"address"}],"outputs":[],"stateMutability":"nonpayable"},{"type":"function","name":"addToCloneableStrategies","inputs":[{"name":"_strategy","type":"address","internalType":"address"}],"outputs":[],"stateMutability":"nonpayable"},{"type":"function","name":"allocate","inputs":[{"name":"_poolId","type":"uint256","internalType":"uint256"},{"name":"_data","type":"bytes","internalType":"bytes"}],"outputs":[],"stateMutability":"payable"},{"type":"function","name":"batchAllocate","inputs":[{"name":"_poolIds","type":"uint256[]","internalType":"uint256[]"},{"name":"_datas","type":"bytes[]","internalType":"bytes[]"}],"outputs":[],"stateMutability":"nonpayable"},{"type":"function","name":"batchRegisterRecipient","inputs":[{"name":"_poolIds","type":"uint256[]","internalType":"uint256[]"},{"name":"_data","type":"bytes[]","internalType":"bytes[]"}],"outputs":[{"name":"recipientIds","type":"address[]","internalType":"address[]"}],"stateMutability":"nonpayable"},{"type":"function","name":"cancelOwnershipHandover","inputs":[],"outputs":[],"stateMutability":"payable"},{"type":"function","name":"completeOwnershipHandover","inputs":[{"name":"pendingOwner","type":"address","internalType":"address"}],"outputs":[],"stateMutability":"payable"},{"type":"function","name":"createPool","inputs":[{"name":"_profileId","type":"bytes32","internalType":"bytes32"},{"name":"_strategy","type":"address","internalType":"address"},{"name":"_initStrategyData","type":"bytes","internalType":"bytes"},{"name":"_token","type":"address","internalType":"address"},{"name":"_amount","type":"uint256","internalType":"uint256"},{"name":"_metadata","type":"tuple","internalType":"struct Metadata","components":[{"name":"protocol","type":"uint256","internalType":"uint256"},{"name":"pointer","type":"string","internalType":"string"}]},{"name":"_managers","type":"address[]","internalType":"address[]"}],"outputs":[{"name":"poolId","type":"uint256","internalType":"uint256"}],"stateMutability":"payable"},{"type":"function","name":"createPoolWithCustomStrategy","inputs":[{"name":"_profileId","type":"bytes32","internalType":"bytes32"},{"name":"_strategy","type":"address","internalType":"address"},{"name":"_initStrategyData","type":"bytes","internalType":"bytes"},{"name":"_token","type":"address","internalType":"address"},{"name":"_amount","type":"uint256","internalType":"uint256"},{"name":"_metadata","type":"tuple","internalType":"struct Metadata","components":[{"name":"protocol","type":"uint256","internalType":"uint256"},{"name":"pointer","type":"string","internalType":"string"}]},{"name":"_managers","type":"address[]","internalType":"address[]"}],"outputs":[{"name":"poolId","type":"uint256","internalType":"uint256"}],"stateMutability":"payable"},{"type":"function","name":"distribute","inputs":[{"name":"_poolId","type":"uint256","internalType":"uint256"},{"name":"_recipientIds","type":"address[]","internalType":"address[]"},{"name":"_data","type":"bytes","internalType":"bytes"}],"outputs":[],"stateMutability":"nonpayable"},{"type":"function","name":"fundPool","inputs":[{"name":"_poolId","type":"uint256","internalType":"uint256"},{"name":"_amount","type":"uint256","internalType":"uint256"}],"outputs":[],"stateMutability":"payable"},{"type":"function","name":"getBaseFee","inputs":[],"outputs":[{"name":"","type":"uint256","internalType":"uint256"}],"stateMutability":"view"},{"type":"function","name":"getFeeDenominator","inputs":[],"outputs":[{"name":"FEE_DENOMINATOR","type":"uint256","internalType":"uint256"}],"stateMutability":"pure"},{"type":"function","name":"getPercentFee","inputs":[],"outputs":[{"name":"","type":"uint256","internalType":"uint256"}],"stateMutability":"view"},{"type":"function","name":"getPool","inputs":[{"name":"_poolId","type":"uint256","internalType":"uint256"}],"outputs":[{"name":"","type":"tuple","internalType":"struct IAllo.Pool","components":[{"name":"profileId","type":"bytes32","internalType":"bytes32"},{"name":"strategy","type":"address","internalType":"contract IStrategy"},{"name":"token","type":"address","internalType":"address"},{"name":"metadata","type":"tuple","internalType":"struct Metadata","components":[{"name":"protocol","type":"uint256","internalType":"uint256"},{"name":"pointer","type":"string","internalType":"string"}]},{"name":"managerRole","type":"bytes32","internalType":"bytes32"},{"name":"adminRole","type":"bytes32","internalType":"bytes32"}]}],"stateMutability":"view"},{"type":"function","name":"getRegistry","inputs":[],"outputs":[{"name":"","type":"address","internalType":"contract IRegistry"}],"stateMutability":"view"},{"type":"function","name":"getRoleAdmin","inputs":[{"name":"role","type":"bytes32","internalType":"bytes32"}],"outputs":[{"name":"","type":"bytes32","internalType":"bytes32"}],"stateMutability":"view"},{"type":"function","name":"getStrategy","inputs":[{"name":"_poolId","type":"uint256","internalType":"uint256"}],"outputs":[{"name":"","type":"address","internalType":"address"}],"stateMutability":"view"},{"type":"function","name":"getTreasury","inputs":[],"outputs":[{"name":"","type":"address","internalType":"address payable"}],"stateMutability":"view"},{"type":"function","name":"grantRole","inputs":[{"name":"role","type":"bytes32","internalType":"bytes32"},{"name":"account","type":"address","internalType":"address"}],"outputs":[],"stateMutability":"nonpayable"},{"type":"function","name":"hasRole","inputs":[{"name":"role","type":"bytes32","internalType":"bytes32"},{"name":"account","type":"address","internalType":"address"}],"outputs":[{"name":"","type":"bool","internalType":"bool"}],"stateMutability":"view"},{"type":"function","name":"initialize","inputs":[{"name":"_owner","type":"address","internalType":"address"},{"name":"_registry","type":"address","internalType":"address"},{"name":"_treasury","type":"address","internalType":"address payable"},{"name":"_percentFee","type":"uint256","internalType":"uint256"},{"name":"_baseFee","type":"uint256","internalType":"uint256"}],"outputs":[],"stateMutability":"nonpayable"},{"type":"function","name":"isCloneableStrategy","inputs":[{"name":"_strategy","type":"address","internalType":"address"}],"outputs":[{"name":"","type":"bool","internalType":"bool"}],"stateMutability":"view"},{"type":"function","name":"isPoolAdmin","inputs":[{"name":"_poolId","type":"uint256","internalType":"uint256"},{"name":"_address","type":"address","internalType":"address"}],"outputs":[{"name":"","type":"bool","internalType":"bool"}],"stateMutability":"view"},{"type":"function","name":"isPoolManager","inputs":[{"name":"_poolId","type":"uint256","internalType":"uint256"},{"name":"_address","type":"address","internalType":"address"}],"outputs":[{"name":"","type":"bool","internalType":"bool"}],"stateMutability":"view"},{"type":"function","name":"owner","inputs":[],"outputs":[{"name":"result","type":"address","internalType":"address"}],"stateMutability":"view"},{"type":"function","name":"ownershipHandoverExpiresAt","inputs":[{"name":"pendingOwner","type":"address","internalType":"address"}],"outputs":[{"name":"result","type":"uint256","internalType":"uint256"}],"stateMutability":"view"},{"type":"function","name":"recoverFunds","inputs":[{"name":"_token","type":"address","internalType":"address"},{"name":"_recipient","type":"address","internalType":"address"}],"outputs":[],"stateMutability":"nonpayable"},{"type":"function","name":"registerRecipient","inputs":[{"name":"_poolId","type":"uint256","internalType":"uint256"},{"name":"_data","type":"bytes","internalType":"bytes"}],"outputs":[{"name":"","type":"address","internalType":"address"}],"stateMutability":"payable"},{"type":"function","name":"removeFromCloneableStrategies","inputs":[{"name":"_strategy","type":"address","internalType":"address"}],"outputs":[],"stateMutability":"nonpayable"},{"type":"function","name":"removePoolManager","inputs":[{"name":"_poolId","type":"uint256","internalType":"uint256"},{"name":"_manager","type":"address","internalType":"address"}],"outputs":[],"stateMutability":"nonpayable"},{"type":"function","name":"renounceOwnership","inputs":[],"outputs":[],"stateMutability":"payable"},{"type":"function","name":"renounceRole","inputs":[{"name":"role","type":"bytes32","internalType":"bytes32"},{"name":"account","type":"address","internalType":"address"}],"outputs":[],"stateMutability":"nonpayable"},{"type":"function","name":"requestOwnershipHandover","inputs":[],"outputs":[],"stateMutability":"payable"},{"type":"function","name":"revokeRole","inputs":[{"name":"role","type":"bytes32","internalType":"bytes32"},{"name":"account","type":"address","internalType":"address"}],"outputs":[],"stateMutability":"nonpayable"},{"type":"function","name":"supportsInterface","inputs":[{"name":"interfaceId","type":"bytes4","internalType":"bytes4"}],"outputs":[{"name":"","type":"bool","internalType":"bool"}],"stateMutability":"view"},{"type":"function","name":"transferOwnership","inputs":[{"name":"newOwner","type":"address","internalType":"address"}],"outputs":[],"stateMutability":"payable"},{"type":"function","name":"updateBaseFee","inputs":[{"name":"_baseFee","type":"uint256","internalType":"uint256"}],"outputs":[],"stateMutability":"nonpayable"},{"type":"function","name":"updatePercentFee","inputs":[{"name":"_percentFee","type":"uint256","internalType":"uint256"}],"outputs":[],"stateMutability":"nonpayable"},{"type":"function","name":"updatePoolMetadata","inputs":[{"name":"_poolId","type":"uint256","internalType":"uint256"},{"name":"_metadata","type":"tuple","internalType":"struct Metadata","components":[{"name":"protocol","type":"uint256","internalType":"uint256"},{"name":"pointer","type":"string","internalType":"string"}]}],"outputs":[],"stateMutability":"nonpayable"},{"type":"function","name":"updateRegistry","inputs":[{"name":"_registry","type":"address","internalType":"address"}],"outputs":[],"stateMutability":"nonpayable"},{"type":"function","name":"updateTreasury","inputs":[{"name":"_treasury","type":"address","internalType":"address payable"}],"outputs":[],"stateMutability":"nonpayable"},{"type":"event","name":"BaseFeePaid","inputs":[{"name":"poolId","type":"uint256","indexed":true,"internalType":"uint256"},{"name":"amount","type":"uint256","indexed":false,"internalType":"uint256"}],"anonymous":false},{"type":"event","name":"BaseFeeUpdated","inputs":[{"name":"baseFee","type":"uint256","indexed":false,"internalType":"uint256"}],"anonymous":false},{"type":"event","name":"Initialized","inputs":[{"name":"version","type":"uint8","indexed":false,"internalType":"uint8"}],"anonymous":false},{"type":"event","name":"OwnershipHandoverCanceled","inputs":[{"name":"pendingOwner","type":"address","indexed":true,"internalType":"address"}],"anonymous":false},{"type":"event","name":"OwnershipHandoverRequested","inputs":[{"name":"pendingOwner","type":"address","indexed":true,"internalType":"address"}],"anonymous":false},{"type":"event","name":"OwnershipTransferred","inputs":[{"name":"oldOwner","type":"address","indexed":true,"internalType":"address"},{"name":"newOwner","type":"address","indexed":true,"internalType":"address"}],"anonymous":false},{"type":"event","name":"PercentFeeUpdated","inputs":[{"name":"percentFee","type":"uint256","indexed":false,"internalType":"uint256"}],"anonymous":false},{"type":"event","name":"PoolCreated","inputs":[{"name":"poolId","type":"uint256","indexed":true,"internalType":"uint256"},{"name":"profileId","type":"bytes32","indexed":true,"internalType":"bytes32"},{"name":"strategy","type":"address","indexed":false,"internalType":"contract IStrategy"},{"name":"token","type":"address","indexed":false,"internalType":"address"},{"name":"amount","type":"uint256","indexed":false,"internalType":"uint256"},{"name":"metadata","type":"tuple","indexed":false,"internalType":"struct Metadata","components":[{"name":"protocol","type":"uint256","internalType":"uint256"},{"name":"pointer","type":"string","internalType":"string"}]}],"anonymous":false},{"type":"event","name":"PoolFunded","inputs":[{"name":"poolId","type":"uint256","indexed":true,"internalType":"uint256"},{"name":"amount","type":"uint256","indexed":false,"internalType":"uint256"},{"name":"fee","type":"uint256","indexed":false,"internalType":"uint256"}],"anonymous":false},{"type":"event","name":"PoolMetadataUpdated","inputs":[{"name":"poolId","type":"uint256","indexed":true,"internalType":"uint256"},{"name":"metadata","type":"tuple","indexed":false,"internalType":"struct Metadata","components":[{"name":"protocol","type":"uint256","internalType":"uint256"},{"name":"pointer","type":"string","internalType":"string"}]}],"anonymous":false},{"type":"event","name":"RegistryUpdated","inputs":[{"name":"registry","type":"address","indexed":false,"internalType":"address"}],"anonymous":false},{"type":"event","name":"RoleAdminChanged","inputs":[{"name":"role","type":"bytes32","indexed":true,"internalType":"bytes32"},{"name":"previousAdminRole","type":"bytes32","indexed":true,"internalType":"bytes32"},{"name":"newAdminRole","type":"bytes32","indexed":true,"internalType":"bytes32"}],"anonymous":false},{"type":"event","name":"RoleGranted","inputs":[{"name":"role","type":"bytes32","indexed":true,"internalType":"bytes32"},{"name":"account","type":"address","indexed":true,"internalType":"address"},{"name":"sender","type":"address","indexed":true,"internalType":"address"}],"anonymous":false},{"type":"event","name":"RoleRevoked","inputs":[{"name":"role","type":"bytes32","indexed":true,"internalType":"bytes32"},{"name":"account","type":"address","indexed":true,"internalType":"address"},{"name":"sender","type":"address","indexed":true,"internalType":"address"}],"anonymous":false},{"type":"event","name":"StrategyApproved","inputs":[{"name":"strategy","type":"address","indexed":false,"internalType":"address"}],"anonymous":false},{"type":"event","name":"StrategyRemoved","inputs":[{"name":"strategy","type":"address","indexed":false,"internalType":"address"}],"anonymous":false},{"type":"event","name":"TreasuryUpdated","inputs":[{"name":"treasury","type":"address","indexed":false,"internalType":"address"}],"anonymous":false},{"type":"error","name":"ALLOCATION_ACTIVE","inputs":[]},{"type":"error","name":"ALLOCATION_NOT_ACTIVE","inputs":[]},{"type":"error","name":"ALLOCATION_NOT_ENDED","inputs":[]},{"type":"error","name":"ALREADY_INITIALIZED","inputs":[]},{"type":"error","name":"AMOUNT_MISMATCH","inputs":[]},{"type":"error","name":"ANCHOR_ERROR","inputs":[]},{"type":"error","name":"ARRAY_MISMATCH","inputs":[]},{"type":"error","name":"INVALID","inputs":[]},{"type":"error","name":"INVALID_ADDRESS","inputs":[]},{"type":"error","name":"INVALID_FEE","inputs":[]},{"type":"error","name":"INVALID_METADATA","inputs":[]},{"type":"error","name":"INVALID_REGISTRATION","inputs":[]},{"type":"error","name":"IS_APPROVED_STRATEGY","inputs":[]},{"type":"error","name":"MISMATCH","inputs":[]},{"type":"error","name":"NONCE_NOT_AVAILABLE","inputs":[]},{"type":"error","name":"NON_ZERO_VALUE","inputs":[]},{"type":"error","name":"NOT_APPROVED_STRATEGY","inputs":[]},{"type":"error","name":"NOT_ENOUGH_FUNDS","inputs":[]},{"type":"error","name":"NOT_IMPLEMENTED","inputs":[]},{"type":"error","name":"NOT_INITIALIZED","inputs":[]},{"type":"error","name":"NOT_PENDING_OWNER","inputs":[]},{"type":"error","name":"NewOwnerIsZeroAddress","inputs":[]},{"type":"error","name":"NoHandoverRequest","inputs":[]},{"type":"error","name":"POOL_ACTIVE","inputs":[]},{"type":"error","name":"POOL_INACTIVE","inputs":[]},{"type":"error","name":"RECIPIENT_ALREADY_ACCEPTED","inputs":[]},{"type":"error","name":"RECIPIENT_ERROR","inputs":[{"name":"recipientId","type":"address","internalType":"address"}]},{"type":"error","name":"RECIPIENT_NOT_ACCEPTED","inputs":[]},{"type":"error","name":"REGISTRATION_ACTIVE","inputs":[]},{"type":"error","name":"REGISTRATION_NOT_ACTIVE","inputs":[]},{"type":"error","name":"UNAUTHORIZED","inputs":[]},{"type":"error","name":"Unauthorized","inputs":[]},{"type":"error","name":"ZERO_ADDRESS","inputs":[]}],"bytecode":{"object":"0x608060405234801561001057600080fd5b50613384806100206000396000f3fe6080604052600436106102e75760003560e01c80635f9ca13811610184578063ab2ec589116100d6578063e1007d4a1161008a578063f4e1fc4111610064578063f4e1fc41146107e7578063f54fc4a014610802578063fee81cf41461082257600080fd5b8063e1007d4a146107ae578063f04e283e146107c1578063f2fde38b146107d457600080fd5b8063c6dff1cf116100bb578063c6dff1cf14610735578063cfc0cc3414610755578063d547741f1461078e57600080fd5b8063ab2ec589146106f5578063ab3febc61461071557600080fd5b80638da5cb5b11610138578063a0cf0aea11610112578063a0cf0aea14610698578063a217fddf146106c0578063a6b63eb8146106d557600080fd5b80638da5cb5b146106195780638e6901861461063257806391d148541461065257600080fd5b806377da8caf1161016957806377da8caf146105c65780637f51bb1f146105d95780637f5a70bd146105f957600080fd5b80635f9ca1381461059e578063715018a6146105be57600080fd5b80632cf682b01161023d5780633b19e84a116101f157806354d1f13d116101cb57806354d1f13d146105655780635ab1bd531461056d5780635acd6fac1461058b57600080fd5b80633b19e84a1461051257806341bba0b4146105305780634edbaadc1461055057600080fd5b80632f2ff15d116102225780632f2ff15d146104b257806336568abe146104d25780633a5fbd92146104f257600080fd5b80632cf682b01461047f5780632ec381881461049f57600080fd5b80631a20bd881161029f57806324ae6a271161027957806324ae6a2714610437578063256929621461045757806329e40d4b1461045f57600080fd5b80631a20bd88146103ba5780631a5da6c8146103e7578063248a9ca31461040757600080fd5b8063068bcd8d116102d0578063068bcd8d14610343578063075c0e9c1461037057806315e812ad1461039b57600080fd5b806301ffc9a7146102ec578063031e2fa114610321575b600080fd5b3480156102f857600080fd5b5061030c6103073660046127c4565b610855565b60405190151581526020015b60405180910390f35b34801561032d57600080fd5b5061034161033c366004612803565b61088c565b005b34801561034f57600080fd5b5061036361035e366004612820565b6108ec565b60405161031891906128a8565b61038361037e3660046129d0565b6109ff565b6040516001600160a01b039091168152602001610318565b3480156103a757600080fd5b5060ca545b604051908152602001610318565b3480156103c657600080fd5b506103da6103d5366004612acb565b610a9c565b6040516103189190612bbe565b3480156103f357600080fd5b50610341610402366004612803565b610c23565b34801561041357600080fd5b506103ac610422366004612820565b60009081526065602052604090206001015490565b34801561044357600080fd5b50610341610452366004612bd1565b610c37565b610341610ce6565b34801561046b57600080fd5b5061030c61047a366004612c0a565b610d36565b34801561048b57600080fd5b5061034161049a366004612c0a565b610d49565b6103416104ad3660046129d0565b610d96565b3480156104be57600080fd5b506103416104cd366004612c0a565b610db6565b3480156104de57600080fd5b506103416104ed366004612c0a565b610ddb565b3480156104fe57600080fd5b5061034161050d366004612c93565b610e68565b34801561051e57600080fd5b5060cc546001600160a01b0316610383565b34801561053c57600080fd5b5061034161054b366004612803565b610ef0565b34801561055c57600080fd5b5060c9546103ac565b610341610f73565b34801561057957600080fd5b5060cd546001600160a01b0316610383565b610341610599366004612d00565b610faf565b3480156105aa57600080fd5b506103416105b9366004612da5565b611146565b6103416111c3565b6103ac6105d4366004612de2565b6111d7565b3480156105e557600080fd5b506103416105f4366004612803565b61126d565b34801561060557600080fd5b50610341610614366004612c0a565b61127e565b34801561062557600080fd5b50638b78c6d81954610383565b34801561063e57600080fd5b5061034161064d366004612820565b6112a4565b34801561065e57600080fd5b5061030c61066d366004612c0a565b60009182526065602090815260408084206001600160a01b0393909316845291905290205460ff1690565b3480156106a457600080fd5b5061038373eeeeeeeeeeeeeeeeeeeeeeeeeeeeeeeeeeeeeeee81565b3480156106cc57600080fd5b506103ac600081565b3480156106e157600080fd5b506103416106f0366004612ea5565b6112b5565b34801561070157600080fd5b5061030c610710366004612803565b6113d3565b34801561072157600080fd5b5061030c610730366004612c0a565b6113f4565b34801561074157600080fd5b50610341610750366004612f00565b611400565b34801561076157600080fd5b50610383610770366004612820565b600090815260cf60205260409020600101546001600160a01b031690565b34801561079a57600080fd5b506103416107a9366004612c0a565b611485565b6103ac6107bc366004612de2565b6114aa565b6103416107cf366004612803565b611528565b6103416107e2366004612803565b611565565b3480156107f357600080fd5b50670de0b6b3a76400006103ac565b34801561080e57600080fd5b5061034161081d366004612820565b61158c565b34801561082e57600080fd5b506103ac61083d366004612803565b63389a75e1600c908152600091909152602090205490565b60006001600160e01b03198216637965db0b60e01b148061088657506301ffc9a760e01b6001600160e01b03198316145b92915050565b61089461159d565b6001600160a01b038116600081815260d06020908152604091829020805460ff1916905590519182527f09a1db4b80c32706328728508c941a6b954f31eb5affd32f236c1fd405f8fea491015b60405180910390a150565b6108f461275e565b600082815260cf6020908152604091829020825160c0810184528154815260018201546001600160a01b0390811682850152600283015416818501528351808501909452600382018054855260048301805492959394606087019493908401919061095e90612f8d565b80601f016020809104026020016040519081016040528092919081815260200182805461098a90612f8d565b80156109d75780601f106109ac576101008083540402835291602001916109d7565b820191906000526020600020905b8154815290600101906020018083116109ba57829003601f168201915b5050505050815250508152602001600582015481526020016006820154815250509050919050565b6000610a096115b8565b600083815260cf6020526040908190206001015490516315df065760e11b81526001600160a01b0390911690632bbe0cae903490610a4d9086903390600401612fc7565b60206040518083038185885af1158015610a6b573d6000803e3d6000fd5b50505050506040513d601f19601f82011682018060405250810190610a909190612ff2565b90506108866001609755565b6060610aa66115b8565b82518067ffffffffffffffff811115610ac157610ac1612911565b604051908082528060200260200182016040528015610aea578160200160208202803683370190505b50915082518114610b0e5760405163636e39bb60e01b815260040160405180910390fd5b60005b81811015610c175760cf6000868381518110610b2f57610b2f61300f565b6020026020010151815260200190815260200160002060010160009054906101000a90046001600160a01b03166001600160a01b0316632bbe0cae858381518110610b7c57610b7c61300f565b6020026020010151336040518363ffffffff1660e01b8152600401610ba2929190612fc7565b6020604051808303816000875af1158015610bc1573d6000803e3d6000fd5b505050506040513d601f19601f82011682018060405250810190610be59190612ff2565b838281518110610bf757610bf761300f565b6001600160a01b0390921660209283029190910190910152600101610b11565b50506108866001609755565b610c2b61159d565b610c3481611611565b50565b610c3f61159d565b60006001600160a01b03831673eeeeeeeeeeeeeeeeeeeeeeeeeeeeeeeeeeeeeeee14610cd2576040516370a0823160e01b81523060048201526001600160a01b038416906370a0823190602401602060405180830381865afa158015610ca9573d6000803e3d6000fd5b505050506040513d601f19601f82011682018060405250810190610ccd9190613025565b610cd4565b475b9050610ce1838383611686565b505050565b60006202a30067ffffffffffffffff164201905063389a75e1600c5233600052806020600c2055337fdbf36a107da19e49527a7176a1babf963b4b0ff8cde35ee35d6cd8f1f9ac7e1d600080a250565b6000610d4283836116c0565b9392505050565b81610d5381611703565b6001600160a01b038216610d7a5760405163538ba4f960e01b815260040160405180910390fd5b600083815260cf6020526040902060050154610ce1908361172a565b610d9e6115b8565b610da882826117cc565b610db26001609755565b5050565b600082815260656020526040902060010154610dd181611846565b610ce1838361172a565b6001600160a01b0381163314610e5e5760405162461bcd60e51b815260206004820152602f60248201527f416363657373436f6e74726f6c3a2063616e206f6e6c792072656e6f756e636560448201527f20726f6c657320666f722073656c66000000000000000000000000000000000060648201526084015b60405180910390fd5b610db28282611850565b610e706115b8565b600083815260cf602052604090819020600101549051630a6f0ee960e01b81526001600160a01b0390911690630a6f0ee990610eb49085908590339060040161303e565b600060405180830381600087803b158015610ece57600080fd5b505af1158015610ee2573d6000803e3d6000fd5b50505050610ce16001609755565b610ef861159d565b6001600160a01b038116610f1f5760405163538ba4f960e01b815260040160405180910390fd5b6001600160a01b038116600081815260d06020908152604091829020805460ff1916600117905590519182527f960dd94cbb79169f09a4e445d58b895df2d9bffa5b31055d0932d801724a20d191016108e1565b63389a75e1600c523360005260006020600c2055337ffa7b8eab7da67f412cc9575ed43464468f9bfbae89d1675917346ca6d8fe3c92600080a2565b610fb76115b8565b80600003610fd8576040516303e09bb960e31b815260040160405180910390fd5b600082815260cf60209081526040808320815160c0810183528154815260018201546001600160a01b039081168286015260028301541681840152825180840190935260038201805484526004830180549295939460608701949093908401919061104290612f8d565b80601f016020809104026020016040519081016040528092919081815260200182805461106e90612f8d565b80156110bb5780601f10611090576101008083540402835291602001916110bb565b820191906000526020600020905b81548152906001019060200180831161109e57829003601f168201915b505050919092525050508152600582015460208201526006909101546040918201528101519091506001600160a01b031673eeeeeeeeeeeeeeeeeeeeeeeeeeeeeeeeeeeeeeee14801561110e5750348214155b1561112c576040516303e09bb960e31b815260040160405180910390fd5b61113b828483602001516118d3565b50610db26001609755565b8161115081611b85565b600083815260cf602090815260409091208351600382019081559184015190918491600484019061118190826130cb565b50905050837f14f52b76bda9e4c482842cefda2968d332933577988f224e80aae18fba10edf0846040516111b5919061318b565b60405180910390a250505050565b6111cb61159d565b6111d56000611b8f565b565b60006111e16115b8565b6001600160a01b038716600090815260d0602052604090205460ff1661121a5760405163126d324760e31b815260040160405180910390fd5b33600090815260ce602052604081208054611256928b9261124c928c92909190611243836131b4565b91905055611bcd565b8888888888611c21565b90506112626001609755565b979650505050505050565b61127561159d565b610c3481612105565b8161128881611703565b600083815260cf6020526040902060050154610ce19083611850565b6112ac61159d565b610c348161217a565b600054600190610100900460ff161580156112d7575060005460ff8083169116105b6113495760405162461bcd60e51b815260206004820152602e60248201527f496e697469616c697a61626c653a20636f6e747261637420697320616c72656160448201527f647920696e697469616c697a65640000000000000000000000000000000000006064820152608401610e55565b6000805461ffff191660ff831617610100179055611366866121af565b61136f85611611565b61137884612105565b611381836121eb565b61138a8261217a565b6000805461ff001916905560405160ff821681527f7f26b83ff96e1f2b6a682f133852f6798a09c465da95921460cefb38474024989060200160405180910390a1505050505050565b6001600160a01b038116600090815260d0602052604081205460ff16610886565b6000610d428383612249565b6114086115b8565b80518290811461142b5760405163636e39bb60e01b815260040160405180910390fd5b60005b818110156114795761147185858381811061144b5761144b61300f565b905060200201358483815181106114645761146461300f565b60200260200101516117cc565b60010161142e565b5050610ce16001609755565b6000828152606560205260409020600101546114a081611846565b610ce18383611850565b60006001600160a01b0387166114d35760405163538ba4f960e01b815260040160405180910390fd5b6001600160a01b038716600090815260d0602052604090205460ff161561150d5760405163eeffa72160e01b815260040160405180910390fd5b61151c88888888888888611c21565b98975050505050505050565b61153061159d565b63389a75e1600c52806000526020600c20805442111561155857636f5e88186000526004601cfd5b60009055610c3481611b8f565b61156d61159d565b8060601b61158357637448fbae6000526004601cfd5b610c3481611b8f565b61159461159d565b610c34816121eb565b638b78c6d8195433146111d5576382b429006000526004601cfd5b60026097540361160a5760405162461bcd60e51b815260206004820152601f60248201527f5265656e7472616e637947756172643a207265656e7472616e742063616c6c006044820152606401610e55565b6002609755565b6001600160a01b0381166116385760405163538ba4f960e01b815260040160405180910390fd5b60cd80546001600160a01b0319166001600160a01b0383169081179091556040519081527fd6ceddf6d2a22f21c7c81675c518004eff43bc5c8a6fc32a0b748e69d58671cd906020016108e1565b73eeeeeeeeeeeeeeeeeeeeeeeeeeeeeeeeeeeeeeed196001600160a01b038416016116b557610ce18282612281565b610ce183838361229d565b600082815260cf60209081526040808320600501548352606582528083206001600160a01b038516845290915281205460ff1680610d425750610d428383612249565b61170d8133612249565b610c345760405163075fd2b160e01b815260040160405180910390fd5b60008281526065602090815260408083206001600160a01b038516845290915290205460ff16610db25760008281526065602090815260408083206001600160a01b03851684529091529020805460ff191660011790556117883390565b6001600160a01b0316816001600160a01b0316837f2f8788117e7eff1d82e926ec794901d17c78024a50270940304540a733656f0d60405160405180910390a45050565b600082815260cf602052604090819020600101549051633bca483f60e21b81526001600160a01b039091169063ef2920fc9034906118109085903390600401612fc7565b6000604051808303818588803b15801561182957600080fd5b505af115801561183d573d6000803e3d6000fd5b50505050505050565b610c3481336122ec565b60008281526065602090815260408083206001600160a01b038516845290915290205460ff1615610db25760008281526065602090815260408083206001600160a01b0385168085529252808320805460ff1916905551339285917ff6391f5c32d9c69d2a47ea670b442974b53935d1edc7fd64eb21e047a839171b9190a45050565b600082815260cf60205260408120600281015460c9548692916001600160a01b03169015611a2457670de0b6b3a764000060c95461191190896131cd565b61191b91906131e4565b93506119278484613206565b9250866119348486613219565b1461195257604051637fcce2a960e01b815260040160405180910390fd5b73eeeeeeeeeeeeeeeeeeeeeeeeeeeeeeeeeeeeeeed196001600160a01b038216016119ac576040805160608101825233815260cc546001600160a01b031660208201529081018590526119a6908290612361565b50611a24565b60cc546000906119c69083906001600160a01b03166123e0565b6040805160608101825233815260cc546001600160a01b031660208201529081018790529091506119f8908390612361565b5060cc54600090611a139084906001600160a01b03166123e0565b9050611a1f8282613206565b955050505b73eeeeeeeeeeeeeeeeeeeeeeeeeeeeeeeeeeeeeeed196001600160a01b03821601611a8557611a7f816040518060600160405280336001600160a01b03168152602001886001600160a01b0316815260200186815250612361565b50611ae7565b6000611a9182876123e0565b9050611ac9826040518060600160405280336001600160a01b03168152602001896001600160a01b0316815260200187815250612361565b506000611ad683886123e0565b9050611ae28282613206565b945050505b60405163f5b0dfb760e01b8152600481018490526001600160a01b0386169063f5b0dfb790602401600060405180830381600087803b158015611b2957600080fd5b505af1158015611b3d573d6000803e3d6000fd5b505060408051868152602081018890528993507fbf59838198f4ea92f663f5c1fc697f151a1b746b7dff86d564f250a55cbb485192500160405180910390a250505050505050565b61170d81336116c0565b638b78c6d81980546001600160a01b039092169182907f8be0079c531659141344cd1fd0a4f28419497f9722a3daafe3b4186f6b6457e0600080a355565b6040516bffffffffffffffffffffffff193360601b166020820152603481018290526000908190605401604051602081830303815290604052805190602001209050611c198482612429565b949350505050565b60cd54604051635e8a791560e01b8152600481018990523360248201526000916001600160a01b031690635e8a791590604401602060405180830381865afa158015611c71573d6000803e3d6000fd5b505050506040513d601f19601f82011682018060405250810190611c95919061322c565b611cb25760405163075fd2b160e01b815260040160405180910390fd5b60cb60008154611cc1906131b4565b91829055506040519091508190600090611cf19083906020019081526430b236b4b760d91b602082015260250190565b60408051601f19818403018152828252805160209182012060c0840183528d84526001600160a01b03808e168584019081528c8216868601908152606087018c8152608088018a905260a0880185905260008b815260cf8752969096208751815591516001830180549185166001600160a01b031992831617905590516002830180549190941691161790915592518051600385019081559281015191955084939290916004840190611da490826130cb565b5050506080820151600582015560a090910151600690910155611dc7823361172a565b611dd183836124c6565b604051633b7451b360e21b81526001600160a01b038b169063edd146cc90611dff9087908d9060040161324e565b600060405180830381600087803b158015611e1957600080fd5b505af1158015611e2d573d6000803e3d6000fd5b50505050838a6001600160a01b03166338fff2d06040518163ffffffff1660e01b8152600401602060405180830381865afa158015611e70573d6000803e3d6000fd5b505050506040513d601f19601f82011682018060405250810190611e949190613025565b141580611f145750306001600160a01b03168a6001600160a01b03166315cc481e6040518163ffffffff1660e01b8152600401602060405180830381865afa158015611ee4573d6000803e3d6000fd5b505050506040513d601f19601f82011682018060405250810190611f089190612ff2565b6001600160a01b031614155b15611f325760405163636e39bb60e01b815260040160405180910390fd5b845160005b81811015611fa3576000878281518110611f5357611f5361300f565b6020026020010151905060006001600160a01b0316816001600160a01b031603611f905760405163538ba4f960e01b815260040160405180910390fd5b611f9a868261172a565b50600101611f37565b5060ca54156120a6576001600160a01b03891673eeeeeeeeeeeeeeeeeeeeeeeeeeeeeeeeeeeeeeee148015611fe55750348860ca54611fe29190613219565b14155b8061201a57506001600160a01b03891673eeeeeeeeeeeeeeeeeeeeeeeeeeeeeeeeeeeeeeee1480159061201a57503460ca5414155b15612038576040516303e09bb960e31b815260040160405180910390fd5b60cc5460ca546120699173eeeeeeeeeeeeeeeeeeeeeeeeeeeeeeeeeeeeeeee916001600160a01b0390911690611686565b847f02e340b51c6ae66fd22509c9b016f224c47a54063d4259fe3d860958e9eaac7260ca5460405161209d91815260200190565b60405180910390a25b87156120b7576120b788868d6118d3565b8b857f69bcb5a6cf6a3c95185cbb451e77787240c866dd2e8332597e3013ff18a1aba18d8c8c8c6040516120ee9493929190613267565b60405180910390a350505050979650505050505050565b6001600160a01b03811661212c5760405163538ba4f960e01b815260040160405180910390fd5b60cc80546001600160a01b0319166001600160a01b0383169081179091556040519081527f7dae230f18360d76a040c81f050aa14eb9d6dc7901b20fc5d855e2a20fe814d1906020016108e1565b60ca8190556040518181527f803bee7e92bbc6ae7a1551f9f4ed3e31a8ea8df32e93332f41b0028f1091f9c3906020016108e1565b6001600160a01b0316638b78c6d8198190558060007f8be0079c531659141344cd1fd0a4f28419497f9722a3daafe3b4186f6b6457e08180a350565b670de0b6b3a764000081111561221457604051632fb15b8760e01b815260040160405180910390fd5b60c98190556040518181527f9e826789de2de708fd9f09edea1182545e543893caa8ff71f8eb3aab50a4b065906020016108e1565b600082815260cf60209081526040808320600601548352606582528083206001600160a01b038516845290915281205460ff16610d42565b60008060008084865af1610db25763b12d13eb6000526004601cfd5b81601452806034526fa9059cbb00000000000000000000000060005260206000604460106000875af13d1560016000511417166122e2576390b8ec186000526004601cfd5b6000603452505050565b60008281526065602090815260408083206001600160a01b038516845290915290205460ff16610db25761231f81612511565b61232a836020612523565b60405160200161233b9291906132a3565b60408051601f198184030181529082905262461bcd60e51b8252610e5591600401613324565b604081015160009073eeeeeeeeeeeeeeeeeeeeeeeeeeeeeeeeeeeeeeed196001600160a01b038516016123c257803410156123af576040516374c5672b60e01b815260040160405180910390fd5b6123bd836020015182612281565b6123d6565b6123d68484600001518560200151846126cc565b5060019392505050565b600073eeeeeeeeeeeeeeeeeeeeeeeeeeeeeeeeeeeeeeed196001600160a01b0384160161241857506001600160a01b03811631610886565b6124228383612729565b9050610886565b6000763d602d80600a3d3981f3363d3d373d3d3d363d730000008360601b60e81c176000526e5af43d82803e903d91602b57fd5bf38360781b1760205281603760096000f590506001600160a01b0381166108865760405162461bcd60e51b815260206004820152601760248201527f455243313136373a2063726561746532206661696c65640000000000000000006044820152606401610e55565b600082815260656020526040808220600101805490849055905190918391839186917fbd79b86ffe0ab8e8776151514217cd7cacd52c909f66475c3af44e129f0b00ff9190a4505050565b60606108866001600160a01b03831660145b606060006125328360026131cd565b61253d906002613219565b67ffffffffffffffff81111561255557612555612911565b6040519080825280601f01601f19166020018201604052801561257f576020820181803683370190505b509050600360fc1b8160008151811061259a5761259a61300f565b60200101906001600160f81b031916908160001a905350600f60fb1b816001815181106125c9576125c961300f565b60200101906001600160f81b031916908160001a90535060006125ed8460026131cd565b6125f8906001613219565b90505b600181111561267d577f303132333435363738396162636465660000000000000000000000000000000085600f16601081106126395761263961300f565b1a60f81b82828151811061264f5761264f61300f565b60200101906001600160f81b031916908160001a90535060049490941c9361267681613337565b90506125fb565b508315610d425760405162461bcd60e51b815260206004820181905260248201527f537472696e67733a20686578206c656e67746820696e73756666696369656e746044820152606401610e55565b60405181606052826040528360601b602c526f23b872dd000000000000000000000000600c52602060006064601c6000895af13d15600160005114171661271b57637939f4246000526004601cfd5b600060605260405250505050565b6000816014526f70a0823100000000000000000000000060005260208060246010865afa601f3d111660205102905092915050565b6040518060c001604052806000801916815260200160006001600160a01b0316815260200160006001600160a01b031681526020016127b0604051806040016040528060008152602001606081525090565b815260006020820181905260409091015290565b6000602082840312156127d657600080fd5b81356001600160e01b031981168114610d4257600080fd5b6001600160a01b0381168114610c3457600080fd5b60006020828403121561281557600080fd5b8135610d42816127ee565b60006020828403121561283257600080fd5b5035919050565b60005b8381101561285457818101518382015260200161283c565b50506000910152565b60008151808452612875816020860160208601612839565b601f01601f19169290920160200192915050565b805182526000602082015160406020850152611c19604085018261285d565b6020815281516020820152600060208301516001600160a01b0380821660408501528060408601511660608501525050606083015160c060808401526128f160e0840182612889565b9050608084015160a084015260a084015160c08401528091505092915050565b634e487b7160e01b600052604160045260246000fd5b604051601f8201601f1916810167ffffffffffffffff8111828210171561295057612950612911565b604052919050565b600067ffffffffffffffff83111561297257612972612911565b612985601f8401601f1916602001612927565b905082815283838301111561299957600080fd5b828260208301376000602084830101529392505050565b600082601f8301126129c157600080fd5b610d4283833560208501612958565b600080604083850312156129e357600080fd5b82359150602083013567ffffffffffffffff811115612a0157600080fd5b612a0d858286016129b0565b9150509250929050565b600067ffffffffffffffff821115612a3157612a31612911565b5060051b60200190565b600082601f830112612a4c57600080fd5b81356020612a61612a5c83612a17565b612927565b82815260059290921b84018101918181019086841115612a8057600080fd5b8286015b84811015612ac057803567ffffffffffffffff811115612aa45760008081fd5b612ab28986838b01016129b0565b845250918301918301612a84565b509695505050505050565b60008060408385031215612ade57600080fd5b823567ffffffffffffffff80821115612af657600080fd5b818501915085601f830112612b0a57600080fd5b81356020612b1a612a5c83612a17565b82815260059290921b84018101918181019089841115612b3957600080fd5b948201945b83861015612b5757853582529482019490820190612b3e565b96505086013592505080821115612b6d57600080fd5b50612a0d85828601612a3b565b600081518084526020808501945080840160005b83811015612bb35781516001600160a01b031687529582019590820190600101612b8e565b509495945050505050565b602081526000610d426020830184612b7a565b60008060408385031215612be457600080fd5b8235612bef816127ee565b91506020830135612bff816127ee565b809150509250929050565b60008060408385031215612c1d57600080fd5b823591506020830135612bff816127ee565b600082601f830112612c4057600080fd5b81356020612c50612a5c83612a17565b82815260059290921b84018101918181019086841115612c6f57600080fd5b8286015b84811015612ac0578035612c86816127ee565b8352918301918301612c73565b600080600060608486031215612ca857600080fd5b83359250602084013567ffffffffffffffff80821115612cc757600080fd5b612cd387838801612c2f565b93506040860135915080821115612ce957600080fd5b50612cf6868287016129b0565b9150509250925092565b60008060408385031215612d1357600080fd5b50508035926020909101359150565b600060408284031215612d3457600080fd5b6040516040810167ffffffffffffffff8282108183111715612d5857612d58612911565b81604052829350843583526020850135915080821115612d7757600080fd5b508301601f81018513612d8957600080fd5b612d9885823560208401612958565b6020830152505092915050565b60008060408385031215612db857600080fd5b82359150602083013567ffffffffffffffff811115612dd657600080fd5b612a0d85828601612d22565b600080600080600080600060e0888a031215612dfd57600080fd5b873596506020880135612e0f816127ee565b9550604088013567ffffffffffffffff80821115612e2c57600080fd5b612e388b838c016129b0565b965060608a01359150612e4a826127ee565b9094506080890135935060a08901359080821115612e6757600080fd5b612e738b838c01612d22565b935060c08a0135915080821115612e8957600080fd5b50612e968a828b01612c2f565b91505092959891949750929550565b600080600080600060a08688031215612ebd57600080fd5b8535612ec8816127ee565b94506020860135612ed8816127ee565b93506040860135612ee8816127ee565b94979396509394606081013594506080013592915050565b600080600060408486031215612f1557600080fd5b833567ffffffffffffffff80821115612f2d57600080fd5b818601915086601f830112612f4157600080fd5b813581811115612f5057600080fd5b8760208260051b8501011115612f6557600080fd5b602092830195509350908501359080821115612f8057600080fd5b50612cf686828701612a3b565b600181811c90821680612fa157607f821691505b602082108103612fc157634e487b7160e01b600052602260045260246000fd5b50919050565b604081526000612fda604083018561285d565b90506001600160a01b03831660208301529392505050565b60006020828403121561300457600080fd5b8151610d42816127ee565b634e487b7160e01b600052603260045260246000fd5b60006020828403121561303757600080fd5b5051919050565b6060815260006130516060830186612b7a565b8281036020840152613063818661285d565b9150506001600160a01b0383166040830152949350505050565b601f821115610ce157600081815260208120601f850160051c810160208610156130a45750805b601f850160051c820191505b818110156130c3578281556001016130b0565b505050505050565b815167ffffffffffffffff8111156130e5576130e5612911565b6130f9816130f38454612f8d565b8461307d565b602080601f83116001811461312e57600084156131165750858301515b600019600386901b1c1916600185901b1785556130c3565b600085815260208120601f198616915b8281101561315d5788860151825594840194600190910190840161313e565b508582101561317b5787850151600019600388901b60f8161c191681555b5050505050600190811b01905550565b602081526000610d426020830184612889565b634e487b7160e01b600052601160045260246000fd5b6000600182016131c6576131c661319e565b5060010190565b80820281158282048414176108865761088661319e565b60008261320157634e487b7160e01b600052601260045260246000fd5b500490565b818103818111156108865761088661319e565b808201808211156108865761088661319e565b60006020828403121561323e57600080fd5b81518015158114610d4257600080fd5b828152604060208201526000611c19604083018461285d565b60006001600160a01b038087168352808616602084015250836040830152608060608301526132996080830184612889565b9695505050505050565b7f416363657373436f6e74726f6c3a206163636f756e74200000000000000000008152600083516132db816017850160208801612839565b7f206973206d697373696e6720726f6c65200000000000000000000000000000006017918401918201528351613318816028840160208801612839565b01602801949350505050565b602081526000610d42602083018461285d565b6000816133465761334661319e565b50600019019056fea2646970667358221220f14f31ff2d523771b89f0513c8aa616b014f035468e8e51be77bd89728cfc38b64736f6c63430008130033","linkReferences":{}},"methodIdentifiers":{"DEFAULT_ADMIN_ROLE()":"a217fddf","NATIVE()":"a0cf0aea","addPoolManager(uint256,address)":"2cf682b0","addToCloneableStrategies(address)":"41bba0b4","allocate(uint256,bytes)":"2ec38188","batchAllocate(uint256[],bytes[])":"c6dff1cf","batchRegisterRecipient(uint256[],bytes[])":"1a20bd88","cancelOwnershipHandover()":"54d1f13d","completeOwnershipHandover(address)":"f04e283e","createPool(bytes32,address,bytes,address,uint256,(uint256,string),address[])":"77da8caf","createPoolWithCustomStrategy(bytes32,address,bytes,address,uint256,(uint256,string),address[])":"e1007d4a","distribute(uint256,address[],bytes)":"3a5fbd92","fundPool(uint256,uint256)":"5acd6fac","getBaseFee()":"15e812ad","getFeeDenominator()":"f4e1fc41","getPercentFee()":"4edbaadc","getPool(uint256)":"068bcd8d","getRegistry()":"5ab1bd53","getRoleAdmin(bytes32)":"248a9ca3","getStrategy(uint256)":"cfc0cc34","getTreasury()":"3b19e84a","grantRole(bytes32,address)":"2f2ff15d","hasRole(bytes32,address)":"91d14854","initialize(address,address,address,uint256,uint256)":"a6b63eb8","isCloneableStrategy(address)":"ab2ec589","isPoolAdmin(uint256,address)":"ab3febc6","isPoolManager(uint256,address)":"29e40d4b","owner()":"8da5cb5b","ownershipHandoverExpiresAt(address)":"fee81cf4","recoverFunds(address,address)":"24ae6a27","registerRecipient(uint256,bytes)":"075c0e9c","removeFromCloneableStrategies(address)":"031e2fa1","removePoolManager(uint256,address)":"7f5a70bd","renounceOwnership()":"715018a6","renounceRole(bytes32,address)":"36568abe","requestOwnershipHandover()":"25692962","revokeRole(bytes32,address)":"d547741f","supportsInterface(bytes4)":"01ffc9a7","transferOwnership(address)":"f2fde38b","updateBaseFee(uint256)":"8e690186","updatePercentFee(uint256)":"f54fc4a0","updatePoolMetadata(uint256,(uint256,string))":"5f9ca138","updateRegistry(address)":"1a5da6c8","updateTreasury(address)":"7f51bb1f"},"id":0}