{"abi":[{"type":"function","name":"executeLaw","inputs":[{"name":"caller","type":"address","internalType":"address"},{"name":"lawId","type":"uint16","internalType":"uint16"},{"name":"lawCalldata","type":"bytes","internalType":"bytes"},{"name":"nonce","type":"uint256","internalType":"uint256"}],"outputs":[{"name":"success","type":"bool","internalType":"bool"}],"stateMutability":"nonpayable"},{"type":"function","name":"getConfig","inputs":[{"name":"powers","type":"address","internalType":"address"},{"name":"lawId","type":"uint16","internalType":"uint16"}],"outputs":[{"name":"config","type":"bytes","internalType":"bytes"}],"stateMutability":"view"},{"type":"function","name":"getConfigData","inputs":[{"name":"powers","type":"address","internalType":"address"},{"name":"lawId","type":"uint16","internalType":"uint16"}],"outputs":[{"name":"","type":"tuple","internalType":"struct CreateEasyRPGFPool.ConfigData","components":[{"name":"allo","type":"address","internalType":"address"},{"name":"profileId","type":"bytes32","internalType":"bytes32"},{"name":"easyRPGFStrategy","type":"address","internalType":"address"}]}],"stateMutability":"view"},{"type":"function","name":"getInputParams","inputs":[{"name":"powers","type":"address","internalType":"address"},{"name":"lawId","type":"uint16","internalType":"uint16"}],"outputs":[{"name":"inputParams","type":"bytes","internalType":"bytes"}],"stateMutability":"view"},{"type":"function","name":"getNameDescription","inputs":[{"name":"powers","type":"address","internalType":"address"},{"name":"lawId","type":"uint16","internalType":"uint16"}],"outputs":[{"name":"nameDescription","type":"string","internalType":"string"}],"stateMutability":"view"},{"type":"function","name":"handleRequest","inputs":[{"name":"caller","type":"address","internalType":"address"},{"name":"powers","type":"address","internalType":"address"},{"name":"lawId","type":"uint16","internalType":"uint16"},{"name":"lawCalldata","type":"bytes","internalType":"bytes"},{"name":"nonce","type":"uint256","internalType":"uint256"}],"outputs":[{"name":"actionId","type":"uint256","internalType":"uint256"},{"name":"targets","type":"address[]","internalType":"address[]"},{"name":"values","type":"uint256[]","internalType":"uint256[]"},{"name":"calldatas","type":"bytes[]","internalType":"bytes[]"}],"stateMutability":"view"},{"type":"function","name":"initializeLaw","inputs":[{"name":"index","type":"uint16","internalType":"uint16"},{"name":"nameDescription","type":"string","internalType":"string"},{"name":"inputParamsAbi","type":"bytes","internalType":"bytes"},{"name":"config","type":"bytes","internalType":"bytes"}],"outputs":[],"stateMutability":"nonpayable"},{"type":"function","name":"lawConfig","inputs":[{"name":"lawHash","type":"bytes32","internalType":"bytes32"}],"outputs":[{"name":"allo","type":"address","internalType":"address"},{"name":"profileId","type":"bytes32","internalType":"bytes32"},{"name":"easyRPGFStrategy","type":"address","internalType":"address"}],"stateMutability":"view"},{"type":"function","name":"laws","inputs":[{"name":"lawHash","type":"bytes32","internalType":"bytes32"}],"outputs":[{"name":"nameDescription","type":"string","internalType":"string"},{"name":"inputParams","type":"bytes","internalType":"bytes"},{"name":"config","type":"bytes","internalType":"bytes"},{"name":"powers","type":"address","internalType":"address"}],"stateMutability":"view"},{"type":"function","name":"supportsInterface","inputs":[{"name":"interfaceId","type":"bytes4","internalType":"bytes4"}],"outputs":[{"name":"","type":"bool","internalType":"bool"}],"stateMutability":"view"},{"type":"event","name":"Law__Deployed","inputs":[{"name":"configParams","type":"bytes","indexed":false,"internalType":"bytes"}],"anonymous":false},{"type":"event","name":"Law__Initialized","inputs":[{"name":"powers","type":"address","indexed":true,"internalType":"address"},{"name":"index","type":"uint16","indexed":true,"internalType":"uint16"},{"name":"nameDescription","type":"string","indexed":false,"internalType":"string"},{"name":"inputParams","type":"bytes","indexed":false,"internalType":"bytes"},{"name":"config","type":"bytes","indexed":false,"internalType":"bytes"}],"anonymous":false}],"bytecode":{"object":"0x6080604052348015600e575f80fd5b50611b738061001c5f395ff3fe608060405234801561000f575f80fd5b50600436106100b9575f3560e01c80637bf5b2fb11610072578063d8a941f411610058578063d8a941f414610186578063e33459a314610199578063eb5a1b7c146101dc575f80fd5b80637bf5b2fb14610160578063c0d27aad14610173575f80fd5b80630d157721116100a25780630d157721146100fa5780630db07d581461011a578063552cb3721461013d575f80fd5b806301ffc9a7146100bd578063040b1100146100e5575b5f80fd5b6100d06100cb3660046110ef565b610240565b60405190151581526020015b60405180910390f35b6100f86100f33660046111f4565b610276565b005b61010d6101083660046112bc565b6103a0565b6040516100dc9190611321565b61012d610128366004611333565b6104c9565b6040516100dc949392919061134a565b61015061014b36600461139d565b61068b565b6040516100dc94939291906114e2565b6100d061016e36600461152b565b610a66565b61010d6101813660046112bc565b610bbd565b61010d6101943660046112bc565b610c63565b6101ac6101a73660046112bc565b610d09565b6040805182516001600160a01b0390811682526020808501519083015292820151909216908201526060016100dc565b6102166101ea366004611333565b600160208190525f91825260409091208054918101546002909101546001600160a01b03928316921683565b604080516001600160a01b03948516815260208101939093529216918101919091526060016100dc565b5f6001600160e01b03198216632ad2108960e01b148061027057506301ffc9a760e01b6001600160e01b03198316145b92915050565b5f805f8380602001905181019061028d91906115c0565b60405163195cb93f60e31b815233600482015261ffff8b16602482015292955090935091505f9073__$da6f5012babb472fe138ca3bf3d5984061$__9063cae5c9f890604401602060405180830381865af41580156102ee573d5f803e3d5ffd5b505050506040513d601f19601f820116820180604052508101906103129190611600565b604080516060810182526001600160a01b03808816825260208083018881528783168486019081525f878152600193849052959095209351845490841673ffffffffffffffffffffffffffffffffffffffff199182161785559051918401919091559251600290920180549290911691909216179055905061039688888888610e4e565b5050505050505050565b60405163195cb93f60e31b81526001600160a01b038316600482015261ffff821660248201526060905f90819073__$da6f5012babb472fe138ca3bf3d5984061$__9063cae5c9f890604401602060405180830381865af4158015610407573d5f803e3d5ffd5b505050506040513d601f19601f8201168201806040525081019061042b9190611600565b81526020019081526020015f205f01805461044590611617565b80601f016020809104026020016040519081016040528092919081815260200182805461047190611617565b80156104bc5780601f10610493576101008083540402835291602001916104bc565b820191905f5260205f20905b81548152906001019060200180831161049f57829003601f168201915b5050505050905092915050565b5f602081905290815260409020805481906104e390611617565b80601f016020809104026020016040519081016040528092919081815260200182805461050f90611617565b801561055a5780601f106105315761010080835404028352916020019161055a565b820191905f5260205f20905b81548152906001019060200180831161053d57829003601f168201915b50505050509080600101805461056f90611617565b80601f016020809104026020016040519081016040528092919081815260200182805461059b90611617565b80156105e65780601f106105bd576101008083540402835291602001916105e6565b820191905f5260205f20905b8154815290600101906020018083116105c957829003601f168201915b5050505050908060020180546105fb90611617565b80601f016020809104026020016040519081016040528092919081815260200182805461062790611617565b80156106725780601f1061064957610100808354040283529160200191610672565b820191905f5260205f20905b81548152906001019060200180831161065557829003601f168201915b505050600390930154919250506001600160a01b031684565b60405163195cb93f60e31b81526001600160a01b038516600482015261ffff841660248201525f9060609081908190849073__$da6f5012babb472fe138ca3bf3d5984061$__9063cae5c9f890604401602060405180830381865af41580156106f6573d5f803e3d5ffd5b505050506040513d601f19601f8201168201806040525081019061071a9190611600565b5f81815260016020818152604092839020835160608101855281546001600160a01b03908116808352948301549382019390935260029091015490911692810192909252919250906107a85760405162461bcd60e51b815260206004820152601260248201527113185dc81b9bdd0818dbdb999a59dd5c995960721b60448201526064015b60405180910390fd5b6107b061108e565b604051630bcec85560e01b815273__$da6f5012babb472fe138ca3bf3d5984061$__90630bcec855906107eb908d908d908d9060040161164f565b602060405180830381865af4158015610806573d5f803e3d5ffd5b505050506040513d601f19601f8201168201806040525081019061082a9190611600565b965088806020019051810190610840919061167b565b61ffff166040848101919091526020808501929092526001600160a01b0392909216835281515f818301528251808203830181529083018352606084015281516001808252818401909352919082810190803683375050506080820181905280518c91905f906108b2576108b26116b0565b6001600160a01b0390921660209283029190910182015260408051808201825260018152815180840183525f81528184015260a08401819052848301518583015160608601518651958701516080880151955163e1007d4a9761092197959694959394909390916024016116c4565b60408051601f198184030181529181526020820180517bffffffffffffffffffffffffffffffffffffffffffffffffffffffff1660e09490941b9390931790925260c08301525163054591f760e11b81526001600482015273__$da6f5012babb472fe138ca3bf3d5984061$__90630a8b23ee906024015f60405180830381865af41580156109b2573d5f803e3d5ffd5b505050506040513d5f823e601f3d908101601f191682016040526109d9919081019061188f565b8451835193995091975095509087905f906109f6576109f66116b0565b60200260200101906001600160a01b031690816001600160a01b0316815250505f855f81518110610a2957610a296116b0565b6020026020010181815250508060c00151845f81518110610a4c57610a4c6116b0565b602002602001018190525050505095509550955095915050565b60405163195cb93f60e31b815233600482015261ffff851660248201525f90819073__$da6f5012babb472fe138ca3bf3d5984061$__9063cae5c9f890604401602060405180830381865af4158015610ac1573d5f803e3d5ffd5b505050506040513d601f19601f82011682018060405250810190610ae59190611600565b5f818152602081905260409020600301549091506001600160a01b03163314610b505760405162461bcd60e51b815260206004820152600b60248201527f4f6e6c7920506f77657273000000000000000000000000000000000000000000604482015260640161079f565b5f805f80610b978b338c8c8c8080601f0160208091040260200160405190810160405280939291908181526020018383808284375f920191909152508e925061068b915050565b9350935093509350610bac8a85858585611028565b5060019a9950505050505050505050565b60405163195cb93f60e31b81526001600160a01b038316600482015261ffff821660248201526060905f90819073__$da6f5012babb472fe138ca3bf3d5984061$__9063cae5c9f890604401602060405180830381865af4158015610c24573d5f803e3d5ffd5b505050506040513d601f19601f82011682018060405250810190610c489190611600565b81526020019081526020015f20600201805461044590611617565b60405163195cb93f60e31b81526001600160a01b038316600482015261ffff821660248201526060905f90819073__$da6f5012babb472fe138ca3bf3d5984061$__9063cae5c9f890604401602060405180830381865af4158015610cca573d5f803e3d5ffd5b505050506040513d601f19601f82011682018060405250810190610cee9190611600565b81526020019081526020015f20600101805461044590611617565b604080516060810182525f808252602082018190529181019190915260405163195cb93f60e31b81526001600160a01b038416600482015261ffff831660248201525f9073__$da6f5012babb472fe138ca3bf3d5984061$__9063cae5c9f890604401602060405180830381865af4158015610d87573d5f803e3d5ffd5b505050506040513d601f19601f82011682018060405250810190610dab9190611600565b5f818152600160205260409020549091506001600160a01b0316610e065760405162461bcd60e51b815260206004820152601260248201527113185dc81b9bdd0818dbdb999a59dd5c995960721b604482015260640161079f565b5f90815260016020818152604092839020835160608101855281546001600160a01b039081168252938201549281019290925260020154909116918101919091529392505050565b60405163195cb93f60e31b815233600482015261ffff851660248201525f9073__$da6f5012babb472fe138ca3bf3d5984061$__9063cae5c9f890604401602060405180830381865af4158015610ea7573d5f803e3d5ffd5b505050506040513d601f19601f82011682018060405250810190610ecb9190611600565b60405163cb4a15c560e01b815290915073__$da6f5012babb472fe138ca3bf3d5984061$__9063cb4a15c590610f0b90879060019060ff9060040161197f565b5f6040518083038186803b158015610f21575f80fd5b505af4158015610f33573d5f803e3d5ffd5b50506040805160808101825287815260208082018890528183018790523360608301525f8681529081905291909120815191935091508190610f7590826119ec565b5060208201516001820190610f8a90826119ec565b5060408201516002820190610f9f90826119ec565b50606091909101516003909101805473ffffffffffffffffffffffffffffffffffffffff19166001600160a01b0390921691909117905560405161ffff86169033907f3325fccc62d4919a3b0d34ea1fe03878a5248dd1bc36dd8d4316eafc2b8d0adf9061101290889088908890611aa7565b60405180910390a35050505050565b5050505050565b82511561102157604051630de6a60160e01b81523390630de6a6019061105a9088908890889088908890600401611ae9565b5f604051808303815f87803b158015611071575f80fd5b505af1158015611083573d5f803e3d5ffd5b505050505050505050565b6040518060e001604052805f6001600160a01b031681526020015f81526020015f61ffff16815260200160608152602001606081526020016110e260405180604001604052805f8152602001606081525090565b8152602001606081525090565b5f602082840312156110ff575f80fd5b81356001600160e01b031981168114611116575f80fd5b9392505050565b61ffff8116811461112c575f80fd5b50565b634e487b7160e01b5f52604160045260245ffd5b604051601f8201601f1916810167ffffffffffffffff8111828210171561116c5761116c61112f565b604052919050565b5f67ffffffffffffffff82111561118d5761118d61112f565b50601f01601f191660200190565b5f6111ad6111a884611174565b611143565b90508281528383830111156111c0575f80fd5b828260208301375f602084830101529392505050565b5f82601f8301126111e5575f80fd5b6111168383356020850161119b565b5f805f8060808587031215611207575f80fd5b84356112128161111d565b9350602085013567ffffffffffffffff81111561122d575f80fd5b8501601f8101871361123d575f80fd5b61124c8782356020840161119b565b935050604085013567ffffffffffffffff811115611268575f80fd5b611274878288016111d6565b925050606085013567ffffffffffffffff811115611290575f80fd5b61129c878288016111d6565b91505092959194509250565b6001600160a01b038116811461112c575f80fd5b5f80604083850312156112cd575f80fd5b82356112d8816112a8565b915060208301356112e88161111d565b809150509250929050565b5f81518084528060208401602086015e5f602082860101526020601f19601f83011685010191505092915050565b602081525f61111660208301846112f3565b5f60208284031215611343575f80fd5b5035919050565b608081525f61135c60808301876112f3565b828103602084015261136e81876112f3565b9050828103604084015261138281866112f3565b9150506001600160a01b038316606083015295945050505050565b5f805f805f60a086880312156113b1575f80fd5b85356113bc816112a8565b945060208601356113cc816112a8565b935060408601356113dc8161111d565b9250606086013567ffffffffffffffff8111156113f7575f80fd5b611403888289016111d6565b95989497509295608001359392505050565b5f8151808452602084019350602083015f5b8281101561144e5781516001600160a01b0316865260209586019590910190600101611427565b5093949350505050565b5f8151808452602084019350602083015f5b8281101561144e57815186526020958601959091019060010161146a565b5f82825180855260208501945060208160051b830101602085015f5b838110156114d657601f198584030188526114c08383516112f3565b60209889019890935091909101906001016114a4565b50909695505050505050565b848152608060208201525f6114fa6080830186611415565b828103604084015261150c8186611458565b905082810360608401526115208185611488565b979650505050505050565b5f805f805f6080868803121561153f575f80fd5b853561154a816112a8565b9450602086013561155a8161111d565b9350604086013567ffffffffffffffff811115611575575f80fd5b8601601f81018813611585575f80fd5b803567ffffffffffffffff81111561159b575f80fd5b8860208284010111156115ac575f80fd5b959894975060200195606001359392505050565b5f805f606084860312156115d2575f80fd5b83516115dd816112a8565b6020850151604086015191945092506115f5816112a8565b809150509250925092565b5f60208284031215611610575f80fd5b5051919050565b600181811c9082168061162b57607f821691505b60208210810361164957634e487b7160e01b5f52602260045260245ffd5b50919050565b61ffff84168152606060208201525f61166b60608301856112f3565b9050826040830152949350505050565b5f805f6060848603121561168d575f80fd5b8351611698816112a8565b6020850151604086015191945092506115f58161111d565b634e487b7160e01b5f52603260045260245ffd5b8781526001600160a01b038716602082015260e060408201525f6116eb60e08301886112f3565b6001600160a01b038716606084015285608084015282810360a08401528451815260208501516040602083015261172560408301826112f3565b91505082810360c084015261173a8185611415565b9a9950505050505050505050565b5f67ffffffffffffffff8211156117615761176161112f565b5060051b60200190565b5f82601f83011261177a575f80fd5b81516117886111a882611748565b8082825260208201915060208360051b8601019250858311156117a9575f80fd5b602085015b838110156117c65780518352602092830192016117ae565b5095945050505050565b5f82601f8301126117df575f80fd5b81516117ed6111a882611748565b8082825260208201915060208360051b86010192508583111561180e575f80fd5b602085015b838110156117c657805167ffffffffffffffff811115611831575f80fd5b8601603f81018813611841575f80fd5b60208101516118526111a882611174565b8181526040838301018a1015611866575f80fd5b8160408401602083015e5f60208383010152808652505050602083019250602081019050611813565b5f805f606084860312156118a1575f80fd5b835167ffffffffffffffff8111156118b7575f80fd5b8401601f810186136118c7575f80fd5b80516118d56111a882611748565b8082825260208201915060208360051b8501019250888311156118f6575f80fd5b6020840193505b82841015611921578351611910816112a8565b8252602093840193909101906118fd565b80965050505050602084015167ffffffffffffffff811115611941575f80fd5b61194d8682870161176b565b925050604084015167ffffffffffffffff811115611969575f80fd5b611975868287016117d0565b9150509250925092565b606081525f61199160608301866112f3565b60208301949094525060400152919050565b601f8211156119e757805f5260205f20601f840160051c810160208510156119c85750805b601f840160051c820191505b81811015611021575f81556001016119d4565b505050565b815167ffffffffffffffff811115611a0657611a0661112f565b611a1a81611a148454611617565b846119a3565b6020601f821160018114611a4c575f8315611a355750848201515b5f19600385901b1c1916600184901b178455611021565b5f84815260208120601f198516915b82811015611a7b5787850151825560209485019460019092019101611a5b565b5084821015611a9857868401515f19600387901b60f8161c191681555b50505050600190811b01905550565b606081525f611ab960608301866112f3565b8281036020840152611acb81866112f3565b90508281036040840152611adf81856112f3565b9695505050505050565b61ffff8616815284602082015260a060408201525f611b0b60a0830186611415565b8281036060840152611b1d8186611458565b90508281036080840152611b318185611488565b9897505050505050505056fea26469706673582212204bf0a15efd8e71672a200264be8b9b199b82f5ed5df21f60f9cdfcb4107d6b0e64736f6c634300081a0033","linkReferences":{"src/libraries/LawUtilities.sol":{"LawUtilities":[{"start":722,"length":20},{"start":1003,"length":20},{"start":1754,"length":20},{"start":2011,"length":20},{"start":2455,"length":20},{"start":2725,"length":20},{"start":3080,"length":20},{"start":3246,"length":20},{"start":3435,"length":20},{"start":3723,"length":20},{"start":3833,"length":20}]}}},"methodIdentifiers":{"executeLaw(address,uint16,bytes,uint256)":"7bf5b2fb","getConfig(address,uint16)":"c0d27aad","getConfigData(address,uint16)":"e33459a3","getInputParams(address,uint16)":"d8a941f4","getNameDescription(address,uint16)":"0d157721","handleRequest(address,address,uint16,bytes,uint256)":"552cb372","initializeLaw(uint16,string,bytes,bytes)":"040b1100","lawConfig(bytes32)":"eb5a1b7c","laws(bytes32)":"0db07d58","supportsInterface(bytes4)":"01ffc9a7"},"id":25}