{"abi":[{"type":"constructor","inputs":[],"stateMutability":"nonpayable"},{"type":"receive","stateMutability":"payable"},{"type":"function","name":"donateToken","inputs":[{"name":"token","type":"address","internalType":"address"},{"name":"amount","type":"uint256","internalType":"uint256"}],"outputs":[],"stateMutability":"nonpayable"},{"type":"function","name":"donations","inputs":[{"name":"","type":"uint256","internalType":"uint256"}],"outputs":[{"name":"donor","type":"address","internalType":"address"},{"name":"token","type":"address","internalType":"address"},{"name":"amount","type":"uint256","internalType":"uint256"},{"name":"blockNumber","type":"uint256","internalType":"uint256"}],"stateMutability":"view"},{"type":"function","name":"donorDonations","inputs":[{"name":"","type":"address","internalType":"address"},{"name":"","type":"uint256","internalType":"uint256"}],"outputs":[{"name":"","type":"uint256","internalType":"uint256"}],"stateMutability":"view"},{"type":"function","name":"emergencyWithdraw","inputs":[{"name":"token","type":"address","internalType":"address"}],"outputs":[],"stateMutability":"nonpayable"},{"type":"function","name":"getAllDonations","inputs":[],"outputs":[{"name":"","type":"tuple[]","internalType":"struct Donations.Donation[]","components":[{"name":"donor","type":"address","internalType":"address"},{"name":"token","type":"address","internalType":"address"},{"name":"amount","type":"uint256","internalType":"uint256"},{"name":"blockNumber","type":"uint256","internalType":"uint256"}]}],"stateMutability":"view"},{"type":"function","name":"getDonation","inputs":[{"name":"index","type":"uint256","internalType":"uint256"}],"outputs":[{"name":"","type":"tuple","internalType":"struct Donations.Donation","components":[{"name":"donor","type":"address","internalType":"address"},{"name":"token","type":"address","internalType":"address"},{"name":"amount","type":"uint256","internalType":"uint256"},{"name":"blockNumber","type":"uint256","internalType":"uint256"}]}],"stateMutability":"view"},{"type":"function","name":"getDonationsRange","inputs":[{"name":"startIndex","type":"uint256","internalType":"uint256"},{"name":"endIndex","type":"uint256","internalType":"uint256"}],"outputs":[{"name":"","type":"tuple[]","internalType":"struct Donations.Donation[]","components":[{"name":"donor","type":"address","internalType":"address"},{"name":"token","type":"address","internalType":"address"},{"name":"amount","type":"uint256","internalType":"uint256"},{"name":"blockNumber","type":"uint256","internalType":"uint256"}]}],"stateMutability":"view"},{"type":"function","name":"getDonorDonations","inputs":[{"name":"donor","type":"address","internalType":"address"}],"outputs":[{"name":"","type":"uint256[]","internalType":"uint256[]"}],"stateMutability":"view"},{"type":"function","name":"getTotalDonatedForToken","inputs":[{"name":"token","type":"address","internalType":"address"}],"outputs":[{"name":"","type":"uint256","internalType":"uint256"}],"stateMutability":"view"},{"type":"function","name":"getTotalDonations","inputs":[],"outputs":[{"name":"","type":"uint256","internalType":"uint256"}],"stateMutability":"view"},{"type":"function","name":"isTokenWhitelisted","inputs":[{"name":"token","type":"address","internalType":"address"}],"outputs":[{"name":"","type":"bool","internalType":"bool"}],"stateMutability":"view"},{"type":"function","name":"owner","inputs":[],"outputs":[{"name":"","type":"address","internalType":"address"}],"stateMutability":"view"},{"type":"function","name":"renounceOwnership","inputs":[],"outputs":[],"stateMutability":"nonpayable"},{"type":"function","name":"setWhitelistedToken","inputs":[{"name":"token","type":"address","internalType":"address"},{"name":"whitelisted","type":"bool","internalType":"bool"}],"outputs":[],"stateMutability":"nonpayable"},{"type":"function","name":"transferOwnership","inputs":[{"name":"newOwner","type":"address","internalType":"address"}],"outputs":[],"stateMutability":"nonpayable"},{"type":"function","name":"whitelistedTokens","inputs":[{"name":"","type":"address","internalType":"address"}],"outputs":[{"name":"","type":"bool","internalType":"bool"}],"stateMutability":"view"},{"type":"event","name":"DonationReceived","inputs":[{"name":"donor","type":"address","indexed":true,"internalType":"address"},{"name":"token","type":"address","indexed":true,"internalType":"address"},{"name":"amount","type":"uint256","indexed":false,"internalType":"uint256"},{"name":"donationIndex","type":"uint256","indexed":false,"internalType":"uint256"}],"anonymous":false},{"type":"event","name":"NativeCurrencyReceived","inputs":[{"name":"donor","type":"address","indexed":true,"internalType":"address"},{"name":"amount","type":"uint256","indexed":false,"internalType":"uint256"}],"anonymous":false},{"type":"event","name":"OwnershipTransferred","inputs":[{"name":"previousOwner","type":"address","indexed":true,"internalType":"address"},{"name":"newOwner","type":"address","indexed":true,"internalType":"address"}],"anonymous":false},{"type":"event","name":"TokenWhitelisted","inputs":[{"name":"token","type":"address","indexed":true,"internalType":"address"},{"name":"whitelisted","type":"bool","indexed":false,"internalType":"bool"}],"anonymous":false},{"type":"error","name":"OwnableInvalidOwner","inputs":[{"name":"owner","type":"address","internalType":"address"}]},{"type":"error","name":"OwnableUnauthorizedAccount","inputs":[{"name":"account","type":"address","internalType":"address"}]},{"type":"error","name":"ReentrancyGuardReentrantCall","inputs":[]}],"bytecode":{"object":"0x6080604052348015600e575f80fd5b503380603357604051631e4fbdf760e01b81525f600482015260240160405180910390fd5b603a816043565b50600180556092565b5f80546001600160a01b038381166001600160a01b0319831681178455604051919092169283917f8be0079c531659141344cd1fd0a4f28419497f9722a3daafe3b4186f6b6457e09190a35050565b6115618061009f5f395ff3fe6080604052600436106100f2575f3560e01c80638b22348711610087578063daf9c21011610057578063daf9c210146104e0578063ef07a81f1461050e578063f2fde38b1461053a578063f8626af814610559575f80fd5b80638b223487146104355780638da5cb5b14610454578063aca954801461047a578063b5af090f14610499575f80fd5b8063715018a6116100c2578063715018a6146103cf57806371a6acf2146103e357806376ce28f114610402578063777c658f14610421575f80fd5b806315a464061461032b57806338a59a07146103605780634395e1bf146103815780636ff1c9bc146103ae575f80fd5b36610327575f805260026020527fac33ff75c19e70fe83507db0d683fd3465c996598dc972688b7ace676c89077b5460ff166101755760405162461bcd60e51b815260206004820152601f60248201527f4e61746976652063757272656e6379206e6f742077686974656c69737465640060448201526064015b60405180910390fd5b345f036101c45760405162461bcd60e51b815260206004820152601d60248201527f416d6f756e74206d7573742062652067726561746572207468616e2030000000604482015260640161016c565b6101e56040518060600160405280602e81526020016114fe602e91396105a3565b61021d6040518060400160405280600681526020016527bbb732b91d60d11b8152506102185f546001600160a01b031690565b6105e9565b610245604051806040016040528060068152602001652b30b63ab29d60d11b81525034610632565b5f80546040516001600160a01b039091169034908381818185875af1925050503d805f811461028f576040519150601f19603f3d011682016040523d82523d5f602084013e610294565b606091505b50509050806102e55760405162461bcd60e51b815260206004820152601f60248201527f4e61746976652063757272656e6379207472616e73666572206661696c656400604482015260640161016c565b6102f0335f34610677565b60405134815233907fd1b643787a31282a7e26b229dff4a5ca9685d525fc34953e6762cc6f4dbaadb39060200160405180910390a2005b5f80fd5b348015610336575f80fd5b5061034a610345366004611225565b61080f565b6040516103579190611245565b60405180910390f35b34801561036b575f80fd5b50610374610878565b6040516103579190611287565b34801561038c575f80fd5b506103a061039b3660046112fc565b610905565b604051908152602001610357565b3480156103b9575f80fd5b506103cd6103c8366004611225565b610930565b005b3480156103da575f80fd5b506103cd610afa565b3480156103ee575f80fd5b506103cd6103fd3660046112fc565b610b0d565b34801561040d575f80fd5b506103cd61041c366004611331565b610cdb565b34801561042c575f80fd5b506003546103a0565b348015610440575f80fd5b5061037461044f366004611366565b610d41565b34801561045f575f80fd5b505f546040516001600160a01b039091168152602001610357565b348015610485575f80fd5b506103a0610494366004611225565b610f4c565b3480156104a4575f80fd5b506104d06104b3366004611225565b6001600160a01b03165f9081526002602052604090205460ff1690565b6040519015158152602001610357565b3480156104eb575f80fd5b506104d06104fa366004611225565b60026020525f908152604090205460ff1681565b348015610519575f80fd5b5061052d610528366004611386565b610fd8565b604051610357919061139d565b348015610545575f80fd5b506103cd610554366004611225565b6110b1565b348015610564575f80fd5b50610578610573366004611386565b6110eb565b604080516001600160a01b039586168152949093166020850152918301526060820152608001610357565b6105e6816040516024016105b7919061140c565b60408051601f198184030181529190526020810180516001600160e01b031663104c13eb60e21b17905261112f565b50565b61062e82826040516024016105ff92919061141e565b60408051601f198184030181529190526020810180516001600160e01b031663319af33360e01b17905261112f565b5050565b61062e8282604051602401610648929190611448565b60408051601f198184030181529190526020810180516001600160e01b0316632d839cb360e21b17905261112f565b604080516080810182526001600160a01b038086168083528582166020808501918252848601878152436060870190815260038054600181810183555f8381528a5160049384027fc2575a0e9e593c00f959f8c92f12db2869c3395a3b0502d05e2516446f71f85b81018054928d1673ffffffffffffffffffffffffffffffffffffffff1993841617905598517fc2575a0e9e593c00f959f8c92f12db2869c3395a3b0502d05e2516446f71f85c8a01805491909c1691161790995593517fc2575a0e9e593c00f959f8c92f12db2869c3395a3b0502d05e2516446f71f85d87015591517fc2575a0e9e593c00f959f8c92f12db2869c3395a3b0502d05e2516446f71f85e9095019490945593855292905293909120925491929161079c919061147d565b8154600181810184555f938452602090932001556003546001600160a01b0380861692908716917fce9409ee3dc10e35de83dda0f830e4a13935452188fe71a956b850ecb839425f9186916107f1919061147d565b6040805192835260208301919091520160405180910390a350505050565b6001600160a01b0381165f9081526004602090815260409182902080548351818402810184019094528084526060939283018282801561086c57602002820191905f5260205f20905b815481526020019060010190808311610858575b50505050509050919050565b60606003805480602002602001604051908101604052809291908181526020015f905b828210156108fc575f848152602090819020604080516080810182526004860290920180546001600160a01b03908116845260018083015490911684860152600282015492840192909252600301546060830152908352909201910161089b565b50505050905090565b6004602052815f5260405f20818154811061091e575f80fd5b905f5260205f20015f91509150505481565b610938611138565b6001600160a01b0381166109fc5747801561062e575f80546040516001600160a01b039091169083908381818185875af1925050503d805f8114610997576040519150601f19603f3d011682016040523d82523d5f602084013e61099c565b606091505b50509050806109f75760405162461bcd60e51b815260206004820152602160248201527f4e61746976652063757272656e6379207769746864726177616c206661696c656044820152601960fa1b606482015260840161016c565b505050565b6040516370a0823160e01b81523060048201525f906001600160a01b038316906370a0823190602401602060405180830381865afa158015610a40573d5f803e3d5ffd5b505050506040513d601f19601f82011682018060405250810190610a649190611490565b9050801561062e57816001600160a01b031663a9059cbb610a8c5f546001600160a01b031690565b6040516001600160e01b031960e084901b1681526001600160a01b039091166004820152602481018490526044016020604051808303815f875af1158015610ad6573d5f803e3d5ffd5b505050506040513d601f19601f820116820180604052508101906109f791906114a7565b610b02611138565b610b0b5f611164565b565b610b156111c0565b6001600160a01b0382165f9081526002602052604090205460ff16610b7c5760405162461bcd60e51b815260206004820152601560248201527f546f6b656e206e6f742077686974656c69737465640000000000000000000000604482015260640161016c565b805f03610bcb5760405162461bcd60e51b815260206004820152601d60248201527f416d6f756e74206d7573742062652067726561746572207468616e2030000000604482015260640161016c565b6001600160a01b038216610c305760405162461bcd60e51b815260206004820152602660248201527f55736520646f6e6174654e6174697665282920666f72206e61746976652063756044820152657272656e637960d01b606482015260840161016c565b816001600160a01b03166323b872dd33610c515f546001600160a01b031690565b6040516001600160e01b031960e085901b1681526001600160a01b03928316600482015291166024820152604481018490526064016020604051808303815f875af1158015610ca2573d5f803e3d5ffd5b505050506040513d601f19601f82011682018060405250810190610cc691906114a7565b50610cd2338383610677565b61062e60018055565b610ce3611138565b6001600160a01b0382165f81815260026020908152604091829020805460ff191685151590811790915591519182527fef81a9943b96c8df4ef243401c9bf5159146166211356898b52d382086168d92910160405180910390a25050565b6060818310610d925760405162461bcd60e51b815260206004820152600d60248201527f496e76616c69642072616e676500000000000000000000000000000000000000604482015260640161016c565b6003548310610de35760405162461bcd60e51b815260206004820152601960248201527f537461727420696e646578206f7574206f6620626f756e647300000000000000604482015260640161016c565b600354821115610e355760405162461bcd60e51b815260206004820152601760248201527f456e6420696e646578206f7574206f6620626f756e6473000000000000000000604482015260640161016c565b5f610e40848461147d565b67ffffffffffffffff811115610e5857610e586114c2565b604051908082528060200260200182016040528015610ea857816020015b604080516080810182525f8082526020808301829052928201819052606082015282525f19909201910181610e765790505b509050835b83811015610f425760038181548110610ec857610ec86114d6565b5f91825260209182902060408051608081018252600490930290910180546001600160a01b03908116845260018201541693830193909352600283015490820152600390910154606082015282610f1f878461147d565b81518110610f2f57610f2f6114d6565b6020908102919091010152600101610ead565b5090505b92915050565b5f80805b600354811015610fd157836001600160a01b031660038281548110610f7757610f776114d6565b5f9182526020909120600160049092020101546001600160a01b031603610fc95760038181548110610fab57610fab6114d6565b905f5260205f2090600402016002015482610fc691906114ea565b91505b600101610f50565b5092915050565b604080516080810182525f808252602082018190529181018290526060810191909152600354821061104c5760405162461bcd60e51b815260206004820152601c60248201527f446f6e6174696f6e20696e646578206f7574206f6620626f756e647300000000604482015260640161016c565b6003828154811061105f5761105f6114d6565b5f91825260209182902060408051608081018252600490930290910180546001600160a01b03908116845260018201541693830193909352600283015490820152600390910154606082015292915050565b6110b9611138565b6001600160a01b0381166110e257604051631e4fbdf760e01b81525f600482015260240161016c565b6105e681611164565b600381815481106110fa575f80fd5b5f91825260209091206004909102018054600182015460028301546003909301546001600160a01b0392831694509116919084565b6105e6816111ea565b5f546001600160a01b03163314610b0b5760405163118cdaa760e01b815233600482015260240161016c565b5f80546001600160a01b0383811673ffffffffffffffffffffffffffffffffffffffff19831681178455604051919092169283917f8be0079c531659141344cd1fd0a4f28419497f9722a3daafe3b4186f6b6457e09190a35050565b6002600154036111e357604051633ee5aeb560e01b815260040160405180910390fd5b6002600155565b80516a636f6e736f6c652e6c6f67602083015f808483855afa5050505050565b80356001600160a01b0381168114611220575f80fd5b919050565b5f60208284031215611235575f80fd5b61123e8261120a565b9392505050565b602080825282518282018190525f918401906040840190835b8181101561127c57835183526020938401939092019160010161125e565b509095945050505050565b602080825282518282018190525f918401906040840190835b8181101561127c576112e68385516001600160a01b0381511682526001600160a01b03602082015116602083015260408101516040830152606081015160608301525050565b60209390930192608092909201916001016112a0565b5f806040838503121561130d575f80fd5b6113168361120a565b946020939093013593505050565b80151581146105e6575f80fd5b5f8060408385031215611342575f80fd5b61134b8361120a565b9150602083013561135b81611324565b809150509250929050565b5f8060408385031215611377575f80fd5b50508035926020909101359150565b5f60208284031215611396575f80fd5b5035919050565b60808101610f4682846001600160a01b0381511682526001600160a01b03602082015116602083015260408101516040830152606081015160608301525050565b5f81518084528060208401602086015e5f602082860101526020601f19601f83011685010191505092915050565b602081525f61123e60208301846113de565b604081525f61143060408301856113de565b90506001600160a01b03831660208301529392505050565b604081525f61145a60408301856113de565b90508260208301529392505050565b634e487b7160e01b5f52601160045260245ffd5b81810381811115610f4657610f46611469565b5f602082840312156114a0575f80fd5b5051919050565b5f602082840312156114b7575f80fd5b815161123e81611324565b634e487b7160e01b5f52604160045260245ffd5b634e487b7160e01b5f52603260045260245ffd5b80820180821115610f4657610f4661146956fe5472616e7366657272696e67206e61746976652063757272656e637920746f20636f6e7472616374206f776e6572a2646970667358221220fed61af6372661758d8fac7a197114d5a5d0c0d78182d2e33594fb03fc3a2c6f64736f6c634300081a0033","linkReferences":{}},"methodIdentifiers":{"donateToken(address,uint256)":"71a6acf2","donations(uint256)":"f8626af8","donorDonations(address,uint256)":"4395e1bf","emergencyWithdraw(address)":"6ff1c9bc","getAllDonations()":"38a59a07","getDonation(uint256)":"ef07a81f","getDonationsRange(uint256,uint256)":"8b223487","getDonorDonations(address)":"15a46406","getTotalDonatedForToken(address)":"aca95480","getTotalDonations()":"777c658f","isTokenWhitelisted(address)":"b5af090f","owner()":"8da5cb5b","renounceOwnership()":"715018a6","setWhitelistedToken(address,bool)":"76ce28f1","transferOwnership(address)":"f2fde38b","whitelistedTokens(address)":"daf9c210"},"id":5}