{"abi":[{"type":"constructor","inputs":[{"name":"_allo","type":"address","internalType":"address"},{"name":"_name","type":"string","internalType":"string"}],"stateMutability":"nonpayable"},{"type":"receive","stateMutability":"payable"},{"type":"function","name":"NATIVE","inputs":[],"outputs":[{"name":"","type":"address","internalType":"address"}],"stateMutability":"view"},{"type":"function","name":"allocate","inputs":[{"name":"_data","type":"bytes","internalType":"bytes"},{"name":"_sender","type":"address","internalType":"address"}],"outputs":[],"stateMutability":"payable"},{"type":"function","name":"distribute","inputs":[{"name":"_recipientIds","type":"address[]","internalType":"address[]"},{"name":"_data","type":"bytes","internalType":"bytes"},{"name":"_sender","type":"address","internalType":"address"}],"outputs":[],"stateMutability":"nonpayable"},{"type":"function","name":"getAllo","inputs":[],"outputs":[{"name":"","type":"address","internalType":"contract IAllo"}],"stateMutability":"view"},{"type":"function","name":"getPayouts","inputs":[{"name":"_recipientIds","type":"address[]","internalType":"address[]"},{"name":"_data","type":"bytes[]","internalType":"bytes[]"}],"outputs":[{"name":"","type":"tuple[]","internalType":"struct IStrategy.PayoutSummary[]","components":[{"name":"recipientAddress","type":"address","internalType":"address"},{"name":"amount","type":"uint256","internalType":"uint256"}]}],"stateMutability":"view"},{"type":"function","name":"getPoolAmount","inputs":[],"outputs":[{"name":"","type":"uint256","internalType":"uint256"}],"stateMutability":"view"},{"type":"function","name":"getPoolId","inputs":[],"outputs":[{"name":"","type":"uint256","internalType":"uint256"}],"stateMutability":"view"},{"type":"function","name":"getRecipientStatus","inputs":[{"name":"_recipientId","type":"address","internalType":"address"}],"outputs":[{"name":"","type":"uint8","internalType":"enum IStrategy.Status"}],"stateMutability":"view"},{"type":"function","name":"getStrategyId","inputs":[],"outputs":[{"name":"","type":"bytes32","internalType":"bytes32"}],"stateMutability":"view"},{"type":"function","name":"increasePoolAmount","inputs":[{"name":"_amount","type":"uint256","internalType":"uint256"}],"outputs":[],"stateMutability":"nonpayable"},{"type":"function","name":"initialize","inputs":[{"name":"_poolId","type":"uint256","internalType":"uint256"},{"name":"_data","type":"bytes","internalType":"bytes"}],"outputs":[],"stateMutability":"nonpayable"},{"type":"function","name":"isPoolActive","inputs":[],"outputs":[{"name":"","type":"bool","internalType":"bool"}],"stateMutability":"view"},{"type":"function","name":"isValidAllocator","inputs":[{"name":"_allocator","type":"address","internalType":"address"}],"outputs":[{"name":"","type":"bool","internalType":"bool"}],"stateMutability":"view"},{"type":"function","name":"registerRecipient","inputs":[{"name":"_data","type":"bytes","internalType":"bytes"},{"name":"_sender","type":"address","internalType":"address"}],"outputs":[{"name":"recipientId","type":"address","internalType":"address"}],"stateMutability":"payable"},{"type":"function","name":"withdraw","inputs":[{"name":"_token","type":"address","internalType":"address"},{"name":"_recipient","type":"address","internalType":"address"}],"outputs":[],"stateMutability":"nonpayable"},{"type":"event","name":"Allocated","inputs":[{"name":"recipientId","type":"address","indexed":true,"internalType":"address"},{"name":"amount","type":"uint256","indexed":false,"internalType":"uint256"},{"name":"token","type":"address","indexed":false,"internalType":"address"},{"name":"sender","type":"address","indexed":false,"internalType":"address"}],"anonymous":false},{"type":"event","name":"Distributed","inputs":[{"name":"recipientId","type":"address","indexed":true,"internalType":"address"},{"name":"recipientAddress","type":"address","indexed":false,"internalType":"address"},{"name":"amount","type":"uint256","indexed":false,"internalType":"uint256"},{"name":"sender","type":"address","indexed":false,"internalType":"address"}],"anonymous":false},{"type":"event","name":"Initialized","inputs":[{"name":"poolId","type":"uint256","indexed":false,"internalType":"uint256"},{"name":"data","type":"bytes","indexed":false,"internalType":"bytes"}],"anonymous":false},{"type":"event","name":"PoolActive","inputs":[{"name":"active","type":"bool","indexed":false,"internalType":"bool"}],"anonymous":false},{"type":"event","name":"Registered","inputs":[{"name":"recipientId","type":"address","indexed":true,"internalType":"address"},{"name":"data","type":"bytes","indexed":false,"internalType":"bytes"},{"name":"sender","type":"address","indexed":false,"internalType":"address"}],"anonymous":false},{"type":"error","name":"ALLOCATION_ACTIVE","inputs":[]},{"type":"error","name":"ALLOCATION_NOT_ACTIVE","inputs":[]},{"type":"error","name":"ALLOCATION_NOT_ENDED","inputs":[]},{"type":"error","name":"ALREADY_INITIALIZED","inputs":[]},{"type":"error","name":"AMOUNT_MISMATCH","inputs":[]},{"type":"error","name":"ANCHOR_ERROR","inputs":[]},{"type":"error","name":"ARRAY_MISMATCH","inputs":[]},{"type":"error","name":"INPUT_LENGTH_MISMATCH","inputs":[]},{"type":"error","name":"INVALID","inputs":[]},{"type":"error","name":"INVALID_ADDRESS","inputs":[]},{"type":"error","name":"INVALID_FEE","inputs":[]},{"type":"error","name":"INVALID_METADATA","inputs":[]},{"type":"error","name":"INVALID_REGISTRATION","inputs":[]},{"type":"error","name":"IS_APPROVED_STRATEGY","inputs":[]},{"type":"error","name":"MISMATCH","inputs":[]},{"type":"error","name":"NONCE_NOT_AVAILABLE","inputs":[]},{"type":"error","name":"NON_ZERO_VALUE","inputs":[]},{"type":"error","name":"NOOP","inputs":[]},{"type":"error","name":"NOT_APPROVED_STRATEGY","inputs":[]},{"type":"error","name":"NOT_ENOUGH_FUNDS","inputs":[]},{"type":"error","name":"NOT_IMPLEMENTED","inputs":[]},{"type":"error","name":"NOT_INITIALIZED","inputs":[]},{"type":"error","name":"NOT_PENDING_OWNER","inputs":[]},{"type":"error","name":"POOL_ACTIVE","inputs":[]},{"type":"error","name":"POOL_INACTIVE","inputs":[]},{"type":"error","name":"RECIPIENT_ALREADY_ACCEPTED","inputs":[]},{"type":"error","name":"RECIPIENT_ERROR","inputs":[{"name":"recipientId","type":"address","internalType":"address"}]},{"type":"error","name":"RECIPIENT_NOT_ACCEPTED","inputs":[]},{"type":"error","name":"REGISTRATION_ACTIVE","inputs":[]},{"type":"error","name":"REGISTRATION_NOT_ACTIVE","inputs":[]},{"type":"error","name":"UNAUTHORIZED","inputs":[]},{"type":"error","name":"ZERO_ADDRESS","inputs":[]}],"bytecode":{"object":"0x60c06040523480156200001157600080fd5b5060405162001299380380620012998339810160408190526200003491620000ba565b6001600160a01b038216608052604051829082906200005890829060200162000195565b60408051601f19818403018152919052805160209091012060a05250620001ca92505050565b634e487b7160e01b600052604160045260246000fd5b60005b83811015620000b157818101518382015260200162000097565b50506000910152565b60008060408385031215620000ce57600080fd5b82516001600160a01b0381168114620000e657600080fd5b60208401519092506001600160401b03808211156200010457600080fd5b818501915085601f8301126200011957600080fd5b8151818111156200012e576200012e6200007e565b604051601f8201601f19908116603f011681019083821181831017156200015957620001596200007e565b816040528281528860208487010111156200017357600080fd5b6200018683602083016020880162000094565b80955050505050509250929050565b6020815260008251806020840152620001b681604085016020870162000094565b601f01601f19169190910160400192915050565b60805160a0516110946200020560003960006101a70152600081816101290152818161052801528181610610015261082201526110946000f3fe6080604052600436106100ec5760003560e01c8063a0cf0aea1161008a578063edd146cc11610059578063edd146cc146102aa578063ef2920fc146102ca578063f5b0dfb7146102dd578063f940e385146102fd57600080fd5b8063a0cf0aea14610210578063b2b878d014610238578063df868ed314610265578063eb11af931461027d57600080fd5b806338fff2d0116100c657806338fff2d01461017957806342fda9c7146101985780634ab4ba42146101cb5780634d31d087146101e057600080fd5b80630a6f0ee9146100f857806315cc481e1461011a5780632bbe0cae1461016657600080fd5b366100f357005b600080fd5b34801561010457600080fd5b50610118610113366004610b08565b61031d565b005b34801561012657600080fd5b507f00000000000000000000000000000000000000000000000000000000000000005b6040516001600160a01b0390911681526020015b60405180910390f35b610149610174366004610b80565b61033d565b34801561018557600080fd5b506001545b60405190815260200161015d565b3480156101a457600080fd5b507f000000000000000000000000000000000000000000000000000000000000000061018a565b3480156101d757600080fd5b5060025461018a565b3480156101ec57600080fd5b506102006101fb366004610bd2565b610359565b604051901515815260200161015d565b34801561021c57600080fd5b5061014973eeeeeeeeeeeeeeeeeeeeeeeeeeeeeeeeeeeeeeee81565b34801561024457600080fd5b50610258610253366004610bf6565b610361565b60405161015d9190610ccb565b34801561027157600080fd5b5060005460ff16610200565b34801561028957600080fd5b5061029d610298366004610bd2565b610460565b60405161015d9190610d23565b3480156102b657600080fd5b506101186102c5366004610d4b565b61046b565b6101186102d8366004610b80565b6104b1565b3480156102e957600080fd5b506101186102f8366004610d92565b6104cf565b34801561030957600080fd5b50610118610318366004610dab565b6104f9565b61032561051d565b61032d610568565b61033883838361058b565b505050565b600061034761051d565b61034f610568565b5060005b92915050565b600080610353565b8151815160609190811461038857604051633da4c02b60e11b815260040160405180910390fd5b60008167ffffffffffffffff8111156103a3576103a361094f565b6040519080825280602002602001820160405280156103e857816020015b60408051808201909152600080825260208201528152602001906001900390816103c15790505b50905060005b828110156104575761043286828151811061040b5761040b610dd9565b602002602001015186838151811061042557610425610dd9565b602002602001015161075c565b82828151811061044457610444610dd9565b60209081029190910101526001016103ee565b50949350505050565b600061035382610775565b61047482610790565b7f91efa3d50feccde0d0d202f8ae5c41ca0b2be614cebcb2bd2f4b019396e6568a82826040516104a5929190610e13565b60405180910390a15050565b6104b961051d565b6104c1610568565b6104cb82826107df565b5050565b6104d761051d565b80600260008282546104e99190610e63565b909155506104f690508181565b50565b33610503816107f8565b6002805460009091556105178484836108aa565b50505050565b336001600160a01b037f000000000000000000000000000000000000000000000000000000000000000016146105665760405163075fd2b160e01b815260040160405180910390fd5b565b60015460000361056657604051630f68fe6360e21b815260040160405180910390fd5b80610595816107f8565b6000838060200190518101906105ab9190610e76565b855190915060008190036105d25760405163fb76571560e01b815260040160405180910390fd5b815181146105f35760405163fb76571560e01b815260040160405180910390fd5b60015460405163068bcd8d60e01b81526000916001600160a01b037f0000000000000000000000000000000000000000000000000000000000000000169163068bcd8d916106479160040190815260200190565b600060405180830381865afa158015610664573d6000803e3d6000fd5b505050506040513d6000823e601f3d908101601f1916820160405261068c9190810190610f07565b905060005b828110156107525760008482815181106106ad576106ad610dd9565b6020026020010151905060008983815181106106cb576106cb610dd9565b6020026020010151905081600260008282546106e79190611029565b909155505060408401516106fc9082846108aa565b604080516001600160a01b0383811680835260208301869052908b168284015291517fb5b51454adfa840bd593658325a60a50b0216f12eb5d2937efe6cea935675b7d9181900360600190a25050600101610691565b5050505050505050565b6040805180820190915260008082526020820152610353565b60006040516302ad284d60e31b815260040160405180910390fd5b61079861051d565b600154156107b95760405163439a74c960e01b815260040160405180910390fd5b806000036107da57604051637fcce2a960e01b815260040160405180910390fd5b600155565b6040516302ad284d60e31b815260040160405180910390fd5b6001546040516329e40d4b60e01b815260048101919091526001600160a01b0382811660248301527f000000000000000000000000000000000000000000000000000000000000000016906329e40d4b90604401602060405180830381865afa158015610869573d6000803e3d6000fd5b505050506040513d601f19601f8201168201806040525081019061088d919061103c565b6104f65760405163075fd2b160e01b815260040160405180910390fd5b73eeeeeeeeeeeeeeeeeeeeeeeeeeeeeeeeeeeeeeed196001600160a01b038416016108d95761033882826108e4565b610338838383610900565b60008060008084865af16104cb5763b12d13eb6000526004601cfd5b81601452806034526fa9059cbb00000000000000000000000060005260206000604460106000875af13d156001600051141716610945576390b8ec186000526004601cfd5b6000603452505050565b634e487b7160e01b600052604160045260246000fd5b60405160c0810167ffffffffffffffff811182821017156109885761098861094f565b60405290565b6040805190810167ffffffffffffffff811182821017156109885761098861094f565b604051601f8201601f1916810167ffffffffffffffff811182821017156109da576109da61094f565b604052919050565b600067ffffffffffffffff8211156109fc576109fc61094f565b5060051b60200190565b6001600160a01b03811681146104f657600080fd5b600082601f830112610a2c57600080fd5b81356020610a41610a3c836109e2565b6109b1565b82815260059290921b84018101918181019086841115610a6057600080fd5b8286015b84811015610a84578035610a7781610a06565b8352918301918301610a64565b509695505050505050565b600067ffffffffffffffff821115610aa957610aa961094f565b50601f01601f191660200190565b600082601f830112610ac857600080fd5b8135610ad6610a3c82610a8f565b818152846020838601011115610aeb57600080fd5b816020850160208301376000918101602001919091529392505050565b600080600060608486031215610b1d57600080fd5b833567ffffffffffffffff80821115610b3557600080fd5b610b4187838801610a1b565b94506020860135915080821115610b5757600080fd5b50610b6486828701610ab7565b9250506040840135610b7581610a06565b809150509250925092565b60008060408385031215610b9357600080fd5b823567ffffffffffffffff811115610baa57600080fd5b610bb685828601610ab7565b9250506020830135610bc781610a06565b809150509250929050565b600060208284031215610be457600080fd5b8135610bef81610a06565b9392505050565b60008060408385031215610c0957600080fd5b823567ffffffffffffffff80821115610c2157600080fd5b610c2d86838701610a1b565b9350602091508185013581811115610c4457600080fd5b8501601f81018713610c5557600080fd5b8035610c63610a3c826109e2565b81815260059190911b82018401908481019089831115610c8257600080fd5b8584015b83811015610cba57803586811115610c9e5760008081fd5b610cac8c8983890101610ab7565b845250918601918601610c86565b508096505050505050509250929050565b602080825282518282018190526000919060409081850190868401855b82811015610d1657815180516001600160a01b03168552860151868501529284019290850190600101610ce8565b5091979650505050505050565b6020810160078310610d4557634e487b7160e01b600052602160045260246000fd5b91905290565b60008060408385031215610d5e57600080fd5b82359150602083013567ffffffffffffffff811115610d7c57600080fd5b610d8885828601610ab7565b9150509250929050565b600060208284031215610da457600080fd5b5035919050565b60008060408385031215610dbe57600080fd5b8235610dc981610a06565b91506020830135610bc781610a06565b634e487b7160e01b600052603260045260246000fd5b60005b83811015610e0a578181015183820152602001610df2565b50506000910152565b8281526040602082015260008251806040840152610e38816060850160208701610def565b601f01601f1916919091016060019392505050565b634e487b7160e01b600052601160045260246000fd5b8082018082111561035357610353610e4d565b60006020808385031215610e8957600080fd5b825167ffffffffffffffff811115610ea057600080fd5b8301601f81018513610eb157600080fd5b8051610ebf610a3c826109e2565b81815260059190911b82018301908381019087831115610ede57600080fd5b928401925b82841015610efc57835182529284019290840190610ee3565b979650505050505050565b60006020808385031215610f1a57600080fd5b825167ffffffffffffffff80821115610f3257600080fd5b9084019060c08287031215610f4657600080fd5b610f4e610965565b8251815283830151610f5f81610a06565b818501526040830151610f7181610a06565b6040820152606083015182811115610f8857600080fd5b830160408189031215610f9a57600080fd5b610fa261098e565b815181528582015184811115610fb757600080fd5b82019350601f84018913610fca57600080fd5b83519150610fda610a3c83610a8f565b8281528987848701011115610fee57600080fd5b610ffd83888301898801610def565b95810195909552506060810193909352506080818101519083015260a090810151908201529392505050565b8181038181111561035357610353610e4d565b60006020828403121561104e57600080fd5b81518015158114610bef57600080fdfea26469706673582212204fe720bc53b50fb206ebbe4a9b3434502abaadbbc2395d8b2918e7cf3cb5713e64736f6c63430008130033","linkReferences":{}},"methodIdentifiers":{"NATIVE()":"a0cf0aea","allocate(bytes,address)":"ef2920fc","distribute(address[],bytes,address)":"0a6f0ee9","getAllo()":"15cc481e","getPayouts(address[],bytes[])":"b2b878d0","getPoolAmount()":"4ab4ba42","getPoolId()":"38fff2d0","getRecipientStatus(address)":"eb11af93","getStrategyId()":"42fda9c7","increasePoolAmount(uint256)":"f5b0dfb7","initialize(uint256,bytes)":"edd146cc","isPoolActive()":"df868ed3","isValidAllocator(address)":"4d31d087","registerRecipient(bytes,address)":"2bbe0cae","withdraw(address,address)":"f940e385"},"id":8}