{"abi":[{"type":"constructor","inputs":[],"stateMutability":"nonpayable"},{"type":"function","name":"AMOUNT_FAUCET","inputs":[],"outputs":[{"name":"","type":"uint256","internalType":"uint256"}],"stateMutability":"view"},{"type":"function","name":"DENOMINATOR","inputs":[],"outputs":[{"name":"","type":"uint8","internalType":"uint8"}],"stateMutability":"view"},{"type":"function","name":"allowance","inputs":[{"name":"owner","type":"address","internalType":"address"},{"name":"spender","type":"address","internalType":"address"}],"outputs":[{"name":"","type":"uint256","internalType":"uint256"}],"stateMutability":"view"},{"type":"function","name":"approve","inputs":[{"name":"spender","type":"address","internalType":"address"},{"name":"value","type":"uint256","internalType":"uint256"}],"outputs":[{"name":"","type":"bool","internalType":"bool"}],"stateMutability":"nonpayable"},{"type":"function","name":"balanceOf","inputs":[{"name":"account","type":"address","internalType":"address"}],"outputs":[{"name":"","type":"uint256","internalType":"uint256"}],"stateMutability":"view"},{"type":"function","name":"burn","inputs":[{"name":"amount","type":"uint256","internalType":"uint256"}],"outputs":[],"stateMutability":"nonpayable"},{"type":"function","name":"changeTaxRate","inputs":[{"name":"newTaxRate","type":"uint256","internalType":"uint256"}],"outputs":[],"stateMutability":"nonpayable"},{"type":"function","name":"decimals","inputs":[],"outputs":[{"name":"","type":"uint8","internalType":"uint8"}],"stateMutability":"view"},{"type":"function","name":"epochDuration","inputs":[],"outputs":[{"name":"","type":"uint48","internalType":"uint48"}],"stateMutability":"view"},{"type":"function","name":"faucet","inputs":[],"outputs":[],"stateMutability":"nonpayable"},{"type":"function","name":"faucetPaused","inputs":[],"outputs":[{"name":"","type":"bool","internalType":"bool"}],"stateMutability":"view"},{"type":"function","name":"getTaxLogs","inputs":[{"name":"blockNumber","type":"uint48","internalType":"uint48"},{"name":"account","type":"address","internalType":"address"}],"outputs":[{"name":"taxPaid","type":"uint256","internalType":"uint256"}],"stateMutability":"view"},{"type":"function","name":"mint","inputs":[{"name":"amount","type":"uint256","internalType":"uint256"}],"outputs":[],"stateMutability":"nonpayable"},{"type":"function","name":"name","inputs":[],"outputs":[{"name":"","type":"string","internalType":"string"}],"stateMutability":"view"},{"type":"function","name":"owner","inputs":[],"outputs":[{"name":"","type":"address","internalType":"address"}],"stateMutability":"view"},{"type":"function","name":"pauseFaucet","inputs":[],"outputs":[],"stateMutability":"nonpayable"},{"type":"function","name":"renounceOwnership","inputs":[],"outputs":[],"stateMutability":"nonpayable"},{"type":"function","name":"symbol","inputs":[],"outputs":[{"name":"","type":"string","internalType":"string"}],"stateMutability":"view"},{"type":"function","name":"taxLogs","inputs":[{"name":"epoch","type":"uint48","internalType":"uint48"},{"name":"account","type":"address","internalType":"address"}],"outputs":[{"name":"taxPaid","type":"uint256","internalType":"uint256"}],"stateMutability":"view"},{"type":"function","name":"taxRate","inputs":[],"outputs":[{"name":"","type":"uint256","internalType":"uint256"}],"stateMutability":"view"},{"type":"function","name":"totalSupply","inputs":[],"outputs":[{"name":"","type":"uint256","internalType":"uint256"}],"stateMutability":"view"},{"type":"function","name":"transfer","inputs":[{"name":"to","type":"address","internalType":"address"},{"name":"value","type":"uint256","internalType":"uint256"}],"outputs":[{"name":"","type":"bool","internalType":"bool"}],"stateMutability":"nonpayable"},{"type":"function","name":"transferFrom","inputs":[{"name":"from","type":"address","internalType":"address"},{"name":"to","type":"address","internalType":"address"},{"name":"value","type":"uint256","internalType":"uint256"}],"outputs":[{"name":"","type":"bool","internalType":"bool"}],"stateMutability":"nonpayable"},{"type":"function","name":"transferOwnership","inputs":[{"name":"newOwner","type":"address","internalType":"address"}],"outputs":[],"stateMutability":"nonpayable"},{"type":"event","name":"Approval","inputs":[{"name":"owner","type":"address","indexed":true,"internalType":"address"},{"name":"spender","type":"address","indexed":true,"internalType":"address"},{"name":"value","type":"uint256","indexed":false,"internalType":"uint256"}],"anonymous":false},{"type":"event","name":"OwnershipTransferred","inputs":[{"name":"previousOwner","type":"address","indexed":true,"internalType":"address"},{"name":"newOwner","type":"address","indexed":true,"internalType":"address"}],"anonymous":false},{"type":"event","name":"Transfer","inputs":[{"name":"from","type":"address","indexed":true,"internalType":"address"},{"name":"to","type":"address","indexed":true,"internalType":"address"},{"name":"value","type":"uint256","indexed":false,"internalType":"uint256"}],"anonymous":false},{"type":"error","name":"ERC20InsufficientAllowance","inputs":[{"name":"spender","type":"address","internalType":"address"},{"name":"allowance","type":"uint256","internalType":"uint256"},{"name":"needed","type":"uint256","internalType":"uint256"}]},{"type":"error","name":"ERC20InsufficientBalance","inputs":[{"name":"sender","type":"address","internalType":"address"},{"name":"balance","type":"uint256","internalType":"uint256"},{"name":"needed","type":"uint256","internalType":"uint256"}]},{"type":"error","name":"ERC20InvalidApprover","inputs":[{"name":"approver","type":"address","internalType":"address"}]},{"type":"error","name":"ERC20InvalidReceiver","inputs":[{"name":"receiver","type":"address","internalType":"address"}]},{"type":"error","name":"ERC20InvalidSender","inputs":[{"name":"sender","type":"address","internalType":"address"}]},{"type":"error","name":"ERC20InvalidSpender","inputs":[{"name":"spender","type":"address","internalType":"address"}]},{"type":"error","name":"Erc20Taxed__FaucetPaused","inputs":[]},{"type":"error","name":"Erc20Taxed__InsufficientBalanceForTax","inputs":[]},{"type":"error","name":"Erc20Taxed__NoZeroAmount","inputs":[]},{"type":"error","name":"Erc20Taxed__TaxRateOverflow","inputs":[]},{"type":"error","name":"OwnableInvalidOwner","inputs":[{"name":"owner","type":"address","internalType":"address"}]},{"type":"error","name":"OwnableUnauthorizedAccount","inputs":[{"name":"account","type":"address","internalType":"address"}]}],"bytecode":{"object":"0x60e0604052670de0b6b3a764000060805234801561001b575f80fd5b50336040518060400160405280600581526020016415185e195960da1b815250604051806040016040528060038152602001620a882b60eb1b815250816003908161006691906104ca565b50600461007382826104ca565b5050506001600160a01b0381166100a457604051631e4fbdf760e01b81525f60048201526024015b60405180910390fd5b6100ad816100d5565b50600a600655606460a05261038460c0526100d033670de0b6b3a7640000610126565b61061a565b600580546001600160a01b038381166001600160a01b0319831681179093556040519116919082907f8be0079c531659141344cd1fd0a4f28419497f9722a3daafe3b4186f6b6457e0905f90a35050565b6001600160a01b03821661014f5760405163ec442f0560e01b81525f600482015260240161009b565b61015a5f838361015e565b5050565b6005546001600160a01b0384811691161480159061018a57506005546001600160a01b03838116911614155b801561019e57506001600160a01b03831615155b80156101b257506001600160a01b03821615155b80156101bd57508015155b156102a0575f60a05160ff16600654836101d79190610598565b6101e191906105c9565b90505f610202856001600160a01b03165f9081526020819052604090205490565b905061020e82846105dc565b81101561022d57604051623b0e3960e51b815260040160405180910390fd5b610249856102436005546001600160a01b031690565b846102b0565b5f60c0514361025891906105ef565b65ffffffffffff81165f9081526008602090815260408083206001600160a01b038b1684529091528120805492935085929091906102979084906105dc565b90915550505050505b6102ab83838361030d565b505050565b6001600160a01b0383166102d957604051634b637e8f60e11b81525f600482015260240161009b565b6001600160a01b0382166103025760405163ec442f0560e01b81525f600482015260240161009b565b6102ab83838361015e565b6001600160a01b038316610337578060025f82825461032c91906105dc565b909155506103a79050565b6001600160a01b0383165f90815260208190526040902054818110156103895760405163391434e360e21b81526001600160a01b0385166004820152602481018290526044810183905260640161009b565b6001600160a01b0384165f9081526020819052604090209082900390555b6001600160a01b0382166103c3576002805482900390556103e1565b6001600160a01b0382165f9081526020819052604090208054820190555b816001600160a01b0316836001600160a01b03167fddf252ad1be2c89b69c2b068fc378daa952ba7f163c4a11628f55a4df523b3ef8360405161042691815260200190565b60405180910390a3505050565b634e487b7160e01b5f52604160045260245ffd5b600181811c9082168061045b57607f821691505b60208210810361047957634e487b7160e01b5f52602260045260245ffd5b50919050565b601f8211156102ab57805f5260205f20601f840160051c810160208510156104a45750805b601f840160051c820191505b818110156104c3575f81556001016104b0565b5050505050565b81516001600160401b038111156104e3576104e3610433565b6104f7816104f18454610447565b8461047f565b6020601f821160018114610529575f83156105125750848201515b5f19600385901b1c1916600184901b1784556104c3565b5f84815260208120601f198516915b828110156105585787850151825560209485019460019092019101610538565b508482101561057557868401515f19600387901b60f8161c191681555b50505050600190811b01905550565b634e487b7160e01b5f52601160045260245ffd5b80820281158282048414176105af576105af610584565b92915050565b634e487b7160e01b5f52601260045260245ffd5b5f826105d7576105d76105b5565b500490565b808201808211156105af576105af610584565b5f65ffffffffffff831680610606576106066105b5565b8065ffffffffffff84160491505092915050565b60805160a05160c051610e646106675f395f818161025b015281816105110152610a7401525f818161030d0152818161062701526109cc01525f81816101e301526105f40152610e645ff3fe608060405234801561000f575f80fd5b506004361061018f575f3560e01c8063771a3a1d116100dd578063a9059cbb11610088578063de5f72fd11610063578063de5f72fd146103bf578063eb9943d9146103c7578063f2fde38b146103da575f80fd5b8063a9059cbb1461034a578063dc731c401461035d578063dd62ed3e14610387575f80fd5b8063918f8674116100b8578063918f86741461030857806395d89b411461032f578063a0712d6814610337575f80fd5b8063771a3a1d146102d75780637858dcd6146102e05780638da5cb5b146102ed575f80fd5b8063313ce5671161013d57806370a082311161011857806370a082311461029457806370d38b0a146102bc578063715018a6146102cf575f80fd5b8063313ce5671461022e57806342966c68146102435780634ff0876a14610256575f80fd5b80630eb2dbf41161016d5780630eb2dbf4146101de57806318160ddd1461021357806323b872dd1461021b575f80fd5b8063057d7a621461019357806306fdde031461019d578063095ea7b3146101bb575b5f80fd5b61019b6103ed565b005b6101a5610409565b6040516101b29190610c0d565b60405180910390f35b6101ce6101c9366004610c5d565b610499565b60405190151581526020016101b2565b6102057f000000000000000000000000000000000000000000000000000000000000000081565b6040519081526020016101b2565b600254610205565b6101ce610229366004610c85565b6104b2565b60125b60405160ff90911681526020016101b2565b61019b610251366004610cbf565b6104d5565b61027d7f000000000000000000000000000000000000000000000000000000000000000081565b60405165ffffffffffff90911681526020016101b2565b6102056102a2366004610cd6565b6001600160a01b03165f9081526020819052604090205490565b6102056102ca366004610cf6565b61050a565b61019b610569565b61020560065481565b6007546101ce9060ff1681565b6005546040516001600160a01b0390911681526020016101b2565b6102317f000000000000000000000000000000000000000000000000000000000000000081565b6101a561057c565b61019b610345366004610cbf565b61058b565b6101ce610358366004610c5d565b6105bd565b61020561036b366004610cf6565b600860209081525f928352604080842090915290825290205481565b610205610395366004610d33565b6001600160a01b039182165f90815260016020908152604080832093909416825291909152205490565b61019b6105ca565b61019b6103d5366004610cbf565b610618565b61019b6103e8366004610cd6565b610672565b6103f56106b1565b6007805460ff19811660ff90911615179055565b60606003805461041890610d4d565b80601f016020809104026020016040519081016040528092919081815260200182805461044490610d4d565b801561048f5780601f106104665761010080835404028352916020019161048f565b820191905f5260205f20905b81548152906001019060200180831161047257829003601f168201915b5050505050905090565b5f336104a68185856106de565b60019150505b92915050565b5f336104bf8582856106f0565b6104ca85858561076c565b506001949350505050565b6104dd6106b1565b805f036104fd5760405163a429762760e01b815260040160405180910390fd5b61050733826107c9565b50565b5f806105367f000000000000000000000000000000000000000000000000000000000000000085610dad565b65ffffffffffff165f9081526008602090815260408083206001600160a01b038716845290915290205491505092915050565b6105716106b1565b61057a5f610801565b565b60606004805461041890610d4d565b6105936106b1565b805f036105b35760405163a429762760e01b815260040160405180910390fd5b610507338261085f565b5f336104a681858561076c565b60075460ff16156105ee57604051633a159b8d60e01b815260040160405180910390fd5b61057a337f000000000000000000000000000000000000000000000000000000000000000061085f565b6106206106b1565b61064b60017f0000000000000000000000000000000000000000000000000000000000000000610dd8565b60ff16811061066d57604051636303781560e11b815260040160405180910390fd5b600655565b61067a6106b1565b6001600160a01b0381166106a857604051631e4fbdf760e01b81525f60048201526024015b60405180910390fd5b61050781610801565b6005546001600160a01b0316331461057a5760405163118cdaa760e01b815233600482015260240161069f565b6106eb8383836001610893565b505050565b6001600160a01b038381165f908152600160209081526040808320938616835292905220545f19811015610766578181101561075857604051637dc7a0d960e11b81526001600160a01b0384166004820152602481018290526044810183905260640161069f565b61076684848484035f610893565b50505050565b6001600160a01b03831661079557604051634b637e8f60e11b81525f600482015260240161069f565b6001600160a01b0382166107be5760405163ec442f0560e01b81525f600482015260240161069f565b6106eb838383610965565b6001600160a01b0382166107f257604051634b637e8f60e11b81525f600482015260240161069f565b6107fd825f83610965565b5050565b600580546001600160a01b0383811673ffffffffffffffffffffffffffffffffffffffff19831681179093556040519116919082907f8be0079c531659141344cd1fd0a4f28419497f9722a3daafe3b4186f6b6457e0905f90a35050565b6001600160a01b0382166108885760405163ec442f0560e01b81525f600482015260240161069f565b6107fd5f8383610965565b6001600160a01b0384166108bc5760405163e602df0560e01b81525f600482015260240161069f565b6001600160a01b0383166108e557604051634a1406b160e11b81525f600482015260240161069f565b6001600160a01b038085165f908152600160209081526040808320938716835292905220829055801561076657826001600160a01b0316846001600160a01b03167f8c5be1e5ebec7d5bd14f71427d1e84f3dd0314c0f7b2291e5b200ac8c7c3b9258460405161095791815260200190565b60405180910390a350505050565b6005546001600160a01b0384811691161480159061099157506005546001600160a01b03838116911614155b80156109a557506001600160a01b03831615155b80156109b957506001600160a01b03821615155b80156109c457508015155b15610ae1575f7f000000000000000000000000000000000000000000000000000000000000000060ff16600654836109fc9190610df1565b610a069190610e08565b90505f610a27856001600160a01b03165f9081526020819052604090205490565b9050610a338284610e1b565b811015610a5257604051623b0e3960e51b815260040160405180910390fd5b610a6e85610a686005546001600160a01b031690565b8461076c565b5f610a997f000000000000000000000000000000000000000000000000000000000000000043610dad565b65ffffffffffff81165f9081526008602090815260408083206001600160a01b038b168452909152812080549293508592909190610ad8908490610e1b565b90915550505050505b6106eb8383836001600160a01b038316610b11578060025f828254610b069190610e1b565b90915550610b819050565b6001600160a01b0383165f9081526020819052604090205481811015610b635760405163391434e360e21b81526001600160a01b0385166004820152602481018290526044810183905260640161069f565b6001600160a01b0384165f9081526020819052604090209082900390555b6001600160a01b038216610b9d57600280548290039055610bbb565b6001600160a01b0382165f9081526020819052604090208054820190555b816001600160a01b0316836001600160a01b03167fddf252ad1be2c89b69c2b068fc378daa952ba7f163c4a11628f55a4df523b3ef83604051610c0091815260200190565b60405180910390a3505050565b602081525f82518060208401528060208501604085015e5f604082850101526040601f19601f83011684010191505092915050565b80356001600160a01b0381168114610c58575f80fd5b919050565b5f8060408385031215610c6e575f80fd5b610c7783610c42565b946020939093013593505050565b5f805f60608486031215610c97575f80fd5b610ca084610c42565b9250610cae60208501610c42565b929592945050506040919091013590565b5f60208284031215610ccf575f80fd5b5035919050565b5f60208284031215610ce6575f80fd5b610cef82610c42565b9392505050565b5f8060408385031215610d07575f80fd5b823565ffffffffffff81168114610d1c575f80fd5b9150610d2a60208401610c42565b90509250929050565b5f8060408385031215610d44575f80fd5b610d1c83610c42565b600181811c90821680610d6157607f821691505b602082108103610d7f57634e487b7160e01b5f52602260045260245ffd5b50919050565b634e487b7160e01b5f52601260045260245ffd5b634e487b7160e01b5f52601160045260245ffd5b5f65ffffffffffff831680610dc457610dc4610d85565b8065ffffffffffff84160491505092915050565b60ff82811682821603908111156104ac576104ac610d99565b80820281158282048414176104ac576104ac610d99565b5f82610e1657610e16610d85565b500490565b808201808211156104ac576104ac610d9956fea2646970667358221220b2c2f2b2b03c9d6be90aa1d3d064b60a50a8b8415b32065a24e356f2ae6af5dc64736f6c634300081a0033","linkReferences":{}},"methodIdentifiers":{"AMOUNT_FAUCET()":"0eb2dbf4","DENOMINATOR()":"918f8674","allowance(address,address)":"dd62ed3e","approve(address,uint256)":"095ea7b3","balanceOf(address)":"70a08231","burn(uint256)":"42966c68","changeTaxRate(uint256)":"eb9943d9","decimals()":"313ce567","epochDuration()":"4ff0876a","faucet()":"de5f72fd","faucetPaused()":"7858dcd6","getTaxLogs(uint48,address)":"70d38b0a","mint(uint256)":"a0712d68","name()":"06fdde03","owner()":"8da5cb5b","pauseFaucet()":"057d7a62","renounceOwnership()":"715018a6","symbol()":"95d89b41","taxLogs(uint48,address)":"dc731c40","taxRate()":"771a3a1d","totalSupply()":"18160ddd","transfer(address,uint256)":"a9059cbb","transferFrom(address,address,uint256)":"23b872dd","transferOwnership(address)":"f2fde38b"},"id":127}