{"abi":[{"type":"constructor","inputs":[],"stateMutability":"nonpayable"},{"type":"function","name":"approveProposal","inputs":[{"name":"proposalId","type":"uint256","internalType":"uint256"}],"outputs":[],"stateMutability":"nonpayable"},{"type":"function","name":"budget","inputs":[],"outputs":[{"name":"nativeBudget","type":"uint256","internalType":"uint256"}],"stateMutability":"view"},{"type":"function","name":"canReleaseMilestone","inputs":[{"name":"proposalId","type":"uint256","internalType":"uint256"},{"name":"milestoneIndex","type":"uint256","internalType":"uint256"}],"outputs":[{"name":"","type":"bool","internalType":"bool"}],"stateMutability":"view"},{"type":"function","name":"dewhitelistToken","inputs":[{"name":"token","type":"address","internalType":"address"}],"outputs":[],"stateMutability":"nonpayable"},{"type":"function","name":"getBudgetStatus","inputs":[],"outputs":[{"name":"nativeBudget","type":"uint256","internalType":"uint256"},{"name":"nativeSpent","type":"uint256","internalType":"uint256"},{"name":"nativeRemaining","type":"uint256","internalType":"uint256"},{"name":"whitelistedTokenList","type":"address[]","internalType":"address[]"},{"name":"tokenBudgets","type":"uint256[]","internalType":"uint256[]"},{"name":"tokenSpent","type":"uint256[]","internalType":"uint256[]"},{"name":"tokenRemaining","type":"uint256[]","internalType":"uint256[]"}],"stateMutability":"view"},{"type":"function","name":"getMilestone","inputs":[{"name":"proposalId","type":"uint256","internalType":"uint256"},{"name":"milestoneIndex","type":"uint256","internalType":"uint256"}],"outputs":[{"name":"","type":"tuple","internalType":"struct Grant.Milestone","components":[{"name":"blockNumber","type":"uint256","internalType":"uint256"},{"name":"amount","type":"uint256","internalType":"uint256"},{"name":"token","type":"address","internalType":"address"},{"name":"released","type":"bool","internalType":"bool"}]}],"stateMutability":"view"},{"type":"function","name":"getNativeBudget","inputs":[],"outputs":[{"name":"","type":"uint256","internalType":"uint256"}],"stateMutability":"view"},{"type":"function","name":"getProposal","inputs":[{"name":"proposalId","type":"uint256","internalType":"uint256"}],"outputs":[{"name":"","type":"tuple","internalType":"struct Grant.Proposal","components":[{"name":"proposer","type":"address","internalType":"address"},{"name":"uri","type":"string","internalType":"string"},{"name":"milestoneBlocks","type":"uint256[]","internalType":"uint256[]"},{"name":"milestoneAmounts","type":"uint256[]","internalType":"uint256[]"},{"name":"tokens","type":"address[]","internalType":"address[]"},{"name":"approved","type":"bool","internalType":"bool"},{"name":"rejected","type":"bool","internalType":"bool"},{"name":"submissionBlock","type":"uint256","internalType":"uint256"}]}],"stateMutability":"view"},{"type":"function","name":"getProposalCount","inputs":[],"outputs":[{"name":"","type":"uint256","internalType":"uint256"}],"stateMutability":"view"},{"type":"function","name":"getProposalMilestones","inputs":[{"name":"proposalId","type":"uint256","internalType":"uint256"}],"outputs":[{"name":"","type":"tuple[]","internalType":"struct Grant.Milestone[]","components":[{"name":"blockNumber","type":"uint256","internalType":"uint256"},{"name":"amount","type":"uint256","internalType":"uint256"},{"name":"token","type":"address","internalType":"address"},{"name":"released","type":"bool","internalType":"bool"}]}],"stateMutability":"view"},{"type":"function","name":"getRemainingNativeBudget","inputs":[],"outputs":[{"name":"","type":"uint256","internalType":"uint256"}],"stateMutability":"view"},{"type":"function","name":"getRemainingTokenBudget","inputs":[{"name":"token","type":"address","internalType":"address"}],"outputs":[{"name":"","type":"uint256","internalType":"uint256"}],"stateMutability":"view"},{"type":"function","name":"getTokenBudget","inputs":[{"name":"token","type":"address","internalType":"address"}],"outputs":[{"name":"","type":"uint256","internalType":"uint256"}],"stateMutability":"view"},{"type":"function","name":"getTotalSpentNative","inputs":[],"outputs":[{"name":"","type":"uint256","internalType":"uint256"}],"stateMutability":"view"},{"type":"function","name":"getTotalSpentToken","inputs":[{"name":"token","type":"address","internalType":"address"}],"outputs":[{"name":"","type":"uint256","internalType":"uint256"}],"stateMutability":"view"},{"type":"function","name":"isProposalApproved","inputs":[{"name":"proposalId","type":"uint256","internalType":"uint256"}],"outputs":[{"name":"","type":"bool","internalType":"bool"}],"stateMutability":"view"},{"type":"function","name":"isProposalRejected","inputs":[{"name":"proposalId","type":"uint256","internalType":"uint256"}],"outputs":[{"name":"","type":"bool","internalType":"bool"}],"stateMutability":"view"},{"type":"function","name":"isTokenWhitelisted","inputs":[{"name":"token","type":"address","internalType":"address"}],"outputs":[{"name":"","type":"bool","internalType":"bool"}],"stateMutability":"view"},{"type":"function","name":"milestones","inputs":[{"name":"","type":"uint256","internalType":"uint256"},{"name":"","type":"uint256","internalType":"uint256"}],"outputs":[{"name":"blockNumber","type":"uint256","internalType":"uint256"},{"name":"amount","type":"uint256","internalType":"uint256"},{"name":"token","type":"address","internalType":"address"},{"name":"released","type":"bool","internalType":"bool"}],"stateMutability":"view"},{"type":"function","name":"owner","inputs":[],"outputs":[{"name":"","type":"address","internalType":"address"}],"stateMutability":"view"},{"type":"function","name":"proposalCounter","inputs":[],"outputs":[{"name":"","type":"uint256","internalType":"uint256"}],"stateMutability":"view"},{"type":"function","name":"proposals","inputs":[{"name":"","type":"uint256","internalType":"uint256"}],"outputs":[{"name":"proposer","type":"address","internalType":"address"},{"name":"uri","type":"string","internalType":"string"},{"name":"approved","type":"bool","internalType":"bool"},{"name":"rejected","type":"bool","internalType":"bool"},{"name":"submissionBlock","type":"uint256","internalType":"uint256"}],"stateMutability":"view"},{"type":"function","name":"rejectProposal","inputs":[{"name":"proposalId","type":"uint256","internalType":"uint256"}],"outputs":[],"stateMutability":"nonpayable"},{"type":"function","name":"releaseMilestone","inputs":[{"name":"proposalId","type":"uint256","internalType":"uint256"},{"name":"milestoneIndex","type":"uint256","internalType":"uint256"}],"outputs":[],"stateMutability":"nonpayable"},{"type":"function","name":"renounceOwnership","inputs":[],"outputs":[],"stateMutability":"nonpayable"},{"type":"function","name":"submitProposal","inputs":[{"name":"uri","type":"string","internalType":"string"},{"name":"milestoneBlocks","type":"uint256[]","internalType":"uint256[]"},{"name":"milestoneAmounts","type":"uint256[]","internalType":"uint256[]"},{"name":"tokens","type":"address[]","internalType":"address[]"}],"outputs":[{"name":"proposalId","type":"uint256","internalType":"uint256"}],"stateMutability":"nonpayable"},{"type":"function","name":"totalSpentNative","inputs":[],"outputs":[{"name":"","type":"uint256","internalType":"uint256"}],"stateMutability":"view"},{"type":"function","name":"totalSpentToken","inputs":[{"name":"","type":"address","internalType":"address"}],"outputs":[{"name":"","type":"uint256","internalType":"uint256"}],"stateMutability":"view"},{"type":"function","name":"transferOwnership","inputs":[{"name":"newOwner","type":"address","internalType":"address"}],"outputs":[],"stateMutability":"nonpayable"},{"type":"function","name":"updateNativeBudget","inputs":[{"name":"_budget","type":"uint256","internalType":"uint256"}],"outputs":[],"stateMutability":"nonpayable"},{"type":"function","name":"updateTokenBudget","inputs":[{"name":"token","type":"address","internalType":"address"},{"name":"_budget","type":"uint256","internalType":"uint256"}],"outputs":[],"stateMutability":"nonpayable"},{"type":"function","name":"whitelistToken","inputs":[{"name":"token","type":"address","internalType":"address"}],"outputs":[],"stateMutability":"nonpayable"},{"type":"function","name":"whitelistedTokens","inputs":[{"name":"","type":"address","internalType":"address"}],"outputs":[{"name":"","type":"bool","internalType":"bool"}],"stateMutability":"view"},{"type":"event","name":"BudgetUpdated","inputs":[{"name":"nativeBudget","type":"uint256","indexed":false,"internalType":"uint256"}],"anonymous":false},{"type":"event","name":"MilestoneReleased","inputs":[{"name":"proposalId","type":"uint256","indexed":true,"internalType":"uint256"},{"name":"milestoneIndex","type":"uint256","indexed":true,"internalType":"uint256"},{"name":"amount","type":"uint256","indexed":false,"internalType":"uint256"},{"name":"token","type":"address","indexed":false,"internalType":"address"}],"anonymous":false},{"type":"event","name":"OwnershipTransferred","inputs":[{"name":"previousOwner","type":"address","indexed":true,"internalType":"address"},{"name":"newOwner","type":"address","indexed":true,"internalType":"address"}],"anonymous":false},{"type":"event","name":"ProposalApproved","inputs":[{"name":"proposalId","type":"uint256","indexed":true,"internalType":"uint256"}],"anonymous":false},{"type":"event","name":"ProposalRejected","inputs":[{"name":"proposalId","type":"uint256","indexed":true,"internalType":"uint256"}],"anonymous":false},{"type":"event","name":"ProposalSubmitted","inputs":[{"name":"proposalId","type":"uint256","indexed":true,"internalType":"uint256"},{"name":"proposer","type":"address","indexed":true,"internalType":"address"},{"name":"uri","type":"string","indexed":false,"internalType":"string"}],"anonymous":false},{"type":"event","name":"TokenBudgetUpdated","inputs":[{"name":"token","type":"address","indexed":true,"internalType":"address"},{"name":"budget","type":"uint256","indexed":false,"internalType":"uint256"}],"anonymous":false},{"type":"event","name":"TokenDewhitelisted","inputs":[{"name":"token","type":"address","indexed":true,"internalType":"address"}],"anonymous":false},{"type":"event","name":"TokenWhitelisted","inputs":[{"name":"token","type":"address","indexed":true,"internalType":"address"}],"anonymous":false},{"type":"error","name":"OwnableInvalidOwner","inputs":[{"name":"owner","type":"address","internalType":"address"}]},{"type":"error","name":"OwnableUnauthorizedAccount","inputs":[{"name":"account","type":"address","internalType":"address"}]}],"bytecode":{"object":"0x6080604052348015600e575f80fd5b503380603357604051631e4fbdf760e01b81525f600482015260240160405180910390fd5b603a81603f565b50608e565b5f80546001600160a01b038381166001600160a01b0319831681178455604051919092169283917f8be0079c531659141344cd1fd0a4f28419497f9722a3daafe3b4186f6b6457e09190a35050565b612a0b8061009b5f395ff3fe608060405234801561000f575f80fd5b5060043610610201575f3560e01c80638da5cb5b11610123578063bef39800116100b8578063d6484ffa11610088578063dbaf09101161006e578063dbaf0910146105d3578063ed01bf29146105e6578063f2fde38b146105f0575f80fd5b8063d6484ffa14610591578063daf9c210146105b1575f80fd5b8063bef3980014610537578063c08cc02d1461054a578063c73cb3a114610552578063c7f758a814610571575f80fd5b80639abcc0cc116100f35780639abcc0cc146104cc578063a24f1475146104f1578063b5af090f146104f9578063bc28d87814610524575f80fd5b80638da5cb5b146103ef5780638ed9895c1461040957806395167112146104a657806398951b56146104b9575f80fd5b80635305735e116101995780636dbe1b51116101695780636dbe1b51146103ae578063715018a6146103c1578063785884fb146103c957806386b40a1b146103dc575f80fd5b80635305735e146103405780635ebf34cb146103685780636128b0de146103905780636247f6f214610399575f80fd5b80632ac1438c116101d45780632ac1438c1461030257806338fd38cd1461030a5780633b34706a146103255780634cf2098c14610338575f80fd5b8063013cf08b14610205578063076ed71f146102325780630c0512e91461026c5780631c376c6314610283575b5f80fd5b610218610213366004612245565b610603565b60405161022995949392919061228a565b60405180910390f35b61025c610240366004612245565b5f90815260046020526040902060050154610100900460ff1690565b6040519015158152602001610229565b61027560065481565b604051908152602001610229565b6102d16102913660046122c8565b600560209081525f92835260408084209091529082529020805460018201546002909201549091906001600160a01b03811690600160a01b900460ff1684565b604051610229949392919093845260208401929092526001600160a01b031660408301521515606082015260800190565b6102756106c8565b6103126106de565b6040516102299796959493929190612322565b6102756103333660046123df565b610757565b600154610275565b61027561034e3660046123df565b6001600160a01b03165f9081526008602052604090205490565b6102756103763660046123df565b6001600160a01b03165f9081526002602052604090205490565b61027560075481565b6103ac6103a73660046123df565b61078a565b005b6103ac6103bc366004612245565b610838565b6103ac61087b565b6103ac6103d73660046123ff565b61088e565b6103ac6103ea3660046123df565b610944565b5f546040516001600160a01b039091168152602001610229565b6104996104173660046122c8565b604080516080810182525f808252602082018190529181018290526060810191909152505f828152600560209081526040808320848452825291829020825160808101845281548152600182015492810192909252600201546001600160a01b03811692820192909252600160a01b90910460ff161515606082015292915050565b6040516102299190612427565b6102756104b4366004612591565b610994565b6103ac6104c7366004612245565b610d99565b61025c6104da366004612245565b5f9081526004602052604090206005015460ff1690565b600754610275565b61025c6105073660046123df565b6001600160a01b03165f9081526003602052604090205460ff1690565b6103ac610532366004612245565b610ea6565b61025c6105453660046122c8565b610fac565b600654610275565b6102756105603660046123df565b60086020525f908152604090205481565b61058461057f366004612245565b6112c7565b60405161022991906126dd565b6105a461059f366004612245565b611510565b60405161022991906127a6565b61025c6105bf3660046123df565b60036020525f908152604090205460ff1681565b6103ac6105e13660046122c8565b611857565b6001546102759081565b6103ac6105fe3660046123df565b611aa5565b60046020525f9081526040902080546001820180546001600160a01b03909216929161062e9061281f565b80601f016020809104026020016040519081016040528092919081815260200182805461065a9061281f565b80156106a55780601f1061067c576101008083540402835291602001916106a5565b820191905f5260205f20905b81548152906001019060200180831161068857829003601f168201915b505050506005830154600690930154919260ff8082169361010090920416915085565b6007546001545f916106d99161286b565b905090565b6001546007545f60608080806106f4868861286b565b94508686865f604051908082528060200260200182016040528015610723578160200160208202803683370190505b50604080515f8082526020820181815282840191825260608301909352959d949c50929a5090985090965094509092509050565b6001600160a01b0381165f908152600860209081526040808320546002909252822054610784919061286b565b92915050565b610792611ae2565b6001600160a01b0381166107ed5760405162461bcd60e51b815260206004820152601560248201527f496e76616c696420746f6b656e2061646472657373000000000000000000000060448201526064015b60405180910390fd5b6001600160a01b0381165f81815260036020526040808220805460ff19166001179055517f6a65f90b1a644d2faac467a21e07e50e3f8fa5846e26231d30ae79a417d3d2629190a250565b610840611ae2565b60018190556040518181527fa0f8c4bbabac2904a1933feee4b665bc08f3d75d616bd9045f707c558dbdfc319060200160405180910390a150565b610883611ae2565b61088c5f611b0e565b565b610896611ae2565b6001600160a01b0382166108ec5760405162461bcd60e51b815260206004820152601560248201527f496e76616c696420746f6b656e2061646472657373000000000000000000000060448201526064016107e4565b6001600160a01b0382165f8181526002602052604090819020839055517fcee0a841d969d5eaef5b9b0dc8458a60cc181fc90af4c05c22974faef6a2d7ae906109389084815260200190565b60405180910390a25050565b61094c611ae2565b6001600160a01b0381165f81815260036020526040808220805460ff19169055517f0eebde4a8e230252684587283cd3e0961cdbf10881f98561a37714792ad54b579190a250565b5f61099d611ae2565b83515f036109e05760405162461bcd60e51b815260206004820152601060248201526f125b9d985b1a59081c1c9bdc1bdcd85b60821b60448201526064016107e4565b8251845114610a245760405162461bcd60e51b815260206004820152601060248201526f125b9d985b1a59081c1c9bdc1bdcd85b60821b60448201526064016107e4565b8151845114610a685760405162461bcd60e51b815260206004820152601060248201526f125b9d985b1a59081c1c9bdc1bdcd85b60821b60448201526064016107e4565b5f5b8251811015610b3b575f6001600160a01b0316838281518110610a8f57610a8f61287e565b60200260200101516001600160a01b031614158015610ae6575060035f848381518110610abe57610abe61287e565b6020908102919091018101516001600160a01b031682528101919091526040015f205460ff16155b15610b335760405162461bcd60e51b815260206004820152601560248201527f546f6b656e206e6f742077686974656c6973746564000000000000000000000060448201526064016107e4565b600101610a6a565b5060068054905f610b4b83612892565b909155506040805161010081018252328152602080820189815282840189905260608301889052608083018790525f60a0840181905260c084018190524360e08501528581526004909252929020815181546001600160a01b0319166001600160a01b039091161781559151929350916001820190610bca90826128f5565b5060408201518051610be6916002840191602090910190612195565b5060608201518051610c02916003840191602090910190612195565b5060808201518051610c1e9160048401916020909101906121de565b5060a082015160058201805460c085015115156101000261ff00199315159390931661ffff199091161791909117905560e0909101516006909101555f5b8451811015610d4e576040518060800160405280868381518110610c8257610c8261287e565b60200260200101518152602001858381518110610ca157610ca161287e565b60200260200101518152602001848381518110610cc057610cc061287e565b6020908102919091018101516001600160a01b0390811683525f928201839052858352600582526040808420868552835292839020845181559184015160018381019190915592840151600290920180546060909501511515600160a01b0274ffffffffffffffffffffffffffffffffffffffffff1990951692909116919091179290921790915501610c5c565b50326001600160a01b0316817fba63161e1c7e096aaf63cb63b137eeea26b870df0007c6e2ad029bae55d6517987604051610d8991906129b0565b60405180910390a3949350505050565b610da1611ae2565b5f8181526004602052604081206006810154909103610df75760405162461bcd60e51b8152602060048201526012602482015271141c9bdc1bdcd85b081b9bdd08199bdd5b9960721b60448201526064016107e4565b600581015460ff1680610e1357506005810154610100900460ff165b15610e605760405162461bcd60e51b815260206004820152601a60248201527f50726f706f73616c20616c72656164792070726f63657373656400000000000060448201526064016107e4565b610e6982611b5d565b60058101805460ff1916600117905560405182907f28ec9e38ba73636ceb2f6c1574136f83bd46284a3c74734b711bf45e12f8d929905f90a25050565b610eae611ae2565b5f8181526004602052604081206006810154909103610f045760405162461bcd60e51b8152602060048201526012602482015271141c9bdc1bdcd85b081b9bdd08199bdd5b9960721b60448201526064016107e4565b600581015460ff1680610f2057506005810154610100900460ff165b15610f6d5760405162461bcd60e51b815260206004820152601a60248201527f50726f706f73616c20616c72656164792070726f63657373656400000000000060448201526064016107e4565b60058101805461ff00191661010017905560405182907fd92fba445edb3153b571e6df782d7a66fd0ce668519273670820ee3a86da0ef4905f90a25050565b5f8281526004602090815260408083208151610100810190925280546001600160a01b03168252600181018054859484019190610fe89061281f565b80601f01602080910402602001604051908101604052809291908181526020018280546110149061281f565b801561105f5780601f106110365761010080835404028352916020019161105f565b820191905f5260205f20905b81548152906001019060200180831161104257829003601f168201915b50505050508152602001600282018054806020026020016040519081016040528092919081815260200182805480156110b557602002820191905f5260205f20905b8154815260200190600101908083116110a1575b505050505081526020016003820180548060200260200160405190810160405280929190818152602001828054801561110b57602002820191905f5260205f20905b8154815260200190600101908083116110f7575b505050505081526020016004820180548060200260200160405190810160405280929190818152602001828054801561116b57602002820191905f5260205f20905b81546001600160a01b0316815260019091019060200180831161114d575b5050509183525050600582015460ff80821615156020840152610100909104161515604082015260069091015460609091015260e08101519091505f036111b5575f915050610784565b8060a001516111c7575f915050610784565b5f848152600560209081526040808320868452825280832081516080810183528154815260018201549381018490526002909101546001600160a01b03811692820192909252600160a01b90910460ff1615156060820152910361122f575f92505050610784565b806060015115611243575f92505050610784565b8051431015611256575f92505050610784565b60408101516001600160a01b031661128857600154602082015160075461127d91906129c2565b111592505050610784565b604080820180516001600160a01b039081165f9081526002602090815284822054818701519451909316825260089052929092205461127d91906129c2565b6113186040518061010001604052805f6001600160a01b03168152602001606081526020016060815260200160608152602001606081526020015f151581526020015f151581526020015f81525090565b5f828152600460209081526040918290208251610100810190935280546001600160a01b0316835260018101805491928401916113549061281f565b80601f01602080910402602001604051908101604052809291908181526020018280546113809061281f565b80156113cb5780601f106113a2576101008083540402835291602001916113cb565b820191905f5260205f20905b8154815290600101906020018083116113ae57829003601f168201915b505050505081526020016002820180548060200260200160405190810160405280929190818152602001828054801561142157602002820191905f5260205f20905b81548152602001906001019080831161140d575b505050505081526020016003820180548060200260200160405190810160405280929190818152602001828054801561147757602002820191905f5260205f20905b815481526020019060010190808311611463575b50505050508152602001600482018054806020026020016040519081016040528092919081815260200182805480156114d757602002820191905f5260205f20905b81546001600160a01b031681526001909101906020018083116114b9575b5050509183525050600582015460ff80821615156020840152610100909104161515604082015260069091015460609091015292915050565b5f8181526004602090815260408083208151610100810190925280546001600160a01b03168252600181018054606095948401919061154e9061281f565b80601f016020809104026020016040519081016040528092919081815260200182805461157a9061281f565b80156115c55780601f1061159c576101008083540402835291602001916115c5565b820191905f5260205f20905b8154815290600101906020018083116115a857829003601f168201915b505050505081526020016002820180548060200260200160405190810160405280929190818152602001828054801561161b57602002820191905f5260205f20905b815481526020019060010190808311611607575b505050505081526020016003820180548060200260200160405190810160405280929190818152602001828054801561167157602002820191905f5260205f20905b81548152602001906001019080831161165d575b50505050508152602001600482018054806020026020016040519081016040528092919081815260200182805480156116d157602002820191905f5260205f20905b81546001600160a01b031681526001909101906020018083116116b3575b5050509183525050600582015460ff80821615156020840152610100909104161515604082015260069091015460609091015260e08101519091505f0361174f5760405162461bcd60e51b8152602060048201526012602482015271141c9bdc1bdcd85b081b9bdd08199bdd5b9960721b60448201526064016107e4565b5f81604001515167ffffffffffffffff81111561176e5761176e61245d565b6040519080825280602002602001820160405280156117be57816020015b604080516080810182525f8082526020808301829052928201819052606082015282525f1990920191018161178c5790505b5090505f5b82604001515181101561184f575f858152600560209081526040808320848452825291829020825160808101845281548152600182015492810192909252600201546001600160a01b03811692820192909252600160a01b90910460ff1615156060820152825183908390811061183c5761183c61287e565b60209081029190910101526001016117c3565b509392505050565b61185f611ae2565b5f82815260046020526040812060068101549091036118b55760405162461bcd60e51b8152602060048201526012602482015271141c9bdc1bdcd85b081b9bdd08199bdd5b9960721b60448201526064016107e4565b600581015460ff166119095760405162461bcd60e51b815260206004820152601560248201527f50726f706f73616c206e6f7420617070726f766564000000000000000000000060448201526064016107e4565b5f838152600560209081526040808320858452909152812060018101549091036119755760405162461bcd60e51b815260206004820152601360248201527f4d696c6573746f6e65206e6f7420666f756e640000000000000000000000000060448201526064016107e4565b6002810154600160a01b900460ff16156119d15760405162461bcd60e51b815260206004820152601a60248201527f4d696c6573746f6e6520616c72656164792072656c656173656400000000000060448201526064016107e4565b8054431015611a225760405162461bcd60e51b815260206004820152601560248201527f4d696c6573746f6e65206e6f742072656163686564000000000000000000000060448201526064016107e4565b611a2c8484611ff9565b600281018054600160a01b74ff0000000000000000000000000000000000000000198216179091556001820154604080519182526001600160a01b039092166020820152849186917f0348ad0f24a935699680b021d59d36313fb522d3870cd1095a3cac7d3e17da74910160405180910390a350505050565b611aad611ae2565b6001600160a01b038116611ad657604051631e4fbdf760e01b81525f60048201526024016107e4565b611adf81611b0e565b50565b5f546001600160a01b0316331461088c5760405163118cdaa760e01b81523360048201526024016107e4565b5f80546001600160a01b038381166001600160a01b0319831681178455604051919092169283917f8be0079c531659141344cd1fd0a4f28419497f9722a3daafe3b4186f6b6457e09190a35050565b5f8181526004602090815260408083208151610100810190925280546001600160a01b031682526001810180549293919291840191611b9b9061281f565b80601f0160208091040260200160405190810160405280929190818152602001828054611bc79061281f565b8015611c125780601f10611be957610100808354040283529160200191611c12565b820191905f5260205f20905b815481529060010190602001808311611bf557829003601f168201915b5050505050815260200160028201805480602002602001604051908101604052809291908181526020018280548015611c6857602002820191905f5260205f20905b815481526020019060010190808311611c54575b5050505050815260200160038201805480602002602001604051908101604052809291908181526020018280548015611cbe57602002820191905f5260205f20905b815481526020019060010190808311611caa575b5050505050815260200160048201805480602002602001604051908101604052809291908181526020018280548015611d1e57602002820191905f5260205f20905b81546001600160a01b03168152600190910190602001808311611d00575b5050509183525050600582015460ff80821615156020840152610100909104161515604082015260069091015460609091015290505f805b826040015151811015611dd9575f848152600560209081526040808320848452825291829020825160808101845281548152600182015492810192909252600201546001600160a01b038116928201839052600160a01b900460ff161515606082015290611dd0576020810151611dcd90846129c2565b92505b50600101611d56565b508015611e4f57600154600754611df19083906129c2565b1115611e4f5760405162461bcd60e51b815260206004820152602760248201527f496e73756666696369656e74206e61746976652062756467657420666f7220706044820152661c9bdc1bdcd85b60ca1b60648201526084016107e4565b5f5b826040015151811015611ff3575f848152600560209081526040808320848452825291829020825160808101845281548152600182015492810192909252600201546001600160a01b038116928201839052600160a01b900460ff16151560608201529015611fea575f805b856040015151811015611f4d575f878152600560209081526040808320848452825291829020825160808101845281548152600182015492810192909252600201546001600160a01b03808216838501819052600160a01b90920460ff1615156060840152928601519192919091169003611f44576020810151611f4190846129c2565b92505b50600101611ebd565b50604080830180516001600160a01b039081165f90815260026020908152848220549351909216815260089091529190912054611f8b9083906129c2565b1115611fe85760405162461bcd60e51b815260206004820152602660248201527f496e73756666696369656e7420746f6b656e2062756467657420666f722070726044820152651bdc1bdcd85b60d21b60648201526084016107e4565b505b50600101611e51565b50505050565b5f828152600560209081526040808320848452825291829020825160808101845281548152600182015492810192909252600201546001600160a01b038116928201839052600160a01b900460ff1615156060820152906120cd57600154602082015160075461206991906129c2565b11156120ad5760405162461bcd60e51b8152602060048201526013602482015272125b9cdd59999a58da595b9d08189d5919d95d606a1b60448201526064016107e4565b806020015160075f8282546120c291906129c2565b909155506121909050565b604080820180516001600160a01b039081165f9081526002602090815284822054818701519451909316825260089052929092205461210c91906129c2565b11156121505760405162461bcd60e51b8152602060048201526013602482015272125b9cdd59999a58da595b9d08189d5919d95d606a1b60448201526064016107e4565b806020015160085f83604001516001600160a01b03166001600160a01b031681526020019081526020015f205f82825461218a91906129c2565b90915550505b505050565b828054828255905f5260205f209081019282156121ce579160200282015b828111156121ce5782518255916020019190600101906121b3565b506121da929150612231565b5090565b828054828255905f5260205f209081019282156121ce579160200282015b828111156121ce57825182546001600160a01b0319166001600160a01b039091161782556020909201916001909101906121fc565b5b808211156121da575f8155600101612232565b5f60208284031215612255575f80fd5b5035919050565b5f81518084528060208401602086015e5f602082860101526020601f19601f83011685010191505092915050565b6001600160a01b038616815260a060208201525f6122ab60a083018761225c565b941515604083015250911515606083015260809091015292915050565b5f80604083850312156122d9575f80fd5b50508035926020909101359150565b5f8151808452602084019350602083015f5b828110156123185781518652602095860195909101906001016122fa565b5093949350505050565b5f60e0820189835288602084015287604084015260e06060840152808751808352610100850191506020890192505f5b818110156123795783516001600160a01b0316835260209384019390920191600101612352565b5050838103608085015261238d81886122e8565b91505082810360a08401526123a281866122e8565b905082810360c08401526123b681856122e8565b9a9950505050505050505050565b80356001600160a01b03811681146123da575f80fd5b919050565b5f602082840312156123ef575f80fd5b6123f8826123c4565b9392505050565b5f8060408385031215612410575f80fd5b612419836123c4565b946020939093013593505050565b81518152602080830151908201526040808301516001600160a01b03169082015260608083015115159082015260808101610784565b634e487b7160e01b5f52604160045260245ffd5b604051601f8201601f1916810167ffffffffffffffff8111828210171561249a5761249a61245d565b604052919050565b5f67ffffffffffffffff8211156124bb576124bb61245d565b5060051b60200190565b5f82601f8301126124d4575f80fd5b81356124e76124e2826124a2565b612471565b8082825260208201915060208360051b860101925085831115612508575f80fd5b602085015b8381101561252557803583526020928301920161250d565b5095945050505050565b5f82601f83011261253e575f80fd5b813561254c6124e2826124a2565b8082825260208201915060208360051b86010192508583111561256d575f80fd5b602085015b8381101561252557612583816123c4565b835260209283019201612572565b5f805f80608085870312156125a4575f80fd5b843567ffffffffffffffff8111156125ba575f80fd5b8501601f810187136125ca575f80fd5b803567ffffffffffffffff8111156125e4576125e461245d565b6125f7601f8201601f1916602001612471565b81815288602083850101111561260b575f80fd5b816020840160208301375f60208383010152809650505050602085013567ffffffffffffffff81111561263c575f80fd5b612648878288016124c5565b935050604085013567ffffffffffffffff811115612664575f80fd5b612670878288016124c5565b925050606085013567ffffffffffffffff81111561268c575f80fd5b6126988782880161252f565b91505092959194509250565b5f8151808452602084019350602083015f5b828110156123185781516001600160a01b03168652602095860195909101906001016126b6565b602081526126f76020820183516001600160a01b03169052565b5f6020830151610100604084015261271361012084018261225c565b90506040840151601f1984830301606085015261273082826122e8565b9150506060840151601f1984830301608085015261274e82826122e8565b9150506080840151601f198483030160a085015261276c82826126a4565b91505060a084015161278260c085018215159052565b5060c084015180151560e08501525060e08401516101008401528091505092915050565b602080825282518282018190525f918401906040840190835b81811015612814576127fe83855180518252602081015160208301526001600160a01b0360408201511660408301526060810151151560608301525050565b60209390930192608092909201916001016127bf565b509095945050505050565b600181811c9082168061283357607f821691505b60208210810361285157634e487b7160e01b5f52602260045260245ffd5b50919050565b634e487b7160e01b5f52601160045260245ffd5b8181038181111561078457610784612857565b634e487b7160e01b5f52603260045260245ffd5b5f600182016128a3576128a3612857565b5060010190565b601f82111561219057805f5260205f20601f840160051c810160208510156128cf5750805b601f840160051c820191505b818110156128ee575f81556001016128db565b5050505050565b815167ffffffffffffffff81111561290f5761290f61245d565b6129238161291d845461281f565b846128aa565b6020601f821160018114612955575f831561293e5750848201515b5f19600385901b1c1916600184901b1784556128ee565b5f84815260208120601f198516915b828110156129845787850151825560209485019460019092019101612964565b50848210156129a157868401515f19600387901b60f8161c191681555b50505050600190811b01905550565b602081525f6123f8602083018461225c565b808201808211156107845761078461285756fea264697066735822122086777a6e116e841d1910a0007fc0353cfc78d12c82ad0000821349eca97a6b1664736f6c634300081a0033","linkReferences":{}},"methodIdentifiers":{"approveProposal(uint256)":"98951b56","budget()":"ed01bf29","canReleaseMilestone(uint256,uint256)":"bef39800","dewhitelistToken(address)":"86b40a1b","getBudgetStatus()":"38fd38cd","getMilestone(uint256,uint256)":"8ed9895c","getNativeBudget()":"4cf2098c","getProposal(uint256)":"c7f758a8","getProposalCount()":"c08cc02d","getProposalMilestones(uint256)":"d6484ffa","getRemainingNativeBudget()":"2ac1438c","getRemainingTokenBudget(address)":"3b34706a","getTokenBudget(address)":"5ebf34cb","getTotalSpentNative()":"a24f1475","getTotalSpentToken(address)":"5305735e","isProposalApproved(uint256)":"9abcc0cc","isProposalRejected(uint256)":"076ed71f","isTokenWhitelisted(address)":"b5af090f","milestones(uint256,uint256)":"1c376c63","owner()":"8da5cb5b","proposalCounter()":"0c0512e9","proposals(uint256)":"013cf08b","rejectProposal(uint256)":"bc28d878","releaseMilestone(uint256,uint256)":"dbaf0910","renounceOwnership()":"715018a6","submitProposal(string,uint256[],uint256[],address[])":"95167112","totalSpentNative()":"6128b0de","totalSpentToken(address)":"c73cb3a1","transferOwnership(address)":"f2fde38b","updateNativeBudget(uint256)":"6dbe1b51","updateTokenBudget(address,uint256)":"785884fb","whitelistToken(address)":"6247f6f2","whitelistedTokens(address)":"daf9c210"},"id":140}