{"abi":[{"type":"constructor","inputs":[],"stateMutability":"nonpayable"},{"type":"function","name":"approveProposal","inputs":[{"name":"proposalId","type":"uint256","internalType":"uint256"}],"outputs":[],"stateMutability":"nonpayable"},{"type":"function","name":"budget","inputs":[],"outputs":[{"name":"nativeBudget","type":"uint256","internalType":"uint256"}],"stateMutability":"view"},{"type":"function","name":"canReleaseMilestone","inputs":[{"name":"proposalId","type":"uint256","internalType":"uint256"},{"name":"milestoneIndex","type":"uint256","internalType":"uint256"}],"outputs":[{"name":"","type":"bool","internalType":"bool"}],"stateMutability":"view"},{"type":"function","name":"dewhitelistToken","inputs":[{"name":"token","type":"address","internalType":"address"}],"outputs":[],"stateMutability":"nonpayable"},{"type":"function","name":"getBudgetStatus","inputs":[],"outputs":[{"name":"nativeBudget","type":"uint256","internalType":"uint256"},{"name":"nativeSpent","type":"uint256","internalType":"uint256"},{"name":"nativeRemaining","type":"uint256","internalType":"uint256"},{"name":"whitelistedTokenList","type":"address[]","internalType":"address[]"},{"name":"tokenBudgets","type":"uint256[]","internalType":"uint256[]"},{"name":"tokenSpent","type":"uint256[]","internalType":"uint256[]"},{"name":"tokenRemaining","type":"uint256[]","internalType":"uint256[]"}],"stateMutability":"view"},{"type":"function","name":"getMilestone","inputs":[{"name":"proposalId","type":"uint256","internalType":"uint256"},{"name":"milestoneIndex","type":"uint256","internalType":"uint256"}],"outputs":[{"name":"","type":"tuple","internalType":"struct Grant.Milestone","components":[{"name":"blockNumber","type":"uint256","internalType":"uint256"},{"name":"amount","type":"uint256","internalType":"uint256"},{"name":"token","type":"address","internalType":"address"},{"name":"released","type":"bool","internalType":"bool"}]}],"stateMutability":"view"},{"type":"function","name":"getNativeBudget","inputs":[],"outputs":[{"name":"","type":"uint256","internalType":"uint256"}],"stateMutability":"view"},{"type":"function","name":"getProposal","inputs":[{"name":"proposalId","type":"uint256","internalType":"uint256"}],"outputs":[{"name":"","type":"tuple","internalType":"struct Grant.Proposal","components":[{"name":"proposer","type":"address","internalType":"address"},{"name":"uri","type":"string","internalType":"string"},{"name":"milestoneBlocks","type":"uint256[]","internalType":"uint256[]"},{"name":"milestoneAmounts","type":"uint256[]","internalType":"uint256[]"},{"name":"tokens","type":"address[]","internalType":"address[]"},{"name":"approved","type":"bool","internalType":"bool"},{"name":"rejected","type":"bool","internalType":"bool"},{"name":"submissionBlock","type":"uint256","internalType":"uint256"}]}],"stateMutability":"view"},{"type":"function","name":"getProposalCount","inputs":[],"outputs":[{"name":"","type":"uint256","internalType":"uint256"}],"stateMutability":"view"},{"type":"function","name":"getProposalMilestones","inputs":[{"name":"proposalId","type":"uint256","internalType":"uint256"}],"outputs":[{"name":"","type":"tuple[]","internalType":"struct Grant.Milestone[]","components":[{"name":"blockNumber","type":"uint256","internalType":"uint256"},{"name":"amount","type":"uint256","internalType":"uint256"},{"name":"token","type":"address","internalType":"address"},{"name":"released","type":"bool","internalType":"bool"}]}],"stateMutability":"view"},{"type":"function","name":"getRemainingNativeBudget","inputs":[],"outputs":[{"name":"","type":"uint256","internalType":"uint256"}],"stateMutability":"view"},{"type":"function","name":"getRemainingTokenBudget","inputs":[{"name":"token","type":"address","internalType":"address"}],"outputs":[{"name":"","type":"uint256","internalType":"uint256"}],"stateMutability":"view"},{"type":"function","name":"getTokenBudget","inputs":[{"name":"token","type":"address","internalType":"address"}],"outputs":[{"name":"","type":"uint256","internalType":"uint256"}],"stateMutability":"view"},{"type":"function","name":"getTotalSpentNative","inputs":[],"outputs":[{"name":"","type":"uint256","internalType":"uint256"}],"stateMutability":"view"},{"type":"function","name":"getTotalSpentToken","inputs":[{"name":"token","type":"address","internalType":"address"}],"outputs":[{"name":"","type":"uint256","internalType":"uint256"}],"stateMutability":"view"},{"type":"function","name":"isProposalApproved","inputs":[{"name":"proposalId","type":"uint256","internalType":"uint256"}],"outputs":[{"name":"","type":"bool","internalType":"bool"}],"stateMutability":"view"},{"type":"function","name":"isProposalRejected","inputs":[{"name":"proposalId","type":"uint256","internalType":"uint256"}],"outputs":[{"name":"","type":"bool","internalType":"bool"}],"stateMutability":"view"},{"type":"function","name":"isTokenWhitelisted","inputs":[{"name":"token","type":"address","internalType":"address"}],"outputs":[{"name":"","type":"bool","internalType":"bool"}],"stateMutability":"view"},{"type":"function","name":"milestones","inputs":[{"name":"","type":"uint256","internalType":"uint256"},{"name":"","type":"uint256","internalType":"uint256"}],"outputs":[{"name":"blockNumber","type":"uint256","internalType":"uint256"},{"name":"amount","type":"uint256","internalType":"uint256"},{"name":"token","type":"address","internalType":"address"},{"name":"released","type":"bool","internalType":"bool"}],"stateMutability":"view"},{"type":"function","name":"owner","inputs":[],"outputs":[{"name":"","type":"address","internalType":"address"}],"stateMutability":"view"},{"type":"function","name":"proposalCounter","inputs":[],"outputs":[{"name":"","type":"uint256","internalType":"uint256"}],"stateMutability":"view"},{"type":"function","name":"proposals","inputs":[{"name":"","type":"uint256","internalType":"uint256"}],"outputs":[{"name":"proposer","type":"address","internalType":"address"},{"name":"uri","type":"string","internalType":"string"},{"name":"approved","type":"bool","internalType":"bool"},{"name":"rejected","type":"bool","internalType":"bool"},{"name":"submissionBlock","type":"uint256","internalType":"uint256"}],"stateMutability":"view"},{"type":"function","name":"rejectProposal","inputs":[{"name":"proposalId","type":"uint256","internalType":"uint256"}],"outputs":[],"stateMutability":"nonpayable"},{"type":"function","name":"releaseMilestone","inputs":[{"name":"proposalId","type":"uint256","internalType":"uint256"},{"name":"milestoneIndex","type":"uint256","internalType":"uint256"}],"outputs":[],"stateMutability":"nonpayable"},{"type":"function","name":"renounceOwnership","inputs":[],"outputs":[],"stateMutability":"nonpayable"},{"type":"function","name":"submitProposal","inputs":[{"name":"uri","type":"string","internalType":"string"},{"name":"milestoneBlocks","type":"uint256[]","internalType":"uint256[]"},{"name":"milestoneAmounts","type":"uint256[]","internalType":"uint256[]"},{"name":"tokens","type":"address[]","internalType":"address[]"}],"outputs":[{"name":"proposalId","type":"uint256","internalType":"uint256"}],"stateMutability":"nonpayable"},{"type":"function","name":"totalSpentNative","inputs":[],"outputs":[{"name":"","type":"uint256","internalType":"uint256"}],"stateMutability":"view"},{"type":"function","name":"totalSpentToken","inputs":[{"name":"","type":"address","internalType":"address"}],"outputs":[{"name":"","type":"uint256","internalType":"uint256"}],"stateMutability":"view"},{"type":"function","name":"transferOwnership","inputs":[{"name":"newOwner","type":"address","internalType":"address"}],"outputs":[],"stateMutability":"nonpayable"},{"type":"function","name":"updateNativeBudget","inputs":[{"name":"_budget","type":"uint256","internalType":"uint256"}],"outputs":[],"stateMutability":"nonpayable"},{"type":"function","name":"updateTokenBudget","inputs":[{"name":"token","type":"address","internalType":"address"},{"name":"_budget","type":"uint256","internalType":"uint256"}],"outputs":[],"stateMutability":"nonpayable"},{"type":"function","name":"whitelistToken","inputs":[{"name":"token","type":"address","internalType":"address"}],"outputs":[],"stateMutability":"nonpayable"},{"type":"function","name":"whitelistedTokens","inputs":[{"name":"","type":"address","internalType":"address"}],"outputs":[{"name":"","type":"bool","internalType":"bool"}],"stateMutability":"view"},{"type":"event","name":"BudgetUpdated","inputs":[{"name":"nativeBudget","type":"uint256","indexed":false,"internalType":"uint256"}],"anonymous":false},{"type":"event","name":"MilestoneReleased","inputs":[{"name":"proposalId","type":"uint256","indexed":true,"internalType":"uint256"},{"name":"milestoneIndex","type":"uint256","indexed":true,"internalType":"uint256"},{"name":"amount","type":"uint256","indexed":false,"internalType":"uint256"},{"name":"token","type":"address","indexed":false,"internalType":"address"}],"anonymous":false},{"type":"event","name":"OwnershipTransferred","inputs":[{"name":"previousOwner","type":"address","indexed":true,"internalType":"address"},{"name":"newOwner","type":"address","indexed":true,"internalType":"address"}],"anonymous":false},{"type":"event","name":"ProposalApproved","inputs":[{"name":"proposalId","type":"uint256","indexed":true,"internalType":"uint256"}],"anonymous":false},{"type":"event","name":"ProposalRejected","inputs":[{"name":"proposalId","type":"uint256","indexed":true,"internalType":"uint256"}],"anonymous":false},{"type":"event","name":"ProposalSubmitted","inputs":[{"name":"proposalId","type":"uint256","indexed":true,"internalType":"uint256"},{"name":"proposer","type":"address","indexed":true,"internalType":"address"},{"name":"uri","type":"string","indexed":false,"internalType":"string"}],"anonymous":false},{"type":"event","name":"TokenBudgetUpdated","inputs":[{"name":"token","type":"address","indexed":true,"internalType":"address"},{"name":"budget","type":"uint256","indexed":false,"internalType":"uint256"}],"anonymous":false},{"type":"event","name":"TokenDewhitelisted","inputs":[{"name":"token","type":"address","indexed":true,"internalType":"address"}],"anonymous":false},{"type":"event","name":"TokenWhitelisted","inputs":[{"name":"token","type":"address","indexed":true,"internalType":"address"}],"anonymous":false},{"type":"error","name":"OwnableInvalidOwner","inputs":[{"name":"owner","type":"address","internalType":"address"}]},{"type":"error","name":"OwnableUnauthorizedAccount","inputs":[{"name":"account","type":"address","internalType":"address"}]}],"bytecode":{"object":"0x6080604052348015600e575f80fd5b503380603357604051631e4fbdf760e01b81525f600482015260240160405180910390fd5b603a81603f565b50608e565b5f80546001600160a01b038381166001600160a01b0319831681178455604051919092169283917f8be0079c531659141344cd1fd0a4f28419497f9722a3daafe3b4186f6b6457e09190a35050565b6129db8061009b5f395ff3fe608060405234801561000f575f80fd5b50600436106101f2575f3560e01c80638da5cb5b11610114578063bef39800116100a9578063d6484ffa11610079578063d6484ffa14610582578063daf9c210146105a2578063dbaf0910146105c4578063ed01bf29146105d7578063f2fde38b146105e1575f80fd5b8063bef3980014610528578063c08cc02d1461053b578063c73cb3a114610543578063c7f758a814610562575f80fd5b80639abcc0cc116100e45780639abcc0cc146104bd578063a24f1475146104e2578063b5af090f146104ea578063bc28d87814610515575f80fd5b80638da5cb5b146103e05780638ed9895c146103fa578063951671121461049757806398951b56146104aa575f80fd5b80635305735e1161018a5780636dbe1b511161015a5780636dbe1b511461039f578063715018a6146103b2578063785884fb146103ba57806386b40a1b146103cd575f80fd5b80635305735e146103315780635ebf34cb146103595780636128b0de146103815780636247f6f21461038a575f80fd5b80632ac1438c116101c55780632ac1438c146102f357806338fd38cd146102fb5780633b34706a146103165780634cf2098c14610329575f80fd5b8063013cf08b146101f6578063076ed71f146102235780630c0512e91461025d5780631c376c6314610274575b5f80fd5b610209610204366004612215565b6105f4565b60405161021a95949392919061225a565b60405180910390f35b61024d610231366004612215565b5f90815260046020526040902060050154610100900460ff1690565b604051901515815260200161021a565b61026660065481565b60405190815260200161021a565b6102c2610282366004612298565b600560209081525f92835260408084209091529082529020805460018201546002909201549091906001600160a01b03811690600160a01b900460ff1684565b60405161021a949392919093845260208401929092526001600160a01b031660408301521515606082015260800190565b6102666106b9565b6103036106cf565b60405161021a97969594939291906122f2565b6102666103243660046123af565b610748565b600154610266565b61026661033f3660046123af565b6001600160a01b03165f9081526008602052604090205490565b6102666103673660046123af565b6001600160a01b03165f9081526002602052604090205490565b61026660075481565b61039d6103983660046123af565b61077b565b005b61039d6103ad366004612215565b610821565b61039d610864565b61039d6103c83660046123cf565b610877565b61039d6103db3660046123af565b610925565b5f546040516001600160a01b03909116815260200161021a565b61048a610408366004612298565b604080516080810182525f808252602082018190529181018290526060810191909152505f828152600560209081526040808320848452825291829020825160808101845281548152600182015492810192909252600201546001600160a01b03811692820192909252600160a01b90910460ff161515606082015292915050565b60405161021a91906123f7565b6102666104a5366004612561565b610975565b61039d6104b8366004612215565b610d7a565b61024d6104cb366004612215565b5f9081526004602052604090206005015460ff1690565b600754610266565b61024d6104f83660046123af565b6001600160a01b03165f9081526003602052604090205460ff1690565b61039d610523366004612215565b610e87565b61024d610536366004612298565b610f8d565b600654610266565b6102666105513660046123af565b60086020525f908152604090205481565b610575610570366004612215565b6112a8565b60405161021a91906126ad565b610595610590366004612215565b6114f1565b60405161021a9190612776565b61024d6105b03660046123af565b60036020525f908152604090205460ff1681565b61039d6105d2366004612298565b611838565b6001546102669081565b61039d6105ef3660046123af565b611a75565b60046020525f9081526040902080546001820180546001600160a01b03909216929161061f906127ef565b80601f016020809104026020016040519081016040528092919081815260200182805461064b906127ef565b80156106965780601f1061066d57610100808354040283529160200191610696565b820191905f5260205f20905b81548152906001019060200180831161067957829003601f168201915b505050506005830154600690930154919260ff8082169361010090920416915085565b6007546001545f916106ca9161283b565b905090565b6001546007545f60608080806106e5868861283b565b94508686865f604051908082528060200260200182016040528015610714578160200160208202803683370190505b50604080515f8082526020820181815282840191825260608301909352959d949c50929a5090985090965094509092509050565b6001600160a01b0381165f908152600860209081526040808320546002909252822054610775919061283b565b92915050565b610783611ab2565b6001600160a01b0381166107d65760405162461bcd60e51b8152602060048201526015602482015274496e76616c696420746f6b656e206164647265737360581b60448201526064015b60405180910390fd5b6001600160a01b0381165f81815260036020526040808220805460ff19166001179055517f6a65f90b1a644d2faac467a21e07e50e3f8fa5846e26231d30ae79a417d3d2629190a250565b610829611ab2565b60018190556040518181527fa0f8c4bbabac2904a1933feee4b665bc08f3d75d616bd9045f707c558dbdfc319060200160405180910390a150565b61086c611ab2565b6108755f611ade565b565b61087f611ab2565b6001600160a01b0382166108cd5760405162461bcd60e51b8152602060048201526015602482015274496e76616c696420746f6b656e206164647265737360581b60448201526064016107cd565b6001600160a01b0382165f8181526002602052604090819020839055517fcee0a841d969d5eaef5b9b0dc8458a60cc181fc90af4c05c22974faef6a2d7ae906109199084815260200190565b60405180910390a25050565b61092d611ab2565b6001600160a01b0381165f81815260036020526040808220805460ff19169055517f0eebde4a8e230252684587283cd3e0961cdbf10881f98561a37714792ad54b579190a250565b5f61097e611ab2565b83515f036109c15760405162461bcd60e51b815260206004820152601060248201526f125b9d985b1a59081c1c9bdc1bdcd85b60821b60448201526064016107cd565b8251845114610a055760405162461bcd60e51b815260206004820152601060248201526f125b9d985b1a59081c1c9bdc1bdcd85b60821b60448201526064016107cd565b8151845114610a495760405162461bcd60e51b815260206004820152601060248201526f125b9d985b1a59081c1c9bdc1bdcd85b60821b60448201526064016107cd565b5f5b8251811015610b1c575f6001600160a01b0316838281518110610a7057610a7061284e565b60200260200101516001600160a01b031614158015610ac7575060035f848381518110610a9f57610a9f61284e565b6020908102919091018101516001600160a01b031682528101919091526040015f205460ff16155b15610b145760405162461bcd60e51b815260206004820152601560248201527f546f6b656e206e6f742077686974656c6973746564000000000000000000000060448201526064016107cd565b600101610a4b565b5060068054905f610b2c83612862565b909155506040805161010081018252328152602080820189815282840189905260608301889052608083018790525f60a0840181905260c084018190524360e08501528581526004909252929020815181546001600160a01b0319166001600160a01b039091161781559151929350916001820190610bab90826128c5565b5060408201518051610bc7916002840191602090910190612165565b5060608201518051610be3916003840191602090910190612165565b5060808201518051610bff9160048401916020909101906121ae565b5060a082015160058201805460c085015115156101000261ff00199315159390931661ffff199091161791909117905560e0909101516006909101555f5b8451811015610d2f576040518060800160405280868381518110610c6357610c6361284e565b60200260200101518152602001858381518110610c8257610c8261284e565b60200260200101518152602001848381518110610ca157610ca161284e565b6020908102919091018101516001600160a01b0390811683525f928201839052858352600582526040808420868552835292839020845181559184015160018381019190915592840151600290920180546060909501511515600160a01b0274ffffffffffffffffffffffffffffffffffffffffff1990951692909116919091179290921790915501610c3d565b50326001600160a01b0316817fba63161e1c7e096aaf63cb63b137eeea26b870df0007c6e2ad029bae55d6517987604051610d6a9190612980565b60405180910390a3949350505050565b610d82611ab2565b5f8181526004602052604081206006810154909103610dd85760405162461bcd60e51b8152602060048201526012602482015271141c9bdc1bdcd85b081b9bdd08199bdd5b9960721b60448201526064016107cd565b600581015460ff1680610df457506005810154610100900460ff165b15610e415760405162461bcd60e51b815260206004820152601a60248201527f50726f706f73616c20616c72656164792070726f63657373656400000000000060448201526064016107cd565b610e4a82611b2d565b60058101805460ff1916600117905560405182907f28ec9e38ba73636ceb2f6c1574136f83bd46284a3c74734b711bf45e12f8d929905f90a25050565b610e8f611ab2565b5f8181526004602052604081206006810154909103610ee55760405162461bcd60e51b8152602060048201526012602482015271141c9bdc1bdcd85b081b9bdd08199bdd5b9960721b60448201526064016107cd565b600581015460ff1680610f0157506005810154610100900460ff165b15610f4e5760405162461bcd60e51b815260206004820152601a60248201527f50726f706f73616c20616c72656164792070726f63657373656400000000000060448201526064016107cd565b60058101805461ff00191661010017905560405182907fd92fba445edb3153b571e6df782d7a66fd0ce668519273670820ee3a86da0ef4905f90a25050565b5f8281526004602090815260408083208151610100810190925280546001600160a01b03168252600181018054859484019190610fc9906127ef565b80601f0160208091040260200160405190810160405280929190818152602001828054610ff5906127ef565b80156110405780601f1061101757610100808354040283529160200191611040565b820191905f5260205f20905b81548152906001019060200180831161102357829003601f168201915b505050505081526020016002820180548060200260200160405190810160405280929190818152602001828054801561109657602002820191905f5260205f20905b815481526020019060010190808311611082575b50505050508152602001600382018054806020026020016040519081016040528092919081815260200182805480156110ec57602002820191905f5260205f20905b8154815260200190600101908083116110d8575b505050505081526020016004820180548060200260200160405190810160405280929190818152602001828054801561114c57602002820191905f5260205f20905b81546001600160a01b0316815260019091019060200180831161112e575b5050509183525050600582015460ff80821615156020840152610100909104161515604082015260069091015460609091015260e08101519091505f03611196575f915050610775565b8060a001516111a8575f915050610775565b5f848152600560209081526040808320868452825280832081516080810183528154815260018201549381018490526002909101546001600160a01b03811692820192909252600160a01b90910460ff16151560608201529103611210575f92505050610775565b806060015115611224575f92505050610775565b8051431015611237575f92505050610775565b60408101516001600160a01b031661126957600154602082015160075461125e9190612992565b111592505050610775565b604080820180516001600160a01b039081165f9081526002602090815284822054818701519451909316825260089052929092205461125e9190612992565b6112f96040518061010001604052805f6001600160a01b03168152602001606081526020016060815260200160608152602001606081526020015f151581526020015f151581526020015f81525090565b5f828152600460209081526040918290208251610100810190935280546001600160a01b031683526001810180549192840191611335906127ef565b80601f0160208091040260200160405190810160405280929190818152602001828054611361906127ef565b80156113ac5780601f10611383576101008083540402835291602001916113ac565b820191905f5260205f20905b81548152906001019060200180831161138f57829003601f168201915b505050505081526020016002820180548060200260200160405190810160405280929190818152602001828054801561140257602002820191905f5260205f20905b8154815260200190600101908083116113ee575b505050505081526020016003820180548060200260200160405190810160405280929190818152602001828054801561145857602002820191905f5260205f20905b815481526020019060010190808311611444575b50505050508152602001600482018054806020026020016040519081016040528092919081815260200182805480156114b857602002820191905f5260205f20905b81546001600160a01b0316815260019091019060200180831161149a575b5050509183525050600582015460ff80821615156020840152610100909104161515604082015260069091015460609091015292915050565b5f8181526004602090815260408083208151610100810190925280546001600160a01b03168252600181018054606095948401919061152f906127ef565b80601f016020809104026020016040519081016040528092919081815260200182805461155b906127ef565b80156115a65780601f1061157d576101008083540402835291602001916115a6565b820191905f5260205f20905b81548152906001019060200180831161158957829003601f168201915b50505050508152602001600282018054806020026020016040519081016040528092919081815260200182805480156115fc57602002820191905f5260205f20905b8154815260200190600101908083116115e8575b505050505081526020016003820180548060200260200160405190810160405280929190818152602001828054801561165257602002820191905f5260205f20905b81548152602001906001019080831161163e575b50505050508152602001600482018054806020026020016040519081016040528092919081815260200182805480156116b257602002820191905f5260205f20905b81546001600160a01b03168152600190910190602001808311611694575b5050509183525050600582015460ff80821615156020840152610100909104161515604082015260069091015460609091015260e08101519091505f036117305760405162461bcd60e51b8152602060048201526012602482015271141c9bdc1bdcd85b081b9bdd08199bdd5b9960721b60448201526064016107cd565b5f81604001515167ffffffffffffffff81111561174f5761174f61242d565b60405190808252806020026020018201604052801561179f57816020015b604080516080810182525f8082526020808301829052928201819052606082015282525f1990920191018161176d5790505b5090505f5b826040015151811015611830575f858152600560209081526040808320848452825291829020825160808101845281548152600182015492810192909252600201546001600160a01b03811692820192909252600160a01b90910460ff1615156060820152825183908390811061181d5761181d61284e565b60209081029190910101526001016117a4565b509392505050565b611840611ab2565b5f82815260046020526040812060068101549091036118965760405162461bcd60e51b8152602060048201526012602482015271141c9bdc1bdcd85b081b9bdd08199bdd5b9960721b60448201526064016107cd565b600581015460ff166118ea5760405162461bcd60e51b815260206004820152601560248201527f50726f706f73616c206e6f7420617070726f766564000000000000000000000060448201526064016107cd565b5f838152600560209081526040808320858452909152812060018101549091036119565760405162461bcd60e51b815260206004820152601360248201527f4d696c6573746f6e65206e6f7420666f756e640000000000000000000000000060448201526064016107cd565b6002810154600160a01b900460ff16156119b25760405162461bcd60e51b815260206004820152601a60248201527f4d696c6573746f6e6520616c72656164792072656c656173656400000000000060448201526064016107cd565b8054431015611a035760405162461bcd60e51b815260206004820152601560248201527f4d696c6573746f6e65206e6f742072656163686564000000000000000000000060448201526064016107cd565b611a0d8484611fc9565b600281018054600160a01b60ff60a01b198216179091556001820154604080519182526001600160a01b039092166020820152849186917f0348ad0f24a935699680b021d59d36313fb522d3870cd1095a3cac7d3e17da74910160405180910390a350505050565b611a7d611ab2565b6001600160a01b038116611aa657604051631e4fbdf760e01b81525f60048201526024016107cd565b611aaf81611ade565b50565b5f546001600160a01b031633146108755760405163118cdaa760e01b81523360048201526024016107cd565b5f80546001600160a01b038381166001600160a01b0319831681178455604051919092169283917f8be0079c531659141344cd1fd0a4f28419497f9722a3daafe3b4186f6b6457e09190a35050565b5f8181526004602090815260408083208151610100810190925280546001600160a01b031682526001810180549293919291840191611b6b906127ef565b80601f0160208091040260200160405190810160405280929190818152602001828054611b97906127ef565b8015611be25780601f10611bb957610100808354040283529160200191611be2565b820191905f5260205f20905b815481529060010190602001808311611bc557829003601f168201915b5050505050815260200160028201805480602002602001604051908101604052809291908181526020018280548015611c3857602002820191905f5260205f20905b815481526020019060010190808311611c24575b5050505050815260200160038201805480602002602001604051908101604052809291908181526020018280548015611c8e57602002820191905f5260205f20905b815481526020019060010190808311611c7a575b5050505050815260200160048201805480602002602001604051908101604052809291908181526020018280548015611cee57602002820191905f5260205f20905b81546001600160a01b03168152600190910190602001808311611cd0575b5050509183525050600582015460ff80821615156020840152610100909104161515604082015260069091015460609091015290505f805b826040015151811015611da9575f848152600560209081526040808320848452825291829020825160808101845281548152600182015492810192909252600201546001600160a01b038116928201839052600160a01b900460ff161515606082015290611da0576020810151611d9d9084612992565b92505b50600101611d26565b508015611e1f57600154600754611dc1908390612992565b1115611e1f5760405162461bcd60e51b815260206004820152602760248201527f496e73756666696369656e74206e61746976652062756467657420666f7220706044820152661c9bdc1bdcd85b60ca1b60648201526084016107cd565b5f5b826040015151811015611fc3575f848152600560209081526040808320848452825291829020825160808101845281548152600182015492810192909252600201546001600160a01b038116928201839052600160a01b900460ff16151560608201529015611fba575f805b856040015151811015611f1d575f878152600560209081526040808320848452825291829020825160808101845281548152600182015492810192909252600201546001600160a01b03808216838501819052600160a01b90920460ff1615156060840152928601519192919091169003611f14576020810151611f119084612992565b92505b50600101611e8d565b50604080830180516001600160a01b039081165f90815260026020908152848220549351909216815260089091529190912054611f5b908390612992565b1115611fb85760405162461bcd60e51b815260206004820152602660248201527f496e73756666696369656e7420746f6b656e2062756467657420666f722070726044820152651bdc1bdcd85b60d21b60648201526084016107cd565b505b50600101611e21565b50505050565b5f828152600560209081526040808320848452825291829020825160808101845281548152600182015492810192909252600201546001600160a01b038116928201839052600160a01b900460ff16151560608201529061209d5760015460208201516007546120399190612992565b111561207d5760405162461bcd60e51b8152602060048201526013602482015272125b9cdd59999a58da595b9d08189d5919d95d606a1b60448201526064016107cd565b806020015160075f8282546120929190612992565b909155506121609050565b604080820180516001600160a01b039081165f908152600260209081528482205481870151945190931682526008905292909220546120dc9190612992565b11156121205760405162461bcd60e51b8152602060048201526013602482015272125b9cdd59999a58da595b9d08189d5919d95d606a1b60448201526064016107cd565b806020015160085f83604001516001600160a01b03166001600160a01b031681526020019081526020015f205f82825461215a9190612992565b90915550505b505050565b828054828255905f5260205f2090810192821561219e579160200282015b8281111561219e578251825591602001919060010190612183565b506121aa929150612201565b5090565b828054828255905f5260205f2090810192821561219e579160200282015b8281111561219e57825182546001600160a01b0319166001600160a01b039091161782556020909201916001909101906121cc565b5b808211156121aa575f8155600101612202565b5f60208284031215612225575f80fd5b5035919050565b5f81518084528060208401602086015e5f602082860101526020601f19601f83011685010191505092915050565b6001600160a01b038616815260a060208201525f61227b60a083018761222c565b941515604083015250911515606083015260809091015292915050565b5f80604083850312156122a9575f80fd5b50508035926020909101359150565b5f8151808452602084019350602083015f5b828110156122e85781518652602095860195909101906001016122ca565b5093949350505050565b5f60e0820189835288602084015287604084015260e06060840152808751808352610100850191506020890192505f5b818110156123495783516001600160a01b0316835260209384019390920191600101612322565b5050838103608085015261235d81886122b8565b91505082810360a084015261237281866122b8565b905082810360c084015261238681856122b8565b9a9950505050505050505050565b80356001600160a01b03811681146123aa575f80fd5b919050565b5f602082840312156123bf575f80fd5b6123c882612394565b9392505050565b5f80604083850312156123e0575f80fd5b6123e983612394565b946020939093013593505050565b81518152602080830151908201526040808301516001600160a01b03169082015260608083015115159082015260808101610775565b634e487b7160e01b5f52604160045260245ffd5b604051601f8201601f1916810167ffffffffffffffff8111828210171561246a5761246a61242d565b604052919050565b5f67ffffffffffffffff82111561248b5761248b61242d565b5060051b60200190565b5f82601f8301126124a4575f80fd5b81356124b76124b282612472565b612441565b8082825260208201915060208360051b8601019250858311156124d8575f80fd5b602085015b838110156124f55780358352602092830192016124dd565b5095945050505050565b5f82601f83011261250e575f80fd5b813561251c6124b282612472565b8082825260208201915060208360051b86010192508583111561253d575f80fd5b602085015b838110156124f55761255381612394565b835260209283019201612542565b5f805f8060808587031215612574575f80fd5b843567ffffffffffffffff81111561258a575f80fd5b8501601f8101871361259a575f80fd5b803567ffffffffffffffff8111156125b4576125b461242d565b6125c7601f8201601f1916602001612441565b8181528860208385010111156125db575f80fd5b816020840160208301375f60208383010152809650505050602085013567ffffffffffffffff81111561260c575f80fd5b61261887828801612495565b935050604085013567ffffffffffffffff811115612634575f80fd5b61264087828801612495565b925050606085013567ffffffffffffffff81111561265c575f80fd5b612668878288016124ff565b91505092959194509250565b5f8151808452602084019350602083015f5b828110156122e85781516001600160a01b0316865260209586019590910190600101612686565b602081526126c76020820183516001600160a01b03169052565b5f602083015161010060408401526126e361012084018261222c565b90506040840151601f1984830301606085015261270082826122b8565b9150506060840151601f1984830301608085015261271e82826122b8565b9150506080840151601f198483030160a085015261273c8282612674565b91505060a084015161275260c085018215159052565b5060c084015180151560e08501525060e08401516101008401528091505092915050565b602080825282518282018190525f918401906040840190835b818110156127e4576127ce83855180518252602081015160208301526001600160a01b0360408201511660408301526060810151151560608301525050565b602093909301926080929092019160010161278f565b509095945050505050565b600181811c9082168061280357607f821691505b60208210810361282157634e487b7160e01b5f52602260045260245ffd5b50919050565b634e487b7160e01b5f52601160045260245ffd5b8181038181111561077557610775612827565b634e487b7160e01b5f52603260045260245ffd5b5f6001820161287357612873612827565b5060010190565b601f82111561216057805f5260205f20601f840160051c8101602085101561289f5750805b601f840160051c820191505b818110156128be575f81556001016128ab565b5050505050565b815167ffffffffffffffff8111156128df576128df61242d565b6128f3816128ed84546127ef565b8461287a565b6020601f821160018114612925575f831561290e5750848201515b5f19600385901b1c1916600184901b1784556128be565b5f84815260208120601f198516915b828110156129545787850151825560209485019460019092019101612934565b508482101561297157868401515f19600387901b60f8161c191681555b50505050600190811b01905550565b602081525f6123c8602083018461222c565b808201808211156107755761077561282756fea264697066735822122020033622177aab7052df3217304f66e2c094b1b44668281be7eea13131fd651464736f6c634300081a0033","linkReferences":{}},"methodIdentifiers":{"approveProposal(uint256)":"98951b56","budget()":"ed01bf29","canReleaseMilestone(uint256,uint256)":"bef39800","dewhitelistToken(address)":"86b40a1b","getBudgetStatus()":"38fd38cd","getMilestone(uint256,uint256)":"8ed9895c","getNativeBudget()":"4cf2098c","getProposal(uint256)":"c7f758a8","getProposalCount()":"c08cc02d","getProposalMilestones(uint256)":"d6484ffa","getRemainingNativeBudget()":"2ac1438c","getRemainingTokenBudget(address)":"3b34706a","getTokenBudget(address)":"5ebf34cb","getTotalSpentNative()":"a24f1475","getTotalSpentToken(address)":"5305735e","isProposalApproved(uint256)":"9abcc0cc","isProposalRejected(uint256)":"076ed71f","isTokenWhitelisted(address)":"b5af090f","milestones(uint256,uint256)":"1c376c63","owner()":"8da5cb5b","proposalCounter()":"0c0512e9","proposals(uint256)":"013cf08b","rejectProposal(uint256)":"bc28d878","releaseMilestone(uint256,uint256)":"dbaf0910","renounceOwnership()":"715018a6","submitProposal(string,uint256[],uint256[],address[])":"95167112","totalSpentNative()":"6128b0de","totalSpentToken(address)":"c73cb3a1","transferOwnership(address)":"f2fde38b","updateNativeBudget(uint256)":"6dbe1b51","updateTokenBudget(address,uint256)":"785884fb","whitelistToken(address)":"6247f6f2","whitelistedTokens(address)":"daf9c210"},"id":130}