{"abi":[{"type":"constructor","inputs":[],"stateMutability":"nonpayable"},{"type":"function","name":"closeElection","inputs":[],"outputs":[],"stateMutability":"nonpayable"},{"type":"function","name":"currentElection","inputs":[],"outputs":[{"name":"isOpen","type":"bool","internalType":"bool"},{"name":"startBlock","type":"uint256","internalType":"uint256"},{"name":"durationBlocks","type":"uint256","internalType":"uint256"},{"name":"endBlock","type":"uint256","internalType":"uint256"}],"stateMutability":"view"},{"type":"function","name":"currentElectionId","inputs":[],"outputs":[{"name":"","type":"uint256","internalType":"uint256"}],"stateMutability":"view"},{"type":"function","name":"getElectionInfo","inputs":[],"outputs":[{"name":"","type":"tuple","internalType":"struct OpenElection.Data","components":[{"name":"isOpen","type":"bool","internalType":"bool"},{"name":"startBlock","type":"uint256","internalType":"uint256"},{"name":"durationBlocks","type":"uint256","internalType":"uint256"},{"name":"endBlock","type":"uint256","internalType":"uint256"}]}],"stateMutability":"view"},{"type":"function","name":"getNomineeRanking","inputs":[],"outputs":[{"name":"nominees","type":"address[]","internalType":"address[]"},{"name":"votes","type":"uint256[]","internalType":"uint256[]"}],"stateMutability":"view"},{"type":"function","name":"getNominees","inputs":[],"outputs":[{"name":"","type":"address[]","internalType":"address[]"}],"stateMutability":"view"},{"type":"function","name":"getNomineesForElection","inputs":[{"name":"electionId","type":"uint256","internalType":"uint256"}],"outputs":[{"name":"","type":"address[]","internalType":"address[]"}],"stateMutability":"view"},{"type":"function","name":"getRankingAnyTime","inputs":[{"name":"electionId","type":"uint256","internalType":"uint256"}],"outputs":[{"name":"nominees","type":"address[]","internalType":"address[]"},{"name":"votes","type":"uint256[]","internalType":"uint256[]"}],"stateMutability":"view"},{"type":"function","name":"getVoteCount","inputs":[{"name":"nominee","type":"address","internalType":"address"},{"name":"electionId","type":"uint256","internalType":"uint256"}],"outputs":[{"name":"","type":"uint256","internalType":"uint256"}],"stateMutability":"view"},{"type":"function","name":"hasUserVoted","inputs":[{"name":"voter","type":"address","internalType":"address"},{"name":"electionId","type":"uint256","internalType":"uint256"}],"outputs":[{"name":"","type":"bool","internalType":"bool"}],"stateMutability":"view"},{"type":"function","name":"hasVoted","inputs":[{"name":"electionId","type":"uint256","internalType":"uint256"},{"name":"voter","type":"address","internalType":"address"}],"outputs":[{"name":"hasVoted","type":"bool","internalType":"bool"}],"stateMutability":"view"},{"type":"function","name":"isElectionOpen","inputs":[],"outputs":[{"name":"","type":"bool","internalType":"bool"}],"stateMutability":"view"},{"type":"function","name":"isNominee","inputs":[{"name":"account","type":"address","internalType":"address"}],"outputs":[{"name":"","type":"bool","internalType":"bool"}],"stateMutability":"view"},{"type":"function","name":"nominate","inputs":[{"name":"nominee","type":"address","internalType":"address"},{"name":"shouldNominate","type":"bool","internalType":"bool"}],"outputs":[],"stateMutability":"nonpayable"},{"type":"function","name":"nominations","inputs":[{"name":"nominee","type":"address","internalType":"address"}],"outputs":[{"name":"nominated","type":"bool","internalType":"bool"}],"stateMutability":"view"},{"type":"function","name":"nomineesByElection","inputs":[{"name":"electionId","type":"uint256","internalType":"uint256"},{"name":"","type":"uint256","internalType":"uint256"}],"outputs":[{"name":"","type":"address","internalType":"address"}],"stateMutability":"view"},{"type":"function","name":"nomineesCount","inputs":[],"outputs":[{"name":"","type":"uint256","internalType":"uint256"}],"stateMutability":"view"},{"type":"function","name":"nomineesSorted","inputs":[{"name":"","type":"uint256","internalType":"uint256"}],"outputs":[{"name":"","type":"address","internalType":"address"}],"stateMutability":"view"},{"type":"function","name":"openElection","inputs":[{"name":"durationBlocks","type":"uint256","internalType":"uint256"}],"outputs":[],"stateMutability":"nonpayable"},{"type":"function","name":"owner","inputs":[],"outputs":[{"name":"","type":"address","internalType":"address"}],"stateMutability":"view"},{"type":"function","name":"renounceOwnership","inputs":[],"outputs":[],"stateMutability":"nonpayable"},{"type":"function","name":"transferOwnership","inputs":[{"name":"newOwner","type":"address","internalType":"address"}],"outputs":[],"stateMutability":"nonpayable"},{"type":"function","name":"vote","inputs":[{"name":"caller","type":"address","internalType":"address"},{"name":"votes","type":"bool[]","internalType":"bool[]"}],"outputs":[],"stateMutability":"nonpayable"},{"type":"function","name":"voteCounts","inputs":[{"name":"electionId","type":"uint256","internalType":"uint256"},{"name":"nominee","type":"address","internalType":"address"}],"outputs":[{"name":"voteCount","type":"uint256","internalType":"uint256"}],"stateMutability":"view"},{"type":"event","name":"ElectionClosed","inputs":[{"name":"electionId","type":"uint256","indexed":true,"internalType":"uint256"}],"anonymous":false},{"type":"event","name":"ElectionOpened","inputs":[{"name":"electionId","type":"uint256","indexed":true,"internalType":"uint256"},{"name":"startBlock","type":"uint256","indexed":false,"internalType":"uint256"},{"name":"endBlock","type":"uint256","indexed":false,"internalType":"uint256"}],"anonymous":false},{"type":"event","name":"ElectionTallied","inputs":[{"name":"rankedNominees","type":"address[]","indexed":false,"internalType":"address[]"},{"name":"votes","type":"uint256[]","indexed":false,"internalType":"uint256[]"}],"anonymous":false},{"type":"event","name":"NominationReceived","inputs":[{"name":"nominee","type":"address","indexed":true,"internalType":"address"}],"anonymous":false},{"type":"event","name":"NominationRevoked","inputs":[{"name":"nominee","type":"address","indexed":true,"internalType":"address"}],"anonymous":false},{"type":"event","name":"OwnershipTransferred","inputs":[{"name":"previousOwner","type":"address","indexed":true,"internalType":"address"},{"name":"newOwner","type":"address","indexed":true,"internalType":"address"}],"anonymous":false},{"type":"event","name":"VoteCast","inputs":[{"name":"voter","type":"address","indexed":true,"internalType":"address"},{"name":"nominee","type":"address","indexed":true,"internalType":"address"},{"name":"electionId","type":"uint256","indexed":false,"internalType":"uint256"}],"anonymous":false},{"type":"error","name":"OwnableInvalidOwner","inputs":[{"name":"owner","type":"address","internalType":"address"}]},{"type":"error","name":"OwnableUnauthorizedAccount","inputs":[{"name":"account","type":"address","internalType":"address"}]}],"bytecode":{"object":"0x6080604052348015600e575f80fd5b503380603357604051631e4fbdf760e01b81525f600482015260240160405180910390fd5b603a81603f565b50608e565b5f80546001600160a01b038381166001600160a01b0319831681178455604051919092169283917f8be0079c531659141344cd1fd0a4f28419497f9722a3daafe3b4186f6b6457e09190a35050565b6117ca8061009b5f395ff3fe608060405234801561000f575f80fd5b506004361061018e575f3560e01c8063968bf0ae116100dd578063affd8db011610088578063f2fde38b11610063578063f2fde38b146103c8578063f95baf26146103db578063fcae83a7146103fd575f80fd5b8063affd8db014610376578063d46f96ed14610389578063ddcca4e1146103c0575f80fd5b80639a1d5956116100b85780639a1d5956146103115780639ec6526314610324578063a2064f4514610345575f80fd5b8063968bf0ae146102ec578063980c4079146102ff57806398ecf2a014610308575f80fd5b80636c6c32d01161013d57806386852dca1161011857806386852dca1461028a5780638da5cb5b146102c75780639636f67c146102d7575f80fd5b80636c6c32d0146102725780636f2cd40d1461027a578063715018a614610282575f80fd5b806325b6bec71161016d57806325b6bec7146101ea578063438596321461020b57806361ea202714610248575f80fd5b8062bc8736146101925780630e5a3b29146101c257806310253227146101d7575b5f80fd5b6101a56101a03660046114dc565b610438565b6040516001600160a01b0390911681526020015b60405180910390f35b6101d56101d0366004611517565b61046c565b005b6101a56101e5366004611598565b61076c565b6101fd6101f83660046115af565b610794565b6040519081526020016101b9565b6102386102193660046115d7565b600860209081525f928352604080842090915290825290205460ff1681565b60405190151581526020016101b9565b6101fd6102563660046115d7565b600960209081525f928352604080842090915290825290205481565b6101d56107bd565b610238610893565b6101d56108ae565b6102926108c1565b6040516101b9919081511515815260208083015190820152604080830151908201526060918201519181019190915260800190565b5f546001600160a01b03166101a5565b6102df61091c565b6040516101b99190611644565b6102df6102fa366004611598565b61097c565b6101fd60035481565b6101fd600b5481565b6101d561031f366004611598565b6109e5565b610337610332366004611598565b610c38565b6040516101b992919061165d565b6102386103533660046116b5565b6001600160a01b03165f9081526001602081905260409091205460ff1615151490565b6101d56103843660046116dd565b610fea565b6102386103973660046115af565b5f9081526008602090815260408083206001600160a01b03949094168352929052205460ff1690565b610337611062565b6101d56103d63660046116b5565b6110dc565b6102386103e93660046116b5565b60016020525f908152604090205460ff1681565b6004546005546006546007546104169360ff1692919084565b60408051941515855260208501939093529183015260608201526080016101b9565b600a602052815f5260405f208181548110610451575f80fd5b5f918252602090912001546001600160a01b03169150829050565b610474611119565b60045460ff166104bf5760405162461bcd60e51b815260206004820152601160248201527032b632b1ba34b7b7103737ba1037b832b760791b60448201526064015b60405180910390fd5b6007544311156105115760405162461bcd60e51b815260206004820152600f60248201527f656c656374696f6e20636c6f736564000000000000000000000000000000000060448201526064016104b6565b600b545f9081526008602090815260408083206001600160a01b038716845290915290205460ff16156105865760405162461bcd60e51b815260206004820152600d60248201527f616c726561647920766f7465640000000000000000000000000000000000000060448201526064016104b6565b600b545f908152600a60209081526040808320805482518185028101850190935280835291929091908301828280156105e657602002820191905f5260205f20905b81546001600160a01b031681526001909101906020018083116105c8575b50505050509050805183839050146106405760405162461bcd60e51b815260206004820152601b60248201527f766f746573206172726179206c656e677468206d69736d61746368000000000060448201526064016104b6565b600b545f9081526008602090815260408083206001600160a01b03881684529091528120805460ff191660011790555b828110156107655783838281811061068a5761068a611705565b905060200201602081019061069f9190611719565b1561075d575f8282815181106106b7576106b7611705565b60200260200101519050600160095f600b5481526020019081526020015f205f836001600160a01b03166001600160a01b031681526020019081526020015f205f8282546107059190611746565b92505081905550806001600160a01b0316866001600160a01b03167f484413c33463e7d976e3ded2a85b0c31610d0906977df2cd9cbd6d12a6872a84600b5460405161075391815260200190565b60405180910390a3505b600101610670565b5050505050565b6002818154811061077b575f80fd5b5f918252602090912001546001600160a01b0316905081565b5f8181526009602090815260408083206001600160a01b03861684529091529020545b92915050565b6107c5611119565b60045460ff1661080b5760405162461bcd60e51b815260206004820152601160248201527032b632b1ba34b7b7103737ba1037b832b760791b60448201526064016104b6565b600754431161085c5760405162461bcd60e51b815260206004820152601560248201527f656c656374696f6e207374696c6c20616374697665000000000000000000000060448201526064016104b6565b6004805460ff19169055600b546040517f393c4b8e62f1195313cf17dcf00793c668ddfc35881cd8015559c074f6d61e83905f90a2565b6004545f9060ff1680156108a957506007544311155b905090565b6108b6611119565b6108bf5f611145565b565b6108ea60405180608001604052805f151581526020015f81526020015f81526020015f81525090565b506040805160808101825260045460ff1615158152600554602082015260065491810191909152600754606082015290565b6060600280548060200260200160405190810160405280929190818152602001828054801561097257602002820191905f5260205f20905b81546001600160a01b03168152600190910190602001808311610954575b5050505050905090565b5f818152600a60209081526040918290208054835181840281018401909452808452606093928301828280156109d957602002820191905f5260205f20905b81546001600160a01b031681526001909101906020018083116109bb575b50505050509050919050565b6109ed611119565b60045460ff1615610a405760405162461bcd60e51b815260206004820152601560248201527f656c656374696f6e20616c7265616479206f70656e000000000000000000000060448201526064016104b6565b805f03610a8f5760405162461bcd60e51b815260206004820152601460248201527f6475726174696f6e206d757374206265203e203000000000000000000000000060448201526064016104b6565b6001600b5f828254610aa19190611746565b909155505060025467ffffffffffffffff811115610ac157610ac1611759565b604051908082528060200260200182016040528015610aea578160200160208202803683370190505b50600a5f600b5481526020019081526020015f209080519060200190610b11929190611465565b505f5b600254811015610b9b5760028181548110610b3157610b31611705565b5f918252602080832090910154600b548352600a909152604090912080546001600160a01b039092169183908110610b6b57610b6b611705565b5f91825260209091200180546001600160a01b0319166001600160a01b0392909216919091179055600101610b14565b5060405180608001604052806001151581526020014381526020018281526020018243610bc89190611746565b905280516004805460ff191691151591909117905560208082015160058190556040808401516006556060909301516007819055600b5484519283529282015290917f42ab381b5d38e36a258e4f6143e25be23cbabe46426fb0cfb2c8e98c9f00ecf5910160405180910390a250565b6060805f600a5f8581526020019081526020015f20805480602002602001604051908101604052809291908181526020018280548015610c9f57602002820191905f5260205f20905b81546001600160a01b03168152600190910190602001808311610c81575b505050505090505f81519050805f03610cd2575050604080515f8082526020820190815281830190925294909350915050565b8067ffffffffffffffff811115610ceb57610ceb611759565b604051908082528060200260200182016040528015610d14578160200160208202803683370190505b5093508067ffffffffffffffff811115610d3057610d30611759565b604051908082528060200260200182016040528015610d59578160200160208202803683370190505b5092505f5b81811015610e2357828181518110610d7857610d78611705565b6020026020010151858281518110610d9257610d92611705565b60200260200101906001600160a01b031690816001600160a01b03168152505060095f8781526020019081526020015f205f848381518110610dd657610dd6611705565b60200260200101516001600160a01b03166001600160a01b031681526020019081526020015f2054848281518110610e1057610e10611705565b6020908102919091010152600101610d5e565b505f5b610e3160018361176d565b811015610fe2575f5b6001610e46838561176d565b610e50919061176d565b811015610fd95784610e63826001611746565b81518110610e7357610e73611705565b6020026020010151858281518110610e8d57610e8d611705565b60200260200101511015610fd1575f858281518110610eae57610eae611705565b6020026020010151905085826001610ec69190611746565b81518110610ed657610ed6611705565b6020026020010151868381518110610ef057610ef0611705565b60209081029190910101528086610f08846001611746565b81518110610f1857610f18611705565b6020026020010181815250505f878381518110610f3757610f37611705565b6020026020010151905087836001610f4f9190611746565b81518110610f5f57610f5f611705565b6020026020010151888481518110610f7957610f79611705565b6001600160a01b03909216602092830291909101909101528088610f9e856001611746565b81518110610fae57610fae611705565b60200260200101906001600160a01b031690816001600160a01b03168152505050505b600101610e3a565b50600101610e26565b505050915091565b610ff2611119565b60045460ff16156110545760405162461bcd60e51b815260206004820152602660248201527f63616e6e6f74206e6f6d696e61746520647572696e672061637469766520656c60448201526532b1ba34b7b760d11b60648201526084016104b6565b61105e8282611194565b5050565b600454606090819060ff16801561107b57506007544311155b156110c85760405162461bcd60e51b815260206004820152601560248201527f656c656374696f6e207374696c6c20616374697665000000000000000000000060448201526064016104b6565b6110d3600b54610c38565b90939092509050565b6110e4611119565b6001600160a01b03811661110d57604051631e4fbdf760e01b81525f60048201526024016104b6565b61111681611145565b50565b5f546001600160a01b031633146108bf5760405163118cdaa760e01b81523360048201526024016104b6565b5f80546001600160a01b038381166001600160a01b0319831681178455604051919092169283917f8be0079c531659141344cd1fd0a4f28419497f9722a3daafe3b4186f6b6457e09190a35050565b61119c611119565b80156112a5576001600160a01b0382165f9081526001602081905260409091205460ff16151590036112105760405162461bcd60e51b815260206004820152601160248201527f616c7265616479206e6f6d696e6174656400000000000000000000000000000060448201526064016104b6565b6001600160a01b0382165f818152600160208190526040808320805460ff1916831790556002805480840182559084527f405787fa12a823e0f2b7631cc41b3ba8828b3321ca811111fa75cd3aa3bb5ace0180546001600160a01b0319168517905560038054909201909155517f0c20edab5f0aae928e069b742fcb70692c69c06d5cb6bfff526bba9cf3fbe33f9190a25050565b6001600160a01b0382165f9081526001602052604081205460ff16151590036113105760405162461bcd60e51b815260206004820152600d60248201527f6e6f74206e6f6d696e617465640000000000000000000000000000000000000060448201526064016104b6565b6001600160a01b0382165f908152600160205260408120805460ff19169055600254905b8181101561142357836001600160a01b03166002828154811061135957611359611705565b5f918252602090912001546001600160a01b03160361141b57600261137f60018461176d565b8154811061138f5761138f611705565b5f91825260209091200154600280546001600160a01b0390921691839081106113ba576113ba611705565b905f5260205f20015f6101000a8154816001600160a01b0302191690836001600160a01b0316021790555060028054806113f6576113f6611780565b5f8281526020902081015f1990810180546001600160a01b0319169055019055611423565b600101611334565b50600380545f190190556040516001600160a01b038416907f8f409e6d2a5a71ccff16036ebcb0b30a2afe9bd0dcfb4fe255c646fa86b6107a905f90a2505050565b828054828255905f5260205f209081019282156114b8579160200282015b828111156114b857825182546001600160a01b0319166001600160a01b03909116178255602090920191600190910190611483565b506114c49291506114c8565b5090565b5b808211156114c4575f81556001016114c9565b5f80604083850312156114ed575f80fd5b50508035926020909101359150565b80356001600160a01b0381168114611512575f80fd5b919050565b5f805f60408486031215611529575f80fd5b611532846114fc565b9250602084013567ffffffffffffffff81111561154d575f80fd5b8401601f8101861361155d575f80fd5b803567ffffffffffffffff811115611573575f80fd5b8660208260051b8401011115611587575f80fd5b939660209190910195509293505050565b5f602082840312156115a8575f80fd5b5035919050565b5f80604083850312156115c0575f80fd5b6115c9836114fc565b946020939093013593505050565b5f80604083850312156115e8575f80fd5b823591506115f8602084016114fc565b90509250929050565b5f8151808452602084019350602083015f5b8281101561163a5781516001600160a01b0316865260209586019590910190600101611613565b5093949350505050565b602081525f6116566020830184611601565b9392505050565b604081525f61166f6040830185611601565b82810360208401528084518083526020830191506020860192505f5b818110156116a957835183526020938401939092019160010161168b565b50909695505050505050565b5f602082840312156116c5575f80fd5b611656826114fc565b80358015158114611512575f80fd5b5f80604083850312156116ee575f80fd5b6116f7836114fc565b91506115f8602084016116ce565b634e487b7160e01b5f52603260045260245ffd5b5f60208284031215611729575f80fd5b611656826116ce565b634e487b7160e01b5f52601160045260245ffd5b808201808211156107b7576107b7611732565b634e487b7160e01b5f52604160045260245ffd5b818103818111156107b7576107b7611732565b634e487b7160e01b5f52603160045260245ffdfea2646970667358221220699b271065f0c29ad421eae415f3888723fa5f30790f0c89cfce64581a4a02bf64736f6c634300081a0033","linkReferences":{}},"methodIdentifiers":{"closeElection()":"6c6c32d0","currentElection()":"fcae83a7","currentElectionId()":"98ecf2a0","getElectionInfo()":"86852dca","getNomineeRanking()":"ddcca4e1","getNominees()":"9636f67c","getNomineesForElection(uint256)":"968bf0ae","getRankingAnyTime(uint256)":"9ec65263","getVoteCount(address,uint256)":"25b6bec7","hasUserVoted(address,uint256)":"d46f96ed","hasVoted(uint256,address)":"43859632","isElectionOpen()":"6f2cd40d","isNominee(address)":"a2064f45","nominate(address,bool)":"affd8db0","nominations(address)":"f95baf26","nomineesByElection(uint256,uint256)":"00bc8736","nomineesCount()":"980c4079","nomineesSorted(uint256)":"10253227","openElection(uint256)":"9a1d5956","owner()":"8da5cb5b","renounceOwnership()":"715018a6","transferOwnership(address)":"f2fde38b","vote(address,bool[])":"0e5a3b29","voteCounts(uint256,address)":"61ea2027"},"id":127}