{"abi":[{"type":"constructor","inputs":[{"name":"name_","type":"string","internalType":"string"},{"name":"uri_","type":"string","internalType":"string"},{"name":"maxCallDataLength_","type":"uint256","internalType":"uint256"},{"name":"maxReturnDataLength_","type":"uint256","internalType":"uint256"},{"name":"maxExecutionsLength_","type":"uint256","internalType":"uint256"}],"stateMutability":"nonpayable"},{"type":"function","name":"ADMIN_ROLE","inputs":[],"outputs":[{"name":"","type":"uint256","internalType":"uint256"}],"stateMutability":"view"},{"type":"function","name":"DENOMINATOR","inputs":[],"outputs":[{"name":"","type":"uint256","internalType":"uint256"}],"stateMutability":"view"},{"type":"function","name":"MAX_CALLDATA_LENGTH","inputs":[],"outputs":[{"name":"","type":"uint256","internalType":"uint256"}],"stateMutability":"view"},{"type":"function","name":"MAX_EXECUTIONS_LENGTH","inputs":[],"outputs":[{"name":"","type":"uint256","internalType":"uint256"}],"stateMutability":"view"},{"type":"function","name":"MAX_RETURN_DATA_LENGTH","inputs":[],"outputs":[{"name":"","type":"uint256","internalType":"uint256"}],"stateMutability":"view"},{"type":"function","name":"PUBLIC_ROLE","inputs":[],"outputs":[{"name":"","type":"uint256","internalType":"uint256"}],"stateMutability":"view"},{"type":"function","name":"adoptLaw","inputs":[{"name":"lawInitData","type":"tuple","internalType":"struct PowersTypes.LawInitData","components":[{"name":"nameDescription","type":"string","internalType":"string"},{"name":"targetLaw","type":"address","internalType":"address"},{"name":"config","type":"bytes","internalType":"bytes"},{"name":"conditions","type":"tuple","internalType":"struct PowersTypes.Conditions","components":[{"name":"allowedRole","type":"uint256","internalType":"uint256"},{"name":"votingPeriod","type":"uint32","internalType":"uint32"},{"name":"delayExecution","type":"uint32","internalType":"uint32"},{"name":"throttleExecution","type":"uint32","internalType":"uint32"},{"name":"needFulfilled","type":"uint16","internalType":"uint16"},{"name":"needNotFulfilled","type":"uint16","internalType":"uint16"},{"name":"quorum","type":"uint8","internalType":"uint8"},{"name":"succeedAt","type":"uint8","internalType":"uint8"}]}]}],"outputs":[{"name":"lawId","type":"uint256","internalType":"uint256"}],"stateMutability":"nonpayable"},{"type":"function","name":"assignRole","inputs":[{"name":"roleId","type":"uint256","internalType":"uint256"},{"name":"account","type":"address","internalType":"address"}],"outputs":[],"stateMutability":"nonpayable"},{"type":"function","name":"blacklistAddress","inputs":[{"name":"account","type":"address","internalType":"address"},{"name":"blacklisted","type":"bool","internalType":"bool"}],"outputs":[],"stateMutability":"nonpayable"},{"type":"function","name":"canCallLaw","inputs":[{"name":"caller","type":"address","internalType":"address"},{"name":"lawId","type":"uint16","internalType":"uint16"}],"outputs":[{"name":"","type":"bool","internalType":"bool"}],"stateMutability":"view"},{"type":"function","name":"cancel","inputs":[{"name":"lawId","type":"uint16","internalType":"uint16"},{"name":"lawCalldata","type":"bytes","internalType":"bytes"},{"name":"nonce","type":"uint256","internalType":"uint256"}],"outputs":[{"name":"","type":"uint256","internalType":"uint256"}],"stateMutability":"nonpayable"},{"type":"function","name":"castVote","inputs":[{"name":"actionId","type":"uint256","internalType":"uint256"},{"name":"support","type":"uint8","internalType":"uint8"}],"outputs":[],"stateMutability":"nonpayable"},{"type":"function","name":"castVoteWithReason","inputs":[{"name":"actionId","type":"uint256","internalType":"uint256"},{"name":"support","type":"uint8","internalType":"uint8"},{"name":"reason","type":"string","internalType":"string"}],"outputs":[],"stateMutability":"nonpayable"},{"type":"function","name":"constitute","inputs":[{"name":"constituentLaws","type":"tuple[]","internalType":"struct PowersTypes.LawInitData[]","components":[{"name":"nameDescription","type":"string","internalType":"string"},{"name":"targetLaw","type":"address","internalType":"address"},{"name":"config","type":"bytes","internalType":"bytes"},{"name":"conditions","type":"tuple","internalType":"struct PowersTypes.Conditions","components":[{"name":"allowedRole","type":"uint256","internalType":"uint256"},{"name":"votingPeriod","type":"uint32","internalType":"uint32"},{"name":"delayExecution","type":"uint32","internalType":"uint32"},{"name":"throttleExecution","type":"uint32","internalType":"uint32"},{"name":"needFulfilled","type":"uint16","internalType":"uint16"},{"name":"needNotFulfilled","type":"uint16","internalType":"uint16"},{"name":"quorum","type":"uint8","internalType":"uint8"},{"name":"succeedAt","type":"uint8","internalType":"uint8"}]}]}],"outputs":[],"stateMutability":"nonpayable"},{"type":"function","name":"eip712Domain","inputs":[],"outputs":[{"name":"fields","type":"bytes1","internalType":"bytes1"},{"name":"name","type":"string","internalType":"string"},{"name":"version","type":"string","internalType":"string"},{"name":"chainId","type":"uint256","internalType":"uint256"},{"name":"verifyingContract","type":"address","internalType":"address"},{"name":"salt","type":"bytes32","internalType":"bytes32"},{"name":"extensions","type":"uint256[]","internalType":"uint256[]"}],"stateMutability":"view"},{"type":"function","name":"fulfill","inputs":[{"name":"lawId","type":"uint16","internalType":"uint16"},{"name":"actionId","type":"uint256","internalType":"uint256"},{"name":"targets","type":"address[]","internalType":"address[]"},{"name":"values","type":"uint256[]","internalType":"uint256[]"},{"name":"calldatas","type":"bytes[]","internalType":"bytes[]"}],"outputs":[],"stateMutability":"nonpayable"},{"type":"function","name":"getActionCalldata","inputs":[{"name":"actionId","type":"uint256","internalType":"uint256"}],"outputs":[{"name":"callData","type":"bytes","internalType":"bytes"}],"stateMutability":"view"},{"type":"function","name":"getActionData","inputs":[{"name":"actionId","type":"uint256","internalType":"uint256"}],"outputs":[{"name":"lawId","type":"uint16","internalType":"uint16"},{"name":"proposedAt","type":"uint48","internalType":"uint48"},{"name":"requestedAt","type":"uint48","internalType":"uint48"},{"name":"fulfilledAt","type":"uint48","internalType":"uint48"},{"name":"cancelledAt","type":"uint48","internalType":"uint48"},{"name":"caller","type":"address","internalType":"address"},{"name":"nonce","type":"uint256","internalType":"uint256"}],"stateMutability":"view"},{"type":"function","name":"getActionReturnData","inputs":[{"name":"actionId","type":"uint256","internalType":"uint256"},{"name":"index","type":"uint256","internalType":"uint256"}],"outputs":[{"name":"returnData","type":"bytes","internalType":"bytes"}],"stateMutability":"view"},{"type":"function","name":"getActionState","inputs":[{"name":"actionId","type":"uint256","internalType":"uint256"}],"outputs":[{"name":"","type":"uint8","internalType":"enum PowersTypes.ActionState"}],"stateMutability":"view"},{"type":"function","name":"getActionUri","inputs":[{"name":"actionId","type":"uint256","internalType":"uint256"}],"outputs":[{"name":"_uri","type":"string","internalType":"string"}],"stateMutability":"view"},{"type":"function","name":"getActionVoteData","inputs":[{"name":"actionId","type":"uint256","internalType":"uint256"}],"outputs":[{"name":"voteStart","type":"uint48","internalType":"uint48"},{"name":"voteDuration","type":"uint32","internalType":"uint32"},{"name":"voteEnd","type":"uint256","internalType":"uint256"},{"name":"againstVotes","type":"uint32","internalType":"uint32"},{"name":"forVotes","type":"uint32","internalType":"uint32"},{"name":"abstainVotes","type":"uint32","internalType":"uint32"}],"stateMutability":"view"},{"type":"function","name":"getAdoptedLaw","inputs":[{"name":"lawId","type":"uint16","internalType":"uint16"}],"outputs":[{"name":"law","type":"address","internalType":"address"},{"name":"lawHash","type":"bytes32","internalType":"bytes32"},{"name":"active","type":"bool","internalType":"bool"}],"stateMutability":"view"},{"type":"function","name":"getAmountRoleHolders","inputs":[{"name":"roleId","type":"uint256","internalType":"uint256"}],"outputs":[{"name":"amountMembers","type":"uint256","internalType":"uint256"}],"stateMutability":"view"},{"type":"function","name":"getConditions","inputs":[{"name":"lawId","type":"uint16","internalType":"uint16"}],"outputs":[{"name":"conditions","type":"tuple","internalType":"struct PowersTypes.Conditions","components":[{"name":"allowedRole","type":"uint256","internalType":"uint256"},{"name":"votingPeriod","type":"uint32","internalType":"uint32"},{"name":"delayExecution","type":"uint32","internalType":"uint32"},{"name":"throttleExecution","type":"uint32","internalType":"uint32"},{"name":"needFulfilled","type":"uint16","internalType":"uint16"},{"name":"needNotFulfilled","type":"uint16","internalType":"uint16"},{"name":"quorum","type":"uint8","internalType":"uint8"},{"name":"succeedAt","type":"uint8","internalType":"uint8"}]}],"stateMutability":"view"},{"type":"function","name":"getLatestFulfillment","inputs":[{"name":"lawId","type":"uint16","internalType":"uint16"}],"outputs":[{"name":"latestFulfillment","type":"uint48","internalType":"uint48"}],"stateMutability":"view"},{"type":"function","name":"getLawActionAtIndex","inputs":[{"name":"lawId","type":"uint16","internalType":"uint16"},{"name":"index","type":"uint256","internalType":"uint256"}],"outputs":[{"name":"actionId","type":"uint256","internalType":"uint256"}],"stateMutability":"view"},{"type":"function","name":"getQuantityLawActions","inputs":[{"name":"lawId","type":"uint16","internalType":"uint16"}],"outputs":[{"name":"quantityLawActions","type":"uint256","internalType":"uint256"}],"stateMutability":"view"},{"type":"function","name":"getRoleHolderAtIndex","inputs":[{"name":"roleId","type":"uint256","internalType":"uint256"},{"name":"index","type":"uint256","internalType":"uint256"}],"outputs":[{"name":"account","type":"address","internalType":"address"}],"stateMutability":"view"},{"type":"function","name":"getRoleLabel","inputs":[{"name":"roleId","type":"uint256","internalType":"uint256"}],"outputs":[{"name":"label","type":"string","internalType":"string"}],"stateMutability":"view"},{"type":"function","name":"getTreasury","inputs":[],"outputs":[{"name":"","type":"address","internalType":"address payable"}],"stateMutability":"view"},{"type":"function","name":"hasRoleSince","inputs":[{"name":"account","type":"address","internalType":"address"},{"name":"roleId","type":"uint256","internalType":"uint256"}],"outputs":[{"name":"since","type":"uint48","internalType":"uint48"}],"stateMutability":"view"},{"type":"function","name":"hasVoted","inputs":[{"name":"actionId","type":"uint256","internalType":"uint256"},{"name":"account","type":"address","internalType":"address"}],"outputs":[{"name":"","type":"bool","internalType":"bool"}],"stateMutability":"view"},{"type":"function","name":"isBlacklisted","inputs":[{"name":"account","type":"address","internalType":"address"}],"outputs":[{"name":"","type":"bool","internalType":"bool"}],"stateMutability":"view"},{"type":"function","name":"labelRole","inputs":[{"name":"roleId","type":"uint256","internalType":"uint256"},{"name":"label","type":"string","internalType":"string"}],"outputs":[],"stateMutability":"nonpayable"},{"type":"function","name":"lawCounter","inputs":[],"outputs":[{"name":"","type":"uint16","internalType":"uint16"}],"stateMutability":"view"},{"type":"function","name":"name","inputs":[],"outputs":[{"name":"","type":"string","internalType":"string"}],"stateMutability":"view"},{"type":"function","name":"onERC1155BatchReceived","inputs":[{"name":"","type":"address","internalType":"address"},{"name":"","type":"address","internalType":"address"},{"name":"","type":"uint256[]","internalType":"uint256[]"},{"name":"","type":"uint256[]","internalType":"uint256[]"},{"name":"","type":"bytes","internalType":"bytes"}],"outputs":[{"name":"","type":"bytes4","internalType":"bytes4"}],"stateMutability":"nonpayable"},{"type":"function","name":"onERC1155Received","inputs":[{"name":"","type":"address","internalType":"address"},{"name":"","type":"address","internalType":"address"},{"name":"","type":"uint256","internalType":"uint256"},{"name":"","type":"uint256","internalType":"uint256"},{"name":"","type":"bytes","internalType":"bytes"}],"outputs":[{"name":"","type":"bytes4","internalType":"bytes4"}],"stateMutability":"nonpayable"},{"type":"function","name":"onERC721Received","inputs":[{"name":"","type":"address","internalType":"address"},{"name":"","type":"address","internalType":"address"},{"name":"","type":"uint256","internalType":"uint256"},{"name":"","type":"bytes","internalType":"bytes"}],"outputs":[{"name":"","type":"bytes4","internalType":"bytes4"}],"stateMutability":"nonpayable"},{"type":"function","name":"propose","inputs":[{"name":"lawId","type":"uint16","internalType":"uint16"},{"name":"lawCalldata","type":"bytes","internalType":"bytes"},{"name":"nonce","type":"uint256","internalType":"uint256"},{"name":"uriAction","type":"string","internalType":"string"}],"outputs":[{"name":"actionId","type":"uint256","internalType":"uint256"}],"stateMutability":"nonpayable"},{"type":"function","name":"request","inputs":[{"name":"lawId","type":"uint16","internalType":"uint16"},{"name":"lawCalldata","type":"bytes","internalType":"bytes"},{"name":"nonce","type":"uint256","internalType":"uint256"},{"name":"uriAction","type":"string","internalType":"string"}],"outputs":[{"name":"actionId","type":"uint256","internalType":"uint256"}],"stateMutability":"nonpayable"},{"type":"function","name":"revokeLaw","inputs":[{"name":"lawId","type":"uint16","internalType":"uint16"}],"outputs":[],"stateMutability":"nonpayable"},{"type":"function","name":"revokeRole","inputs":[{"name":"roleId","type":"uint256","internalType":"uint256"},{"name":"account","type":"address","internalType":"address"}],"outputs":[],"stateMutability":"nonpayable"},{"type":"function","name":"setTreasury","inputs":[{"name":"newTreasury","type":"address","internalType":"address payable"}],"outputs":[],"stateMutability":"nonpayable"},{"type":"function","name":"setUri","inputs":[{"name":"newUri","type":"string","internalType":"string"}],"outputs":[],"stateMutability":"nonpayable"},{"type":"function","name":"uri","inputs":[],"outputs":[{"name":"","type":"string","internalType":"string"}],"stateMutability":"view"},{"type":"function","name":"version","inputs":[],"outputs":[{"name":"","type":"string","internalType":"string"}],"stateMutability":"pure"},{"type":"event","name":"ActionExecuted","inputs":[{"name":"lawId","type":"uint16","indexed":true,"internalType":"uint16"},{"name":"actionId","type":"uint256","indexed":true,"internalType":"uint256"},{"name":"targets","type":"address[]","indexed":false,"internalType":"address[]"},{"name":"values","type":"uint256[]","indexed":false,"internalType":"uint256[]"},{"name":"calldatas","type":"bytes[]","indexed":false,"internalType":"bytes[]"}],"anonymous":false},{"type":"event","name":"ActionRequested","inputs":[{"name":"caller","type":"address","indexed":true,"internalType":"address"},{"name":"lawId","type":"uint16","indexed":true,"internalType":"uint16"},{"name":"lawCalldata","type":"bytes","indexed":false,"internalType":"bytes"},{"name":"nonce","type":"uint256","indexed":false,"internalType":"uint256"},{"name":"description","type":"string","indexed":false,"internalType":"string"}],"anonymous":false},{"type":"event","name":"BlacklistSet","inputs":[{"name":"account","type":"address","indexed":true,"internalType":"address"},{"name":"blacklisted","type":"bool","indexed":true,"internalType":"bool"}],"anonymous":false},{"type":"event","name":"EIP712DomainChanged","inputs":[],"anonymous":false},{"type":"event","name":"FundsReceived","inputs":[{"name":"value","type":"uint256","indexed":false,"internalType":"uint256"},{"name":"sender","type":"address","indexed":false,"internalType":"address"}],"anonymous":false},{"type":"event","name":"LawAdopted","inputs":[{"name":"lawId","type":"uint16","indexed":true,"internalType":"uint16"}],"anonymous":false},{"type":"event","name":"LawRevived","inputs":[{"name":"lawId","type":"uint16","indexed":true,"internalType":"uint16"}],"anonymous":false},{"type":"event","name":"LawRevoked","inputs":[{"name":"lawId","type":"uint16","indexed":true,"internalType":"uint16"}],"anonymous":false},{"type":"event","name":"Powers__Initialized","inputs":[{"name":"contractAddress","type":"address","indexed":false,"internalType":"address"},{"name":"name","type":"string","indexed":false,"internalType":"string"},{"name":"uri","type":"string","indexed":false,"internalType":"string"}],"anonymous":false},{"type":"event","name":"ProposedActionCancelled","inputs":[{"name":"actionId","type":"uint256","indexed":true,"internalType":"uint256"}],"anonymous":false},{"type":"event","name":"ProposedActionCreated","inputs":[{"name":"actionId","type":"uint256","indexed":true,"internalType":"uint256"},{"name":"caller","type":"address","indexed":true,"internalType":"address"},{"name":"lawId","type":"uint16","indexed":true,"internalType":"uint16"},{"name":"signature","type":"string","indexed":false,"internalType":"string"},{"name":"executeCalldata","type":"bytes","indexed":false,"internalType":"bytes"},{"name":"voteStart","type":"uint256","indexed":false,"internalType":"uint256"},{"name":"voteEnd","type":"uint256","indexed":false,"internalType":"uint256"},{"name":"nonce","type":"uint256","indexed":false,"internalType":"uint256"},{"name":"description","type":"string","indexed":false,"internalType":"string"}],"anonymous":false},{"type":"event","name":"RoleLabel","inputs":[{"name":"roleId","type":"uint256","indexed":true,"internalType":"uint256"},{"name":"label","type":"string","indexed":false,"internalType":"string"}],"anonymous":false},{"type":"event","name":"RoleSet","inputs":[{"name":"roleId","type":"uint256","indexed":true,"internalType":"uint256"},{"name":"account","type":"address","indexed":true,"internalType":"address"},{"name":"access","type":"bool","indexed":true,"internalType":"bool"}],"anonymous":false},{"type":"event","name":"VoteCast","inputs":[{"name":"account","type":"address","indexed":true,"internalType":"address"},{"name":"actionId","type":"uint256","indexed":true,"internalType":"uint256"},{"name":"support","type":"uint8","indexed":true,"internalType":"uint8"},{"name":"reason","type":"string","indexed":false,"internalType":"string"}],"anonymous":false},{"type":"error","name":"FailedCall","inputs":[]},{"type":"error","name":"InvalidShortString","inputs":[]},{"type":"error","name":"Powers__ActionAlreadyFulfilled","inputs":[]},{"type":"error","name":"Powers__ActionAlreadyInitiated","inputs":[]},{"type":"error","name":"Powers__ActionCancelled","inputs":[]},{"type":"error","name":"Powers__ActionNotProposed","inputs":[]},{"type":"error","name":"Powers__ActionNotRequested","inputs":[]},{"type":"error","name":"Powers__AddressBlacklisted","inputs":[]},{"type":"error","name":"Powers__AlreadyCastVote","inputs":[]},{"type":"error","name":"Powers__CalldataTooLong","inputs":[]},{"type":"error","name":"Powers__CallerNotTargetLaw","inputs":[]},{"type":"error","name":"Powers__CannotAddZeroAddress","inputs":[]},{"type":"error","name":"Powers__CannotCallLaw","inputs":[]},{"type":"error","name":"Powers__CannotSetPublicRole","inputs":[]},{"type":"error","name":"Powers__CannotSetZeroAddress","inputs":[]},{"type":"error","name":"Powers__ConstitutionAlreadyExecuted","inputs":[]},{"type":"error","name":"Powers__ExecutionArrayTooLong","inputs":[]},{"type":"error","name":"Powers__ExternalContractBlacklisted","inputs":[]},{"type":"error","name":"Powers__IncorrectInterface","inputs":[{"name":"targetLaw","type":"address","internalType":"address"}]},{"type":"error","name":"Powers__InvalidCallData","inputs":[]},{"type":"error","name":"Powers__InvalidIndex","inputs":[]},{"type":"error","name":"Powers__InvalidLabel","inputs":[]},{"type":"error","name":"Powers__InvalidMaxCallDataLength","inputs":[]},{"type":"error","name":"Powers__InvalidMaxExecutionsLength","inputs":[]},{"type":"error","name":"Powers__InvalidName","inputs":[]},{"type":"error","name":"Powers__InvalidReturnCallDataLength","inputs":[]},{"type":"error","name":"Powers__InvalidVoteType","inputs":[]},{"type":"error","name":"Powers__LabelTooLong","inputs":[]},{"type":"error","name":"Powers__LawNotActive","inputs":[]},{"type":"error","name":"Powers__LawRequestFailed","inputs":[]},{"type":"error","name":"Powers__LockedRole","inputs":[]},{"type":"error","name":"Powers__NoMembersInRole","inputs":[]},{"type":"error","name":"Powers__NoVoteNeeded","inputs":[]},{"type":"error","name":"Powers__NotAContract","inputs":[]},{"type":"error","name":"Powers__NotAdmin","inputs":[]},{"type":"error","name":"Powers__NotProposerAction","inputs":[]},{"type":"error","name":"Powers__OnlyPowers","inputs":[]},{"type":"error","name":"Powers__PayableNotEnabled","inputs":[]},{"type":"error","name":"Powers__ProposedActionNotActive","inputs":[]},{"type":"error","name":"Powers__UnexpectedActionState","inputs":[]},{"type":"error","name":"Powers__VoteWithPublicRoleDisallowed","inputs":[]},{"type":"error","name":"StringTooLong","inputs":[{"name":"str","type":"string","internalType":"string"}]}],"bytecode":{"object":"0x6101c06040526006805461ffff1916600117905534801561001e575f80fd5b50604051614be5380380614be583398101604081905261003d91610601565b8461005e6040805180820190915260038152620c0b8d60ea1b602082015290565b610068825f61020c565b6101205261007781600161020c565b61014052815160208084019190912060e052815190820120610100524660a05261010360e05161010051604080517f8b73c3c69bb8fe3d512ecc4cf759cc79239f7b179b0ffacaa9a75d522b39400f60208201529081019290925260608201524660808201523060a08201525f9060c00160405160208183030381529060405280519060200120905090565b60805250503060c05284515f0361012d57604051634acb0e6d60e01b815260040160405180910390fd5b60076101398682610703565b5060086101468582610703565b50825f0361016757604051631c58c0e160e01b815260040160405180910390fd5b815f036101875760405163a19bdd3b60e01b815260040160405180910390fd5b805f036101a757604051638a2b742f60e01b815260040160405180910390fd5b6101608390526101808290526101a08190526101c55f33600161023e565b7f8e09415123fab1f9e22246686c8d24ad9f84c70288cd5fa338213bccd3c5fb7630600760086040516101fa9392919061083c565b60405180910390a15050505050610935565b5f602083511015610227576102208361051e565b9050610238565b816102328482610703565b5060ff90505b92915050565b5f19830361025f5760405163a1dd2b9360e01b815260040160405180910390fd5b6001600160a01b038216610286576040516329f62b5d60e11b815260040160405180910390fd5b5f8381526004602090815260408083206001600160a01b0386168452909152902054158180156102b35750805b1561035b575f8481526004602052604090206001908101546102d49161088f565b5f8581526004602081815260408084206001600160a01b038981168087528285528387209790975593835281518083019092529481524365ffffffffffff9081168284019081526001968701805497880181558652929094209051940180549151949092166001600160d01b031990911617600160a01b93909216929092021790556104de565b81158015610367575080155b156104de575f84815260046020526040812060019081015461038991906108a2565b5f86815260046020526040812060010180549293509091839081106103b0576103b06108b5565b5f918252602080832060408051808201825293909101546001600160a01b038082168552600160a01b90910465ffffffffffff16848401528a85526004808452828620918b16865281845291852054948b90529152909250829060019081019061041a90846108a2565b8154811061042a5761042a6108b5565b5f91825260208083208451920180549482015165ffffffffffff16600160a01b026001600160d01b03199095166001600160a01b039093169290921793909317905588815260049091526040902060010180548061048a5761048a6108c9565b5f82815260208082205f19908401810180546001600160d01b031916905590920190925588825260048152604080832094516001600160a01b03908116845294909152808220929092559186168252812055505b811515836001600160a01b0316857f294507a8f5830b538faef39fbdd28f1164f27c8338a32fc7b47ddf82e4c8d9e460405160405180910390a450505050565b5f80829050601f81511115610551578260405163305a27a960e01b815260040161054891906108dd565b60405180910390fd5b805161055c82610912565b179392505050565b634e487b7160e01b5f52604160045260245ffd5b5f82601f830112610587575f80fd5b81516001600160401b038111156105a0576105a0610564565b604051601f8201601f19908116603f011681016001600160401b03811182821017156105ce576105ce610564565b6040528181528382016020018510156105e5575f80fd5b8160208501602083015e5f918101602001919091529392505050565b5f805f805f60a08688031215610615575f80fd5b85516001600160401b0381111561062a575f80fd5b61063688828901610578565b602088015190965090506001600160401b03811115610653575f80fd5b61065f88828901610578565b60408801516060890151608090990151979a919950979695509350505050565b600181811c9082168061069357607f821691505b6020821081036106b157634e487b7160e01b5f52602260045260245ffd5b50919050565b601f8211156106fe57805f5260205f20601f840160051c810160208510156106dc5750805b601f840160051c820191505b818110156106fb575f81556001016106e8565b50505b505050565b81516001600160401b0381111561071c5761071c610564565b6107308161072a845461067f565b846106b7565b6020601f821160018114610762575f831561074b5750848201515b5f19600385901b1c1916600184901b1784556106fb565b5f84815260208120601f198516915b828110156107915787850151825560209485019460019092019101610771565b50848210156107ae57868401515f19600387901b60f8161c191681555b50505050600190811b01905550565b5f81546107c98161067f565b8085526001821680156107e357600181146107ff57610833565b60ff1983166020870152602082151560051b8701019350610833565b845f5260205f205f5b8381101561082a5781546020828a010152600182019150602081019050610808565b87016020019450505b50505092915050565b6001600160a01b03841681526060602082018190525f9061085f908301856107bd565b828103604084015261087181856107bd565b9695505050505050565b634e487b7160e01b5f52601160045260245ffd5b808201808211156102385761023861087b565b818103818111156102385761023861087b565b634e487b7160e01b5f52603260045260245ffd5b634e487b7160e01b5f52603160045260245ffd5b602081525f82518060208401528060208501604085015e5f604082850101526040601f19601f83011684010191505092915050565b805160208083015191908110156106b1575f1960209190910360031b1b16919050565b60805160a05160c05160e05161010051610120516101405161016051610180516101a05161422d6109b85f395f818161088e0152610c2a01525f81816106ea0152610e2e01525f818161082201528181610c75015281816112ec0152611c0001525f612a6901525f612a3801525f50505f50505f50505f50505f505061422d5ff3fe608060405234801561000f575f80fd5b5060043610610297575f3560e01c806375b238fc11610161578063c661d4be116100ca578063f0f4426011610084578063f0f4426014610844578063f23a6e6114610857578063f2a0bb7514610876578063f6226e7c14610889578063fc2d96d0146108b0578063fe575a87146108c3575f80fd5b8063c661d4be146107c9578063cc5812cf146107dc578063d902bf3a146107ef578063eac989f814610802578063ebef6d971461080a578063edf2a5961461081d575f80fd5b8063918f86741161011b578063918f8674146107475780639b642de11461074f578063a3a86b4714610762578063ab776bf214610775578063b4324dd314610788578063bc197c81146107aa575f80fd5b806375b238fc146106b85780637a485033146106bf5780637b3c71d3146106d25780637c1b5539146106e5578063831af3791461070c57806384b0196e1461072c575f80fd5b80633b19e84a116102035780634583476b116101bd5780634583476b1461056b57806354fd4d501461062d578063567813881461064c578063666ca2d61461065f578063685b824a1461067f578063732ef97214610692575f80fd5b80633b19e84a146104bf5780633ca7c02a146104d0578063408b9440146104d857806341bd157d146104f9578063438596321461050c578063455a439614610558575f80fd5b8063199093bb11610254578063199093bb1461037e5780631d0b19e7146103a95780632179e04e146103bc57806326ffe8cd1461040f5780632e2d825314610499578063341b4d2c146104ac575f80fd5b80630398f05f1461029b578063040b8c24146102c457806306fdde03146103095780630de6a6011461031157806312561b1a14610326578063150b7a0214610347575b5f80fd5b6102ae6102a9366004613092565b6108ee565b6040516102bb91906130d7565b60405180910390f35b6102f26102d23660046130fa565b61ffff165f9081526003602052604090206005015465ffffffffffff1690565b60405165ffffffffffff90911681526020016102bb565b6102ae610990565b61032461031f36600461315a565b610a1c565b005b61033961033436600461324c565b610f56565b6040519081526020016102bb565b6103656103553660046133b5565b630a85bd0160e11b949350505050565b6040516001600160e01b031990911681526020016102bb565b61039161038c36600461341c565b61103c565b6040516001600160a01b0390911681526020016102bb565b6103246103b736600461343c565b6110ab565b6103cf6103ca366004613092565b6110c2565b6040805165ffffffffffff909716875263ffffffff95861660208801528601939093529083166060850152821660808401521660a082015260c0016102bb565b61047261041d3660046130fa565b61ffff165f8181526003602081815260409283902080549201548351308184015280850195909552835180860385018152606090950190935283519301929092206001600160a01b039092169260ff90911690565b604080516001600160a01b03909416845260208401929092521515908201526060016102bb565b6103396104a736600461346a565b611146565b6103396104ba3660046134eb565b611345565b6009546001600160a01b0316610391565b6103395f1981565b6006546104e69061ffff1681565b60405161ffff90911681526020016102bb565b6102ae61050736600461341c565b6113b2565b61054861051a36600461343c565b5f8281526002602090815260408083206001600160a01b038516845260070190915290205460ff1692915050565b60405190151581526020016102bb565b610324610566366004613520565b61146f565b6105da610579366004613092565b5f908152600260208190526040909120805491810154600390910154600160f01b830461ffff169365ffffffffffff80851694600160301b8104821694600160601b8204831694600160901b909204909216926001600160a01b0390921691565b6040805161ffff909816885265ffffffffffff96871660208901529486169487019490945291841660608601529290921660808401526001600160a01b0390911660a083015260c082015260e0016102bb565b6040805180820190915260038152620c0b8d60ea1b60208201526102ae565b61032461065a36600461355c565b6114ca565b61067261066d366004613092565b6114e4565b6040516102bb919061359a565b61032461068d36600461343c565b61162d565b6103396106a03660046130fa565b61ffff165f9081526003602052604090206004015490565b6103395f81565b6105486106cd3660046135c0565b61167a565b6103246106e03660046135ea565b6116b4565b6103397f000000000000000000000000000000000000000000000000000000000000000081565b61071f61071a3660046130fa565b6116fb565b6040516102bb919061363f565b6107346117d5565b6040516102bb97969594939291906136d7565b610339606481565b61032461075d36600461376d565b611817565b6103396107703660046138dd565b61182b565b61032461078336600461390e565b611845565b610339610796366004613092565b5f9081526004602052604090206001015490565b6103656107b83660046139dd565b63bc197c8160e01b95945050505050565b6103246107d73660046130fa565b611913565b6102f26107ea366004613a74565b61199d565b6102ae6107fd366004613092565b611a1e565b6102ae611a3d565b61033961081836600461346a565b611a4a565b6103397f000000000000000000000000000000000000000000000000000000000000000081565b610324610852366004613a90565b611f3c565b610365610865366004613aab565b63f23a6e6160e01b95945050505050565b6102ae610884366004613092565b611f8d565b6103397f000000000000000000000000000000000000000000000000000000000000000081565b6103246108be366004613b02565b611fac565b6105486108d1366004613a90565b6001600160a01b03165f9081526005602052604090205460ff1690565b5f81815260046020526040902060020180546060919061090d90613bb1565b80601f016020809104026020016040519081016040528092919081815260200182805461093990613bb1565b80156109845780601f1061095b57610100808354040283529160200191610984565b820191905f5260205f20905b81548152906001019060200180831161096757829003601f168201915b50505050509050919050565b6007805461099d90613bb1565b80601f01602080910402602001604051908101604052809291908181526020018280546109c990613bb1565b8015610a145780601f106109eb57610100808354040283529160200191610a14565b820191905f5260205f20905b8154815290600101906020018083116109f757829003601f168201915b505050505081565b87610a26816120a4565b61ffff808a165f908152600360208181526040808420815160a0808201845282546001600160a01b0316825283516101008101855260018401548152600284015463ffffffff80821683890152600160201b8204811683880152600160401b820416606080840191909152600160601b82048b166080840152600160701b8204909a169282019290925260ff600160801b8304811660c0830152600160881b909204821660e08201528286015294820154909416151584830152600481018054835181860281018601909452808452959694959194860193909190830182828015610b2e57602002820191905f5260205f20905b815481526020019060010190808311610b1a575b50505091835250506005919091015465ffffffffffff166020909101526040810151909150610b7057604051639b7a92d760e01b815260040160405180910390fd5b80516001600160a01b03163314610b9a576040516395286e3960e01b815260040160405180910390fd5b610ba3896120e1565b610bc0576040516301dd1d1560e71b815260040160405180910390fd5b5f89815260026020526040902054600160601b900465ffffffffffff1615610bfb5760405163a517239560e01b815260040160405180910390fd5b8685141580610c0a5750868314155b15610c285760405163dbf15fa560e01b815260040160405180910390fd5b7f0000000000000000000000000000000000000000000000000000000000000000871115610c695760405163d0b6a17960e01b815260040160405180910390fd5b5f5b87811015610d29577f0000000000000000000000000000000000000000000000000000000000000000858583818110610ca657610ca6613be9565b9050602002810190610cb89190613bfd565b90501115610cd957604051631c3bc5e360e31b815260040160405180910390fd5b610d03898983818110610cee57610cee613be9565b90506020020160208101906108d19190613a90565b15610d21576040516334d52f6b60e01b815260040160405180910390fd5b600101610c6b565b505f898152600260205260408120805465ffffffffffff60601b1916600160601b4365ffffffffffff16021790555b87811015610ed5575f808a8a84818110610d7457610d74613be9565b9050602002016020810190610d899190613a90565b6001600160a01b0316898985818110610da457610da4613be9565b90506020020135888886818110610dbd57610dbd613be9565b9050602002810190610dcf9190613bfd565b604051610ddd929190613c3f565b5f6040518083038185875af1925050503d805f8114610e17576040519150601f19603f3d011682016040523d82523d5f602084013e610e1c565b606091505b5091509150610e2b8282612135565b507f0000000000000000000000000000000000000000000000000000000000000000815111610e84575f8c815260026020908152604082206005018054600181018255908352912001610e7e8282613c9a565b50610ecb565b5f8c815260026020908152604080832081518084018590528251808203850181529083019092526005018054600181018255908452919092200190610ec99082613c9a565b505b5050600101610d58565b50888a61ffff167f328d3074f6e96c8ffb9619ec805360a70b6af7ad7e24e7c73fd0968e5dc505c48a8a8a8a8a8a604051610f1596959493929190613e10565b60405180910390a35050505061ffff959095165f908152600360205260409020600501805465ffffffffffff19164365ffffffffffff161790555050505050565b5f84610f61816120a4565b604051630bcec85560e01b81525f9073__$b8401669eb6e3c34470049924d5a7c9ef9$__90630bcec85590610fa0908a908a908a908a90600401613ea6565b602060405180830381865af4158015610fbb573d5f803e3d5ffd5b505050506040513d601f19601f82011682018060405250810190610fdf9190613ed4565b5f81815260026020819052604090912001549091506001600160a01b0316336001600160a01b03161461102557604051637365858560e01b815260040160405180910390fd5b61103187878787612151565b979650505050505050565b5f82815260046020526040812060010154821061106c5760405163472e61bd60e01b815260040160405180910390fd5b5f83815260046020526040902060010180548390811061108e5761108e613be9565b5f918252602090912001546001600160a01b031690505b92915050565b6110b36122c9565b6110be82825f6122eb565b5050565b5f81815260026020526040812080546001820154839283928392839283929091600160c01b90910465ffffffffffff169063ffffffff166111038183613eff565b60019390930154919a90995065ffffffffffff909216975063ffffffff600160201b820481169750600160401b820481169650600160601b909104169350915050565b5f85611151816120a4565b61ffff8088165f908152600360208181526040808420815160a0808201845282546001600160a01b0316825283516101008101855260018401548152600284015463ffffffff80821683890152600160201b8204811683880152600160401b820416606080840191909152600160601b82048b166080840152600160701b8204909a169282019290925260ff600160801b8304811660c0830152600160881b909204821660e0820152828601529482015490941615158483015260048101805483518186028101860190945280845295969495919486019390919083018282801561125957602002820191905f5260205f20905b815481526020019060010190808311611245575b50505091835250506005919091015465ffffffffffff16602090910152604081015190915061129b57604051639b7a92d760e01b815260040160405180910390fd5b6112a6335b8961167a565b6112c357604051631cfd659560e31b815260040160405180910390fd5b6112cc336108d1565b156112ea576040516334d52f6b60e01b815260040160405180910390fd5b7f000000000000000000000000000000000000000000000000000000000000000086111561132b57604051631c3bc5e360e31b815260040160405180910390fd5b6113393389898989896125cb565b98975050505050505050565b61ffff82165f90815260036020526040812060040154821061137a5760405163472e61bd60e01b815260040160405180910390fd5b61ffff83165f9081526003602052604090206004018054839081106113a1576113a1613be9565b905f5260205f200154905092915050565b5f828152600260205260409020600501805460609190839081106113d8576113d8613be9565b905f5260205f200180546113eb90613bb1565b80601f016020809104026020016040519081016040528092919081815260200182805461141790613bb1565b80156114625780601f1061143957610100808354040283529160200191611462565b820191905f5260205f20905b81548152906001019060200180831161144557829003601f168201915b5050505050905092915050565b6114776122c9565b6001600160a01b0382165f81815260056020526040808220805460ff191685151590811790915590519092917f921341769c2075d1ae425396063d5ab65ff5006c4bc0bd0821e50ce51fb6012391a35050565b6110be82338360405180602001604052805f815250612807565b5f818152600260205260408120805465ffffffffffff1615801561151657508054600160301b900465ffffffffffff16155b801561153057508054600160601b900465ffffffffffff16155b801561154a57508054600160901b900465ffffffffffff16155b1561155757505f92915050565b8054600160601b900465ffffffffffff16156115765750600792915050565b8054600160901b900465ffffffffffff16156115955750600292915050565b8054600160301b900465ffffffffffff16156115b45750600692915050565b600181015481545f916115de9163ffffffff90911690600160c01b900465ffffffffffff16613eff565b65ffffffffffff1690504381106115f9575060039392505050565b61160284612916565b15806116145750611612846129b6565b155b15611623575060049392505050565b5060059392505050565b6116356122c9565b6001600160a01b0381165f9081526005602052604090205460ff161561166e576040516334d52f6b60e01b815260040160405180910390fd5b6110be828260016122eb565b5f80611685836116fb565b5190505f611693858361199d565b905065ffffffffffff81161515806116ab57505f1982145b95945050505050565b6116f584338585858080601f0160208091040260200160405190810160405280939291908181526020018383808284375f9201919091525061280792505050565b50505050565b60408051610100810182525f80825260208201819052918101829052606081018290526080810182905260a0810182905260c0810182905260e08101919091525061ffff9081165f908152600360209081526040918290208251610100810184526001820154815260029091015463ffffffff80821693830193909352600160201b8104831693820193909352600160401b83049091166060820152600160601b820483166080820152600160701b820490921660a083015260ff600160801b8204811660c0840152600160881b9091041660e082015290565b5f6060805f805f60606117e6612a31565b6117ee612a62565b604080515f80825260208201909252600f60f81b9b939a50919850469750309650945092509050565b61181f6122c9565b60086110be8282613c9a565b5f6118346122c9565b61183d82612a8f565b90505b919050565b61184d6122c9565b81158061185a57505f1982145b15611878576040516329939fd360e21b815260040160405180910390fd5b80515f03611899576040516333a0807f60e21b815260040160405180910390fd5b60ff815111156118bc576040516350cc0e8d60e01b815260040160405180910390fd5b5f8281526004602052604090206002016118d68282613c9a565b50817f4c6d3d4a776b1458bbd518e75903a3f27a0c6f4597b10882784aa64769d56c718260405161190791906130d7565b60405180910390a25050565b61191b6122c9565b61ffff81165f9081526003602081905260408220015460ff161515900361195557604051639b7a92d760e01b815260040160405180910390fd5b61ffff81165f818152600360208190526040808320909101805460ff19169055517f519eb0bde04fa6068eddea64ada07d654914aa8a6bd2689cf2aeb02c61a4f1359190a250565b5f8181526004602090815260408083206001600160a01b03861684529091528120548082036119cf575f9150506110a5565b5f8381526004602052604090206001908101906119ec9083613f1d565b815481106119fc576119fc613be9565b5f91825260209091200154600160a01b900465ffffffffffff16949350505050565b5f81815260026020526040902060040180546060919061090d90613bb1565b6008805461099d90613bb1565b5f85611a55816120a4565b604051630bcec85560e01b815273__$b8401669eb6e3c34470049924d5a7c9ef9$__90630bcec85590611a92908a908a908a908a90600401613ea6565b602060405180830381865af4158015611aad573d5f803e3d5ffd5b505050506040513d601f19601f82011682018060405250810190611ad19190613ed4565b61ffff8089165f908152600360208181526040808420815160a0808201845282546001600160a01b0316825283516101008101855260018401548152600284015463ffffffff80821683890152600160201b8204811683880152600160401b820416606080840191909152600160601b82048b166080840152600160701b8204909a169282019290925260ff600160801b8304811660c0830152600160881b909204821660e08201528286015294820154909416151584830152600481018054835181860281018601909452808452979950949693959094908601939192909190830182828015611bdf57602002820191905f5260205f20905b815481526020019060010190808311611bcb575b50505091835250506005919091015465ffffffffffff1660209091015290507f0000000000000000000000000000000000000000000000000000000000000000861115611c3f57604051631c3bc5e360e31b815260040160405180910390fd5b611c48336108d1565b15611c66576040516334d52f6b60e01b815260040160405180910390fd5b611c6f336112a0565b611c8c57604051631cfd659560e31b815260040160405180910390fd5b611c95836120e1565b15611cb35760405163fc0e49ff60e01b815260040160405180910390fd5b5f83815260026020526040902054600160901b900465ffffffffffff1615611cee57604051632ec3fe1560e11b815260040160405180910390fd5b6080810151604051633881b32960e01b815273__$b8401669eb6e3c34470049924d5a7c9ef9$__91633881b32991611d32918c918c918c9130918d91600401613f30565b5f6040518083038186803b158015611d48575f80fd5b505af4158015611d5a573d5f803e3d5ffd5b5050505f84815260026020526040812054600160f01b900461ffff1690039050611da75761ffff88165f908152600360209081526040822060040180546001810182559083529120018390555b5f838152600260205260409020336002820180546001600160a01b0319166001600160a01b039290921691909117905580547dffffffffffffffffffffffffffffffffffff000000000000ffffffffffff16600160f01b61ffff8b16026bffffffffffff000000000000191617600160301b4365ffffffffffff160217815560048101611e35888a83613f7c565b5060068101611e448682613c9a565b50600381018690558151604051637bf5b2fb60e01b81525f916001600160a01b031690637bf5b2fb90611e839033908e908e908e908e90600401614035565b6020604051808303815f875af1158015611e9f573d5f803e3d5ffd5b505050506040513d601f19601f82011682018060405250810190611ec39190614075565b905080611ee35760405163064996a160e01b815260040160405180910390fd5b61ffff8a16336001600160a01b03167f98e1e52af9c2155b4c2b4844cdccf64c85cb13dd804231d177ef6fea4325d4058b8b8b8b604051611f279493929190614090565b60405180910390a35050505095945050505050565b611f446122c9565b6001600160a01b038116611f6b57604051636e7e8feb60e11b815260040160405180910390fd5b600980546001600160a01b0319166001600160a01b0392909216919091179055565b5f81815260026020526040902060060180546060919061090d90613bb1565b335f9081527f17ef568e3e12ab5b9c7254a8d58478811de00f9e6eb34345acd53bf8fd09d3ec60205260408120549003611ff95760405163100a553d60e31b815260040160405180910390fd5b600954600160a01b900460ff16156120245760405163cc03ce1160e01b815260040160405180910390fd5b6009805460ff60a01b1916600160a01b1790555f5b81518110156110be575f6001600160a01b031682828151811061205e5761205e613be9565b6020026020010151602001516001600160a01b03161461209c5761209a82828151811061208d5761208d613be9565b6020026020010151612a8f565b505b600101612039565b61ffff81165f9081526003602081905260408220015460ff16151590036120de57604051639b7a92d760e01b815260040160405180910390fd5b50565b5f806120ec836114e4565b9050600681600781111561210257612102613586565b148061211f5750600781600781111561211d5761211d613586565b145b1561212d5750600192915050565b505f92915050565b60608261214a5761214582612d9c565b6110a5565b50806110a5565b5f8073__$b8401669eb6e3c34470049924d5a7c9ef9$__630bcec855878787876040518563ffffffff1660e01b81526004016121909493929190613ea6565b602060405180830381865af41580156121ab573d5f803e3d5ffd5b505050506040513d601f19601f820116820180604052508101906121cf9190613ed4565b5f8181526002602052604081205491925065ffffffffffff90911690036122095760405163f661f4bf60e01b815260040160405180910390fd5b5f81815260026020526040902054600160601b900465ffffffffffff1615158061224e57505f81815260026020526040902054600160901b900465ffffffffffff1615155b1561226c5760405163b831530960e01b815260040160405180910390fd5b5f81815260026020526040808220805465ffffffffffff60901b1916600160901b4365ffffffffffff16021790555182917f8eb4cfeba12ece86fc1590773502e55423b37db556543430337376b30d27c42b91a295945050505050565b3330146122e95760405163e890ccbf60e01b815260040160405180910390fd5b565b5f19830361230c5760405163a1dd2b9360e01b815260040160405180910390fd5b6001600160a01b038216612333576040516329f62b5d60e11b815260040160405180910390fd5b5f8381526004602090815260408083206001600160a01b0386168452909152902054158180156123605750805b15612408575f848152600460205260409020600190810154612381916140bb565b5f8581526004602081815260408084206001600160a01b038981168087528285528387209790975593835281518083019092529481524365ffffffffffff9081168284019081526001968701805497880181558652929094209051940180549151949092166001600160d01b031990911617600160a01b939092169290920217905561258b565b81158015612414575080155b1561258b575f8481526004602052604081206001908101546124369190613f1d565b5f868152600460205260408120600101805492935090918390811061245d5761245d613be9565b5f918252602080832060408051808201825293909101546001600160a01b038082168552600160a01b90910465ffffffffffff16848401528a85526004808452828620918b16865281845291852054948b9052915290925082906001908101906124c79084613f1d565b815481106124d7576124d7613be9565b5f91825260208083208451920180549482015165ffffffffffff16600160a01b026001600160d01b03199095166001600160a01b0390931692909217939093179055888152600490915260409020600101805480612537576125376140ce565b5f82815260208082205f19908401810180546001600160d01b031916905590920190925588825260048152604080832094516001600160a01b03908116845294909152808220929092559186168252812055505b811515836001600160a01b0316857f294507a8f5830b538faef39fbdd28f1164f27c8338a32fc7b47ddf82e4c8d9e460405160405180910390a450505050565b5f806125d6876116fb565b604051630bcec85560e01b815290915073__$b8401669eb6e3c34470049924d5a7c9ef9$__90630bcec85590612616908a908a908a908a90600401613ea6565b602060405180830381865af4158015612631573d5f803e3d5ffd5b505050506040513d601f19601f820116820180604052508101906126559190613ed4565b91508060c0015160ff165f0361267e57604051632dd4cc8d60e01b815260040160405180910390fd5b5f82815260026020526040902054600160c01b900465ffffffffffff16156126b95760405163b831530960e01b815260040160405180910390fd5b61ffff87165f908152600360209081526040808320600490810180546001810182559085528385200186905585845260029092529091209081016126fe878983613f7c565b5080546601000000000000600160f01b03164365ffffffffffff16908117600160f01b61ffff8b16021765ffffffffffff60c01b1916600160c01b91909102178155602082015160018201805463ffffffff191663ffffffff9092169190911790556002810180546001600160a01b0319166001600160a01b038b161790556006810161278b8582613c9a565b508481600301819055508761ffff16896001600160a01b0316847fb5856a9700a7e851456d3a16348b4ae0fbb11b06ac0af8dbe8e8652c57cc4cbd8a8a43886020015163ffffffff16436127df91906140bb565b8c8c6040516127f3969594939291906140e2565b60405180910390a450509695505050505050565b6003612812856114e4565b600781111561282357612823613586565b14612841576040516322024acd60e21b815260040160405180910390fd5b5f8481526002602052604090208054600160f01b900461ffff16612865858261167a565b61288257604051631cfd659560e31b815260040160405180910390fd5b6001600160a01b0385165f90815260078301602052604090205460ff16156128bd5760405163c9e3c8d960e01b815260040160405180910390fd5b6128c8868686612dc4565b8360ff1686866001600160a01b03167f5be2678cab71c7d94235767eb1df3c57673f19e805cdc0edbd2e74854ae9f0f98660405161290691906130d7565b60405180910390a4505050505050565b5f8181526002602052604081208054829061293b90600160f01b900461ffff166116fb565b80515f9081526004602052604090206001015460c08201519192509060ff1615806116ab575060018301546064906129899063ffffffff600160601b8204811691600160401b900416614126565b63ffffffff166129999190614142565b60c08301516129ab9060ff1683614142565b111595945050505050565b5f818152600260205260408120805482906129db90600160f01b900461ffff166116fb565b80515f9081526004602052604090206001015460c08201519192509060ff1615806116ab57506001830154612a1f90606490600160401b900463ffffffff16614142565b60e08301516129ab9060ff1683614142565b6060612a5d7f00000000000000000000000000000000000000000000000000000000000000005f612eae565b905090565b6060612a5d7f00000000000000000000000000000000000000000000000000000000000000006001612eae565b5f612aa58260200151632ad2108960e01b612f57565b612ad7576020820151604051631f09f19160e21b81526001600160a01b03909116600482015260240160405180910390fd5b612afc82602001516001600160a01b03165f9081526005602052604090205460ff1690565b15612b1a576040516334d52f6b60e01b815260040160405180910390fd5b6060820151515f19148015612b3957505f826060015160c0015160ff16115b15612b5757604051632e562fc560e01b815260040160405180910390fd5b6006805461ffff9081165f908152600360208181526040808420909201805460ff191660019081179091558782015186548616855283852080546001600160a01b039092166001600160a01b031990921691909117905560608089015187548716865284862081519381019390935592830151600290920180549484015191840151608085015160a086015160c087015160e09097015160ff908116600160881b0260ff60881b1991909816600160801b0260ff60801b19928c16600160701b029290921662ffffff60701b19938c16600160601b0261ffff60601b1963ffffffff968716600160401b02166dffffffffffff000000000000000019988716600160201b0267ffffffffffffffff19909c169690991695909517999099179590951695909517919091171694909417919091171617905582549091169190612c9e83614159565b91906101000a81548161ffff021916908361ffff1602179055505081602001516001600160a01b031663040b1100600160065f9054906101000a900461ffff16612ce89190614179565b845f015185604001516040518463ffffffff1660e01b8152600401612d0f93929190614193565b5f604051808303815f87803b158015612d26575f80fd5b505af1158015612d38573d5f803e3d5ffd5b5050600654612d4f92506001915061ffff16614179565b61ffff167f753b7a99c84c928c5a0d08bebb7564f3f84d39310585ce05f9d043a40084bf8860405160405180910390a2600654612d929060019061ffff16614179565b61ffff1692915050565b805115612dab57805160208201fd5b60405163d6bda27560e01b815260040160405180910390fd5b5f8381526002602090815260408083206001600160a01b038616845260078101909252909120805460ff1916600117905560ff8216612e4057600181018054600160201b900463ffffffff16906004612e1c836141dc565b91906101000a81548163ffffffff021916908363ffffffff160217905550506116f5565b5f1960ff831601612e6a57600181018054600160401b900463ffffffff16906008612e1c836141dc565b60011960ff831601612e9557600181018054600160601b900463ffffffff1690600c612e1c836141dc565b6040516333397b4360e11b815260040160405180910390fd5b606060ff8314612ec857612ec183612f79565b90506110a5565b818054612ed490613bb1565b80601f0160208091040260200160405190810160405280929190818152602001828054612f0090613bb1565b8015612f4b5780601f10612f2257610100808354040283529160200191612f4b565b820191905f5260205f20905b815481529060010190602001808311612f2e57829003601f168201915b505050505090506110a5565b5f612f6183612fb6565b8015612f725750612f728383612fe8565b9392505050565b60605f612f858361306b565b6040805160208082528183019092529192505f91906020820181803683375050509182525060208101929092525090565b5f612fc8826301ffc9a760e01b612fe8565b801561183d5750612fe1826001600160e01b0319612fe8565b1592915050565b6040516001600160e01b0319821660248201525f90819060440160408051601f19818403018152919052602080820180516001600160e01b03166301ffc9a760e01b17815282519293505f9283928392909183918a617530fa92503d91505f519050828015613058575060208210155b8015611031575015159695505050505050565b5f60ff8216601f8111156110a557604051632cd44ac360e21b815260040160405180910390fd5b5f602082840312156130a2575f80fd5b5035919050565b5f81518084528060208401602086015e5f602082860101526020601f19601f83011685010191505092915050565b602081525f612f7260208301846130a9565b803561ffff81168114611840575f80fd5b5f6020828403121561310a575f80fd5b612f72826130e9565b5f8083601f840112613123575f80fd5b5081356001600160401b03811115613139575f80fd5b6020830191508360208260051b8501011115613153575f80fd5b9250929050565b5f805f805f805f8060a0898b031215613171575f80fd5b61317a896130e9565b97506020890135965060408901356001600160401b0381111561319b575f80fd5b6131a78b828c01613113565b90975095505060608901356001600160401b038111156131c5575f80fd5b6131d18b828c01613113565b90955093505060808901356001600160401b038111156131ef575f80fd5b6131fb8b828c01613113565b999c989b5096995094979396929594505050565b5f8083601f84011261321f575f80fd5b5081356001600160401b03811115613235575f80fd5b602083019150836020828501011115613153575f80fd5b5f805f806060858703121561325f575f80fd5b613268856130e9565b935060208501356001600160401b03811115613282575f80fd5b61328e8782880161320f565b9598909750949560400135949350505050565b6001600160a01b03811681146120de575f80fd5b634e487b7160e01b5f52604160045260245ffd5b604051608081016001600160401b03811182821017156132eb576132eb6132b5565b60405290565b60405161010081016001600160401b03811182821017156132eb576132eb6132b5565b604051601f8201601f191681016001600160401b038111828210171561333c5761333c6132b5565b604052919050565b5f82601f830112613353575f80fd5b8135602083015f806001600160401b03841115613372576133726132b5565b50601f8301601f191660200161338781613314565b91505082815285838301111561339b575f80fd5b828260208301375f92810160200192909252509392505050565b5f805f80608085870312156133c8575f80fd5b84356133d3816132a1565b935060208501356133e3816132a1565b92506040850135915060608501356001600160401b03811115613404575f80fd5b61341087828801613344565b91505092959194509250565b5f806040838503121561342d575f80fd5b50508035926020909101359150565b5f806040838503121561344d575f80fd5b82359150602083013561345f816132a1565b809150509250929050565b5f805f805f6080868803121561347e575f80fd5b613487866130e9565b945060208601356001600160401b038111156134a1575f80fd5b6134ad8882890161320f565b9095509350506040860135915060608601356001600160401b038111156134d2575f80fd5b6134de88828901613344565b9150509295509295909350565b5f80604083850312156134fc575f80fd5b613505836130e9565b946020939093013593505050565b80151581146120de575f80fd5b5f8060408385031215613531575f80fd5b823561353c816132a1565b9150602083013561345f81613513565b803560ff81168114611840575f80fd5b5f806040838503121561356d575f80fd5b8235915061357d6020840161354c565b90509250929050565b634e487b7160e01b5f52602160045260245ffd5b60208101600883106135ba57634e487b7160e01b5f52602160045260245ffd5b91905290565b5f80604083850312156135d1575f80fd5b82356135dc816132a1565b915061357d602084016130e9565b5f805f80606085870312156135fd575f80fd5b8435935061360d6020860161354c565b925060408501356001600160401b03811115613627575f80fd5b6136338782880161320f565b95989497509550505050565b5f610100820190508251825263ffffffff602084015116602083015263ffffffff604084015116604083015263ffffffff60608401511660608301526080830151613690608084018261ffff169052565b5060a08301516136a660a084018261ffff169052565b5060c08301516136bb60c084018260ff169052565b5060e08301516136d060e084018260ff169052565b5092915050565b60ff60f81b8816815260e060208201525f6136f560e08301896130a9565b828103604084015261370781896130a9565b606084018890526001600160a01b038716608085015260a0840186905283810360c0850152845180825260208087019350909101905f5b8181101561375c57835183526020938401939092019160010161373e565b50909b9a5050505050505050505050565b5f6020828403121561377d575f80fd5b81356001600160401b03811115613792575f80fd5b61379e84828501613344565b949350505050565b803563ffffffff81168114611840575f80fd5b5f8183036101608112156137cb575f80fd5b6137d36132c9565b915082356001600160401b038111156137ea575f80fd5b6137f685828601613344565b8352506020830135613807816132a1565b602083015260408301356001600160401b03811115613824575f80fd5b61383085828601613344565b604084015250610100605f1982011215613848575f80fd5b506138516132f1565b60608301358152613864608084016137a6565b602082015261387560a084016137a6565b604082015261388660c084016137a6565b606082015261389760e084016130e9565b60808201526138a961010084016130e9565b60a08201526138bb610120840161354c565b60c08201526138cd610140840161354c565b60e0820152606082015292915050565b5f602082840312156138ed575f80fd5b81356001600160401b03811115613902575f80fd5b61379e848285016137b9565b5f806040838503121561391f575f80fd5b8235915060208301356001600160401b0381111561393b575f80fd5b61394785828601613344565b9150509250929050565b5f6001600160401b03821115613969576139696132b5565b5060051b60200190565b5f82601f830112613982575f80fd5b813561399561399082613951565b613314565b8082825260208201915060208360051b8601019250858311156139b6575f80fd5b602085015b838110156139d35780358352602092830192016139bb565b5095945050505050565b5f805f805f60a086880312156139f1575f80fd5b85356139fc816132a1565b94506020860135613a0c816132a1565b935060408601356001600160401b03811115613a26575f80fd5b613a3288828901613973565b93505060608601356001600160401b03811115613a4d575f80fd5b613a5988828901613973565b92505060808601356001600160401b038111156134d2575f80fd5b5f8060408385031215613a85575f80fd5b8235613505816132a1565b5f60208284031215613aa0575f80fd5b8135612f72816132a1565b5f805f805f60a08688031215613abf575f80fd5b8535613aca816132a1565b94506020860135613ada816132a1565b9350604086013592506060860135915060808601356001600160401b038111156134d2575f80fd5b5f60208284031215613b12575f80fd5b81356001600160401b03811115613b27575f80fd5b8201601f81018413613b37575f80fd5b8035613b4561399082613951565b8082825260208201915060208360051b850101925086831115613b66575f80fd5b602084015b83811015613ba65780356001600160401b03811115613b88575f80fd5b613b97896020838901016137b9565b84525060209283019201613b6b565b509695505050505050565b600181811c90821680613bc557607f821691505b602082108103613be357634e487b7160e01b5f52602260045260245ffd5b50919050565b634e487b7160e01b5f52603260045260245ffd5b5f808335601e19843603018112613c12575f80fd5b8301803591506001600160401b03821115613c2b575f80fd5b602001915036819003821315613153575f80fd5b818382375f9101908152919050565b601f821115613c9557805f5260205f20601f840160051c81016020851015613c735750805b601f840160051c820191505b81811015613c92575f8155600101613c7f565b50505b505050565b81516001600160401b03811115613cb357613cb36132b5565b613cc781613cc18454613bb1565b84613c4e565b6020601f821160018114613cf9575f8315613ce25750848201515b5f19600385901b1c1916600184901b178455613c92565b5f84815260208120601f198516915b82811015613d285787850151825560209485019460019092019101613d08565b5084821015613d4557868401515f19600387901b60f8161c191681555b50505050600190811b01905550565b81835281816020850137505f828201602090810191909152601f909101601f19169091010190565b5f8383855260208501945060208460051b820101835f5b86811015613e0457838303601f19018852813536879003601e19018112613db8575f80fd5b86016020810190356001600160401b03811115613dd3575f80fd5b803603821315613de1575f80fd5b613dec858284613d54565b60209a8b019a90955093909301925050600101613d93565b50909695505050505050565b606080825281018690525f8760808301825b89811015613e52578235613e35816132a1565b6001600160a01b0316825260209283019290910190600101613e22565b5083810360208501528681526001600160fb1b03871115613e71575f80fd5b8660051b9150818860208301370182810360209081016040850152613e999082018587613d7c565b9998505050505050505050565b61ffff85168152606060208201525f613ec3606083018587613d54565b905082604083015295945050505050565b5f60208284031215613ee4575f80fd5b5051919050565b634e487b7160e01b5f52601160045260245ffd5b65ffffffffffff81811683821601908111156110a5576110a5613eeb565b818103818111156110a5576110a5613eeb565b61ffff8716815260a060208201525f613f4d60a083018789613d54565b6001600160a01b0395909516604083015250606081019290925265ffffffffffff166080909101529392505050565b6001600160401b03831115613f9357613f936132b5565b613fa783613fa18354613bb1565b83613c4e565b5f601f841160018114613fd8575f8515613fc15750838201355b5f19600387901b1c1916600186901b178355613c92565b5f83815260208120601f198716915b828110156140075786850135825560209485019460019092019101613fe7565b5086821015614023575f1960f88860031b161c19848701351681555b505060018560011b0183555050505050565b6001600160a01b038616815261ffff851660208201526080604082018190525f906140639083018587613d54565b90508260608301529695505050505050565b5f60208284031215614085575f80fd5b8151612f7281613513565b606081525f6140a3606083018688613d54565b846020840152828103604084015261103181856130a9565b808201808211156110a5576110a5613eeb565b634e487b7160e01b5f52603160045260245ffd5b60c081525f60c082015260e060208201525f61410260e08301888a613d54565b86604084015285606084015284608084015282810360a0840152613e9981856130a9565b63ffffffff81811683821601908111156110a5576110a5613eeb565b80820281158282048414176110a5576110a5613eeb565b5f61ffff821661ffff810361417057614170613eeb565b60010192915050565b61ffff82811682821603908111156110a5576110a5613eeb565b61ffff84168152608060208201525f6141af60808301856130a9565b8281038060408501525f8252602081016060850152506141d260208201856130a9565b9695505050505050565b5f63ffffffff821663ffffffff810361417057614170613eeb56fea26469706673582212201de138da44e771fc7d2ad4f12009527ddad66d337754d7376ff12a7637153d8864736f6c634300081a0033","linkReferences":{"src/libraries/Checks.sol":{"Checks":[{"start":6442,"length":20},{"start":9244,"length":20},{"start":9914,"length":20},{"start":11021,"length":20},{"start":12192,"length":20}]}}},"methodIdentifiers":{"ADMIN_ROLE()":"75b238fc","DENOMINATOR()":"918f8674","MAX_CALLDATA_LENGTH()":"edf2a596","MAX_EXECUTIONS_LENGTH()":"f6226e7c","MAX_RETURN_DATA_LENGTH()":"7c1b5539","PUBLIC_ROLE()":"3ca7c02a","adoptLaw((string,address,bytes,(uint256,uint32,uint32,uint32,uint16,uint16,uint8,uint8)))":"a3a86b47","assignRole(uint256,address)":"685b824a","blacklistAddress(address,bool)":"455a4396","canCallLaw(address,uint16)":"7a485033","cancel(uint16,bytes,uint256)":"12561b1a","castVote(uint256,uint8)":"56781388","castVoteWithReason(uint256,uint8,string)":"7b3c71d3","constitute((string,address,bytes,(uint256,uint32,uint32,uint32,uint16,uint16,uint8,uint8))[])":"fc2d96d0","eip712Domain()":"84b0196e","fulfill(uint16,uint256,address[],uint256[],bytes[])":"0de6a601","getActionCalldata(uint256)":"d902bf3a","getActionData(uint256)":"4583476b","getActionReturnData(uint256,uint256)":"41bd157d","getActionState(uint256)":"666ca2d6","getActionUri(uint256)":"f2a0bb75","getActionVoteData(uint256)":"2179e04e","getAdoptedLaw(uint16)":"26ffe8cd","getAmountRoleHolders(uint256)":"b4324dd3","getConditions(uint16)":"831af379","getLatestFulfillment(uint16)":"040b8c24","getLawActionAtIndex(uint16,uint256)":"341b4d2c","getQuantityLawActions(uint16)":"732ef972","getRoleHolderAtIndex(uint256,uint256)":"199093bb","getRoleLabel(uint256)":"0398f05f","getTreasury()":"3b19e84a","hasRoleSince(address,uint256)":"cc5812cf","hasVoted(uint256,address)":"43859632","isBlacklisted(address)":"fe575a87","labelRole(uint256,string)":"ab776bf2","lawCounter()":"408b9440","name()":"06fdde03","onERC1155BatchReceived(address,address,uint256[],uint256[],bytes)":"bc197c81","onERC1155Received(address,address,uint256,uint256,bytes)":"f23a6e61","onERC721Received(address,address,uint256,bytes)":"150b7a02","propose(uint16,bytes,uint256,string)":"2e2d8253","request(uint16,bytes,uint256,string)":"ebef6d97","revokeLaw(uint16)":"c661d4be","revokeRole(uint256,address)":"1d0b19e7","setTreasury(address)":"f0f44260","setUri(string)":"9b642de1","uri()":"eac989f8","version()":"54fd4d50"},"id":107}