{"abi":[{"type":"constructor","inputs":[{"name":"name_","type":"string","internalType":"string"},{"name":"uri_","type":"string","internalType":"string"},{"name":"maxCallDataLength_","type":"uint256","internalType":"uint256"},{"name":"maxReturnDataLength_","type":"uint256","internalType":"uint256"},{"name":"maxExecutionsLength_","type":"uint256","internalType":"uint256"}],"stateMutability":"nonpayable"},{"type":"function","name":"ADMIN_ROLE","inputs":[],"outputs":[{"name":"","type":"uint256","internalType":"uint256"}],"stateMutability":"view"},{"type":"function","name":"DENOMINATOR","inputs":[],"outputs":[{"name":"","type":"uint256","internalType":"uint256"}],"stateMutability":"view"},{"type":"function","name":"MAX_CALLDATA_LENGTH","inputs":[],"outputs":[{"name":"","type":"uint256","internalType":"uint256"}],"stateMutability":"view"},{"type":"function","name":"MAX_EXECUTIONS_LENGTH","inputs":[],"outputs":[{"name":"","type":"uint256","internalType":"uint256"}],"stateMutability":"view"},{"type":"function","name":"MAX_RETURN_DATA_LENGTH","inputs":[],"outputs":[{"name":"","type":"uint256","internalType":"uint256"}],"stateMutability":"view"},{"type":"function","name":"PUBLIC_ROLE","inputs":[],"outputs":[{"name":"","type":"uint256","internalType":"uint256"}],"stateMutability":"view"},{"type":"function","name":"adoptLaw","inputs":[{"name":"lawInitData","type":"tuple","internalType":"struct PowersTypes.LawInitData","components":[{"name":"nameDescription","type":"string","internalType":"string"},{"name":"targetLaw","type":"address","internalType":"address"},{"name":"config","type":"bytes","internalType":"bytes"},{"name":"conditions","type":"tuple","internalType":"struct PowersTypes.Conditions","components":[{"name":"allowedRole","type":"uint256","internalType":"uint256"},{"name":"votingPeriod","type":"uint32","internalType":"uint32"},{"name":"delayExecution","type":"uint32","internalType":"uint32"},{"name":"throttleExecution","type":"uint32","internalType":"uint32"},{"name":"needFulfilled","type":"uint16","internalType":"uint16"},{"name":"needNotFulfilled","type":"uint16","internalType":"uint16"},{"name":"quorum","type":"uint8","internalType":"uint8"},{"name":"succeedAt","type":"uint8","internalType":"uint8"}]}]}],"outputs":[{"name":"lawId","type":"uint256","internalType":"uint256"}],"stateMutability":"nonpayable"},{"type":"function","name":"assignRole","inputs":[{"name":"roleId","type":"uint256","internalType":"uint256"},{"name":"account","type":"address","internalType":"address"}],"outputs":[],"stateMutability":"nonpayable"},{"type":"function","name":"blacklistAddress","inputs":[{"name":"account","type":"address","internalType":"address"},{"name":"blacklisted","type":"bool","internalType":"bool"}],"outputs":[],"stateMutability":"nonpayable"},{"type":"function","name":"canCallLaw","inputs":[{"name":"caller","type":"address","internalType":"address"},{"name":"lawId","type":"uint16","internalType":"uint16"}],"outputs":[{"name":"","type":"bool","internalType":"bool"}],"stateMutability":"view"},{"type":"function","name":"cancel","inputs":[{"name":"lawId","type":"uint16","internalType":"uint16"},{"name":"lawCalldata","type":"bytes","internalType":"bytes"},{"name":"nonce","type":"uint256","internalType":"uint256"}],"outputs":[{"name":"","type":"uint256","internalType":"uint256"}],"stateMutability":"nonpayable"},{"type":"function","name":"castVote","inputs":[{"name":"actionId","type":"uint256","internalType":"uint256"},{"name":"support","type":"uint8","internalType":"uint8"}],"outputs":[],"stateMutability":"nonpayable"},{"type":"function","name":"castVoteWithReason","inputs":[{"name":"actionId","type":"uint256","internalType":"uint256"},{"name":"support","type":"uint8","internalType":"uint8"},{"name":"reason","type":"string","internalType":"string"}],"outputs":[],"stateMutability":"nonpayable"},{"type":"function","name":"constitute","inputs":[{"name":"constituentLaws","type":"tuple[]","internalType":"struct PowersTypes.LawInitData[]","components":[{"name":"nameDescription","type":"string","internalType":"string"},{"name":"targetLaw","type":"address","internalType":"address"},{"name":"config","type":"bytes","internalType":"bytes"},{"name":"conditions","type":"tuple","internalType":"struct PowersTypes.Conditions","components":[{"name":"allowedRole","type":"uint256","internalType":"uint256"},{"name":"votingPeriod","type":"uint32","internalType":"uint32"},{"name":"delayExecution","type":"uint32","internalType":"uint32"},{"name":"throttleExecution","type":"uint32","internalType":"uint32"},{"name":"needFulfilled","type":"uint16","internalType":"uint16"},{"name":"needNotFulfilled","type":"uint16","internalType":"uint16"},{"name":"quorum","type":"uint8","internalType":"uint8"},{"name":"succeedAt","type":"uint8","internalType":"uint8"}]}]}],"outputs":[],"stateMutability":"nonpayable"},{"type":"function","name":"eip712Domain","inputs":[],"outputs":[{"name":"fields","type":"bytes1","internalType":"bytes1"},{"name":"name","type":"string","internalType":"string"},{"name":"version","type":"string","internalType":"string"},{"name":"chainId","type":"uint256","internalType":"uint256"},{"name":"verifyingContract","type":"address","internalType":"address"},{"name":"salt","type":"bytes32","internalType":"bytes32"},{"name":"extensions","type":"uint256[]","internalType":"uint256[]"}],"stateMutability":"view"},{"type":"function","name":"fulfill","inputs":[{"name":"lawId","type":"uint16","internalType":"uint16"},{"name":"actionId","type":"uint256","internalType":"uint256"},{"name":"targets","type":"address[]","internalType":"address[]"},{"name":"values","type":"uint256[]","internalType":"uint256[]"},{"name":"calldatas","type":"bytes[]","internalType":"bytes[]"}],"outputs":[],"stateMutability":"nonpayable"},{"type":"function","name":"getActionCalldata","inputs":[{"name":"actionId","type":"uint256","internalType":"uint256"}],"outputs":[{"name":"callData","type":"bytes","internalType":"bytes"}],"stateMutability":"view"},{"type":"function","name":"getActionData","inputs":[{"name":"actionId","type":"uint256","internalType":"uint256"}],"outputs":[{"name":"lawId","type":"uint16","internalType":"uint16"},{"name":"proposedAt","type":"uint48","internalType":"uint48"},{"name":"requestedAt","type":"uint48","internalType":"uint48"},{"name":"fulfilledAt","type":"uint48","internalType":"uint48"},{"name":"cancelledAt","type":"uint48","internalType":"uint48"},{"name":"caller","type":"address","internalType":"address"},{"name":"nonce","type":"uint256","internalType":"uint256"}],"stateMutability":"view"},{"type":"function","name":"getActionReturnData","inputs":[{"name":"actionId","type":"uint256","internalType":"uint256"},{"name":"index","type":"uint256","internalType":"uint256"}],"outputs":[{"name":"returnData","type":"bytes","internalType":"bytes"}],"stateMutability":"view"},{"type":"function","name":"getActionState","inputs":[{"name":"actionId","type":"uint256","internalType":"uint256"}],"outputs":[{"name":"","type":"uint8","internalType":"enum PowersTypes.ActionState"}],"stateMutability":"view"},{"type":"function","name":"getActionUri","inputs":[{"name":"actionId","type":"uint256","internalType":"uint256"}],"outputs":[{"name":"_uri","type":"string","internalType":"string"}],"stateMutability":"view"},{"type":"function","name":"getActionVoteData","inputs":[{"name":"actionId","type":"uint256","internalType":"uint256"}],"outputs":[{"name":"voteStart","type":"uint48","internalType":"uint48"},{"name":"voteDuration","type":"uint32","internalType":"uint32"},{"name":"voteEnd","type":"uint256","internalType":"uint256"},{"name":"againstVotes","type":"uint32","internalType":"uint32"},{"name":"forVotes","type":"uint32","internalType":"uint32"},{"name":"abstainVotes","type":"uint32","internalType":"uint32"}],"stateMutability":"view"},{"type":"function","name":"getAdoptedLaw","inputs":[{"name":"lawId","type":"uint16","internalType":"uint16"}],"outputs":[{"name":"law","type":"address","internalType":"address"},{"name":"lawHash","type":"bytes32","internalType":"bytes32"},{"name":"active","type":"bool","internalType":"bool"}],"stateMutability":"view"},{"type":"function","name":"getAmountRoleHolders","inputs":[{"name":"roleId","type":"uint256","internalType":"uint256"}],"outputs":[{"name":"amountMembers","type":"uint256","internalType":"uint256"}],"stateMutability":"view"},{"type":"function","name":"getConditions","inputs":[{"name":"lawId","type":"uint16","internalType":"uint16"}],"outputs":[{"name":"conditions","type":"tuple","internalType":"struct PowersTypes.Conditions","components":[{"name":"allowedRole","type":"uint256","internalType":"uint256"},{"name":"votingPeriod","type":"uint32","internalType":"uint32"},{"name":"delayExecution","type":"uint32","internalType":"uint32"},{"name":"throttleExecution","type":"uint32","internalType":"uint32"},{"name":"needFulfilled","type":"uint16","internalType":"uint16"},{"name":"needNotFulfilled","type":"uint16","internalType":"uint16"},{"name":"quorum","type":"uint8","internalType":"uint8"},{"name":"succeedAt","type":"uint8","internalType":"uint8"}]}],"stateMutability":"view"},{"type":"function","name":"getLatestFulfillment","inputs":[{"name":"lawId","type":"uint16","internalType":"uint16"}],"outputs":[{"name":"latestFulfillment","type":"uint48","internalType":"uint48"}],"stateMutability":"view"},{"type":"function","name":"getLawActionAtIndex","inputs":[{"name":"lawId","type":"uint16","internalType":"uint16"},{"name":"index","type":"uint256","internalType":"uint256"}],"outputs":[{"name":"actionId","type":"uint256","internalType":"uint256"}],"stateMutability":"view"},{"type":"function","name":"getQuantityLawActions","inputs":[{"name":"lawId","type":"uint16","internalType":"uint16"}],"outputs":[{"name":"quantityLawActions","type":"uint256","internalType":"uint256"}],"stateMutability":"view"},{"type":"function","name":"getRoleHolderAtIndex","inputs":[{"name":"roleId","type":"uint256","internalType":"uint256"},{"name":"index","type":"uint256","internalType":"uint256"}],"outputs":[{"name":"account","type":"address","internalType":"address"}],"stateMutability":"view"},{"type":"function","name":"getRoleLabel","inputs":[{"name":"roleId","type":"uint256","internalType":"uint256"}],"outputs":[{"name":"label","type":"string","internalType":"string"}],"stateMutability":"view"},{"type":"function","name":"getTreasury","inputs":[],"outputs":[{"name":"","type":"address","internalType":"address payable"}],"stateMutability":"view"},{"type":"function","name":"hasRoleSince","inputs":[{"name":"account","type":"address","internalType":"address"},{"name":"roleId","type":"uint256","internalType":"uint256"}],"outputs":[{"name":"since","type":"uint48","internalType":"uint48"}],"stateMutability":"view"},{"type":"function","name":"hasVoted","inputs":[{"name":"actionId","type":"uint256","internalType":"uint256"},{"name":"account","type":"address","internalType":"address"}],"outputs":[{"name":"","type":"bool","internalType":"bool"}],"stateMutability":"view"},{"type":"function","name":"isBlacklisted","inputs":[{"name":"account","type":"address","internalType":"address"}],"outputs":[{"name":"","type":"bool","internalType":"bool"}],"stateMutability":"view"},{"type":"function","name":"labelRole","inputs":[{"name":"roleId","type":"uint256","internalType":"uint256"},{"name":"label","type":"string","internalType":"string"}],"outputs":[],"stateMutability":"nonpayable"},{"type":"function","name":"lawCounter","inputs":[],"outputs":[{"name":"","type":"uint16","internalType":"uint16"}],"stateMutability":"view"},{"type":"function","name":"name","inputs":[],"outputs":[{"name":"","type":"string","internalType":"string"}],"stateMutability":"view"},{"type":"function","name":"onERC1155BatchReceived","inputs":[{"name":"","type":"address","internalType":"address"},{"name":"","type":"address","internalType":"address"},{"name":"","type":"uint256[]","internalType":"uint256[]"},{"name":"","type":"uint256[]","internalType":"uint256[]"},{"name":"","type":"bytes","internalType":"bytes"}],"outputs":[{"name":"","type":"bytes4","internalType":"bytes4"}],"stateMutability":"nonpayable"},{"type":"function","name":"onERC1155Received","inputs":[{"name":"","type":"address","internalType":"address"},{"name":"","type":"address","internalType":"address"},{"name":"","type":"uint256","internalType":"uint256"},{"name":"","type":"uint256","internalType":"uint256"},{"name":"","type":"bytes","internalType":"bytes"}],"outputs":[{"name":"","type":"bytes4","internalType":"bytes4"}],"stateMutability":"nonpayable"},{"type":"function","name":"onERC721Received","inputs":[{"name":"","type":"address","internalType":"address"},{"name":"","type":"address","internalType":"address"},{"name":"","type":"uint256","internalType":"uint256"},{"name":"","type":"bytes","internalType":"bytes"}],"outputs":[{"name":"","type":"bytes4","internalType":"bytes4"}],"stateMutability":"nonpayable"},{"type":"function","name":"propose","inputs":[{"name":"lawId","type":"uint16","internalType":"uint16"},{"name":"lawCalldata","type":"bytes","internalType":"bytes"},{"name":"nonce","type":"uint256","internalType":"uint256"},{"name":"uriAction","type":"string","internalType":"string"}],"outputs":[{"name":"actionId","type":"uint256","internalType":"uint256"}],"stateMutability":"nonpayable"},{"type":"function","name":"request","inputs":[{"name":"lawId","type":"uint16","internalType":"uint16"},{"name":"lawCalldata","type":"bytes","internalType":"bytes"},{"name":"nonce","type":"uint256","internalType":"uint256"},{"name":"uriAction","type":"string","internalType":"string"}],"outputs":[{"name":"actionId","type":"uint256","internalType":"uint256"}],"stateMutability":"nonpayable"},{"type":"function","name":"revokeLaw","inputs":[{"name":"lawId","type":"uint16","internalType":"uint16"}],"outputs":[],"stateMutability":"nonpayable"},{"type":"function","name":"revokeRole","inputs":[{"name":"roleId","type":"uint256","internalType":"uint256"},{"name":"account","type":"address","internalType":"address"}],"outputs":[],"stateMutability":"nonpayable"},{"type":"function","name":"setTreasury","inputs":[{"name":"newTreasury","type":"address","internalType":"address payable"}],"outputs":[],"stateMutability":"nonpayable"},{"type":"function","name":"setUri","inputs":[{"name":"newUri","type":"string","internalType":"string"}],"outputs":[],"stateMutability":"nonpayable"},{"type":"function","name":"uri","inputs":[],"outputs":[{"name":"","type":"string","internalType":"string"}],"stateMutability":"view"},{"type":"function","name":"version","inputs":[],"outputs":[{"name":"","type":"string","internalType":"string"}],"stateMutability":"pure"},{"type":"event","name":"ActionExecuted","inputs":[{"name":"lawId","type":"uint16","indexed":true,"internalType":"uint16"},{"name":"actionId","type":"uint256","indexed":true,"internalType":"uint256"},{"name":"targets","type":"address[]","indexed":false,"internalType":"address[]"},{"name":"values","type":"uint256[]","indexed":false,"internalType":"uint256[]"},{"name":"calldatas","type":"bytes[]","indexed":false,"internalType":"bytes[]"}],"anonymous":false},{"type":"event","name":"ActionRequested","inputs":[{"name":"caller","type":"address","indexed":true,"internalType":"address"},{"name":"lawId","type":"uint16","indexed":true,"internalType":"uint16"},{"name":"lawCalldata","type":"bytes","indexed":false,"internalType":"bytes"},{"name":"nonce","type":"uint256","indexed":false,"internalType":"uint256"},{"name":"description","type":"string","indexed":false,"internalType":"string"}],"anonymous":false},{"type":"event","name":"BlacklistSet","inputs":[{"name":"account","type":"address","indexed":true,"internalType":"address"},{"name":"blacklisted","type":"bool","indexed":true,"internalType":"bool"}],"anonymous":false},{"type":"event","name":"EIP712DomainChanged","inputs":[],"anonymous":false},{"type":"event","name":"FundsReceived","inputs":[{"name":"value","type":"uint256","indexed":false,"internalType":"uint256"},{"name":"sender","type":"address","indexed":false,"internalType":"address"}],"anonymous":false},{"type":"event","name":"LawAdopted","inputs":[{"name":"lawId","type":"uint16","indexed":true,"internalType":"uint16"}],"anonymous":false},{"type":"event","name":"LawRevived","inputs":[{"name":"lawId","type":"uint16","indexed":true,"internalType":"uint16"}],"anonymous":false},{"type":"event","name":"LawRevoked","inputs":[{"name":"lawId","type":"uint16","indexed":true,"internalType":"uint16"}],"anonymous":false},{"type":"event","name":"Powers__Initialized","inputs":[{"name":"contractAddress","type":"address","indexed":false,"internalType":"address"},{"name":"name","type":"string","indexed":false,"internalType":"string"},{"name":"uri","type":"string","indexed":false,"internalType":"string"}],"anonymous":false},{"type":"event","name":"ProposedActionCancelled","inputs":[{"name":"actionId","type":"uint256","indexed":true,"internalType":"uint256"}],"anonymous":false},{"type":"event","name":"ProposedActionCreated","inputs":[{"name":"actionId","type":"uint256","indexed":true,"internalType":"uint256"},{"name":"caller","type":"address","indexed":true,"internalType":"address"},{"name":"lawId","type":"uint16","indexed":true,"internalType":"uint16"},{"name":"signature","type":"string","indexed":false,"internalType":"string"},{"name":"executeCalldata","type":"bytes","indexed":false,"internalType":"bytes"},{"name":"voteStart","type":"uint256","indexed":false,"internalType":"uint256"},{"name":"voteEnd","type":"uint256","indexed":false,"internalType":"uint256"},{"name":"nonce","type":"uint256","indexed":false,"internalType":"uint256"},{"name":"description","type":"string","indexed":false,"internalType":"string"}],"anonymous":false},{"type":"event","name":"RoleLabel","inputs":[{"name":"roleId","type":"uint256","indexed":true,"internalType":"uint256"},{"name":"label","type":"string","indexed":false,"internalType":"string"}],"anonymous":false},{"type":"event","name":"RoleSet","inputs":[{"name":"roleId","type":"uint256","indexed":true,"internalType":"uint256"},{"name":"account","type":"address","indexed":true,"internalType":"address"},{"name":"access","type":"bool","indexed":true,"internalType":"bool"}],"anonymous":false},{"type":"event","name":"VoteCast","inputs":[{"name":"account","type":"address","indexed":true,"internalType":"address"},{"name":"actionId","type":"uint256","indexed":true,"internalType":"uint256"},{"name":"support","type":"uint8","indexed":true,"internalType":"uint8"},{"name":"reason","type":"string","indexed":false,"internalType":"string"}],"anonymous":false},{"type":"error","name":"FailedInnerCall","inputs":[]},{"type":"error","name":"InvalidShortString","inputs":[]},{"type":"error","name":"Powers__ActionAlreadyFulfilled","inputs":[]},{"type":"error","name":"Powers__ActionAlreadyInitiated","inputs":[]},{"type":"error","name":"Powers__ActionCancelled","inputs":[]},{"type":"error","name":"Powers__ActionNotProposed","inputs":[]},{"type":"error","name":"Powers__ActionNotRequested","inputs":[]},{"type":"error","name":"Powers__AddressBlacklisted","inputs":[]},{"type":"error","name":"Powers__AlreadyCastVote","inputs":[]},{"type":"error","name":"Powers__CalldataTooLong","inputs":[]},{"type":"error","name":"Powers__CallerNotTargetLaw","inputs":[]},{"type":"error","name":"Powers__CannotAddZeroAddress","inputs":[]},{"type":"error","name":"Powers__CannotCallLaw","inputs":[]},{"type":"error","name":"Powers__CannotSetPublicRole","inputs":[]},{"type":"error","name":"Powers__CannotSetZeroAddress","inputs":[]},{"type":"error","name":"Powers__ConstitutionAlreadyExecuted","inputs":[]},{"type":"error","name":"Powers__ExecutionArrayTooLong","inputs":[]},{"type":"error","name":"Powers__ExternalContractBlacklisted","inputs":[]},{"type":"error","name":"Powers__IncorrectInterface","inputs":[{"name":"targetLaw","type":"address","internalType":"address"}]},{"type":"error","name":"Powers__InvalidCallData","inputs":[]},{"type":"error","name":"Powers__InvalidIndex","inputs":[]},{"type":"error","name":"Powers__InvalidLabel","inputs":[]},{"type":"error","name":"Powers__InvalidMaxCallDataLength","inputs":[]},{"type":"error","name":"Powers__InvalidMaxExecutionsLength","inputs":[]},{"type":"error","name":"Powers__InvalidName","inputs":[]},{"type":"error","name":"Powers__InvalidReturnCallDataLength","inputs":[]},{"type":"error","name":"Powers__InvalidVoteType","inputs":[]},{"type":"error","name":"Powers__LabelTooLong","inputs":[]},{"type":"error","name":"Powers__LawNotActive","inputs":[]},{"type":"error","name":"Powers__LawRequestFailed","inputs":[]},{"type":"error","name":"Powers__LockedRole","inputs":[]},{"type":"error","name":"Powers__NoMembersInRole","inputs":[]},{"type":"error","name":"Powers__NoVoteNeeded","inputs":[]},{"type":"error","name":"Powers__NotAContract","inputs":[]},{"type":"error","name":"Powers__NotAdmin","inputs":[]},{"type":"error","name":"Powers__NotProposerAction","inputs":[]},{"type":"error","name":"Powers__OnlyPowers","inputs":[]},{"type":"error","name":"Powers__PayableNotEnabled","inputs":[]},{"type":"error","name":"Powers__ProposedActionNotActive","inputs":[]},{"type":"error","name":"Powers__UnexpectedActionState","inputs":[]},{"type":"error","name":"Powers__VoteWithPublicRoleDisallowed","inputs":[]},{"type":"error","name":"StringTooLong","inputs":[{"name":"str","type":"string","internalType":"string"}]}],"bytecode":{"object":"0x6101c06040526006805461ffff1916600117905534801561001e575f80fd5b50604051614d41380380614d4183398101604081905261003d91610601565b8461005e6040805180820190915260038152620c0b8d60ea1b602082015290565b610068825f61020c565b6101205261007781600161020c565b61014052815160208084019190912060e052815190820120610100524660a05261010360e05161010051604080517f8b73c3c69bb8fe3d512ecc4cf759cc79239f7b179b0ffacaa9a75d522b39400f60208201529081019290925260608201524660808201523060a08201525f9060c00160405160208183030381529060405280519060200120905090565b60805250503060c05284515f0361012d57604051634acb0e6d60e01b815260040160405180910390fd5b60076101398682610703565b5060086101468582610703565b50825f0361016757604051631c58c0e160e01b815260040160405180910390fd5b815f036101875760405163a19bdd3b60e01b815260040160405180910390fd5b805f036101a757604051638a2b742f60e01b815260040160405180910390fd5b6101608390526101808290526101a08190526101c55f33600161023e565b7f8e09415123fab1f9e22246686c8d24ad9f84c70288cd5fa338213bccd3c5fb7630600760086040516101fa9392919061083c565b60405180910390a15050505050610935565b5f602083511015610227576102208361051e565b9050610238565b816102328482610703565b5060ff90505b92915050565b5f19830361025f5760405163a1dd2b9360e01b815260040160405180910390fd5b6001600160a01b038216610286576040516329f62b5d60e11b815260040160405180910390fd5b5f8381526004602090815260408083206001600160a01b0386168452909152902054158180156102b35750805b1561035b575f8481526004602052604090206001908101546102d49161088f565b5f8581526004602081815260408084206001600160a01b038981168087528285528387209790975593835281518083019092529481524365ffffffffffff9081168284019081526001968701805497880181558652929094209051940180549151949092166001600160d01b031990911617600160a01b93909216929092021790556104de565b81158015610367575080155b156104de575f84815260046020526040812060019081015461038991906108a2565b5f86815260046020526040812060010180549293509091839081106103b0576103b06108b5565b5f918252602080832060408051808201825293909101546001600160a01b038082168552600160a01b90910465ffffffffffff16848401528a85526004808452828620918b16865281845291852054948b90529152909250829060019081019061041a90846108a2565b8154811061042a5761042a6108b5565b5f91825260208083208451920180549482015165ffffffffffff16600160a01b026001600160d01b03199095166001600160a01b039093169290921793909317905588815260049091526040902060010180548061048a5761048a6108c9565b5f82815260208082205f19908401810180546001600160d01b031916905590920190925588825260048152604080832094516001600160a01b03908116845294909152808220929092559186168252812055505b811515836001600160a01b0316857f294507a8f5830b538faef39fbdd28f1164f27c8338a32fc7b47ddf82e4c8d9e460405160405180910390a450505050565b5f80829050601f81511115610551578260405163305a27a960e01b815260040161054891906108dd565b60405180910390fd5b805161055c82610912565b179392505050565b634e487b7160e01b5f52604160045260245ffd5b5f82601f830112610587575f80fd5b81516001600160401b038111156105a0576105a0610564565b604051601f8201601f19908116603f011681016001600160401b03811182821017156105ce576105ce610564565b6040528181528382016020018510156105e5575f80fd5b8160208501602083015e5f918101602001919091529392505050565b5f805f805f60a08688031215610615575f80fd5b85516001600160401b0381111561062a575f80fd5b61063688828901610578565b602088015190965090506001600160401b03811115610653575f80fd5b61065f88828901610578565b60408801516060890151608090990151979a919950979695509350505050565b600181811c9082168061069357607f821691505b6020821081036106b157634e487b7160e01b5f52602260045260245ffd5b50919050565b601f8211156106fe57805f5260205f20601f840160051c810160208510156106dc5750805b601f840160051c820191505b818110156106fb575f81556001016106e8565b50505b505050565b81516001600160401b0381111561071c5761071c610564565b6107308161072a845461067f565b846106b7565b6020601f821160018114610762575f831561074b5750848201515b5f19600385901b1c1916600184901b1784556106fb565b5f84815260208120601f198516915b828110156107915787850151825560209485019460019092019101610771565b50848210156107ae57868401515f19600387901b60f8161c191681555b50505050600190811b01905550565b5f81546107c98161067f565b8085526001821680156107e357600181146107ff57610833565b60ff1983166020870152602082151560051b8701019350610833565b845f5260205f205f5b8381101561082a5781546020828a010152600182019150602081019050610808565b87016020019450505b50505092915050565b6001600160a01b03841681526060602082018190525f9061085f908301856107bd565b828103604084015261087181856107bd565b9695505050505050565b634e487b7160e01b5f52601160045260245ffd5b808201808211156102385761023861087b565b818103818111156102385761023861087b565b634e487b7160e01b5f52603260045260245ffd5b634e487b7160e01b5f52603160045260245ffd5b602081525f82518060208401528060208501604085015e5f604082850101526040601f19601f83011684010191505092915050565b805160208083015191908110156106b1575f1960209190910360031b1b16919050565b60805160a05160c05160e05161010051610120516101405161016051610180516101a0516143896109b85f395f81816109090152610ca601525f81816107650152610eb301525f818161089d01528181610cf1015281816113730152611c8f01525f612b4901525f612b1801525f50505f50505f50505f50505f50506143895ff3fe608060405234801561000f575f80fd5b506004361061030f575f3560e01c806375b238fc1161019d578063c661d4be116100e8578063f0f4426011610093578063f6226e7c1161006e578063f6226e7c14610904578063fc2d96d01461092b578063fe575a871461093e575f80fd5b8063f0f44260146108bf578063f23a6e61146108d2578063f2a0bb75146108f1575f80fd5b8063eac989f8116100c3578063eac989f81461087d578063ebef6d9714610885578063edf2a59614610898575f80fd5b8063c661d4be14610844578063cc5812cf14610857578063d902bf3a1461086a575f80fd5b8063918f867411610148578063ab776bf211610123578063ab776bf2146107f0578063b4324dd314610803578063bc197c8114610825575f80fd5b8063918f8674146107c25780639b642de1146107ca578063a3a86b47146107dd575f80fd5b80637c1b5539116101785780637c1b553914610760578063831af3791461078757806384b0196e146107a7575f80fd5b806375b238fc146107335780637a4850331461073a5780637b3c71d31461074d575f80fd5b80633b19e84a1161025d5780634583476b11610208578063666ca2d6116101e3578063666ca2d6146106da578063685b824a146106fa578063732ef9721461070d575f80fd5b80634583476b146105e357806354fd4d50146106a857806356781388146106c7575f80fd5b806341bd157d1161023857806341bd157d146105715780634385963214610584578063455a4396146105d0575f80fd5b80633b19e84a146105375780633ca7c02a14610548578063408b944014610550575f80fd5b8063199093bb116102bd57806326ffe8cd1161029857806326ffe8cd146104875780632e2d825314610511578063341b4d2c14610524575f80fd5b8063199093bb146103f65780631d0b19e7146104215780632179e04e14610434575f80fd5b80630de6a601116102ed5780630de6a6011461038957806312561b1a1461039e578063150b7a02146103bf575f80fd5b80630398f05f14610313578063040b8c241461033c57806306fdde0314610381575b5f80fd5b6103266103213660046131b9565b610969565b60405161033391906131fe565b60405180910390f35b61036a61034a366004613221565b61ffff165f9081526003602052604090206005015465ffffffffffff1690565b60405165ffffffffffff9091168152602001610333565b610326610a0b565b61039c610397366004613282565b610a97565b005b6103b16103ac366004613378565b610fdb565b604051908152602001610333565b6103dd6103cd3660046134e6565b630a85bd0160e11b949350505050565b6040516001600160e01b03199091168152602001610333565b61040961040436600461354e565b6110c1565b6040516001600160a01b039091168152602001610333565b61039c61042f36600461356e565b611130565b6104476104423660046131b9565b611147565b6040805165ffffffffffff909716875263ffffffff95861660208801528601939093529083166060850152821660808401521660a082015260c001610333565b6104ea610495366004613221565b61ffff165f8181526003602081815260409283902080549201548351308184015280850195909552835180860385018152606090950190935283519301929092206001600160a01b039092169260ff90911690565b604080516001600160a01b0390941684526020840192909252151590820152606001610333565b6103b161051f36600461359c565b6111cc565b6103b161053236600461361f565b6113cc565b6009546001600160a01b0316610409565b6103b15f1981565b60065461055e9061ffff1681565b60405161ffff9091168152602001610333565b61032661057f36600461354e565b611439565b6105c061059236600461356e565b5f8281526002602090815260408083206001600160a01b038516845260070190915290205460ff1692915050565b6040519015158152602001610333565b61039c6105de366004613654565b6114f6565b6106556105f13660046131b9565b5f908152600260208190526040909120805491810154600390910154600160f01b830461ffff169365ffffffffffff8085169466010000000000008104821694600160601b8204831694600160901b909204909216926001600160a01b0390921691565b6040805161ffff909816885265ffffffffffff96871660208901529486169487019490945291841660608601529290921660808401526001600160a01b0390911660a083015260c082015260e001610333565b6040805180820190915260038152620c0b8d60ea1b6020820152610326565b61039c6106d5366004613690565b611551565b6106ed6106e83660046131b9565b61156b565b60405161033391906136ce565b61039c61070836600461356e565b6116ba565b6103b161071b366004613221565b61ffff165f9081526003602052604090206004015490565b6103b15f81565b6105c06107483660046136f4565b611707565b61039c61075b36600461371e565b611741565b6103b17f000000000000000000000000000000000000000000000000000000000000000081565b61079a610795366004613221565b611788565b6040516103339190613774565b6107af611863565b604051610333979695949392919061380c565b6103b1606481565b61039c6107d83660046138a2565b6118a5565b6103b16107eb366004613a15565b6118b9565b61039c6107fe366004613a47565b6118d3565b6103b16108113660046131b9565b5f9081526004602052604090206001015490565b6103dd610833366004613b18565b63bc197c8160e01b95945050505050565b61039c610852366004613221565b6119a1565b61036a610865366004613bb2565b611a2b565b6103266108783660046131b9565b611aac565b610326611acb565b6103b161089336600461359c565b611ad8565b6103b17f000000000000000000000000000000000000000000000000000000000000000081565b61039c6108cd366004613bce565b611fce565b6103dd6108e0366004613be9565b63f23a6e6160e01b95945050505050565b6103266108ff3660046131b9565b61201f565b6103b17f000000000000000000000000000000000000000000000000000000000000000081565b61039c610939366004613c41565b61203e565b6105c061094c366004613bce565b6001600160a01b03165f9081526005602052604090205460ff1690565b5f81815260046020526040902060020180546060919061098890613cf2565b80601f01602080910402602001604051908101604052809291908181526020018280546109b490613cf2565b80156109ff5780601f106109d6576101008083540402835291602001916109ff565b820191905f5260205f20905b8154815290600101906020018083116109e257829003601f168201915b50505050509050919050565b60078054610a1890613cf2565b80601f0160208091040260200160405190810160405280929190818152602001828054610a4490613cf2565b8015610a8f5780601f10610a6657610100808354040283529160200191610a8f565b820191905f5260205f20905b815481529060010190602001808311610a7257829003601f168201915b505050505081565b87610aa181612147565b61ffff808a165f908152600360208181526040808420815160a0808201845282546001600160a01b0316825283516101008101855260018401548152600284015463ffffffff808216838901526401000000008204811683880152600160401b820416606080840191909152600160601b82048b166080840152600160701b8204909a169282019290925260ff600160801b8304811660c0830152600160881b909204821660e08201528286015294820154909416151584830152600481018054835181860281018601909452808452959694959194860193909190830182828015610baa57602002820191905f5260205f20905b815481526020019060010190808311610b96575b50505091835250506005919091015465ffffffffffff166020909101526040810151909150610bec57604051639b7a92d760e01b815260040160405180910390fd5b80516001600160a01b03163314610c16576040516395286e3960e01b815260040160405180910390fd5b610c1f89612184565b610c3c576040516301dd1d1560e71b815260040160405180910390fd5b5f89815260026020526040902054600160601b900465ffffffffffff1615610c775760405163a517239560e01b815260040160405180910390fd5b8685141580610c865750868314155b15610ca45760405163dbf15fa560e01b815260040160405180910390fd5b7f0000000000000000000000000000000000000000000000000000000000000000871115610ce55760405163d0b6a17960e01b815260040160405180910390fd5b5f5b87811015610da5577f0000000000000000000000000000000000000000000000000000000000000000858583818110610d2257610d22613d2a565b9050602002810190610d349190613d3e565b90501115610d5557604051631c3bc5e360e31b815260040160405180910390fd5b610d7f898983818110610d6a57610d6a613d2a565b905060200201602081019061094c9190613bce565b15610d9d576040516334d52f6b60e01b815260040160405180910390fd5b600101610ce7565b505f898152600260205260408120805471ffffffffffff0000000000000000000000001916600160601b4365ffffffffffff16021790555b87811015610f5a575f808a8a84818110610df957610df9613d2a565b9050602002016020810190610e0e9190613bce565b6001600160a01b0316898985818110610e2957610e29613d2a565b90506020020135888886818110610e4257610e42613d2a565b9050602002810190610e549190613d3e565b604051610e62929190613d81565b5f6040518083038185875af1925050503d805f8114610e9c576040519150601f19603f3d011682016040523d82523d5f602084013e610ea1565b606091505b5091509150610eb082826121d8565b507f0000000000000000000000000000000000000000000000000000000000000000815111610f09575f8c815260026020908152604082206005018054600181018255908352912001610f038282613ddc565b50610f50565b5f8c815260026020908152604080832081518084018590528251808203850181529083019092526005018054600181018255908452919092200190610f4e9082613ddc565b505b5050600101610ddd565b50888a61ffff167f328d3074f6e96c8ffb9619ec805360a70b6af7ad7e24e7c73fd0968e5dc505c48a8a8a8a8a8a604051610f9a96959493929190613f54565b60405180910390a35050505061ffff959095165f908152600360205260409020600501805465ffffffffffff19164365ffffffffffff161790555050505050565b5f84610fe681612147565b604051630bcec85560e01b81525f9073d6e6227918510ee398789fa3556d47785ede741f90630bcec85590611025908a908a908a908a90600401614003565b602060405180830381865af4158015611040573d5f803e3d5ffd5b505050506040513d601f19601f820116820180604052508101906110649190614031565b5f81815260026020819052604090912001549091506001600160a01b0316336001600160a01b0316146110aa57604051637365858560e01b815260040160405180910390fd5b6110b6878787876121f4565b979650505050505050565b5f8281526004602052604081206001015482106110f15760405163472e61bd60e01b815260040160405180910390fd5b5f83815260046020526040902060010180548390811061111357611113613d2a565b5f918252602090912001546001600160a01b031690505b92915050565b611138612382565b61114382825f6123a4565b5050565b5f81815260026020526040812080546001820154839283928392839283929091600160c01b90910465ffffffffffff169063ffffffff16611188818361405c565b60019390930154919a90995065ffffffffffff909216975063ffffffff640100000000820481169750600160401b820481169650600160601b909104169350915050565b5f856111d781612147565b61ffff8088165f908152600360208181526040808420815160a0808201845282546001600160a01b0316825283516101008101855260018401548152600284015463ffffffff808216838901526401000000008204811683880152600160401b820416606080840191909152600160601b82048b166080840152600160701b8204909a169282019290925260ff600160801b8304811660c0830152600160881b909204821660e082015282860152948201549094161515848301526004810180548351818602810186019094528084529596949591948601939091908301828280156112e057602002820191905f5260205f20905b8154815260200190600101908083116112cc575b50505091835250506005919091015465ffffffffffff16602090910152604081015190915061132257604051639b7a92d760e01b815260040160405180910390fd5b61132d335b89611707565b61134a57604051631cfd659560e31b815260040160405180910390fd5b6113533361094c565b15611371576040516334d52f6b60e01b815260040160405180910390fd5b7f00000000000000000000000000000000000000000000000000000000000000008611156113b257604051631c3bc5e360e31b815260040160405180910390fd5b6113c0338989898989612684565b98975050505050505050565b61ffff82165f9081526003602052604081206004015482106114015760405163472e61bd60e01b815260040160405180910390fd5b61ffff83165f90815260036020526040902060040180548390811061142857611428613d2a565b905f5260205f200154905092915050565b5f8281526002602052604090206005018054606091908390811061145f5761145f613d2a565b905f5260205f2001805461147290613cf2565b80601f016020809104026020016040519081016040528092919081815260200182805461149e90613cf2565b80156114e95780601f106114c0576101008083540402835291602001916114e9565b820191905f5260205f20905b8154815290600101906020018083116114cc57829003601f168201915b5050505050905092915050565b6114fe612382565b6001600160a01b0382165f81815260056020526040808220805460ff191685151590811790915590519092917f921341769c2075d1ae425396063d5ab65ff5006c4bc0bd0821e50ce51fb6012391a35050565b61114382338360405180602001604052805f8152506128e7565b5f818152600260205260408120805465ffffffffffff161580156115a0575080546601000000000000900465ffffffffffff16155b80156115ba57508054600160601b900465ffffffffffff16155b80156115d457508054600160901b900465ffffffffffff16155b156115e157505f92915050565b8054600160601b900465ffffffffffff16156116005750600792915050565b8054600160901b900465ffffffffffff161561161f5750600292915050565b80546601000000000000900465ffffffffffff16156116415750600692915050565b600181015481545f9161166b9163ffffffff90911690600160c01b900465ffffffffffff1661405c565b65ffffffffffff169050438110611686575060039392505050565b61168f846129f6565b15806116a1575061169f84612a96565b155b156116b0575060049392505050565b5060059392505050565b6116c2612382565b6001600160a01b0381165f9081526005602052604090205460ff16156116fb576040516334d52f6b60e01b815260040160405180910390fd5b611143828260016123a4565b5f8061171283611788565b5190505f6117208583611a2b565b905065ffffffffffff811615158061173857505f1982145b95945050505050565b61178284338585858080601f0160208091040260200160405190810160405280939291908181526020018383808284375f920191909152506128e792505050565b50505050565b60408051610100810182525f80825260208201819052918101829052606081018290526080810182905260a0810182905260c0810182905260e08101919091525061ffff9081165f908152600360209081526040918290208251610100810184526001820154815260029091015463ffffffff808216938301939093526401000000008104831693820193909352600160401b83049091166060820152600160601b820483166080820152600160701b820490921660a083015260ff600160801b8204811660c0840152600160881b9091041660e082015290565b5f6060805f805f6060611874612b11565b61187c612b42565b604080515f80825260208201909252600f60f81b9b939a50919850469750309650945092509050565b6118ad612382565b60086111438282613ddc565b5f6118c2612382565b6118cb82612b6f565b90505b919050565b6118db612382565b8115806118e857505f1982145b15611906576040516329939fd360e21b815260040160405180910390fd5b80515f03611927576040516333a0807f60e21b815260040160405180910390fd5b60ff8151111561194a576040516350cc0e8d60e01b815260040160405180910390fd5b5f8281526004602052604090206002016119648282613ddc565b50817f4c6d3d4a776b1458bbd518e75903a3f27a0c6f4597b10882784aa64769d56c718260405161199591906131fe565b60405180910390a25050565b6119a9612382565b61ffff81165f9081526003602081905260408220015460ff16151590036119e357604051639b7a92d760e01b815260040160405180910390fd5b61ffff81165f818152600360208190526040808320909101805460ff19169055517f519eb0bde04fa6068eddea64ada07d654914aa8a6bd2689cf2aeb02c61a4f1359190a250565b5f8181526004602090815260408083206001600160a01b0386168452909152812054808203611a5d575f91505061112a565b5f838152600460205260409020600190810190611a7a908361407a565b81548110611a8a57611a8a613d2a565b5f91825260209091200154600160a01b900465ffffffffffff16949350505050565b5f81815260026020526040902060040180546060919061098890613cf2565b60088054610a1890613cf2565b5f85611ae381612147565b604051630bcec85560e01b815273d6e6227918510ee398789fa3556d47785ede741f90630bcec85590611b20908a908a908a908a90600401614003565b602060405180830381865af4158015611b3b573d5f803e3d5ffd5b505050506040513d601f19601f82011682018060405250810190611b5f9190614031565b61ffff8089165f908152600360208181526040808420815160a0808201845282546001600160a01b0316825283516101008101855260018401548152600284015463ffffffff808216838901526401000000008204811683880152600160401b820416606080840191909152600160601b82048b166080840152600160701b8204909a169282019290925260ff600160801b8304811660c0830152600160881b909204821660e08201528286015294820154909416151584830152600481018054835181860281018601909452808452979950949693959094908601939192909190830182828015611c6e57602002820191905f5260205f20905b815481526020019060010190808311611c5a575b50505091835250506005919091015465ffffffffffff1660209091015290507f0000000000000000000000000000000000000000000000000000000000000000861115611cce57604051631c3bc5e360e31b815260040160405180910390fd5b611cd73361094c565b15611cf5576040516334d52f6b60e01b815260040160405180910390fd5b611cfe33611327565b611d1b57604051631cfd659560e31b815260040160405180910390fd5b611d2483612184565b15611d425760405163fc0e49ff60e01b815260040160405180910390fd5b5f83815260026020526040902054600160901b900465ffffffffffff1615611d7d57604051632ec3fe1560e11b815260040160405180910390fd5b6080810151604051633881b32960e01b815273d6e6227918510ee398789fa3556d47785ede741f91633881b32991611dc1918c918c918c9130918d9160040161408d565b5f6040518083038186803b158015611dd7575f80fd5b505af4158015611de9573d5f803e3d5ffd5b5050505f84815260026020526040812054600160f01b900461ffff1690039050611e365761ffff88165f908152600360209081526040822060040180546001810182559083529120018390555b5f838152600260205260409020336002820180546001600160a01b0319166001600160a01b039290921691909117905580547dffffffffffffffffffffffffffffffffffff000000000000ffffffffffff16600160f01b61ffff8b16026bffffffffffff00000000000019161766010000000000004365ffffffffffff160217815560048101611ec7888a836140d9565b5060068101611ed68682613ddc565b50600381018690558151604051637bf5b2fb60e01b81525f916001600160a01b031690637bf5b2fb90611f159033908e908e908e908e90600401614193565b6020604051808303815f875af1158015611f31573d5f803e3d5ffd5b505050506040513d601f19601f82011682018060405250810190611f5591906141d1565b905080611f755760405163064996a160e01b815260040160405180910390fd5b61ffff8a16336001600160a01b03167f98e1e52af9c2155b4c2b4844cdccf64c85cb13dd804231d177ef6fea4325d4058b8b8b8b604051611fb994939291906141ec565b60405180910390a35050505095945050505050565b611fd6612382565b6001600160a01b038116611ffd57604051636e7e8feb60e11b815260040160405180910390fd5b600980546001600160a01b0319166001600160a01b0392909216919091179055565b5f81815260026020526040902060060180546060919061098890613cf2565b335f9081527f17ef568e3e12ab5b9c7254a8d58478811de00f9e6eb34345acd53bf8fd09d3ec6020526040812054900361208b5760405163100a553d60e31b815260040160405180910390fd5b600954600160a01b900460ff16156120b65760405163cc03ce1160e01b815260040160405180910390fd5b6009805474ff00000000000000000000000000000000000000001916600160a01b1790555f5b8151811015611143575f6001600160a01b031682828151811061210157612101613d2a565b6020026020010151602001516001600160a01b03161461213f5761213d82828151811061213057612130613d2a565b6020026020010151612b6f565b505b6001016120dc565b61ffff81165f9081526003602081905260408220015460ff161515900361218157604051639b7a92d760e01b815260040160405180910390fd5b50565b5f8061218f8361156b565b905060068160078111156121a5576121a56136ba565b14806121c2575060078160078111156121c0576121c06136ba565b145b156121d05750600192915050565b505f92915050565b6060826121ed576121e882612eac565b61112a565b508061112a565b5f8073d6e6227918510ee398789fa3556d47785ede741f630bcec855878787876040518563ffffffff1660e01b81526004016122339493929190614003565b602060405180830381865af415801561224e573d5f803e3d5ffd5b505050506040513d601f19601f820116820180604052508101906122729190614031565b5f8181526002602052604081205491925065ffffffffffff90911690036122ac5760405163f661f4bf60e01b815260040160405180910390fd5b5f81815260026020526040902054600160601b900465ffffffffffff161515806122f157505f81815260026020526040902054600160901b900465ffffffffffff1615155b1561230f5760405163b831530960e01b815260040160405180910390fd5b5f8181526002602052604080822080547fffffffffffffffff000000000000ffffffffffffffffffffffffffffffffffff16600160901b4365ffffffffffff16021790555182917f8eb4cfeba12ece86fc1590773502e55423b37db556543430337376b30d27c42b91a295945050505050565b3330146123a25760405163e890ccbf60e01b815260040160405180910390fd5b565b5f1983036123c55760405163a1dd2b9360e01b815260040160405180910390fd5b6001600160a01b0382166123ec576040516329f62b5d60e11b815260040160405180910390fd5b5f8381526004602090815260408083206001600160a01b0386168452909152902054158180156124195750805b156124c1575f84815260046020526040902060019081015461243a91614217565b5f8581526004602081815260408084206001600160a01b038981168087528285528387209790975593835281518083019092529481524365ffffffffffff9081168284019081526001968701805497880181558652929094209051940180549151949092166001600160d01b031990911617600160a01b9390921692909202179055612644565b811580156124cd575080155b15612644575f8481526004602052604081206001908101546124ef919061407a565b5f868152600460205260408120600101805492935090918390811061251657612516613d2a565b5f918252602080832060408051808201825293909101546001600160a01b038082168552600160a01b90910465ffffffffffff16848401528a85526004808452828620918b16865281845291852054948b905291529092508290600190810190612580908461407a565b8154811061259057612590613d2a565b5f91825260208083208451920180549482015165ffffffffffff16600160a01b026001600160d01b03199095166001600160a01b03909316929092179390931790558881526004909152604090206001018054806125f0576125f061422a565b5f82815260208082205f19908401810180546001600160d01b031916905590920190925588825260048152604080832094516001600160a01b03908116845294909152808220929092559186168252812055505b811515836001600160a01b0316857f294507a8f5830b538faef39fbdd28f1164f27c8338a32fc7b47ddf82e4c8d9e460405160405180910390a450505050565b5f8061268f87611788565b604051630bcec85560e01b815290915073d6e6227918510ee398789fa3556d47785ede741f90630bcec855906126cf908a908a908a908a90600401614003565b602060405180830381865af41580156126ea573d5f803e3d5ffd5b505050506040513d601f19601f8201168201806040525081019061270e9190614031565b91508060c0015160ff165f0361273757604051632dd4cc8d60e01b815260040160405180910390fd5b5f82815260026020526040902054600160c01b900465ffffffffffff16156127725760405163b831530960e01b815260040160405180910390fd5b61ffff87165f908152600360209081526040808320600490810180546001810182559085528385200186905585845260029092529091209081016127b78789836140d9565b5080547dffffffffffffffffffffffffffffffffffffffffffffffff000000000000164365ffffffffffff16908117600160f01b61ffff8b1602177fffff000000000000ffffffffffffffffffffffffffffffffffffffffffffffff16600160c01b91909102178155602082015160018201805463ffffffff191663ffffffff9092169190911790556002810180546001600160a01b0319166001600160a01b038b161790556006810161286b8582613ddc565b508481600301819055508761ffff16896001600160a01b0316847fb5856a9700a7e851456d3a16348b4ae0fbb11b06ac0af8dbe8e8652c57cc4cbd8a8a43886020015163ffffffff16436128bf9190614217565b8c8c6040516128d39695949392919061423e565b60405180910390a450509695505050505050565b60036128f28561156b565b6007811115612903576129036136ba565b14612921576040516322024acd60e21b815260040160405180910390fd5b5f8481526002602052604090208054600160f01b900461ffff166129458582611707565b61296257604051631cfd659560e31b815260040160405180910390fd5b6001600160a01b0385165f90815260078301602052604090205460ff161561299d5760405163c9e3c8d960e01b815260040160405180910390fd5b6129a8868686612ed5565b8360ff1686866001600160a01b03167f5be2678cab71c7d94235767eb1df3c57673f19e805cdc0edbd2e74854ae9f0f9866040516129e691906131fe565b60405180910390a4505050505050565b5f81815260026020526040812080548290612a1b90600160f01b900461ffff16611788565b80515f9081526004602052604090206001015460c08201519192509060ff16158061173857506001830154606490612a699063ffffffff600160601b8204811691600160401b900416614282565b63ffffffff16612a79919061429e565b60c0830151612a8b9060ff168361429e565b111595945050505050565b5f81815260026020526040812080548290612abb90600160f01b900461ffff16611788565b80515f9081526004602052604090206001015460c08201519192509060ff16158061173857506001830154612aff90606490600160401b900463ffffffff1661429e565b60e0830151612a8b9060ff168361429e565b6060612b3d7f00000000000000000000000000000000000000000000000000000000000000005f612fc0565b905090565b6060612b3d7f00000000000000000000000000000000000000000000000000000000000000006001612fc0565b5f612b858260200151632ad2108960e01b613069565b612bb7576020820151604051631f09f19160e21b81526001600160a01b03909116600482015260240160405180910390fd5b612bdc82602001516001600160a01b03165f9081526005602052604090205460ff1690565b15612bfa576040516334d52f6b60e01b815260040160405180910390fd5b6060820151515f19148015612c1957505f826060015160c0015160ff16115b15612c3757604051632e562fc560e01b815260040160405180910390fd5b6006805461ffff9081165f908152600360208181526040808420909201805460ff191660019081179091558782015186548616855283852080546001600160a01b039092166001600160a01b031990921691909117905560608089015187548716865284862081519381019390935592830151600290920180549484015191840151608085015160a086015160c087015160e09097015160ff908116600160881b0271ff00000000000000000000000000000000001991909816600160801b0270ff0000000000000000000000000000000019928c16600160701b029290921670ffffff000000000000000000000000000019938c16600160601b026dffff0000000000000000000000001963ffffffff968716600160401b02166dffffffffffff0000000000000000199887166401000000000267ffffffffffffffff19909c169690991695909517999099179590951695909517919091171694909417919091171617905582549091169190612dae836142b5565b91906101000a81548161ffff021916908361ffff1602179055505081602001516001600160a01b031663040b1100600160065f9054906101000a900461ffff16612df891906142d5565b845f015185604001516040518463ffffffff1660e01b8152600401612e1f939291906142ef565b5f604051808303815f87803b158015612e36575f80fd5b505af1158015612e48573d5f803e3d5ffd5b5050600654612e5f92506001915061ffff166142d5565b61ffff167f753b7a99c84c928c5a0d08bebb7564f3f84d39310585ce05f9d043a40084bf8860405160405180910390a2600654612ea29060019061ffff166142d5565b61ffff1692915050565b805115612ebc5780518082602001fd5b604051630a12f52160e11b815260040160405180910390fd5b5f8381526002602090815260408083206001600160a01b038616845260078101909252909120805460ff1916600117905560ff8216612f5257600181018054640100000000900463ffffffff16906004612f2e83614338565b91906101000a81548163ffffffff021916908363ffffffff16021790555050611782565b5f1960ff831601612f7c57600181018054600160401b900463ffffffff16906008612f2e83614338565b60011960ff831601612fa757600181018054600160601b900463ffffffff1690600c612f2e83614338565b6040516333397b4360e11b815260040160405180910390fd5b606060ff8314612fda57612fd38361308b565b905061112a565b818054612fe690613cf2565b80601f016020809104026020016040519081016040528092919081815260200182805461301290613cf2565b801561305d5780601f106130345761010080835404028352916020019161305d565b820191905f5260205f20905b81548152906001019060200180831161304057829003601f168201915b5050505050905061112a565b5f613073836130c8565b8015613084575061308483836130fa565b9392505050565b60605f61309783613192565b6040805160208082528183019092529192505f91906020820181803683375050509182525060208101929092525090565b5f6130da826301ffc9a760e01b6130fa565b80156118cb57506130f3826001600160e01b03196130fa565b1592915050565b6040516001600160e01b0319821660248201525f90819060440160408051601f19818403018152919052602080820180517bffffffffffffffffffffffffffffffffffffffffffffffffffffffff166301ffc9a760e01b17815282519293505f9283928392909183918a617530fa92503d91505f51905082801561317f575060208210155b80156110b6575015159695505050505050565b5f60ff8216601f81111561112a57604051632cd44ac360e21b815260040160405180910390fd5b5f602082840312156131c9575f80fd5b5035919050565b5f81518084528060208401602086015e5f602082860101526020601f19601f83011685010191505092915050565b602081525f61308460208301846131d0565b803561ffff811681146118ce575f80fd5b5f60208284031215613231575f80fd5b61308482613210565b5f8083601f84011261324a575f80fd5b50813567ffffffffffffffff811115613261575f80fd5b6020830191508360208260051b850101111561327b575f80fd5b9250929050565b5f805f805f805f8060a0898b031215613299575f80fd5b6132a289613210565b975060208901359650604089013567ffffffffffffffff8111156132c4575f80fd5b6132d08b828c0161323a565b909750955050606089013567ffffffffffffffff8111156132ef575f80fd5b6132fb8b828c0161323a565b909550935050608089013567ffffffffffffffff81111561331a575f80fd5b6133268b828c0161323a565b999c989b5096995094979396929594505050565b5f8083601f84011261334a575f80fd5b50813567ffffffffffffffff811115613361575f80fd5b60208301915083602082850101111561327b575f80fd5b5f805f806060858703121561338b575f80fd5b61339485613210565b9350602085013567ffffffffffffffff8111156133af575f80fd5b6133bb8782880161333a565b9598909750949560400135949350505050565b6001600160a01b0381168114612181575f80fd5b634e487b7160e01b5f52604160045260245ffd5b6040516080810167ffffffffffffffff81118282101715613419576134196133e2565b60405290565b604051610100810167ffffffffffffffff81118282101715613419576134196133e2565b604051601f8201601f1916810167ffffffffffffffff8111828210171561346c5761346c6133e2565b604052919050565b5f82601f830112613483575f80fd5b8135602083015f8067ffffffffffffffff8411156134a3576134a36133e2565b50601f8301601f19166020016134b881613443565b9150508281528583830111156134cc575f80fd5b828260208301375f92810160200192909252509392505050565b5f805f80608085870312156134f9575f80fd5b8435613504816133ce565b93506020850135613514816133ce565b925060408501359150606085013567ffffffffffffffff811115613536575f80fd5b61354287828801613474565b91505092959194509250565b5f806040838503121561355f575f80fd5b50508035926020909101359150565b5f806040838503121561357f575f80fd5b823591506020830135613591816133ce565b809150509250929050565b5f805f805f608086880312156135b0575f80fd5b6135b986613210565b9450602086013567ffffffffffffffff8111156135d4575f80fd5b6135e08882890161333a565b90955093505060408601359150606086013567ffffffffffffffff811115613606575f80fd5b61361288828901613474565b9150509295509295909350565b5f8060408385031215613630575f80fd5b61363983613210565b946020939093013593505050565b8015158114612181575f80fd5b5f8060408385031215613665575f80fd5b8235613670816133ce565b9150602083013561359181613647565b803560ff811681146118ce575f80fd5b5f80604083850312156136a1575f80fd5b823591506136b160208401613680565b90509250929050565b634e487b7160e01b5f52602160045260245ffd5b60208101600883106136ee57634e487b7160e01b5f52602160045260245ffd5b91905290565b5f8060408385031215613705575f80fd5b8235613710816133ce565b91506136b160208401613210565b5f805f8060608587031215613731575f80fd5b8435935061374160208601613680565b9250604085013567ffffffffffffffff81111561375c575f80fd5b6137688782880161333a565b95989497509550505050565b5f610100820190508251825263ffffffff602084015116602083015263ffffffff604084015116604083015263ffffffff606084015116606083015260808301516137c5608084018261ffff169052565b5060a08301516137db60a084018261ffff169052565b5060c08301516137f060c084018260ff169052565b5060e083015161380560e084018260ff169052565b5092915050565b60ff60f81b8816815260e060208201525f61382a60e08301896131d0565b828103604084015261383c81896131d0565b606084018890526001600160a01b038716608085015260a0840186905283810360c0850152845180825260208087019350909101905f5b81811015613891578351835260209384019390920191600101613873565b50909b9a5050505050505050505050565b5f602082840312156138b2575f80fd5b813567ffffffffffffffff8111156138c8575f80fd5b6138d484828501613474565b949350505050565b803563ffffffff811681146118ce575f80fd5b5f818303610160811215613901575f80fd5b6139096133f6565b9150823567ffffffffffffffff811115613921575f80fd5b61392d85828601613474565b835250602083013561393e816133ce565b6020830152604083013567ffffffffffffffff81111561395c575f80fd5b61396885828601613474565b604084015250610100605f1982011215613980575f80fd5b5061398961341f565b6060830135815261399c608084016138dc565b60208201526139ad60a084016138dc565b60408201526139be60c084016138dc565b60608201526139cf60e08401613210565b60808201526139e16101008401613210565b60a08201526139f36101208401613680565b60c0820152613a056101408401613680565b60e0820152606082015292915050565b5f60208284031215613a25575f80fd5b813567ffffffffffffffff811115613a3b575f80fd5b6138d4848285016138ef565b5f8060408385031215613a58575f80fd5b82359150602083013567ffffffffffffffff811115613a75575f80fd5b613a8185828601613474565b9150509250929050565b5f67ffffffffffffffff821115613aa457613aa46133e2565b5060051b60200190565b5f82601f830112613abd575f80fd5b8135613ad0613acb82613a8b565b613443565b8082825260208201915060208360051b860101925085831115613af1575f80fd5b602085015b83811015613b0e578035835260209283019201613af6565b5095945050505050565b5f805f805f60a08688031215613b2c575f80fd5b8535613b37816133ce565b94506020860135613b47816133ce565b9350604086013567ffffffffffffffff811115613b62575f80fd5b613b6e88828901613aae565b935050606086013567ffffffffffffffff811115613b8a575f80fd5b613b9688828901613aae565b925050608086013567ffffffffffffffff811115613606575f80fd5b5f8060408385031215613bc3575f80fd5b8235613639816133ce565b5f60208284031215613bde575f80fd5b8135613084816133ce565b5f805f805f60a08688031215613bfd575f80fd5b8535613c08816133ce565b94506020860135613c18816133ce565b93506040860135925060608601359150608086013567ffffffffffffffff811115613606575f80fd5b5f60208284031215613c51575f80fd5b813567ffffffffffffffff811115613c67575f80fd5b8201601f81018413613c77575f80fd5b8035613c85613acb82613a8b565b8082825260208201915060208360051b850101925086831115613ca6575f80fd5b602084015b83811015613ce757803567ffffffffffffffff811115613cc9575f80fd5b613cd8896020838901016138ef565b84525060209283019201613cab565b509695505050505050565b600181811c90821680613d0657607f821691505b602082108103613d2457634e487b7160e01b5f52602260045260245ffd5b50919050565b634e487b7160e01b5f52603260045260245ffd5b5f808335601e19843603018112613d53575f80fd5b83018035915067ffffffffffffffff821115613d6d575f80fd5b60200191503681900382131561327b575f80fd5b818382375f9101908152919050565b601f821115613dd757805f5260205f20601f840160051c81016020851015613db55750805b601f840160051c820191505b81811015613dd4575f8155600101613dc1565b50505b505050565b815167ffffffffffffffff811115613df657613df66133e2565b613e0a81613e048454613cf2565b84613d90565b6020601f821160018114613e3c575f8315613e255750848201515b5f19600385901b1c1916600184901b178455613dd4565b5f84815260208120601f198516915b82811015613e6b5787850151825560209485019460019092019101613e4b565b5084821015613e8857868401515f19600387901b60f8161c191681555b50505050600190811b01905550565b81835281816020850137505f828201602090810191909152601f909101601f19169091010190565b5f8383855260208501945060208460051b820101835f5b86811015613f4857838303601f19018852813536879003601e19018112613efb575f80fd5b860160208101903567ffffffffffffffff811115613f17575f80fd5b803603821315613f25575f80fd5b613f30858284613e97565b60209a8b019a90955093909301925050600101613ed6565b50909695505050505050565b606080825281018690525f8760808301825b89811015613f96578235613f79816133ce565b6001600160a01b0316825260209283019290910190600101613f66565b5083810360208501528681527f07ffffffffffffffffffffffffffffffffffffffffffffffffffffffffffffff871115613fce575f80fd5b8660051b9150818860208301370182810360209081016040850152613ff69082018587613ebf565b9998505050505050505050565b61ffff85168152606060208201525f614020606083018587613e97565b905082604083015295945050505050565b5f60208284031215614041575f80fd5b5051919050565b634e487b7160e01b5f52601160045260245ffd5b65ffffffffffff818116838216019081111561112a5761112a614048565b8181038181111561112a5761112a614048565b61ffff8716815260a060208201525f6140aa60a083018789613e97565b6001600160a01b0395909516604083015250606081019290925265ffffffffffff166080909101529392505050565b67ffffffffffffffff8311156140f1576140f16133e2565b614105836140ff8354613cf2565b83613d90565b5f601f841160018114614136575f851561411f5750838201355b5f19600387901b1c1916600186901b178355613dd4565b5f83815260208120601f198716915b828110156141655786850135825560209485019460019092019101614145565b5086821015614181575f1960f88860031b161c19848701351681555b505060018560011b0183555050505050565b6001600160a01b038616815261ffff85166020820152608060408201525f6141bf608083018587613e97565b90508260608301529695505050505050565b5f602082840312156141e1575f80fd5b815161308481613647565b606081525f6141ff606083018688613e97565b84602084015282810360408401526110b681856131d0565b8082018082111561112a5761112a614048565b634e487b7160e01b5f52603160045260245ffd5b60c081525f60c082015260e060208201525f61425e60e08301888a613e97565b86604084015285606084015284608084015282810360a0840152613ff681856131d0565b63ffffffff818116838216019081111561112a5761112a614048565b808202811582820484141761112a5761112a614048565b5f61ffff821661ffff81036142cc576142cc614048565b60010192915050565b61ffff828116828216039081111561112a5761112a614048565b61ffff84168152608060208201525f61430b60808301856131d0565b8281038060408501525f82526020810160608501525061432e60208201856131d0565b9695505050505050565b5f63ffffffff821663ffffffff81036142cc576142cc61404856fea264697066735822122036b7ea1e94cb4eb60c5b8bf59e7d6a54038522cabc6bb67623e0ed98611d363e64736f6c634300081a0033","linkReferences":{}},"methodIdentifiers":{"ADMIN_ROLE()":"75b238fc","DENOMINATOR()":"918f8674","MAX_CALLDATA_LENGTH()":"edf2a596","MAX_EXECUTIONS_LENGTH()":"f6226e7c","MAX_RETURN_DATA_LENGTH()":"7c1b5539","PUBLIC_ROLE()":"3ca7c02a","adoptLaw((string,address,bytes,(uint256,uint32,uint32,uint32,uint16,uint16,uint8,uint8)))":"a3a86b47","assignRole(uint256,address)":"685b824a","blacklistAddress(address,bool)":"455a4396","canCallLaw(address,uint16)":"7a485033","cancel(uint16,bytes,uint256)":"12561b1a","castVote(uint256,uint8)":"56781388","castVoteWithReason(uint256,uint8,string)":"7b3c71d3","constitute((string,address,bytes,(uint256,uint32,uint32,uint32,uint16,uint16,uint8,uint8))[])":"fc2d96d0","eip712Domain()":"84b0196e","fulfill(uint16,uint256,address[],uint256[],bytes[])":"0de6a601","getActionCalldata(uint256)":"d902bf3a","getActionData(uint256)":"4583476b","getActionReturnData(uint256,uint256)":"41bd157d","getActionState(uint256)":"666ca2d6","getActionUri(uint256)":"f2a0bb75","getActionVoteData(uint256)":"2179e04e","getAdoptedLaw(uint16)":"26ffe8cd","getAmountRoleHolders(uint256)":"b4324dd3","getConditions(uint16)":"831af379","getLatestFulfillment(uint16)":"040b8c24","getLawActionAtIndex(uint16,uint256)":"341b4d2c","getQuantityLawActions(uint16)":"732ef972","getRoleHolderAtIndex(uint256,uint256)":"199093bb","getRoleLabel(uint256)":"0398f05f","getTreasury()":"3b19e84a","hasRoleSince(address,uint256)":"cc5812cf","hasVoted(uint256,address)":"43859632","isBlacklisted(address)":"fe575a87","labelRole(uint256,string)":"ab776bf2","lawCounter()":"408b9440","name()":"06fdde03","onERC1155BatchReceived(address,address,uint256[],uint256[],bytes)":"bc197c81","onERC1155Received(address,address,uint256,uint256,bytes)":"f23a6e61","onERC721Received(address,address,uint256,bytes)":"150b7a02","propose(uint16,bytes,uint256,string)":"2e2d8253","request(uint16,bytes,uint256,string)":"ebef6d97","revokeLaw(uint16)":"c661d4be","revokeRole(uint256,address)":"1d0b19e7","setTreasury(address)":"f0f44260","setUri(string)":"9b642de1","uri()":"eac989f8","version()":"54fd4d50"},"id":121}