{"abi":[{"type":"constructor","inputs":[{"name":"name_","type":"string","internalType":"string"},{"name":"uri_","type":"string","internalType":"string"},{"name":"maxCallDataLength_","type":"uint256","internalType":"uint256"},{"name":"maxExecutionsLength_","type":"uint256","internalType":"uint256"}],"stateMutability":"nonpayable"},{"type":"receive","stateMutability":"payable"},{"type":"function","name":"ADMIN_ROLE","inputs":[],"outputs":[{"name":"","type":"uint256","internalType":"uint256"}],"stateMutability":"view"},{"type":"function","name":"DENOMINATOR","inputs":[],"outputs":[{"name":"","type":"uint256","internalType":"uint256"}],"stateMutability":"view"},{"type":"function","name":"MAX_CALLDATA_LENGTH","inputs":[],"outputs":[{"name":"","type":"uint256","internalType":"uint256"}],"stateMutability":"view"},{"type":"function","name":"MAX_EXECUTIONS_LENGTH","inputs":[],"outputs":[{"name":"","type":"uint256","internalType":"uint256"}],"stateMutability":"view"},{"type":"function","name":"PUBLIC_ROLE","inputs":[],"outputs":[{"name":"","type":"uint256","internalType":"uint256"}],"stateMutability":"view"},{"type":"function","name":"adoptLaw","inputs":[{"name":"lawInitData","type":"tuple","internalType":"struct PowersTypes.LawInitData","components":[{"name":"nameDescription","type":"string","internalType":"string"},{"name":"targetLaw","type":"address","internalType":"address"},{"name":"config","type":"bytes","internalType":"bytes"},{"name":"conditions","type":"tuple","internalType":"struct PowersTypes.Conditions","components":[{"name":"allowedRole","type":"uint256","internalType":"uint256"},{"name":"votingPeriod","type":"uint32","internalType":"uint32"},{"name":"delayExecution","type":"uint32","internalType":"uint32"},{"name":"throttleExecution","type":"uint32","internalType":"uint32"},{"name":"needFulfilled","type":"uint16","internalType":"uint16"},{"name":"needNotFulfilled","type":"uint16","internalType":"uint16"},{"name":"quorum","type":"uint8","internalType":"uint8"},{"name":"succeedAt","type":"uint8","internalType":"uint8"}]}]}],"outputs":[{"name":"lawId","type":"uint256","internalType":"uint256"}],"stateMutability":"nonpayable"},{"type":"function","name":"assignRole","inputs":[{"name":"roleId","type":"uint256","internalType":"uint256"},{"name":"account","type":"address","internalType":"address"}],"outputs":[],"stateMutability":"nonpayable"},{"type":"function","name":"blacklistAddress","inputs":[{"name":"account","type":"address","internalType":"address"},{"name":"blacklisted","type":"bool","internalType":"bool"}],"outputs":[],"stateMutability":"nonpayable"},{"type":"function","name":"canCallLaw","inputs":[{"name":"caller","type":"address","internalType":"address"},{"name":"lawId","type":"uint16","internalType":"uint16"}],"outputs":[{"name":"","type":"bool","internalType":"bool"}],"stateMutability":"view"},{"type":"function","name":"cancel","inputs":[{"name":"lawId","type":"uint16","internalType":"uint16"},{"name":"lawCalldata","type":"bytes","internalType":"bytes"},{"name":"nonce","type":"uint256","internalType":"uint256"}],"outputs":[{"name":"","type":"uint256","internalType":"uint256"}],"stateMutability":"nonpayable"},{"type":"function","name":"castVote","inputs":[{"name":"actionId","type":"uint256","internalType":"uint256"},{"name":"support","type":"uint8","internalType":"uint8"}],"outputs":[],"stateMutability":"nonpayable"},{"type":"function","name":"castVoteWithReason","inputs":[{"name":"actionId","type":"uint256","internalType":"uint256"},{"name":"support","type":"uint8","internalType":"uint8"},{"name":"reason","type":"string","internalType":"string"}],"outputs":[],"stateMutability":"nonpayable"},{"type":"function","name":"constitute","inputs":[{"name":"constituentLaws","type":"tuple[]","internalType":"struct PowersTypes.LawInitData[]","components":[{"name":"nameDescription","type":"string","internalType":"string"},{"name":"targetLaw","type":"address","internalType":"address"},{"name":"config","type":"bytes","internalType":"bytes"},{"name":"conditions","type":"tuple","internalType":"struct PowersTypes.Conditions","components":[{"name":"allowedRole","type":"uint256","internalType":"uint256"},{"name":"votingPeriod","type":"uint32","internalType":"uint32"},{"name":"delayExecution","type":"uint32","internalType":"uint32"},{"name":"throttleExecution","type":"uint32","internalType":"uint32"},{"name":"needFulfilled","type":"uint16","internalType":"uint16"},{"name":"needNotFulfilled","type":"uint16","internalType":"uint16"},{"name":"quorum","type":"uint8","internalType":"uint8"},{"name":"succeedAt","type":"uint8","internalType":"uint8"}]}]}],"outputs":[],"stateMutability":"nonpayable"},{"type":"function","name":"eip712Domain","inputs":[],"outputs":[{"name":"fields","type":"bytes1","internalType":"bytes1"},{"name":"name","type":"string","internalType":"string"},{"name":"version","type":"string","internalType":"string"},{"name":"chainId","type":"uint256","internalType":"uint256"},{"name":"verifyingContract","type":"address","internalType":"address"},{"name":"salt","type":"bytes32","internalType":"bytes32"},{"name":"extensions","type":"uint256[]","internalType":"uint256[]"}],"stateMutability":"view"},{"type":"function","name":"fulfill","inputs":[{"name":"lawId","type":"uint16","internalType":"uint16"},{"name":"actionId","type":"uint256","internalType":"uint256"},{"name":"targets","type":"address[]","internalType":"address[]"},{"name":"values","type":"uint256[]","internalType":"uint256[]"},{"name":"calldatas","type":"bytes[]","internalType":"bytes[]"}],"outputs":[],"stateMutability":"payable"},{"type":"function","name":"getActionCalldata","inputs":[{"name":"actionId","type":"uint256","internalType":"uint256"}],"outputs":[{"name":"callData","type":"bytes","internalType":"bytes"}],"stateMutability":"view"},{"type":"function","name":"getActionData","inputs":[{"name":"actionId","type":"uint256","internalType":"uint256"}],"outputs":[{"name":"lawId","type":"uint16","internalType":"uint16"},{"name":"proposedAt","type":"uint48","internalType":"uint48"},{"name":"requestedAt","type":"uint48","internalType":"uint48"},{"name":"fulfilledAt","type":"uint48","internalType":"uint48"},{"name":"cancelledAt","type":"uint48","internalType":"uint48"},{"name":"caller","type":"address","internalType":"address"},{"name":"nonce","type":"uint256","internalType":"uint256"}],"stateMutability":"view"},{"type":"function","name":"getActionState","inputs":[{"name":"actionId","type":"uint256","internalType":"uint256"}],"outputs":[{"name":"","type":"uint8","internalType":"enum PowersTypes.ActionState"}],"stateMutability":"view"},{"type":"function","name":"getActionUri","inputs":[{"name":"actionId","type":"uint256","internalType":"uint256"}],"outputs":[{"name":"_uri","type":"string","internalType":"string"}],"stateMutability":"view"},{"type":"function","name":"getActionVoteData","inputs":[{"name":"actionId","type":"uint256","internalType":"uint256"}],"outputs":[{"name":"voteStart","type":"uint48","internalType":"uint48"},{"name":"voteDuration","type":"uint32","internalType":"uint32"},{"name":"voteEnd","type":"uint256","internalType":"uint256"},{"name":"againstVotes","type":"uint32","internalType":"uint32"},{"name":"forVotes","type":"uint32","internalType":"uint32"},{"name":"abstainVotes","type":"uint32","internalType":"uint32"}],"stateMutability":"view"},{"type":"function","name":"getAdoptedLaw","inputs":[{"name":"lawId","type":"uint16","internalType":"uint16"}],"outputs":[{"name":"law","type":"address","internalType":"address"},{"name":"lawHash","type":"bytes32","internalType":"bytes32"},{"name":"active","type":"bool","internalType":"bool"}],"stateMutability":"view"},{"type":"function","name":"getAmountRoleHolders","inputs":[{"name":"roleId","type":"uint256","internalType":"uint256"}],"outputs":[{"name":"amountMembers","type":"uint256","internalType":"uint256"}],"stateMutability":"view"},{"type":"function","name":"getConditions","inputs":[{"name":"lawId","type":"uint16","internalType":"uint16"}],"outputs":[{"name":"conditions","type":"tuple","internalType":"struct PowersTypes.Conditions","components":[{"name":"allowedRole","type":"uint256","internalType":"uint256"},{"name":"votingPeriod","type":"uint32","internalType":"uint32"},{"name":"delayExecution","type":"uint32","internalType":"uint32"},{"name":"throttleExecution","type":"uint32","internalType":"uint32"},{"name":"needFulfilled","type":"uint16","internalType":"uint16"},{"name":"needNotFulfilled","type":"uint16","internalType":"uint16"},{"name":"quorum","type":"uint8","internalType":"uint8"},{"name":"succeedAt","type":"uint8","internalType":"uint8"}]}],"stateMutability":"view"},{"type":"function","name":"getLatestFulfillment","inputs":[{"name":"lawId","type":"uint16","internalType":"uint16"}],"outputs":[{"name":"latestFulfillment","type":"uint48","internalType":"uint48"}],"stateMutability":"view"},{"type":"function","name":"getLawActionAtIndex","inputs":[{"name":"lawId","type":"uint16","internalType":"uint16"},{"name":"index","type":"uint256","internalType":"uint256"}],"outputs":[{"name":"actionId","type":"uint256","internalType":"uint256"}],"stateMutability":"view"},{"type":"function","name":"getQuantityLawActions","inputs":[{"name":"lawId","type":"uint16","internalType":"uint16"}],"outputs":[{"name":"quantityLawActions","type":"uint256","internalType":"uint256"}],"stateMutability":"view"},{"type":"function","name":"getRoleHolderAtIndex","inputs":[{"name":"roleId","type":"uint256","internalType":"uint256"},{"name":"index","type":"uint256","internalType":"uint256"}],"outputs":[{"name":"account","type":"address","internalType":"address"}],"stateMutability":"view"},{"type":"function","name":"getRoleLabel","inputs":[{"name":"roleId","type":"uint256","internalType":"uint256"}],"outputs":[{"name":"label","type":"string","internalType":"string"}],"stateMutability":"view"},{"type":"function","name":"hasRoleSince","inputs":[{"name":"account","type":"address","internalType":"address"},{"name":"roleId","type":"uint256","internalType":"uint256"}],"outputs":[{"name":"since","type":"uint48","internalType":"uint48"}],"stateMutability":"view"},{"type":"function","name":"hasVoted","inputs":[{"name":"actionId","type":"uint256","internalType":"uint256"},{"name":"account","type":"address","internalType":"address"}],"outputs":[{"name":"","type":"bool","internalType":"bool"}],"stateMutability":"view"},{"type":"function","name":"isBlacklisted","inputs":[{"name":"account","type":"address","internalType":"address"}],"outputs":[{"name":"","type":"bool","internalType":"bool"}],"stateMutability":"view"},{"type":"function","name":"labelRole","inputs":[{"name":"roleId","type":"uint256","internalType":"uint256"},{"name":"label","type":"string","internalType":"string"}],"outputs":[],"stateMutability":"nonpayable"},{"type":"function","name":"lawCounter","inputs":[],"outputs":[{"name":"","type":"uint16","internalType":"uint16"}],"stateMutability":"view"},{"type":"function","name":"name","inputs":[],"outputs":[{"name":"","type":"string","internalType":"string"}],"stateMutability":"view"},{"type":"function","name":"onERC1155BatchReceived","inputs":[{"name":"","type":"address","internalType":"address"},{"name":"","type":"address","internalType":"address"},{"name":"","type":"uint256[]","internalType":"uint256[]"},{"name":"","type":"uint256[]","internalType":"uint256[]"},{"name":"","type":"bytes","internalType":"bytes"}],"outputs":[{"name":"","type":"bytes4","internalType":"bytes4"}],"stateMutability":"nonpayable"},{"type":"function","name":"onERC1155Received","inputs":[{"name":"","type":"address","internalType":"address"},{"name":"","type":"address","internalType":"address"},{"name":"","type":"uint256","internalType":"uint256"},{"name":"","type":"uint256","internalType":"uint256"},{"name":"","type":"bytes","internalType":"bytes"}],"outputs":[{"name":"","type":"bytes4","internalType":"bytes4"}],"stateMutability":"nonpayable"},{"type":"function","name":"onERC721Received","inputs":[{"name":"","type":"address","internalType":"address"},{"name":"","type":"address","internalType":"address"},{"name":"","type":"uint256","internalType":"uint256"},{"name":"","type":"bytes","internalType":"bytes"}],"outputs":[{"name":"","type":"bytes4","internalType":"bytes4"}],"stateMutability":"nonpayable"},{"type":"function","name":"payableEnabled","inputs":[],"outputs":[{"name":"","type":"bool","internalType":"bool"}],"stateMutability":"view"},{"type":"function","name":"propose","inputs":[{"name":"lawId","type":"uint16","internalType":"uint16"},{"name":"lawCalldata","type":"bytes","internalType":"bytes"},{"name":"nonce","type":"uint256","internalType":"uint256"},{"name":"uriAction","type":"string","internalType":"string"}],"outputs":[{"name":"actionId","type":"uint256","internalType":"uint256"}],"stateMutability":"nonpayable"},{"type":"function","name":"request","inputs":[{"name":"lawId","type":"uint16","internalType":"uint16"},{"name":"lawCalldata","type":"bytes","internalType":"bytes"},{"name":"nonce","type":"uint256","internalType":"uint256"},{"name":"uriAction","type":"string","internalType":"string"}],"outputs":[{"name":"actionId","type":"uint256","internalType":"uint256"}],"stateMutability":"payable"},{"type":"function","name":"revokeLaw","inputs":[{"name":"lawId","type":"uint16","internalType":"uint16"}],"outputs":[],"stateMutability":"nonpayable"},{"type":"function","name":"revokeRole","inputs":[{"name":"roleId","type":"uint256","internalType":"uint256"},{"name":"account","type":"address","internalType":"address"}],"outputs":[],"stateMutability":"nonpayable"},{"type":"function","name":"setPayableEnabled","inputs":[{"name":"payableEnabled_","type":"bool","internalType":"bool"}],"outputs":[],"stateMutability":"nonpayable"},{"type":"function","name":"setUri","inputs":[{"name":"newUri","type":"string","internalType":"string"}],"outputs":[],"stateMutability":"nonpayable"},{"type":"function","name":"uri","inputs":[],"outputs":[{"name":"","type":"string","internalType":"string"}],"stateMutability":"view"},{"type":"function","name":"version","inputs":[],"outputs":[{"name":"","type":"string","internalType":"string"}],"stateMutability":"pure"},{"type":"event","name":"ActionExecuted","inputs":[{"name":"lawId","type":"uint16","indexed":true,"internalType":"uint16"},{"name":"actionId","type":"uint256","indexed":true,"internalType":"uint256"},{"name":"targets","type":"address[]","indexed":false,"internalType":"address[]"},{"name":"values","type":"uint256[]","indexed":false,"internalType":"uint256[]"},{"name":"calldatas","type":"bytes[]","indexed":false,"internalType":"bytes[]"}],"anonymous":false},{"type":"event","name":"ActionRequested","inputs":[{"name":"caller","type":"address","indexed":true,"internalType":"address"},{"name":"lawId","type":"uint16","indexed":true,"internalType":"uint16"},{"name":"lawCalldata","type":"bytes","indexed":false,"internalType":"bytes"},{"name":"nonce","type":"uint256","indexed":false,"internalType":"uint256"},{"name":"description","type":"string","indexed":false,"internalType":"string"}],"anonymous":false},{"type":"event","name":"BlacklistSet","inputs":[{"name":"account","type":"address","indexed":true,"internalType":"address"},{"name":"blacklisted","type":"bool","indexed":true,"internalType":"bool"}],"anonymous":false},{"type":"event","name":"EIP712DomainChanged","inputs":[],"anonymous":false},{"type":"event","name":"FundsReceived","inputs":[{"name":"value","type":"uint256","indexed":false,"internalType":"uint256"},{"name":"sender","type":"address","indexed":false,"internalType":"address"}],"anonymous":false},{"type":"event","name":"LawAdopted","inputs":[{"name":"lawId","type":"uint16","indexed":true,"internalType":"uint16"}],"anonymous":false},{"type":"event","name":"LawRevived","inputs":[{"name":"lawId","type":"uint16","indexed":true,"internalType":"uint16"}],"anonymous":false},{"type":"event","name":"LawRevoked","inputs":[{"name":"lawId","type":"uint16","indexed":true,"internalType":"uint16"}],"anonymous":false},{"type":"event","name":"Powers__Initialized","inputs":[{"name":"contractAddress","type":"address","indexed":false,"internalType":"address"},{"name":"name","type":"string","indexed":false,"internalType":"string"},{"name":"uri","type":"string","indexed":false,"internalType":"string"}],"anonymous":false},{"type":"event","name":"ProposedActionCancelled","inputs":[{"name":"actionId","type":"uint256","indexed":true,"internalType":"uint256"}],"anonymous":false},{"type":"event","name":"ProposedActionCreated","inputs":[{"name":"actionId","type":"uint256","indexed":true,"internalType":"uint256"},{"name":"caller","type":"address","indexed":true,"internalType":"address"},{"name":"lawId","type":"uint16","indexed":true,"internalType":"uint16"},{"name":"signature","type":"string","indexed":false,"internalType":"string"},{"name":"executeCalldata","type":"bytes","indexed":false,"internalType":"bytes"},{"name":"voteStart","type":"uint256","indexed":false,"internalType":"uint256"},{"name":"voteEnd","type":"uint256","indexed":false,"internalType":"uint256"},{"name":"nonce","type":"uint256","indexed":false,"internalType":"uint256"},{"name":"description","type":"string","indexed":false,"internalType":"string"}],"anonymous":false},{"type":"event","name":"RoleLabel","inputs":[{"name":"roleId","type":"uint256","indexed":true,"internalType":"uint256"},{"name":"label","type":"string","indexed":false,"internalType":"string"}],"anonymous":false},{"type":"event","name":"RoleSet","inputs":[{"name":"roleId","type":"uint256","indexed":true,"internalType":"uint256"},{"name":"account","type":"address","indexed":true,"internalType":"address"},{"name":"access","type":"bool","indexed":true,"internalType":"bool"}],"anonymous":false},{"type":"event","name":"VoteCast","inputs":[{"name":"account","type":"address","indexed":true,"internalType":"address"},{"name":"actionId","type":"uint256","indexed":true,"internalType":"uint256"},{"name":"support","type":"uint8","indexed":true,"internalType":"uint8"},{"name":"reason","type":"string","indexed":false,"internalType":"string"}],"anonymous":false},{"type":"error","name":"FailedCall","inputs":[]},{"type":"error","name":"InvalidShortString","inputs":[]},{"type":"error","name":"Powers__ActionAlreadyFulfilled","inputs":[]},{"type":"error","name":"Powers__ActionAlreadyInitiated","inputs":[]},{"type":"error","name":"Powers__ActionCancelled","inputs":[]},{"type":"error","name":"Powers__ActionNotProposed","inputs":[]},{"type":"error","name":"Powers__ActionNotRequested","inputs":[]},{"type":"error","name":"Powers__AddressBlacklisted","inputs":[]},{"type":"error","name":"Powers__AlreadyCastVote","inputs":[]},{"type":"error","name":"Powers__CalldataTooLong","inputs":[]},{"type":"error","name":"Powers__CallerNotTargetLaw","inputs":[]},{"type":"error","name":"Powers__CannotAddZeroAddress","inputs":[]},{"type":"error","name":"Powers__CannotCallLaw","inputs":[]},{"type":"error","name":"Powers__CannotSetPublicRole","inputs":[]},{"type":"error","name":"Powers__ConstitutionAlreadyExecuted","inputs":[]},{"type":"error","name":"Powers__ExecutionArrayTooLong","inputs":[]},{"type":"error","name":"Powers__ExternalContractBlacklisted","inputs":[]},{"type":"error","name":"Powers__IncorrectInterface","inputs":[{"name":"targetLaw","type":"address","internalType":"address"}]},{"type":"error","name":"Powers__InvalidCallData","inputs":[]},{"type":"error","name":"Powers__InvalidIndex","inputs":[]},{"type":"error","name":"Powers__InvalidLabel","inputs":[]},{"type":"error","name":"Powers__InvalidMaxCallDataLength","inputs":[]},{"type":"error","name":"Powers__InvalidMaxExecutionsLength","inputs":[]},{"type":"error","name":"Powers__InvalidName","inputs":[]},{"type":"error","name":"Powers__InvalidVoteType","inputs":[]},{"type":"error","name":"Powers__LabelTooLong","inputs":[]},{"type":"error","name":"Powers__LawNotActive","inputs":[]},{"type":"error","name":"Powers__LawRequestFailed","inputs":[]},{"type":"error","name":"Powers__LockedRole","inputs":[]},{"type":"error","name":"Powers__NoMembersInRole","inputs":[]},{"type":"error","name":"Powers__NoVoteNeeded","inputs":[]},{"type":"error","name":"Powers__NotAContract","inputs":[]},{"type":"error","name":"Powers__NotAdmin","inputs":[]},{"type":"error","name":"Powers__NotProposerAction","inputs":[]},{"type":"error","name":"Powers__OnlyPowers","inputs":[]},{"type":"error","name":"Powers__PayableNotEnabled","inputs":[]},{"type":"error","name":"Powers__ProposedActionNotActive","inputs":[]},{"type":"error","name":"Powers__UnexpectedActionState","inputs":[]},{"type":"error","name":"Powers__VoteWithPublicRoleDisallowed","inputs":[]},{"type":"error","name":"StringTooLong","inputs":[{"name":"str","type":"string","internalType":"string"}]}],"bytecode":{"object":"0x6101a06040526006805461ffff1916600117905534801561001e575f80fd5b50604051614ea2380380614ea283398101604081905261003d916105da565b8361005e6040805180820190915260038152620c0b8d60ea1b602082015290565b610068825f6101e5565b610120526100778160016101e5565b61014052815160208084019190912060e052815190820120610100524660a05261010360e05161010051604080517f8b73c3c69bb8fe3d512ecc4cf759cc79239f7b179b0ffacaa9a75d522b39400f60208201529081019290925260608201524660808201523060a08201525f9060c00160405160208183030381529060405280519060200120905090565b60805250503060c05283515f0361012d57604051634acb0e6d60e01b815260040160405180910390fd5b600761013985826106d2565b50600861014684826106d2565b50815f0361016757604051631c58c0e160e01b815260040160405180910390fd5b805f0361018757604051638a2b742f60e01b815260040160405180910390fd5b61016082905261018081905261019f5f336001610217565b7f8e09415123fab1f9e22246686c8d24ad9f84c70288cd5fa338213bccd3c5fb7630600760086040516101d49392919061080b565b60405180910390a150505050610904565b5f602083511015610200576101f9836104f7565b9050610211565b8161020b84826106d2565b5060ff90505b92915050565b5f1983036102385760405163a1dd2b9360e01b815260040160405180910390fd5b6001600160a01b03821661025f576040516329f62b5d60e11b815260040160405180910390fd5b5f8381526004602090815260408083206001600160a01b03861684529091529020541581801561028c5750805b15610334575f8481526004602052604090206001908101546102ad9161085e565b5f8581526004602081815260408084206001600160a01b038981168087528285528387209790975593835281518083019092529481524365ffffffffffff9081168284019081526001968701805497880181558652929094209051940180549151949092166001600160d01b031990911617600160a01b93909216929092021790556104b7565b81158015610340575080155b156104b7575f8481526004602052604081206001908101546103629190610871565b5f868152600460205260408120600101805492935090918390811061038957610389610884565b5f918252602080832060408051808201825293909101546001600160a01b038082168552600160a01b90910465ffffffffffff16848401528a85526004808452828620918b16865281845291852054948b9052915290925082906001908101906103f39084610871565b8154811061040357610403610884565b5f91825260208083208451920180549482015165ffffffffffff16600160a01b026001600160d01b03199095166001600160a01b039093169290921793909317905588815260049091526040902060010180548061046357610463610898565b5f82815260208082205f19908401810180546001600160d01b031916905590920190925588825260048152604080832094516001600160a01b03908116845294909152808220929092559186168252812055505b811515836001600160a01b0316857f294507a8f5830b538faef39fbdd28f1164f27c8338a32fc7b47ddf82e4c8d9e460405160405180910390a450505050565b5f80829050601f8151111561052a578260405163305a27a960e01b815260040161052191906108ac565b60405180910390fd5b8051610535826108e1565b179392505050565b634e487b7160e01b5f52604160045260245ffd5b5f82601f830112610560575f80fd5b81516001600160401b038111156105795761057961053d565b604051601f8201601f19908116603f011681016001600160401b03811182821017156105a7576105a761053d565b6040528181528382016020018510156105be575f80fd5b8160208501602083015e5f918101602001919091529392505050565b5f805f80608085870312156105ed575f80fd5b84516001600160401b03811115610602575f80fd5b61060e87828801610551565b602087015190955090506001600160401b0381111561062b575f80fd5b61063787828801610551565b604087015160609097015195989097509350505050565b600181811c9082168061066257607f821691505b60208210810361068057634e487b7160e01b5f52602260045260245ffd5b50919050565b601f8211156106cd57805f5260205f20601f840160051c810160208510156106ab5750805b601f840160051c820191505b818110156106ca575f81556001016106b7565b50505b505050565b81516001600160401b038111156106eb576106eb61053d565b6106ff816106f9845461064e565b84610686565b6020601f821160018114610731575f831561071a5750848201515b5f19600385901b1c1916600184901b1784556106ca565b5f84815260208120601f198516915b828110156107605787850151825560209485019460019092019101610740565b508482101561077d57868401515f19600387901b60f8161c191681555b50505050600190811b01905550565b5f81546107988161064e565b8085526001821680156107b257600181146107ce57610802565b60ff1983166020870152602082151560051b8701019350610802565b845f5260205f205f5b838110156107f95781546020828a0101526001820191506020810190506107d7565b87016020019450505b50505092915050565b6001600160a01b03841681526060602082018190525f9061082e9083018561078c565b8281036040840152610840818561078c565b9695505050505050565b634e487b7160e01b5f52601160045260245ffd5b808201808211156102115761021161084a565b818103818111156102115761021161084a565b634e487b7160e01b5f52603260045260245ffd5b634e487b7160e01b5f52603160045260245ffd5b602081525f82518060208401528060208501604085015e5f604082850101526040601f19601f83011684010191505092915050565b80516020808301519190811015610680575f1960209190910360031b1b16919050565b60805160a05160c05160e051610100516101205161014051610160516101805161452c6109765f395f8181610ae80152610ed101525f8181610a6b01528181610f1c0152818161157b0152611ece01525f612cff01525f612cce01525f50505f50505f50505f50505f505061452c5ff3fe6080604052600436106102d2575f3560e01c80637a48503311610177578063bc197c81116100dc578063edf2a59611610087578063f6226e7c11610062578063f6226e7c14610ad7578063fc2d96d014610b0a578063fe575a8714610b29575f80fd5b8063edf2a59614610a5a578063f23a6e6114610a8d578063f2a0bb7514610ab8575f80fd5b8063d902bf3a116100b7578063d902bf3a14610a14578063eac989f814610a33578063ebef6d9714610a47575f80fd5b8063bc197c81146109ab578063c661d4be146109d6578063cc5812cf146109f5575f80fd5b80639b642de11161013c578063a8c89c5b11610117578063a8c89c5b14610945578063ab776bf21461095e578063b4324dd31461097d575f80fd5b80639b642de1146108e8578063a2ea80f914610907578063a3a86b4714610926575f80fd5b80637a485033146108435780637b3c71d314610862578063831af3791461088157806384b0196e146108ad578063918f8674146108d4575f80fd5b8063341b4d2c1161023757806354fd4d50116101e2578063685b824a116101bd578063685b824a146107df578063732ef972146107fe57806375b238fc14610830575f80fd5b806354fd4d50146107695780635678138814610794578063666ca2d6146107b3575f80fd5b806343859632116102125780634385963214610621578063455a4396146106795780634583476b14610698575f80fd5b8063341b4d2c146105c15780633ca7c02a146105e0578063408b9440146105f4575f80fd5b8063150b7a02116102975780632179e04e116102725780632179e04e146104ad57806326ffe8cd1461050c5780632e2d8253146105a2575f80fd5b8063150b7a0214610414578063199093bb146104575780631d0b19e71461048e575f80fd5b80630398f05f14610338578063040b8c241461036d57806306fdde03146103be5780630de6a601146103d257806312561b1a146103e7575f80fd5b366103345760095460ff166102fa5760405163255b3eed60e01b815260040160405180910390fd5b604080513481523360208201527fa0b6ed69c727bcce4cfdf30bc2777d7b7007d936b4a4dea135cbf6622fe4a58c910160405180910390a1005b5f80fd5b348015610343575f80fd5b50610357610352366004613356565b610b60565b604051610364919061339b565b60405180910390f35b348015610378575f80fd5b506103a76103873660046133be565b61ffff165f9081526003602052604090206005015465ffffffffffff1690565b60405165ffffffffffff9091168152602001610364565b3480156103c9575f80fd5b50610357610c02565b6103e56103e036600461341e565b610c8e565b005b3480156103f2575f80fd5b50610406610401366004613510565b61116a565b604051908152602001610364565b34801561041f575f80fd5b5061043e61042e36600461367b565b630a85bd0160e11b949350505050565b6040516001600160e01b03199091168152602001610364565b348015610462575f80fd5b506104766104713660046136de565b611278565b6040516001600160a01b039091168152602001610364565b348015610499575f80fd5b506103e56104a83660046136fe565b6112e7565b3480156104b8575f80fd5b506104cc6104c7366004613356565b611316565b6040805165ffffffffffff909716875263ffffffff95861660208801528601939093529083166060850152821660808401521660a082015260c001610364565b348015610517575f80fd5b5061057b6105263660046133be565b61ffff165f8181526003602081815260409283902080549201548351308184015280850195909552835180860385018152606090950190935283519301929092206001600160a01b039092169260ff90911690565b604080516001600160a01b0390941684526020840192909252151590820152606001610364565b3480156105ad575f80fd5b506104066105bc366004613728565b61139b565b3480156105cc575f80fd5b506104066105db3660046137a9565b6115d4565b3480156105eb575f80fd5b506104065f1981565b3480156105ff575f80fd5b5060065461060e9061ffff1681565b60405161ffff9091168152602001610364565b34801561062c575f80fd5b5061066961063b3660046136fe565b5f8281526002602090815260408083206001600160a01b038516845260060190915290205460ff1692915050565b6040519015158152602001610364565b348015610684575f80fd5b506103e56106933660046137de565b611641565b3480156106a3575f80fd5b506107166106b2366004613356565b5f908152600260208190526040909120805491810154600390910154600160f01b830461ffff169365ffffffffffff8085169466010000000000008104821694600160601b8204831694600160901b909204909216926001600160a01b0390921691565b6040805161ffff909816885265ffffffffffff96871660208901529486169487019490945291841660608601529290921660808401526001600160a01b0390911660a083015260c082015260e001610364565b348015610774575f80fd5b506040805180820190915260038152620c0b8d60ea1b6020820152610357565b34801561079f575f80fd5b506103e56107ae366004613823565b6116b4565b3480156107be575f80fd5b506107d26107cd366004613356565b6116ce565b6040516103649190613858565b3480156107ea575f80fd5b506103e56107f93660046136fe565b61181d565b348015610809575f80fd5b506104066108183660046133be565b61ffff165f9081526003602052604090206004015490565b34801561083b575f80fd5b506104065f81565b34801561084e575f80fd5b5061066961085d36600461387e565b611882565b34801561086d575f80fd5b506103e561087c3660046138a6565b6118bc565b34801561088c575f80fd5b506108a061089b3660046133be565b611903565b60405161036491906138fb565b3480156108b8575f80fd5b506108c16119de565b6040516103649796959493929190613993565b3480156108df575f80fd5b50610406606481565b3480156108f3575f80fd5b506103e5610902366004613a29565b611a20565b348015610912575f80fd5b506103e5610921366004613a62565b611a4c565b348015610931575f80fd5b50610406610940366004613bb2565b611a7f565b348015610950575f80fd5b506009546106699060ff1681565b348015610969575f80fd5b506103e5610978366004613be3565b611ab1565b348015610988575f80fd5b50610406610997366004613356565b5f9081526004602052604090206001015490565b3480156109b6575f80fd5b5061043e6109c5366004613cb2565b63bc197c8160e01b95945050505050565b3480156109e1575f80fd5b506103e56109f03660046133be565b611b97565b348015610a00575f80fd5b506103a7610a0f366004613d45565b611c39565b348015610a1f575f80fd5b50610357610a2e366004613356565b611cba565b348015610a3e575f80fd5b50610357611cd9565b610406610a55366004613728565b611ce6565b348015610a65575f80fd5b506104067f000000000000000000000000000000000000000000000000000000000000000081565b348015610a98575f80fd5b5061043e610aa7366004613d5f565b63f23a6e6160e01b95945050505050565b348015610ac3575f80fd5b50610357610ad2366004613356565b61220c565b348015610ae2575f80fd5b506104067f000000000000000000000000000000000000000000000000000000000000000081565b348015610b15575f80fd5b506103e5610b24366004613db2565b61222b565b348015610b34575f80fd5b50610669610b43366004613e61565b6001600160a01b03165f9081526005602052604090205460ff1690565b5f818152600460205260409020600201805460609190610b7f90613e7a565b80601f0160208091040260200160405190810160405280929190818152602001828054610bab90613e7a565b8015610bf65780601f10610bcd57610100808354040283529160200191610bf6565b820191905f5260205f20905b815481529060010190602001808311610bd957829003601f168201915b50505050509050919050565b60078054610c0f90613e7a565b80601f0160208091040260200160405190810160405280929190818152602001828054610c3b90613e7a565b8015610c865780601f10610c5d57610100808354040283529160200191610c86565b820191905f5260205f20905b815481529060010190602001808311610c6957829003601f168201915b505050505081565b61ffff88165f90815260036020819052604082200154899160ff90911615159003610ccc57604051639b7a92d760e01b815260040160405180910390fd5b61ffff808a165f908152600360208181526040808420815160a0808201845282546001600160a01b0316825283516101008101855260018401548152600284015463ffffffff808216838901526401000000008204811683880152600160401b820416606080840191909152600160601b82048b166080840152600160701b8204909a169282019290925260ff600160801b8304811660c0830152600160881b909204821660e08201528286015294820154909416151584830152600481018054835181860281018601909452808452959694959194860193909190830182828015610dd557602002820191905f5260205f20905b815481526020019060010190808311610dc1575b50505091835250506005919091015465ffffffffffff166020909101526040810151909150610e1757604051639b7a92d760e01b815260040160405180910390fd5b80516001600160a01b03163314610e41576040516395286e3960e01b815260040160405180910390fd5b610e4a8961231d565b610e67576040516301dd1d1560e71b815260040160405180910390fd5b5f89815260026020526040902054600160601b900465ffffffffffff1615610ea25760405163a517239560e01b815260040160405180910390fd5b8685141580610eb15750868314155b15610ecf5760405163dbf15fa560e01b815260040160405180910390fd5b7f0000000000000000000000000000000000000000000000000000000000000000871115610f105760405163d0b6a17960e01b815260040160405180910390fd5b5f5b87811015610fd0577f0000000000000000000000000000000000000000000000000000000000000000858583818110610f4d57610f4d613eb2565b9050602002810190610f5f9190613ec6565b90501115610f8057604051631c3bc5e360e31b815260040160405180910390fd5b610faa898983818110610f9557610f95613eb2565b9050602002016020810190610b439190613e61565b15610fc8576040516334d52f6b60e01b815260040160405180910390fd5b600101610f12565b505f898152600260205260408120805471ffffffffffff0000000000000000000000001916600160601b4365ffffffffffff16021790555b878110156110e9575f808a8a8481811061102457611024613eb2565b90506020020160208101906110399190613e61565b6001600160a01b031689898581811061105457611054613eb2565b9050602002013588888681811061106d5761106d613eb2565b905060200281019061107f9190613ec6565b60405161108d929190613f08565b5f6040518083038185875af1925050503d805f81146110c7576040519150601f19603f3d011682016040523d82523d5f602084013e6110cc565b606091505b50915091506110db8282612371565b505050806001019050611008565b50888a61ffff167f328d3074f6e96c8ffb9619ec805360a70b6af7ad7e24e7c73fd0968e5dc505c48a8a8a8a8a8a60405161112996959493929190613fd3565b60405180910390a35050505061ffff959095165f908152600360205260409020600501805465ffffffffffff19164365ffffffffffff161790555050505050565b61ffff84165f90815260036020819052604082200154859060ff16151582036111a657604051639b7a92d760e01b815260040160405180910390fd5b604051630bcec85560e01b81525f9073e4040f1afe2b7e5ef6a52014419fbcd3d56160de90630bcec855906111e5908a908a908a908a90600401614067565b602060405180830381865af4158015611200573d5f803e3d5ffd5b505050506040513d601f19601f820116820180604052508101906112249190614095565b5f81815260026020819052604090912001549091506001600160a01b0316331461126157604051637365858560e01b815260040160405180910390fd5b61126d8787878761238d565b979650505050505050565b5f8281526004602052604081206001015482106112a85760405163472e61bd60e01b815260040160405180910390fd5b5f8381526004602052604090206001018054839081106112ca576112ca613eb2565b5f918252602090912001546001600160a01b031690505b92915050565b3330146113075760405163e890ccbf60e01b815260040160405180910390fd5b61131282825f612505565b5050565b5f81815260026020526040812080546001820154839283928392839283929091600160c01b90910465ffffffffffff169063ffffffff1661135781836140c0565b60019390930154919a90995065ffffffffffff909216975063ffffffff640100000000820481169750600160401b820481169650600160601b909104169350915050565b61ffff85165f90815260036020819052604082200154869060ff16151582036113d757604051639b7a92d760e01b815260040160405180910390fd5b61ffff8088165f908152600360208181526040808420815160a0808201845282546001600160a01b0316825283516101008101855260018401548152600284015463ffffffff808216838901526401000000008204811683880152600160401b820416606080840191909152600160601b82048b166080840152600160701b8204909a169282019290925260ff600160801b8304811660c0830152600160881b909204821660e082015282860152948201549094161515848301526004810180548351818602810186019094528084529596949591948601939091908301828280156114e057602002820191905f5260205f20905b8154815260200190600101908083116114cc575b50505091835250506005919091015465ffffffffffff16602090910152604081015190915061152257604051639b7a92d760e01b815260040160405180910390fd5b61152c3389611882565b61154957604051631cfd659560e31b815260040160405180910390fd5b335f9081526005602052604090205460ff1615611579576040516334d52f6b60e01b815260040160405180910390fd5b7f00000000000000000000000000000000000000000000000000000000000000008611156115ba57604051631c3bc5e360e31b815260040160405180910390fd5b6115c83389898989896127e5565b98975050505050505050565b61ffff82165f9081526003602052604081206004015482106116095760405163472e61bd60e01b815260040160405180910390fd5b61ffff83165f90815260036020526040902060040180548390811061163057611630613eb2565b905f5260205f200154905092915050565b3330146116615760405163e890ccbf60e01b815260040160405180910390fd5b6001600160a01b0382165f81815260056020526040808220805460ff191685151590811790915590519092917f921341769c2075d1ae425396063d5ab65ff5006c4bc0bd0821e50ce51fb6012391a35050565b61131282338360405180602001604052805f815250612a9d565b5f818152600260205260408120805465ffffffffffff16158015611703575080546601000000000000900465ffffffffffff16155b801561171d57508054600160601b900465ffffffffffff16155b801561173757508054600160901b900465ffffffffffff16155b1561174457505f92915050565b8054600160601b900465ffffffffffff16156117635750600792915050565b8054600160901b900465ffffffffffff16156117825750600292915050565b80546601000000000000900465ffffffffffff16156117a45750600692915050565b600181015481545f916117ce9163ffffffff90911690600160c01b900465ffffffffffff166140c0565b65ffffffffffff1690504381106117e9575060039392505050565b6117f284612bac565b1580611804575061180284612c4c565b155b15611813575060049392505050565b5060059392505050565b33301461183d5760405163e890ccbf60e01b815260040160405180910390fd5b6001600160a01b0381165f9081526005602052604090205460ff1615611876576040516334d52f6b60e01b815260040160405180910390fd5b61131282826001612505565b5f8061188d83611903565b5190505f61189b8583611c39565b905065ffffffffffff81161515806118b357505f1982145b95945050505050565b6118fd84338585858080601f0160208091040260200160405190810160405280939291908181526020018383808284375f92019190915250612a9d92505050565b50505050565b60408051610100810182525f80825260208201819052918101829052606081018290526080810182905260a0810182905260c0810182905260e08101919091525061ffff9081165f908152600360209081526040918290208251610100810184526001820154815260029091015463ffffffff808216938301939093526401000000008104831693820193909352600160401b83049091166060820152600160601b820483166080820152600160701b820490921660a083015260ff600160801b8204811660c0840152600160881b9091041660e082015290565b5f6060805f805f60606119ef612cc7565b6119f7612cf8565b604080515f80825260208201909252600f60f81b9b939a50919850469750309650945092509050565b333014611a405760405163e890ccbf60e01b815260040160405180910390fd5b6008611312828261412a565b333014611a6c5760405163e890ccbf60e01b815260040160405180910390fd5b6009805460ff1916911515919091179055565b5f333014611aa05760405163e890ccbf60e01b815260040160405180910390fd5b611aa982612d25565b90505b919050565b333014611ad15760405163e890ccbf60e01b815260040160405180910390fd5b811580611ade57505f1982145b15611afc576040516329939fd360e21b815260040160405180910390fd5b80515f03611b1d576040516333a0807f60e21b815260040160405180910390fd5b60ff81511115611b40576040516350cc0e8d60e01b815260040160405180910390fd5b5f828152600460205260409020600201611b5a828261412a565b50817f4c6d3d4a776b1458bbd518e75903a3f27a0c6f4597b10882784aa64769d56c7182604051611b8b919061339b565b60405180910390a25050565b333014611bb75760405163e890ccbf60e01b815260040160405180910390fd5b61ffff81165f9081526003602081905260408220015460ff1615159003611bf157604051639b7a92d760e01b815260040160405180910390fd5b61ffff81165f818152600360208190526040808320909101805460ff19169055517f519eb0bde04fa6068eddea64ada07d654914aa8a6bd2689cf2aeb02c61a4f1359190a250565b5f8181526004602090815260408083206001600160a01b0386168452909152812054808203611c6b575f9150506112e1565b5f838152600460205260409020600190810190611c8890836141e4565b81548110611c9857611c98613eb2565b5f91825260209091200154600160a01b900465ffffffffffff16949350505050565b5f818152600260205260409020600401805460609190610b7f90613e7a565b60088054610c0f90613e7a565b61ffff85165f90815260036020819052604082200154869060ff1615158203611d2257604051639b7a92d760e01b815260040160405180910390fd5b604051630bcec85560e01b815273e4040f1afe2b7e5ef6a52014419fbcd3d56160de90630bcec85590611d5f908a908a908a908a90600401614067565b602060405180830381865af4158015611d7a573d5f803e3d5ffd5b505050506040513d601f19601f82011682018060405250810190611d9e9190614095565b61ffff8089165f908152600360208181526040808420815160a0808201845282546001600160a01b0316825283516101008101855260018401548152600284015463ffffffff808216838901526401000000008204811683880152600160401b820416606080840191909152600160601b82048b166080840152600160701b8204909a169282019290925260ff600160801b8304811660c0830152600160881b909204821660e08201528286015294820154909416151584830152600481018054835181860281018601909452808452979950949693959094908601939192909190830182828015611ead57602002820191905f5260205f20905b815481526020019060010190808311611e99575b50505091835250506005919091015465ffffffffffff1660209091015290507f0000000000000000000000000000000000000000000000000000000000000000861115611f0d57604051631c3bc5e360e31b815260040160405180910390fd5b335f9081526005602052604090205460ff1615611f3d576040516334d52f6b60e01b815260040160405180910390fd5b611f473389611882565b611f6457604051631cfd659560e31b815260040160405180910390fd5b611f6d8361231d565b15611f8b5760405163fc0e49ff60e01b815260040160405180910390fd5b5f83815260026020526040902054600160901b900465ffffffffffff1615611fc657604051632ec3fe1560e11b815260040160405180910390fd5b6080810151604051630268cb5960e61b815273e4040f1afe2b7e5ef6a52014419fbcd3d56160de91639a32d6409161200a918c918c918c9130918d916004016141f7565b5f6040518083038186803b158015612020575f80fd5b505af4158015612032573d5f803e3d5ffd5b5050505f84815260026020526040812054600160f01b900461ffff169003905061207f5761ffff88165f908152600360209081526040822060040180546001810182559083529120018390555b5f8381526002602081905260409091209081018054336001600160a01b031990911617905580547dffffffffffffffffffffffffffffffffffff000000000000ffffffffffff16600160f01b61ffff8b16026bffffffffffff00000000000019161766010000000000004365ffffffffffff160217815560048101612105888a83614243565b5060058101612114868261412a565b50600381018690558151604051637bf5b2fb60e01b81525f916001600160a01b031690637bf5b2fb906121539033908e908e908e908e906004016142fc565b6020604051808303815f875af115801561216f573d5f803e3d5ffd5b505050506040513d601f19601f82011682018060405250810190612193919061433a565b9050806121b35760405163064996a160e01b815260040160405180910390fd5b8961ffff16336001600160a01b03167f98e1e52af9c2155b4c2b4844cdccf64c85cb13dd804231d177ef6fea4325d4058b8b8b8b6040516121f79493929190614355565b60405180910390a35050505095945050505050565b5f818152600260205260409020600501805460609190610b7f90613e7a565b335f9081527f17ef568e3e12ab5b9c7254a8d58478811de00f9e6eb34345acd53bf8fd09d3ec602052604081205490036122785760405163100a553d60e31b815260040160405180910390fd5b600954610100900460ff16156122a15760405163cc03ce1160e01b815260040160405180910390fd5b6009805461ff0019166101001790555f5b8151811015611312575f6001600160a01b03168282815181106122d7576122d7613eb2565b6020026020010151602001516001600160a01b0316146123155761231382828151811061230657612306613eb2565b6020026020010151612d25565b505b6001016122b2565b5f80612328836116ce565b9050600681600781111561233e5761233e613844565b148061235b5750600781600781111561235957612359613844565b145b156123695750600192915050565b505f92915050565b6060826123865761238182613047565b6112e1565b50806112e1565b5f8073e4040f1afe2b7e5ef6a52014419fbcd3d56160de630bcec855878787876040518563ffffffff1660e01b81526004016123cc9493929190614067565b602060405180830381865af41580156123e7573d5f803e3d5ffd5b505050506040513d601f19601f8201168201806040525081019061240b9190614095565b5f8181526002602052604081205491925065ffffffffffff90911690036124455760405163f661f4bf60e01b815260040160405180910390fd5b5f81815260026020526040902054600160601b900465ffffffffffff1615158061248a57505f81815260026020526040902054600160901b900465ffffffffffff1615155b156124a85760405163b831530960e01b815260040160405180910390fd5b5f81815260026020526040808220805465ffffffffffff60901b1916600160901b4365ffffffffffff16021790555182917f8eb4cfeba12ece86fc1590773502e55423b37db556543430337376b30d27c42b91a295945050505050565b5f1983036125265760405163a1dd2b9360e01b815260040160405180910390fd5b6001600160a01b03821661254d576040516329f62b5d60e11b815260040160405180910390fd5b5f8381526004602090815260408083206001600160a01b03861684529091529020541581801561257a5750805b15612622575f84815260046020526040902060019081015461259b91614380565b5f8581526004602081815260408084206001600160a01b038981168087528285528387209790975593835281518083019092529481524365ffffffffffff9081168284019081526001968701805497880181558652929094209051940180549151949092166001600160d01b031990911617600160a01b93909216929092021790556127a5565b8115801561262e575080155b156127a5575f84815260046020526040812060019081015461265091906141e4565b5f868152600460205260408120600101805492935090918390811061267757612677613eb2565b5f918252602080832060408051808201825293909101546001600160a01b038082168552600160a01b90910465ffffffffffff16848401528a85526004808452828620918b16865281845291852054948b9052915290925082906001908101906126e190846141e4565b815481106126f1576126f1613eb2565b5f91825260208083208451920180549482015165ffffffffffff16600160a01b026001600160d01b03199095166001600160a01b039093169290921793909317905588815260049091526040902060010180548061275157612751614393565b5f82815260208082205f19908401810180546001600160d01b031916905590920190925588825260048152604080832094516001600160a01b03908116845294909152808220929092559186168252812055505b811515836001600160a01b0316857f294507a8f5830b538faef39fbdd28f1164f27c8338a32fc7b47ddf82e4c8d9e460405160405180910390a450505050565b5f806127f087611903565b604051630bcec85560e01b815290915073e4040f1afe2b7e5ef6a52014419fbcd3d56160de90630bcec85590612830908a908a908a908a90600401614067565b602060405180830381865af415801561284b573d5f803e3d5ffd5b505050506040513d601f19601f8201168201806040525081019061286f9190614095565b91508060c0015160ff165f0361289857604051632dd4cc8d60e01b815260040160405180910390fd5b5f82815260026020526040902054600160c01b900465ffffffffffff16156128d35760405163b831530960e01b815260040160405180910390fd5b604051630722826960e41b815273e4040f1afe2b7e5ef6a52014419fbcd3d56160de90637228269090612912908a908a908a9030908b906004016143a7565b5f6040518083038186803b158015612928575f80fd5b505af415801561293a573d5f803e3d5ffd5b50505061ffff88165f9081526003602090815260408083206004908101805460018101825590855283852001879055868452600290925290912091508101612983878983614243565b5080547dffffffffffffffffffffffffffffffffffffffffffffffff000000000000164365ffffffffffff16908117600160f01b61ffff8b16021765ffffffffffff60c01b1916600160c01b91909102178155602082015160018201805463ffffffff191663ffffffff9092169190911790556002810180546001600160a01b0319166001600160a01b038b1617905560058101612a21858261412a565b508481600301819055508761ffff16896001600160a01b0316847fb5856a9700a7e851456d3a16348b4ae0fbb11b06ac0af8dbe8e8652c57cc4cbd8a8a43886020015163ffffffff1643612a759190614380565b8c8c604051612a89969594939291906143e1565b60405180910390a450509695505050505050565b6003612aa8856116ce565b6007811115612ab957612ab9613844565b14612ad7576040516322024acd60e21b815260040160405180910390fd5b5f8481526002602052604090208054600160f01b900461ffff16612afb8582611882565b612b1857604051631cfd659560e31b815260040160405180910390fd5b6001600160a01b0385165f90815260068301602052604090205460ff1615612b535760405163c9e3c8d960e01b815260040160405180910390fd5b612b5e868686613072565b8360ff1686866001600160a01b03167f5be2678cab71c7d94235767eb1df3c57673f19e805cdc0edbd2e74854ae9f0f986604051612b9c919061339b565b60405180910390a4505050505050565b5f81815260026020526040812080548290612bd190600160f01b900461ffff16611903565b80515f9081526004602052604090206001015460c08201519192509060ff1615806118b357506001830154606490612c1f9063ffffffff600160601b8204811691600160401b900416614425565b63ffffffff16612c2f9190614441565b60c0830151612c419060ff1683614441565b111595945050505050565b5f81815260026020526040812080548290612c7190600160f01b900461ffff16611903565b80515f9081526004602052604090206001015460c08201519192509060ff1615806118b357506001830154612cb590606490600160401b900463ffffffff16614441565b60e0830151612c419060ff1683614441565b6060612cf37f00000000000000000000000000000000000000000000000000000000000000005f61315d565b905090565b6060612cf37f0000000000000000000000000000000000000000000000000000000000000000600161315d565b5f612d3b8260200151632ad2108960e01b613206565b612d6d576020820151604051631f09f19160e21b81526001600160a01b03909116600482015260240160405180910390fd5b612d9282602001516001600160a01b03165f9081526005602052604090205460ff1690565b15612db0576040516334d52f6b60e01b815260040160405180910390fd5b6060820151515f19148015612dcf57505f826060015160c0015160ff16115b15612ded57604051632e562fc560e01b815260040160405180910390fd5b6006805461ffff9081165f908152600360208181526040808420909201805460ff191660019081179091558782015186548616855283852080546001600160a01b039092166001600160a01b031990921691909117905560608089015187548716865284862081519381019390935592830151600290920180549484015191840151608085015160a086015160c087015160e09097015160ff908116600160881b0260ff60881b1991909816600160801b0260ff60801b19928c16600160701b029290921670ffffff000000000000000000000000000019938c16600160601b026dffff0000000000000000000000001963ffffffff968716600160401b02166dffffffffffff0000000000000000199887166401000000000267ffffffffffffffff19909c169690991695909517999099179590951695909517919091171694909417919091171617905582549091169190612f4983614458565b91906101000a81548161ffff021916908361ffff1602179055505081602001516001600160a01b031663040b1100600160065f9054906101000a900461ffff16612f939190614478565b845f015185604001516040518463ffffffff1660e01b8152600401612fba93929190614492565b5f604051808303815f87803b158015612fd1575f80fd5b505af1158015612fe3573d5f803e3d5ffd5b5050600654612ffa92506001915061ffff16614478565b61ffff167f753b7a99c84c928c5a0d08bebb7564f3f84d39310585ce05f9d043a40084bf8860405160405180910390a260065461303d9060019061ffff16614478565b61ffff1692915050565b80511561305657805160208201fd5b60405163d6bda27560e01b815260040160405180910390fd5b50565b5f8381526002602090815260408083206001600160a01b038616845260068101909252909120805460ff1916600117905560ff82166130ef57600181018054640100000000900463ffffffff169060046130cb836144db565b91906101000a81548163ffffffff021916908363ffffffff160217905550506118fd565b5f1960ff83160161311957600181018054600160401b900463ffffffff169060086130cb836144db565b60011960ff83160161314457600181018054600160601b900463ffffffff1690600c6130cb836144db565b6040516333397b4360e11b815260040160405180910390fd5b606060ff83146131775761317083613228565b90506112e1565b81805461318390613e7a565b80601f01602080910402602001604051908101604052809291908181526020018280546131af90613e7a565b80156131fa5780601f106131d1576101008083540402835291602001916131fa565b820191905f5260205f20905b8154815290600101906020018083116131dd57829003601f168201915b505050505090506112e1565b5f61321083613265565b801561322157506132218383613297565b9392505050565b60605f6132348361332f565b6040805160208082528183019092529192505f91906020820181803683375050509182525060208101929092525090565b5f613277826301ffc9a760e01b613297565b8015611aa95750613290826001600160e01b0319613297565b1592915050565b6040516001600160e01b0319821660248201525f90819060440160408051601f19818403018152919052602080820180517bffffffffffffffffffffffffffffffffffffffffffffffffffffffff166301ffc9a760e01b17815282519293505f9283928392909183918a617530fa92503d91505f51905082801561331c575060208210155b801561126d575015159695505050505050565b5f60ff8216601f8111156112e157604051632cd44ac360e21b815260040160405180910390fd5b5f60208284031215613366575f80fd5b5035919050565b5f81518084528060208401602086015e5f602082860101526020601f19601f83011685010191505092915050565b602081525f613221602083018461336d565b803561ffff81168114611aac575f80fd5b5f602082840312156133ce575f80fd5b613221826133ad565b5f8083601f8401126133e7575f80fd5b5081356001600160401b038111156133fd575f80fd5b6020830191508360208260051b8501011115613417575f80fd5b9250929050565b5f805f805f805f8060a0898b031215613435575f80fd5b61343e896133ad565b97506020890135965060408901356001600160401b0381111561345f575f80fd5b61346b8b828c016133d7565b90975095505060608901356001600160401b03811115613489575f80fd5b6134958b828c016133d7565b90955093505060808901356001600160401b038111156134b3575f80fd5b6134bf8b828c016133d7565b999c989b5096995094979396929594505050565b5f8083601f8401126134e3575f80fd5b5081356001600160401b038111156134f9575f80fd5b602083019150836020828501011115613417575f80fd5b5f805f8060608587031215613523575f80fd5b61352c856133ad565b935060208501356001600160401b03811115613546575f80fd5b613552878288016134d3565b9598909750949560400135949350505050565b80356001600160a01b0381168114611aac575f80fd5b634e487b7160e01b5f52604160045260245ffd5b604051608081016001600160401b03811182821017156135b1576135b161357b565b60405290565b60405161010081016001600160401b03811182821017156135b1576135b161357b565b604051601f8201601f191681016001600160401b03811182821017156136025761360261357b565b604052919050565b5f82601f830112613619575f80fd5b8135602083015f806001600160401b038411156136385761363861357b565b50601f8301601f191660200161364d816135da565b915050828152858383011115613661575f80fd5b828260208301375f92810160200192909252509392505050565b5f805f806080858703121561368e575f80fd5b61369785613565565b93506136a560208601613565565b92506040850135915060608501356001600160401b038111156136c6575f80fd5b6136d28782880161360a565b91505092959194509250565b5f80604083850312156136ef575f80fd5b50508035926020909101359150565b5f806040838503121561370f575f80fd5b8235915061371f60208401613565565b90509250929050565b5f805f805f6080868803121561373c575f80fd5b613745866133ad565b945060208601356001600160401b0381111561375f575f80fd5b61376b888289016134d3565b9095509350506040860135915060608601356001600160401b03811115613790575f80fd5b61379c8882890161360a565b9150509295509295909350565b5f80604083850312156137ba575f80fd5b6137c3836133ad565b946020939093013593505050565b801515811461306f575f80fd5b5f80604083850312156137ef575f80fd5b6137f883613565565b91506020830135613808816137d1565b809150509250929050565b803560ff81168114611aac575f80fd5b5f8060408385031215613834575f80fd5b8235915061371f60208401613813565b634e487b7160e01b5f52602160045260245ffd5b602081016008831061387857634e487b7160e01b5f52602160045260245ffd5b91905290565b5f806040838503121561388f575f80fd5b61389883613565565b915061371f602084016133ad565b5f805f80606085870312156138b9575f80fd5b843593506138c960208601613813565b925060408501356001600160401b038111156138e3575f80fd5b6138ef878288016134d3565b95989497509550505050565b5f610100820190508251825263ffffffff602084015116602083015263ffffffff604084015116604083015263ffffffff6060840151166060830152608083015161394c608084018261ffff169052565b5060a083015161396260a084018261ffff169052565b5060c083015161397760c084018260ff169052565b5060e083015161398c60e084018260ff169052565b5092915050565b60ff60f81b8816815260e060208201525f6139b160e083018961336d565b82810360408401526139c3818961336d565b606084018890526001600160a01b038716608085015260a0840186905283810360c0850152845180825260208087019350909101905f5b81811015613a185783518352602093840193909201916001016139fa565b50909b9a5050505050505050505050565b5f60208284031215613a39575f80fd5b81356001600160401b03811115613a4e575f80fd5b613a5a8482850161360a565b949350505050565b5f60208284031215613a72575f80fd5b8135613221816137d1565b803563ffffffff81168114611aac575f80fd5b5f818303610160811215613aa2575f80fd5b613aaa61358f565b915082356001600160401b03811115613ac1575f80fd5b613acd8582860161360a565b835250613adc60208401613565565b602083015260408301356001600160401b03811115613af9575f80fd5b613b058582860161360a565b604084015250610100605f1982011215613b1d575f80fd5b50613b266135b7565b60608301358152613b3960808401613a7d565b6020820152613b4a60a08401613a7d565b6040820152613b5b60c08401613a7d565b6060820152613b6c60e084016133ad565b6080820152613b7e61010084016133ad565b60a0820152613b906101208401613813565b60c0820152613ba26101408401613813565b60e0820152606082015292915050565b5f60208284031215613bc2575f80fd5b81356001600160401b03811115613bd7575f80fd5b613a5a84828501613a90565b5f8060408385031215613bf4575f80fd5b8235915060208301356001600160401b03811115613c10575f80fd5b613c1c8582860161360a565b9150509250929050565b5f6001600160401b03821115613c3e57613c3e61357b565b5060051b60200190565b5f82601f830112613c57575f80fd5b8135613c6a613c6582613c26565b6135da565b8082825260208201915060208360051b860101925085831115613c8b575f80fd5b602085015b83811015613ca8578035835260209283019201613c90565b5095945050505050565b5f805f805f60a08688031215613cc6575f80fd5b613ccf86613565565b9450613cdd60208701613565565b935060408601356001600160401b03811115613cf7575f80fd5b613d0388828901613c48565b93505060608601356001600160401b03811115613d1e575f80fd5b613d2a88828901613c48565b92505060808601356001600160401b03811115613790575f80fd5b5f8060408385031215613d56575f80fd5b6137c383613565565b5f805f805f60a08688031215613d73575f80fd5b613d7c86613565565b9450613d8a60208701613565565b9350604086013592506060860135915060808601356001600160401b03811115613790575f80fd5b5f60208284031215613dc2575f80fd5b81356001600160401b03811115613dd7575f80fd5b8201601f81018413613de7575f80fd5b8035613df5613c6582613c26565b8082825260208201915060208360051b850101925086831115613e16575f80fd5b602084015b83811015613e565780356001600160401b03811115613e38575f80fd5b613e4789602083890101613a90565b84525060209283019201613e1b565b509695505050505050565b5f60208284031215613e71575f80fd5b61322182613565565b600181811c90821680613e8e57607f821691505b602082108103613eac57634e487b7160e01b5f52602260045260245ffd5b50919050565b634e487b7160e01b5f52603260045260245ffd5b5f808335601e19843603018112613edb575f80fd5b8301803591506001600160401b03821115613ef4575f80fd5b602001915036819003821315613417575f80fd5b818382375f9101908152919050565b81835281816020850137505f828201602090810191909152601f909101601f19169091010190565b5f8383855260208501945060208460051b820101835f5b86811015613fc757838303601f19018852813536879003601e19018112613f7b575f80fd5b86016020810190356001600160401b03811115613f96575f80fd5b803603821315613fa4575f80fd5b613faf858284613f17565b60209a8b019a90955093909301925050600101613f56565b50909695505050505050565b606080825281018690525f8760808301825b89811015614013576001600160a01b03613ffe84613565565b16825260209283019290910190600101613fe5565b5083810360208501528681526001600160fb1b03871115614032575f80fd5b8660051b915081886020830137018281036020908101604085015261405a9082018587613f3f565b9998505050505050505050565b61ffff85168152606060208201525f614084606083018587613f17565b905082604083015295945050505050565b5f602082840312156140a5575f80fd5b5051919050565b634e487b7160e01b5f52601160045260245ffd5b65ffffffffffff81811683821601908111156112e1576112e16140ac565b601f82111561412557805f5260205f20601f840160051c810160208510156141035750805b601f840160051c820191505b81811015614122575f815560010161410f565b50505b505050565b81516001600160401b038111156141435761414361357b565b614157816141518454613e7a565b846140de565b6020601f821160018114614189575f83156141725750848201515b5f19600385901b1c1916600184901b178455614122565b5f84815260208120601f198516915b828110156141b85787850151825560209485019460019092019101614198565b50848210156141d557868401515f19600387901b60f8161c191681555b50505050600190811b01905550565b818103818111156112e1576112e16140ac565b61ffff8716815260a060208201525f61421460a083018789613f17565b6001600160a01b0395909516604083015250606081019290925265ffffffffffff166080909101529392505050565b6001600160401b0383111561425a5761425a61357b565b61426e836142688354613e7a565b836140de565b5f601f84116001811461429f575f85156142885750838201355b5f19600387901b1c1916600186901b178355614122565b5f83815260208120601f198716915b828110156142ce57868501358255602094850194600190920191016142ae565b50868210156142ea575f1960f88860031b161c19848701351681555b505060018560011b0183555050505050565b6001600160a01b038616815261ffff85166020820152608060408201525f614328608083018587613f17565b90508260608301529695505050505050565b5f6020828403121561434a575f80fd5b8151613221816137d1565b606081525f614368606083018688613f17565b846020840152828103604084015261126d818561336d565b808201808211156112e1576112e16140ac565b634e487b7160e01b5f52603160045260245ffd5b61ffff86168152608060208201525f6143c4608083018688613f17565b6001600160a01b0394909416604083015250606001529392505050565b60c081525f60c082015260e060208201525f61440160e08301888a613f17565b86604084015285606084015284608084015282810360a084015261405a818561336d565b63ffffffff81811683821601908111156112e1576112e16140ac565b80820281158282048414176112e1576112e16140ac565b5f61ffff821661ffff810361446f5761446f6140ac565b60010192915050565b61ffff82811682821603908111156112e1576112e16140ac565b61ffff84168152608060208201525f6144ae608083018561336d565b8281038060408501525f8252602081016060850152506144d1602082018561336d565b9695505050505050565b5f63ffffffff821663ffffffff810361446f5761446f6140ac56fea2646970667358221220bb3a8f83c4ec2a046ae4b260ef2e8c7bd157ab79440f1a51a8149b8ab9d5ce5864736f6c634300081a0033","linkReferences":{}},"methodIdentifiers":{"ADMIN_ROLE()":"75b238fc","DENOMINATOR()":"918f8674","MAX_CALLDATA_LENGTH()":"edf2a596","MAX_EXECUTIONS_LENGTH()":"f6226e7c","PUBLIC_ROLE()":"3ca7c02a","adoptLaw((string,address,bytes,(uint256,uint32,uint32,uint32,uint16,uint16,uint8,uint8)))":"a3a86b47","assignRole(uint256,address)":"685b824a","blacklistAddress(address,bool)":"455a4396","canCallLaw(address,uint16)":"7a485033","cancel(uint16,bytes,uint256)":"12561b1a","castVote(uint256,uint8)":"56781388","castVoteWithReason(uint256,uint8,string)":"7b3c71d3","constitute((string,address,bytes,(uint256,uint32,uint32,uint32,uint16,uint16,uint8,uint8))[])":"fc2d96d0","eip712Domain()":"84b0196e","fulfill(uint16,uint256,address[],uint256[],bytes[])":"0de6a601","getActionCalldata(uint256)":"d902bf3a","getActionData(uint256)":"4583476b","getActionState(uint256)":"666ca2d6","getActionUri(uint256)":"f2a0bb75","getActionVoteData(uint256)":"2179e04e","getAdoptedLaw(uint16)":"26ffe8cd","getAmountRoleHolders(uint256)":"b4324dd3","getConditions(uint16)":"831af379","getLatestFulfillment(uint16)":"040b8c24","getLawActionAtIndex(uint16,uint256)":"341b4d2c","getQuantityLawActions(uint16)":"732ef972","getRoleHolderAtIndex(uint256,uint256)":"199093bb","getRoleLabel(uint256)":"0398f05f","hasRoleSince(address,uint256)":"cc5812cf","hasVoted(uint256,address)":"43859632","isBlacklisted(address)":"fe575a87","labelRole(uint256,string)":"ab776bf2","lawCounter()":"408b9440","name()":"06fdde03","onERC1155BatchReceived(address,address,uint256[],uint256[],bytes)":"bc197c81","onERC1155Received(address,address,uint256,uint256,bytes)":"f23a6e61","onERC721Received(address,address,uint256,bytes)":"150b7a02","payableEnabled()":"a8c89c5b","propose(uint16,bytes,uint256,string)":"2e2d8253","request(uint16,bytes,uint256,string)":"ebef6d97","revokeLaw(uint16)":"c661d4be","revokeRole(uint256,address)":"1d0b19e7","setPayableEnabled(bool)":"a2ea80f9","setUri(string)":"9b642de1","uri()":"eac989f8","version()":"54fd4d50"},"id":82}