{"abi":[{"type":"function","name":"ALLO_OWNER","inputs":[],"outputs":[{"name":"","type":"bytes32","internalType":"bytes32"}],"stateMutability":"view"},{"type":"function","name":"DEFAULT_ADMIN_ROLE","inputs":[],"outputs":[{"name":"","type":"bytes32","internalType":"bytes32"}],"stateMutability":"view"},{"type":"function","name":"NATIVE","inputs":[],"outputs":[{"name":"","type":"address","internalType":"address"}],"stateMutability":"view"},{"type":"function","name":"acceptProfileOwnership","inputs":[{"name":"_profileId","type":"bytes32","internalType":"bytes32"}],"outputs":[],"stateMutability":"nonpayable"},{"type":"function","name":"addMembers","inputs":[{"name":"_profileId","type":"bytes32","internalType":"bytes32"},{"name":"_members","type":"address[]","internalType":"address[]"}],"outputs":[],"stateMutability":"nonpayable"},{"type":"function","name":"anchorToProfileId","inputs":[{"name":"","type":"address","internalType":"address"}],"outputs":[{"name":"","type":"bytes32","internalType":"bytes32"}],"stateMutability":"view"},{"type":"function","name":"createProfile","inputs":[{"name":"_nonce","type":"uint256","internalType":"uint256"},{"name":"_name","type":"string","internalType":"string"},{"name":"_metadata","type":"tuple","internalType":"struct Metadata","components":[{"name":"protocol","type":"uint256","internalType":"uint256"},{"name":"pointer","type":"string","internalType":"string"}]},{"name":"_owner","type":"address","internalType":"address"},{"name":"_members","type":"address[]","internalType":"address[]"}],"outputs":[{"name":"","type":"bytes32","internalType":"bytes32"}],"stateMutability":"nonpayable"},{"type":"function","name":"getProfileByAnchor","inputs":[{"name":"_anchor","type":"address","internalType":"address"}],"outputs":[{"name":"","type":"tuple","internalType":"struct IRegistry.Profile","components":[{"name":"id","type":"bytes32","internalType":"bytes32"},{"name":"nonce","type":"uint256","internalType":"uint256"},{"name":"name","type":"string","internalType":"string"},{"name":"metadata","type":"tuple","internalType":"struct Metadata","components":[{"name":"protocol","type":"uint256","internalType":"uint256"},{"name":"pointer","type":"string","internalType":"string"}]},{"name":"owner","type":"address","internalType":"address"},{"name":"anchor","type":"address","internalType":"address"}]}],"stateMutability":"view"},{"type":"function","name":"getProfileById","inputs":[{"name":"_profileId","type":"bytes32","internalType":"bytes32"}],"outputs":[{"name":"","type":"tuple","internalType":"struct IRegistry.Profile","components":[{"name":"id","type":"bytes32","internalType":"bytes32"},{"name":"nonce","type":"uint256","internalType":"uint256"},{"name":"name","type":"string","internalType":"string"},{"name":"metadata","type":"tuple","internalType":"struct Metadata","components":[{"name":"protocol","type":"uint256","internalType":"uint256"},{"name":"pointer","type":"string","internalType":"string"}]},{"name":"owner","type":"address","internalType":"address"},{"name":"anchor","type":"address","internalType":"address"}]}],"stateMutability":"view"},{"type":"function","name":"getRoleAdmin","inputs":[{"name":"role","type":"bytes32","internalType":"bytes32"}],"outputs":[{"name":"","type":"bytes32","internalType":"bytes32"}],"stateMutability":"view"},{"type":"function","name":"grantRole","inputs":[{"name":"role","type":"bytes32","internalType":"bytes32"},{"name":"account","type":"address","internalType":"address"}],"outputs":[],"stateMutability":"nonpayable"},{"type":"function","name":"hasRole","inputs":[{"name":"role","type":"bytes32","internalType":"bytes32"},{"name":"account","type":"address","internalType":"address"}],"outputs":[{"name":"","type":"bool","internalType":"bool"}],"stateMutability":"view"},{"type":"function","name":"initialize","inputs":[{"name":"_owner","type":"address","internalType":"address"}],"outputs":[],"stateMutability":"nonpayable"},{"type":"function","name":"isMemberOfProfile","inputs":[{"name":"_profileId","type":"bytes32","internalType":"bytes32"},{"name":"_member","type":"address","internalType":"address"}],"outputs":[{"name":"","type":"bool","internalType":"bool"}],"stateMutability":"view"},{"type":"function","name":"isOwnerOfProfile","inputs":[{"name":"_profileId","type":"bytes32","internalType":"bytes32"},{"name":"_owner","type":"address","internalType":"address"}],"outputs":[{"name":"","type":"bool","internalType":"bool"}],"stateMutability":"view"},{"type":"function","name":"isOwnerOrMemberOfProfile","inputs":[{"name":"_profileId","type":"bytes32","internalType":"bytes32"},{"name":"_account","type":"address","internalType":"address"}],"outputs":[{"name":"","type":"bool","internalType":"bool"}],"stateMutability":"view"},{"type":"function","name":"profileIdToPendingOwner","inputs":[{"name":"","type":"bytes32","internalType":"bytes32"}],"outputs":[{"name":"","type":"address","internalType":"address"}],"stateMutability":"view"},{"type":"function","name":"profilesById","inputs":[{"name":"","type":"bytes32","internalType":"bytes32"}],"outputs":[{"name":"id","type":"bytes32","internalType":"bytes32"},{"name":"nonce","type":"uint256","internalType":"uint256"},{"name":"name","type":"string","internalType":"string"},{"name":"metadata","type":"tuple","internalType":"struct Metadata","components":[{"name":"protocol","type":"uint256","internalType":"uint256"},{"name":"pointer","type":"string","internalType":"string"}]},{"name":"owner","type":"address","internalType":"address"},{"name":"anchor","type":"address","internalType":"address"}],"stateMutability":"view"},{"type":"function","name":"recoverFunds","inputs":[{"name":"_token","type":"address","internalType":"address"},{"name":"_recipient","type":"address","internalType":"address"}],"outputs":[],"stateMutability":"nonpayable"},{"type":"function","name":"removeMembers","inputs":[{"name":"_profileId","type":"bytes32","internalType":"bytes32"},{"name":"_members","type":"address[]","internalType":"address[]"}],"outputs":[],"stateMutability":"nonpayable"},{"type":"function","name":"renounceRole","inputs":[{"name":"role","type":"bytes32","internalType":"bytes32"},{"name":"account","type":"address","internalType":"address"}],"outputs":[],"stateMutability":"nonpayable"},{"type":"function","name":"revokeRole","inputs":[{"name":"role","type":"bytes32","internalType":"bytes32"},{"name":"account","type":"address","internalType":"address"}],"outputs":[],"stateMutability":"nonpayable"},{"type":"function","name":"supportsInterface","inputs":[{"name":"interfaceId","type":"bytes4","internalType":"bytes4"}],"outputs":[{"name":"","type":"bool","internalType":"bool"}],"stateMutability":"view"},{"type":"function","name":"updateProfileMetadata","inputs":[{"name":"_profileId","type":"bytes32","internalType":"bytes32"},{"name":"_metadata","type":"tuple","internalType":"struct Metadata","components":[{"name":"protocol","type":"uint256","internalType":"uint256"},{"name":"pointer","type":"string","internalType":"string"}]}],"outputs":[],"stateMutability":"nonpayable"},{"type":"function","name":"updateProfileName","inputs":[{"name":"_profileId","type":"bytes32","internalType":"bytes32"},{"name":"_name","type":"string","internalType":"string"}],"outputs":[{"name":"anchor","type":"address","internalType":"address"}],"stateMutability":"nonpayable"},{"type":"function","name":"updateProfilePendingOwner","inputs":[{"name":"_profileId","type":"bytes32","internalType":"bytes32"},{"name":"_pendingOwner","type":"address","internalType":"address"}],"outputs":[],"stateMutability":"nonpayable"},{"type":"event","name":"Initialized","inputs":[{"name":"version","type":"uint8","indexed":false,"internalType":"uint8"}],"anonymous":false},{"type":"event","name":"ProfileCreated","inputs":[{"name":"profileId","type":"bytes32","indexed":true,"internalType":"bytes32"},{"name":"nonce","type":"uint256","indexed":false,"internalType":"uint256"},{"name":"name","type":"string","indexed":false,"internalType":"string"},{"name":"metadata","type":"tuple","indexed":false,"internalType":"struct Metadata","components":[{"name":"protocol","type":"uint256","internalType":"uint256"},{"name":"pointer","type":"string","internalType":"string"}]},{"name":"owner","type":"address","indexed":false,"internalType":"address"},{"name":"anchor","type":"address","indexed":false,"internalType":"address"}],"anonymous":false},{"type":"event","name":"ProfileMetadataUpdated","inputs":[{"name":"profileId","type":"bytes32","indexed":true,"internalType":"bytes32"},{"name":"metadata","type":"tuple","indexed":false,"internalType":"struct Metadata","components":[{"name":"protocol","type":"uint256","internalType":"uint256"},{"name":"pointer","type":"string","internalType":"string"}]}],"anonymous":false},{"type":"event","name":"ProfileNameUpdated","inputs":[{"name":"profileId","type":"bytes32","indexed":true,"internalType":"bytes32"},{"name":"name","type":"string","indexed":false,"internalType":"string"},{"name":"anchor","type":"address","indexed":false,"internalType":"address"}],"anonymous":false},{"type":"event","name":"ProfileOwnerUpdated","inputs":[{"name":"profileId","type":"bytes32","indexed":true,"internalType":"bytes32"},{"name":"owner","type":"address","indexed":false,"internalType":"address"}],"anonymous":false},{"type":"event","name":"ProfilePendingOwnerUpdated","inputs":[{"name":"profileId","type":"bytes32","indexed":true,"internalType":"bytes32"},{"name":"pendingOwner","type":"address","indexed":false,"internalType":"address"}],"anonymous":false},{"type":"event","name":"RoleAdminChanged","inputs":[{"name":"role","type":"bytes32","indexed":true,"internalType":"bytes32"},{"name":"previousAdminRole","type":"bytes32","indexed":true,"internalType":"bytes32"},{"name":"newAdminRole","type":"bytes32","indexed":true,"internalType":"bytes32"}],"anonymous":false},{"type":"event","name":"RoleGranted","inputs":[{"name":"role","type":"bytes32","indexed":true,"internalType":"bytes32"},{"name":"account","type":"address","indexed":true,"internalType":"address"},{"name":"sender","type":"address","indexed":true,"internalType":"address"}],"anonymous":false},{"type":"event","name":"RoleRevoked","inputs":[{"name":"role","type":"bytes32","indexed":true,"internalType":"bytes32"},{"name":"account","type":"address","indexed":true,"internalType":"address"},{"name":"sender","type":"address","indexed":true,"internalType":"address"}],"anonymous":false},{"type":"error","name":"ALLOCATION_ACTIVE","inputs":[]},{"type":"error","name":"ALLOCATION_NOT_ACTIVE","inputs":[]},{"type":"error","name":"ALLOCATION_NOT_ENDED","inputs":[]},{"type":"error","name":"ALREADY_INITIALIZED","inputs":[]},{"type":"error","name":"AMOUNT_MISMATCH","inputs":[]},{"type":"error","name":"ANCHOR_ERROR","inputs":[]},{"type":"error","name":"ARRAY_MISMATCH","inputs":[]},{"type":"error","name":"INVALID","inputs":[]},{"type":"error","name":"INVALID_ADDRESS","inputs":[]},{"type":"error","name":"INVALID_FEE","inputs":[]},{"type":"error","name":"INVALID_METADATA","inputs":[]},{"type":"error","name":"INVALID_REGISTRATION","inputs":[]},{"type":"error","name":"IS_APPROVED_STRATEGY","inputs":[]},{"type":"error","name":"MISMATCH","inputs":[]},{"type":"error","name":"NONCE_NOT_AVAILABLE","inputs":[]},{"type":"error","name":"NON_ZERO_VALUE","inputs":[]},{"type":"error","name":"NOT_APPROVED_STRATEGY","inputs":[]},{"type":"error","name":"NOT_ENOUGH_FUNDS","inputs":[]},{"type":"error","name":"NOT_IMPLEMENTED","inputs":[]},{"type":"error","name":"NOT_INITIALIZED","inputs":[]},{"type":"error","name":"NOT_PENDING_OWNER","inputs":[]},{"type":"error","name":"POOL_ACTIVE","inputs":[]},{"type":"error","name":"POOL_INACTIVE","inputs":[]},{"type":"error","name":"RECIPIENT_ALREADY_ACCEPTED","inputs":[]},{"type":"error","name":"RECIPIENT_ERROR","inputs":[{"name":"recipientId","type":"address","internalType":"address"}]},{"type":"error","name":"RECIPIENT_NOT_ACCEPTED","inputs":[]},{"type":"error","name":"REGISTRATION_ACTIVE","inputs":[]},{"type":"error","name":"REGISTRATION_NOT_ACTIVE","inputs":[]},{"type":"error","name":"UNAUTHORIZED","inputs":[]},{"type":"error","name":"ZERO_ADDRESS","inputs":[]}],"bytecode":{"object":"0x608060405234801561001057600080fd5b50612c79806100206000396000f3fe60806040523480156200001157600080fd5b5060043610620001d15760003560e01c806350d005e01162000101578063c4d66de811620000a3578063d547741f116200007a578063d547741f1462000480578063dd93da431462000497578063e0cf1e4c14620004ae578063ee88819614620004c557600080fd5b8063c4d66de8146200042a578063cf189ff21462000441578063cfda7e0a146200045857600080fd5b8063a0cf0aea11620000d8578063a0cf0aea14620003ee578063a217fddf146200040a578063ac402839146200041357600080fd5b806350d005e014620003565780635e8a7915146200039b57806391d1485414620003b257600080fd5b80632f2ff15d11620001775780633a92f65f116200014e5780633a92f65f14620002ee5780633b66dacd14620003055780634756487f146200031c5780635063f361146200033f57600080fd5b80632f2ff15d14620002a957806336568abe14620002c057806339b86b8c14620002d757600080fd5b8063248a9ca311620001ac578063248a9ca314620002445780632497f3c6146200027957806324ae6a27146200029257600080fd5b80630114cf0a14620001d657806301ffc9a714620002055780630ec1fbac146200022d575b600080fd5b620001ed620001e736600462001aca565b620004f0565b604051620001fc919062001b61565b60405180910390f35b6200021c6200021636600462001be2565b620006a7565b6040519015158152602001620001fc565b6200021c6200023e36600462001c2b565b620006df565b6200026a6200025536600462001aca565b60009081526065602052604090206001015490565b604051908152602001620001fc565b620002906200028a36600462001aca565b620006f4565b005b62000290620002a336600462001c5a565b620007ad565b62000290620002ba36600462001c2b565b620008b0565b62000290620002d136600462001c2b565b620008de565b6200021c620002e836600462001c2b565b62000972565b6200026a620002ff36600462001e52565b62000998565b620002906200031636600462001c2b565b62000c23565b6200026a6200032d36600462001f01565b60976020526000908152604090205481565b620002906200035036600462001f1f565b62000c8d565b620003826200036736600462001aca565b6099602052600090815260409020546001600160a01b031681565b6040516001600160a01b039091168152602001620001fc565b6200021c620003ac36600462001c2b565b62000d19565b6200021c620003c336600462001c2b565b60009182526065602090815260408084206001600160a01b0393909316845291905290205460ff1690565b6200038273eeeeeeeeeeeeeeeeeeeeeeeeeeeeeeeeeeeeeeee81565b6200026a600081565b620002906200042436600462001f6a565b62000d4c565b620002906200043b36600462001f01565b62000dbf565b620003826200045236600462001fab565b62000f03565b6200026a7f815b5a78dc333d344c7df9da23c04dbd432015cc701876ddb9ffe850e688274781565b620002906200049136600462001c2b565b62000fc4565b620001ed620004a836600462001f01565b62000fed565b62000290620004bf36600462001f1f565b620011b6565b620004dc620004d636600462001aca565b62001201565b604051620001fc9695949392919062001fec565b620004fa62001a67565b609860008381526020019081526020016000206040518060c001604052908160008201548152602001600182015481526020016002820180546200053e9062002048565b80601f01602080910402602001604051908101604052809291908181526020018280546200056c9062002048565b8015620005bd5780601f106200059157610100808354040283529160200191620005bd565b820191906000526020600020905b8154815290600101906020018083116200059f57829003601f168201915b505050505081526020016003820160405180604001604052908160008201548152602001600182018054620005f29062002048565b80601f0160208091040260200160405190810160405280929190818152602001828054620006209062002048565b8015620006715780601f10620006455761010080835404028352916020019162000671565b820191906000526020600020905b8154815290600101906020018083116200065357829003601f168201915b50505091909252505050815260058201546001600160a01b03908116602083015260069092015490911660409091015292915050565b60006001600160e01b03198216637965db0b60e01b1480620006d957506301ffc9a760e01b6001600160e01b03198316145b92915050565b6000620006ed838362001381565b9392505050565b60008181526098602090815260408083206099909252909120546001600160a01b03163381146200073857604051630b4d48c160e41b815260040160405180910390fd5b6005820180546001600160a01b038381166001600160a01b03199283161783556000868152609960209081526040918290208054909416909355925492519216825284917ffd9ad63830df7bdf1586c8293dc88a30864cb43e9037e7afdb2c7210facf217d91015b60405180910390a2505050565b7f815b5a78dc333d344c7df9da23c04dbd432015cc701876ddb9ffe850e6882747620007d981620013ad565b6001600160a01b038216620008015760405163538ba4f960e01b815260040160405180910390fd5b60006001600160a01b03841673eeeeeeeeeeeeeeeeeeeeeeeeeeeeeeeeeeeeeeee1462000899576040516370a0823160e01b81523060048201526001600160a01b038516906370a0823190602401602060405180830381865afa1580156200086d573d6000803e3d6000fd5b505050506040513d601f19601f8201168201806040525081019062000893919062002084565b6200089b565b475b9050620008aa848483620013bc565b50505050565b600082815260656020526040902060010154620008cd81620013ad565b620008d98383620013fb565b505050565b6001600160a01b0381163314620009625760405162461bcd60e51b815260206004820152602f60248201527f416363657373436f6e74726f6c3a2063616e206f6e6c792072656e6f756e636560448201527f20726f6c657320666f722073656c66000000000000000000000000000000000060648201526084015b60405180910390fd5b6200096e82826200149f565b5050565b6000828152609860205260408120600501546001600160a01b03838116911614620006ed565b600080620009a7878562001523565b6000818152609860205260409020600601549091506001600160a01b031615620009e457604051630527e05960e41b815260040160405180910390fd5b6001600160a01b03841662000a0c5760405163538ba4f960e01b815260040160405180910390fd5b60006040518060c00160405280838152602001898152602001888152602001878152602001866001600160a01b0316815260200162000a4c848a62001572565b6001600160a01b0316905260008381526098602090815260409182902083518155908301516001820155908201519192508291600282019062000a909082620020f0565b5060608201518051600383019081556020820151600484019062000ab59082620020f0565b50505060808201516005820180546001600160a01b03199081166001600160a01b039384161790915560a0938401516006909301805490911692821692909217909155908201511660009081526097602052604090208290558351801580159062000b2957506001600160a01b0386163314155b1562000b485760405163075fd2b160e01b815260040160405180910390fd5b60005b8181101562000bbf57600086828151811062000b6b5762000b6b620021bd565b6020026020010151905060006001600160a01b0316816001600160a01b03160362000ba95760405163538ba4f960e01b815260040160405180910390fd5b62000bb58582620013fb565b5060010162000b4b565b50827f1e28352ff00d67474b59b87e6817d6ba65daa0130446266db8640214d8b8060983602001518460400151856060015186608001518760a0015160405162000c0e959493929190620021d3565b60405180910390a25090979650505050505050565b8162000c2f8162001767565b60008381526099602090815260409182902080546001600160a01b0319166001600160a01b038616908117909155915191825284917f21fe5cd61055ef88f636a264885b927f3ec2b380b6053a6b4a7495a6336a95c89101620007a0565b8162000c998162001767565b815160005b8181101562000d1257600084828151811062000cbe5762000cbe620021bd565b6020026020010151905060006001600160a01b0316816001600160a01b03160362000cfc5760405163538ba4f960e01b815260040160405180910390fd5b62000d088682620013fb565b5060010162000c9e565b5050505050565b6000828152609860205260408120600501546001600160a01b0383811691161480620006ed5750620006ed838362001381565b8162000d588162001767565b6000838152609860209081526040909120835160038201908155918401518492916004019062000d899082620020f0565b50905050827fa366054a574e4f861cb295fd23b5440c5119c1ba329c36f5dfeb5643537cb0f383604051620007a0919062002228565b600054600190610100900460ff1615801562000de2575060005460ff8083169116105b62000e565760405162461bcd60e51b815260206004820152602e60248201527f496e697469616c697a61626c653a20636f6e747261637420697320616c72656160448201527f647920696e697469616c697a6564000000000000000000000000000000000000606482015260840162000959565b6000805461ffff191660ff8316176101001790556001600160a01b03821662000e925760405163538ba4f960e01b815260040160405180910390fd5b62000ebe7f815b5a78dc333d344c7df9da23c04dbd432015cc701876ddb9ffe850e688274783620013fb565b6000805461ff001916905560405160ff821681527f7f26b83ff96e1f2b6a682f133852f6798a09c465da95921460cefb38474024989060200160405180910390a15050565b60008262000f118162001767565b62000f1d848462001572565b60008581526098602052604090209092506002810162000f3e8582620020f0565b506006810180546001600160a01b0390811660009081526097602052604080822082905583546001600160a01b0319169287169283179093559081528190208690555185907f54cd733148631b9ff1cb945f2d0dcd33c0692e154763bfa2f35e2d10a76c432f9062000fb490879087906200223d565b60405180910390a2505092915050565b60008281526065602052604090206001015462000fe181620013ad565b620008d983836200149f565b62000ff762001a67565b6001600160a01b0382166000908152609760209081526040808320548084526098835292819020815160c0810183528154815260018201549381019390935260028101805491928401916200104c9062002048565b80601f01602080910402602001604051908101604052809291908181526020018280546200107a9062002048565b8015620010cb5780601f106200109f57610100808354040283529160200191620010cb565b820191906000526020600020905b815481529060010190602001808311620010ad57829003601f168201915b505050505081526020016003820160405180604001604052908160008201548152602001600182018054620011009062002048565b80601f01602080910402602001604051908101604052809291908181526020018280546200112e9062002048565b80156200117f5780601f1062001153576101008083540402835291602001916200117f565b820191906000526020600020905b8154815290600101906020018083116200116157829003601f168201915b50505091909252505050815260058201546001600160a01b0390811660208301526006909201549091166040909101529392505050565b81620011c28162001767565b815160005b8181101562000d1257620011f885858381518110620011ea57620011ea620021bd565b60200260200101516200149f565b600101620011c7565b609860205260009081526040902080546001820154600283018054929391926200122b9062002048565b80601f0160208091040260200160405190810160405280929190818152602001828054620012599062002048565b8015620012aa5780601f106200127e57610100808354040283529160200191620012aa565b820191906000526020600020905b8154815290600101906020018083116200128c57829003601f168201915b5050505050908060030160405180604001604052908160008201548152602001600182018054620012db9062002048565b80601f0160208091040260200160405190810160405280929190818152602001828054620013099062002048565b80156200135a5780601f106200132e576101008083540402835291602001916200135a565b820191906000526020600020905b8154815290600101906020018083116200133c57829003601f168201915b50505091909252505050600582015460069092015490916001600160a01b03908116911686565b60008281526065602090815260408083206001600160a01b038516845290915281205460ff16620006ed565b620013b98133620017a2565b50565b73eeeeeeeeeeeeeeeeeeeeeeeeeeeeeeeeeeeeeeed196001600160a01b03841601620013ee57620008d9828262001820565b620008d98383836200183d565b60008281526065602090815260408083206001600160a01b038516845290915290205460ff166200096e5760008281526065602090815260408083206001600160a01b03851684529091529020805460ff191660011790556200145b3390565b6001600160a01b0316816001600160a01b0316837f2f8788117e7eff1d82e926ec794901d17c78024a50270940304540a733656f0d60405160405180910390a45050565b60008281526065602090815260408083206001600160a01b038516845290915290205460ff16156200096e5760008281526065602090815260408083206001600160a01b0385168085529252808320805460ff1916905551339285917ff6391f5c32d9c69d2a47ea670b442974b53935d1edc7fd64eb21e047a839171b9190a45050565b600082826040516020016200155492919091825260601b6bffffffffffffffffffffffff1916602082015260340190565b60405160208183030381529060405280519060200120905092915050565b60008083836040516020016200158a9291906200226a565b60408051808303601f1901815282825260208301879052308383015281518084038301815260608401928390529093509160009190620015cd9060800162001abc565b601f1982820381018352601f909101166040819052620015f39190849060200162002285565b60408051601f198184030181529082905284516020868101919091208251828401207fff00000000000000000000000000000000000000000000000000000000000000928501929092526bffffffffffffffffffffffff193060601b166021850152603584018190526055840191909152909250906000906075016040516020818303038152906040528051906020012060001c90508188306040516200169a9062001abc565b9182526001600160a01b031660208201526040018190604051809103906000f590508015620016c65760015b620017595787816001600160a01b03166308386eba6040518163ffffffff1660e01b8152600401602060405180830381865afa1580156200170b573d6000803e3d6000fd5b505050506040513d601f19601f8201168201806040525081019062001731919062002084565b146200175057604051630113b81f60e41b815260040160405180910390fd5b8095506200175c565b95505b505050505092915050565b6000818152609860205260409020600501546001600160a01b03163314620013b95760405163075fd2b160e01b815260040160405180910390fd5b60008281526065602090815260408083206001600160a01b038516845290915290205460ff166200096e57620017d8816200188d565b620017e5836020620018a0565b604051602001620017f8929190620022b8565b60408051601f198184030181529082905262461bcd60e51b825262000959916004016200233d565b60008060008084865af16200096e5763b12d13eb6000526004601cfd5b81601452806034526fa9059cbb00000000000000000000000060005260206000604460106000875af13d15600160005114171662001883576390b8ec186000526004601cfd5b6000603452505050565b6060620006d96001600160a01b03831660145b60606000620018b183600262002368565b620018be90600262002382565b67ffffffffffffffff811115620018d957620018d962001c89565b6040519080825280601f01601f19166020018201604052801562001904576020820181803683370190505b509050600360fc1b81600081518110620019225762001922620021bd565b60200101906001600160f81b031916908160001a905350600f60fb1b81600181518110620019545762001954620021bd565b60200101906001600160f81b031916908160001a90535060006200197a84600262002368565b6200198790600162002382565b90505b600181111562001a16577f303132333435363738396162636465660000000000000000000000000000000085600f1660108110620019cc57620019cc620021bd565b1a60f81b828281518110620019e557620019e5620021bd565b60200101906001600160f81b031916908160001a90535060049490941c9362001a0e8162002398565b90506200198a565b508315620006ed5760405162461bcd60e51b815260206004820181905260248201527f537472696e67733a20686578206c656e67746820696e73756666696369656e74604482015260640162000959565b6040518060c0016040528060008019168152602001600081526020016060815260200162001aa8604051806040016040528060008152602001606081525090565b815260006020820181905260409091015290565b61089180620023b383390190565b60006020828403121562001add57600080fd5b5035919050565b60005b8381101562001b0157818101518382015260200162001ae7565b50506000910152565b6000815180845262001b2481602086016020860162001ae4565b601f01601f19169290920160200192915050565b80518252600060208201516040602085015262001b59604085018262001b0a565b949350505050565b6020815281516020820152602082015160408201526000604083015160c0606084015262001b9360e084018262001b0a565b90506060840151601f1984830301608085015262001bb2828262001b38565b91505060808401516001600160a01b0380821660a08601528060a08701511660c086015250508091505092915050565b60006020828403121562001bf557600080fd5b81356001600160e01b031981168114620006ed57600080fd5b80356001600160a01b038116811462001c2657600080fd5b919050565b6000806040838503121562001c3f57600080fd5b8235915062001c516020840162001c0e565b90509250929050565b6000806040838503121562001c6e57600080fd5b62001c798362001c0e565b915062001c516020840162001c0e565b634e487b7160e01b600052604160045260246000fd5b604051601f8201601f1916810167ffffffffffffffff8111828210171562001ccb5762001ccb62001c89565b604052919050565b600082601f83011262001ce557600080fd5b813567ffffffffffffffff81111562001d025762001d0262001c89565b62001d17601f8201601f191660200162001c9f565b81815284602083860101111562001d2d57600080fd5b816020850160208301376000918101602001919091529392505050565b60006040828403121562001d5d57600080fd5b6040516040810167ffffffffffffffff828210818311171562001d845762001d8462001c89565b8160405282935084358352602085013591508082111562001da457600080fd5b5062001db38582860162001cd3565b6020830152505092915050565b600082601f83011262001dd257600080fd5b8135602067ffffffffffffffff82111562001df15762001df162001c89565b8160051b62001e0282820162001c9f565b928352848101820192828101908785111562001e1d57600080fd5b83870192505b8483101562001e475762001e378362001c0e565b8252918301919083019062001e23565b979650505050505050565b600080600080600060a0868803121562001e6b57600080fd5b85359450602086013567ffffffffffffffff8082111562001e8b57600080fd5b62001e9989838a0162001cd3565b9550604088013591508082111562001eb057600080fd5b62001ebe89838a0162001d4a565b945062001ece6060890162001c0e565b9350608088013591508082111562001ee557600080fd5b5062001ef48882890162001dc0565b9150509295509295909350565b60006020828403121562001f1457600080fd5b620006ed8262001c0e565b6000806040838503121562001f3357600080fd5b82359150602083013567ffffffffffffffff81111562001f5257600080fd5b62001f608582860162001dc0565b9150509250929050565b6000806040838503121562001f7e57600080fd5b82359150602083013567ffffffffffffffff81111562001f9d57600080fd5b62001f608582860162001d4a565b6000806040838503121562001fbf57600080fd5b82359150602083013567ffffffffffffffff81111562001fde57600080fd5b62001f608582860162001cd3565b86815285602082015260c0604082015260006200200d60c083018762001b0a565b828103606084015262002021818762001b38565b9150506001600160a01b03808516608084015280841660a084015250979650505050505050565b600181811c908216806200205d57607f821691505b6020821081036200207e57634e487b7160e01b600052602260045260246000fd5b50919050565b6000602082840312156200209757600080fd5b5051919050565b601f821115620008d957600081815260208120601f850160051c81016020861015620020c75750805b601f850160051c820191505b81811015620020e857828155600101620020d3565b505050505050565b815167ffffffffffffffff8111156200210d576200210d62001c89565b62002125816200211e845462002048565b846200209e565b602080601f8311600181146200215d5760008415620021445750858301515b600019600386901b1c1916600185901b178555620020e8565b600085815260208120601f198616915b828110156200218e578886015182559484019460019091019084016200216d565b5085821015620021ad5787850151600019600388901b60f8161c191681555b5050505050600190811b01905550565b634e487b7160e01b600052603260045260246000fd5b85815260a060208201526000620021ee60a083018762001b0a565b828103604084015262002202818762001b38565b9150506001600160a01b0380851660608401528084166080840152509695505050505050565b602081526000620006ed602083018462001b38565b60408152600062002252604083018562001b0a565b90506001600160a01b03831660208301529392505050565b82815260406020820152600062001b59604083018462001b0a565b600083516200229981846020880162001ae4565b835190830190620022af81836020880162001ae4565b01949350505050565b7f416363657373436f6e74726f6c3a206163636f756e7420000000000000000000815260008351620022f281601785016020880162001ae4565b7f206973206d697373696e6720726f6c652000000000000000000000000000000060179184019182015283516200233181602884016020880162001ae4565b01602801949350505050565b602081526000620006ed602083018462001b0a565b634e487b7160e01b600052601160045260246000fd5b8082028115828204841417620006d957620006d962002352565b80820180821115620006d957620006d962002352565b600081620023aa57620023aa62002352565b50600019019056fe60c060405234801561001057600080fd5b5060405161089138038061089183398101604081905261002f91610043565b6001600160a01b031660805260a052610080565b6000806040838503121561005657600080fd5b825160208401519092506001600160a01b038116811461007557600080fd5b809150509250929050565b60805160a0516107df6100b26000396000818160c7015261025201526000818161014d015261028101526107df6000f3fe6080604052600436106100745760003560e01c80637b1039991161004e5780637b1039991461013b578063b61d27f614610187578063bc197c81146101b4578063f23a6e61146101e057600080fd5b806301ffc9a71461008057806308386eba146100b5578063150b7a02146100f757600080fd5b3661007b57005b600080fd5b34801561008c57600080fd5b506100a061009b3660046103c2565b61020c565b60405190151581526020015b60405180910390f35b3480156100c157600080fd5b506100e97f000000000000000000000000000000000000000000000000000000000000000081565b6040519081526020016100ac565b34801561010357600080fd5b506101226101123660046104c6565b630a85bd0160e11b949350505050565b6040516001600160e01b031990911681526020016100ac565b34801561014757600080fd5b5061016f7f000000000000000000000000000000000000000000000000000000000000000081565b6040516001600160a01b0390911681526020016100ac565b34801561019357600080fd5b506101a76101a236600461052e565b610243565b6040516100ac91906105a9565b3480156101c057600080fd5b506101226101cf36600461065c565b63bc197c8160e01b95945050505050565b3480156101ec57600080fd5b506101226101fb366004610706565b63f23a6e6160e01b95945050505050565b60006001600160e01b03198216630271189760e51b148061023d57506301ffc9a760e01b6001600160e01b03198316145b92915050565b604051630e6e1ae360e21b81527f000000000000000000000000000000000000000000000000000000000000000060048201523360248201526060907f00000000000000000000000000000000000000000000000000000000000000006001600160a01b0316906339b86b8c90604401602060405180830381865afa1580156102d0573d6000803e3d6000fd5b505050506040513d601f19601f820116820180604052508101906102f4919061076b565b6103115760405163075fd2b160e01b815260040160405180910390fd5b6001600160a01b038416610338576040516384aed38d60e01b815260040160405180910390fd5b600080856001600160a01b03168585604051610354919061078d565b60006040518083038185875af1925050503d8060008114610391576040519150601f19603f3d011682016040523d82523d6000602084013e610396565b606091505b5091509150816103b9576040516384aed38d60e01b815260040160405180910390fd5b95945050505050565b6000602082840312156103d457600080fd5b81356001600160e01b0319811681146103ec57600080fd5b9392505050565b80356001600160a01b038116811461040a57600080fd5b919050565b634e487b7160e01b600052604160045260246000fd5b604051601f8201601f1916810167ffffffffffffffff8111828210171561044e5761044e61040f565b604052919050565b600082601f83011261046757600080fd5b813567ffffffffffffffff8111156104815761048161040f565b610494601f8201601f1916602001610425565b8181528460208386010111156104a957600080fd5b816020850160208301376000918101602001919091529392505050565b600080600080608085870312156104dc57600080fd5b6104e5856103f3565b93506104f3602086016103f3565b925060408501359150606085013567ffffffffffffffff81111561051657600080fd5b61052287828801610456565b91505092959194509250565b60008060006060848603121561054357600080fd5b61054c846103f3565b925060208401359150604084013567ffffffffffffffff81111561056f57600080fd5b61057b86828701610456565b9150509250925092565b60005b838110156105a0578181015183820152602001610588565b50506000910152565b60208152600082518060208401526105c8816040850160208701610585565b601f01601f19169190910160400192915050565b600082601f8301126105ed57600080fd5b8135602067ffffffffffffffff8211156106095761060961040f565b8160051b610618828201610425565b928352848101820192828101908785111561063257600080fd5b83870192505b8483101561065157823582529183019190830190610638565b979650505050505050565b600080600080600060a0868803121561067457600080fd5b61067d866103f3565b945061068b602087016103f3565b9350604086013567ffffffffffffffff808211156106a857600080fd5b6106b489838a016105dc565b945060608801359150808211156106ca57600080fd5b6106d689838a016105dc565b935060808801359150808211156106ec57600080fd5b506106f988828901610456565b9150509295509295909350565b600080600080600060a0868803121561071e57600080fd5b610727866103f3565b9450610735602087016103f3565b93506040860135925060608601359150608086013567ffffffffffffffff81111561075f57600080fd5b6106f988828901610456565b60006020828403121561077d57600080fd5b815180151581146103ec57600080fd5b6000825161079f818460208701610585565b919091019291505056fea26469706673582212206c9086b8fea35b7cfb5bf8cfd2acdcce9685987bffdf443bbd44e81f9b2dcf7264736f6c63430008130033a2646970667358221220dab55a40470c3cd4eab795ef664a516e1727d8747b8a83db9f8522c36076714a64736f6c63430008130033","linkReferences":{}},"methodIdentifiers":{"ALLO_OWNER()":"cfda7e0a","DEFAULT_ADMIN_ROLE()":"a217fddf","NATIVE()":"a0cf0aea","acceptProfileOwnership(bytes32)":"2497f3c6","addMembers(bytes32,address[])":"5063f361","anchorToProfileId(address)":"4756487f","createProfile(uint256,string,(uint256,string),address,address[])":"3a92f65f","getProfileByAnchor(address)":"dd93da43","getProfileById(bytes32)":"0114cf0a","getRoleAdmin(bytes32)":"248a9ca3","grantRole(bytes32,address)":"2f2ff15d","hasRole(bytes32,address)":"91d14854","initialize(address)":"c4d66de8","isMemberOfProfile(bytes32,address)":"0ec1fbac","isOwnerOfProfile(bytes32,address)":"39b86b8c","isOwnerOrMemberOfProfile(bytes32,address)":"5e8a7915","profileIdToPendingOwner(bytes32)":"50d005e0","profilesById(bytes32)":"ee888196","recoverFunds(address,address)":"24ae6a27","removeMembers(bytes32,address[])":"e0cf1e4c","renounceRole(bytes32,address)":"36568abe","revokeRole(bytes32,address)":"d547741f","supportsInterface(bytes4)":"01ffc9a7","updateProfileMetadata(bytes32,(uint256,string))":"ac402839","updateProfileName(bytes32,string)":"cf189ff2","updateProfilePendingOwner(bytes32,address)":"3b66dacd"},"id":2}