{"abi":[{"type":"constructor","inputs":[],"stateMutability":"nonpayable"},{"type":"function","name":"approve","inputs":[{"name":"to","type":"address","internalType":"address"},{"name":"tokenId","type":"uint256","internalType":"uint256"}],"outputs":[],"stateMutability":"nonpayable"},{"type":"function","name":"balanceOf","inputs":[{"name":"owner","type":"address","internalType":"address"}],"outputs":[{"name":"","type":"uint256","internalType":"uint256"}],"stateMutability":"view"},{"type":"function","name":"burnNFT","inputs":[{"name":"tokenId","type":"uint256","internalType":"uint256"},{"name":"account","type":"address","internalType":"address"}],"outputs":[],"stateMutability":"nonpayable"},{"type":"function","name":"getApproved","inputs":[{"name":"tokenId","type":"uint256","internalType":"uint256"}],"outputs":[{"name":"","type":"address","internalType":"address"}],"stateMutability":"view"},{"type":"function","name":"isApprovedForAll","inputs":[{"name":"owner","type":"address","internalType":"address"},{"name":"operator","type":"address","internalType":"address"}],"outputs":[{"name":"","type":"bool","internalType":"bool"}],"stateMutability":"view"},{"type":"function","name":"mintNFT","inputs":[{"name":"tokenId","type":"uint256","internalType":"uint256"},{"name":"account","type":"address","internalType":"address"}],"outputs":[],"stateMutability":"nonpayable"},{"type":"function","name":"name","inputs":[],"outputs":[{"name":"","type":"string","internalType":"string"}],"stateMutability":"view"},{"type":"function","name":"owner","inputs":[],"outputs":[{"name":"","type":"address","internalType":"address"}],"stateMutability":"view"},{"type":"function","name":"ownerOf","inputs":[{"name":"tokenId","type":"uint256","internalType":"uint256"}],"outputs":[{"name":"","type":"address","internalType":"address"}],"stateMutability":"view"},{"type":"function","name":"renounceOwnership","inputs":[],"outputs":[],"stateMutability":"nonpayable"},{"type":"function","name":"safeTransferFrom","inputs":[{"name":"from","type":"address","internalType":"address"},{"name":"to","type":"address","internalType":"address"},{"name":"tokenId","type":"uint256","internalType":"uint256"}],"outputs":[],"stateMutability":"nonpayable"},{"type":"function","name":"safeTransferFrom","inputs":[{"name":"from","type":"address","internalType":"address"},{"name":"to","type":"address","internalType":"address"},{"name":"tokenId","type":"uint256","internalType":"uint256"},{"name":"data","type":"bytes","internalType":"bytes"}],"outputs":[],"stateMutability":"nonpayable"},{"type":"function","name":"setApprovalForAll","inputs":[{"name":"operator","type":"address","internalType":"address"},{"name":"approved","type":"bool","internalType":"bool"}],"outputs":[],"stateMutability":"nonpayable"},{"type":"function","name":"supportsInterface","inputs":[{"name":"interfaceId","type":"bytes4","internalType":"bytes4"}],"outputs":[{"name":"","type":"bool","internalType":"bool"}],"stateMutability":"view"},{"type":"function","name":"symbol","inputs":[],"outputs":[{"name":"","type":"string","internalType":"string"}],"stateMutability":"view"},{"type":"function","name":"tokenURI","inputs":[{"name":"tokenId","type":"uint256","internalType":"uint256"}],"outputs":[{"name":"","type":"string","internalType":"string"}],"stateMutability":"view"},{"type":"function","name":"transferFrom","inputs":[{"name":"from","type":"address","internalType":"address"},{"name":"to","type":"address","internalType":"address"},{"name":"tokenId","type":"uint256","internalType":"uint256"}],"outputs":[],"stateMutability":"nonpayable"},{"type":"function","name":"transferOwnership","inputs":[{"name":"newOwner","type":"address","internalType":"address"}],"outputs":[],"stateMutability":"nonpayable"},{"type":"event","name":"Approval","inputs":[{"name":"owner","type":"address","indexed":true,"internalType":"address"},{"name":"approved","type":"address","indexed":true,"internalType":"address"},{"name":"tokenId","type":"uint256","indexed":true,"internalType":"uint256"}],"anonymous":false},{"type":"event","name":"ApprovalForAll","inputs":[{"name":"owner","type":"address","indexed":true,"internalType":"address"},{"name":"operator","type":"address","indexed":true,"internalType":"address"},{"name":"approved","type":"bool","indexed":false,"internalType":"bool"}],"anonymous":false},{"type":"event","name":"OwnershipTransferred","inputs":[{"name":"previousOwner","type":"address","indexed":true,"internalType":"address"},{"name":"newOwner","type":"address","indexed":true,"internalType":"address"}],"anonymous":false},{"type":"event","name":"Transfer","inputs":[{"name":"from","type":"address","indexed":true,"internalType":"address"},{"name":"to","type":"address","indexed":true,"internalType":"address"},{"name":"tokenId","type":"uint256","indexed":true,"internalType":"uint256"}],"anonymous":false},{"type":"error","name":"ERC721IncorrectOwner","inputs":[{"name":"sender","type":"address","internalType":"address"},{"name":"tokenId","type":"uint256","internalType":"uint256"},{"name":"owner","type":"address","internalType":"address"}]},{"type":"error","name":"ERC721InsufficientApproval","inputs":[{"name":"operator","type":"address","internalType":"address"},{"name":"tokenId","type":"uint256","internalType":"uint256"}]},{"type":"error","name":"ERC721InvalidApprover","inputs":[{"name":"approver","type":"address","internalType":"address"}]},{"type":"error","name":"ERC721InvalidOperator","inputs":[{"name":"operator","type":"address","internalType":"address"}]},{"type":"error","name":"ERC721InvalidOwner","inputs":[{"name":"owner","type":"address","internalType":"address"}]},{"type":"error","name":"ERC721InvalidReceiver","inputs":[{"name":"receiver","type":"address","internalType":"address"}]},{"type":"error","name":"ERC721InvalidSender","inputs":[{"name":"sender","type":"address","internalType":"address"}]},{"type":"error","name":"ERC721NonexistentToken","inputs":[{"name":"tokenId","type":"uint256","internalType":"uint256"}]},{"type":"error","name":"OwnableInvalidOwner","inputs":[{"name":"owner","type":"address","internalType":"address"}]},{"type":"error","name":"OwnableUnauthorizedAccount","inputs":[{"name":"account","type":"address","internalType":"address"}]}],"bytecode":{"object":"0x608060405234801561000f575f80fd5b50336040518060400160405280600981526020016814dbdd5b189bdd5b9960ba1b8152506040518060400160405280600281526020016129a160f11b815250815f908161005c9190610191565b5060016100698282610191565b5050506001600160a01b03811661009957604051631e4fbdf760e01b81525f600482015260240160405180910390fd5b6100a2816100a8565b5061024b565b600680546001600160a01b038381166001600160a01b0319831681179093556040519116919082907f8be0079c531659141344cd1fd0a4f28419497f9722a3daafe3b4186f6b6457e0905f90a35050565b634e487b7160e01b5f52604160045260245ffd5b600181811c9082168061012157607f821691505b60208210810361013f57634e487b7160e01b5f52602260045260245ffd5b50919050565b601f82111561018c57805f5260205f20601f840160051c8101602085101561016a5750805b601f840160051c820191505b81811015610189575f8155600101610176565b50505b505050565b81516001600160401b038111156101aa576101aa6100f9565b6101be816101b8845461010d565b84610145565b6020601f8211600181146101f0575f83156101d95750848201515b5f19600385901b1c1916600184901b178455610189565b5f84815260208120601f198516915b8281101561021f57878501518255602094850194600190920191016101ff565b508482101561023c57868401515f19600387901b60f8161c191681555b50505050600190811b01905550565b611352806102585f395ff3fe608060405234801561000f575f80fd5b5060043610610111575f3560e01c8063715018a61161009e578063b58c86151161006e578063b58c861514610233578063b88d4fde14610246578063c87b56dd14610259578063e985e9c51461026c578063f2fde38b146102a7575f80fd5b8063715018a6146101ff5780638da5cb5b1461020757806395d89b4114610218578063a22cb46514610220575f80fd5b806323b872dd116100e457806323b872dd1461019257806342842e0e146101a55780636352211e146101b8578063669f5a51146101cb57806370a08231146101de575f80fd5b806301ffc9a71461011557806306fdde031461013d578063081812fc14610152578063095ea7b31461017d575b5f80fd5b610128610123366004610fda565b6102ba565b60405190151581526020015b60405180910390f35b61014561030b565b6040516101349190611023565b610165610160366004611035565b61039a565b6040516001600160a01b039091168152602001610134565b61019061018b366004611067565b6103c1565b005b6101906101a036600461108f565b6103d0565b6101906101b336600461108f565b61045e565b6101656101c6366004611035565b61047d565b6101906101d93660046110c9565b610487565b6101f16101ec3660046110f3565b6104fd565b604051908152602001610134565b610190610542565b6006546001600160a01b0316610165565b610145610555565b61019061022e36600461110c565b610564565b6101906102413660046110c9565b61056f565b610190610254366004611159565b6105e8565b610145610267366004611035565b610600565b61012861027a366004611236565b6001600160a01b039182165f90815260056020908152604080832093909416825291909152205460ff1690565b6101906102b53660046110f3565b610671565b5f6001600160e01b031982166380ac58cd60e01b14806102ea57506001600160e01b03198216635b5e139f60e01b145b8061030557506301ffc9a760e01b6001600160e01b03198316145b92915050565b60605f80546103199061125e565b80601f01602080910402602001604051908101604052809291908181526020018280546103459061125e565b80156103905780601f1061036757610100808354040283529160200191610390565b820191905f5260205f20905b81548152906001019060200180831161037357829003601f168201915b5050505050905090565b5f6103a4826106ae565b505f828152600460205260409020546001600160a01b0316610305565b6103cc8282336106e6565b5050565b6001600160a01b0382166103fe57604051633250574960e11b81525f60048201526024015b60405180910390fd5b5f61040a8383336106f3565b9050836001600160a01b0316816001600160a01b031614610458576040516364283d7b60e01b81526001600160a01b03808616600483015260248201849052821660448201526064016103f5565b50505050565b61047883838360405180602001604052805f8152506105e8565b505050565b5f610305826106ae565b61048f610775565b5f828152600260205260409020546001600160a01b0316156104f35760405162461bcd60e51b815260206004820152601260248201527f4e667420616c726561647920657869737473000000000000000000000000000060448201526064016103f5565b6103cc81836107a2565b5f6001600160a01b038216610527576040516322718ad960e21b81525f60048201526024016103f5565b506001600160a01b03165f9081526003602052604090205490565b61054a610775565b6105535f6107bb565b565b6060600180546103199061125e565b6103cc33838361080c565b610577610775565b5f828152600260205260409020546001600160a01b038281169116146105df5760405162461bcd60e51b815260206004820152601c60248201527f496e636f7272656374206163636f756e7420746f6b656e20706169720000000060448201526064016103f5565b6103cc82610877565b6105f38484846103d0565b61045833858585856108af565b606061060b826106ae565b505f61062160408051602081019091525f815290565b90505f81511161063f5760405180602001604052805f81525061066a565b80610649846109d7565b60405160200161065a9291906112ad565b6040516020818303038152906040525b9392505050565b610679610775565b6001600160a01b0381166106a257604051631e4fbdf760e01b81525f60048201526024016103f5565b6106ab816107bb565b50565b5f818152600260205260408120546001600160a01b03168061030557604051637e27328960e01b8152600481018490526024016103f5565b6104788383836001610a67565b5f828152600260205260408120546001600160a01b0316801580159061072157506001600160a01b03851615155b156107615760405162461bcd60e51b815260206004820152601060248201526f4e6f6e207472616e7366657261626c6560801b60448201526064016103f5565b61076c858585610ad3565b95945050505050565b6006546001600160a01b031633146105535760405163118cdaa760e01b81523360048201526024016103f5565b6103cc828260405180602001604052805f815250610bc5565b600680546001600160a01b038381166001600160a01b0319831681179093556040519116919082907f8be0079c531659141344cd1fd0a4f28419497f9722a3daafe3b4186f6b6457e0905f90a35050565b6001600160a01b0383161580159061082c57506001600160a01b03821615155b1561086c5760405162461bcd60e51b815260206004820152601060248201526f4e6f6e207472616e7366657261626c6560801b60448201526064016103f5565b610478838383610bdc565b5f6108835f835f6106f3565b90506001600160a01b0381166103cc57604051637e27328960e01b8152600481018390526024016103f5565b6001600160a01b0383163b156109d057604051630a85bd0160e11b81526001600160a01b0384169063150b7a02906108f19088908890879087906004016112c1565b6020604051808303815f875af192505050801561092b575060408051601f3d908101601f1916820190925261092891810190611301565b60015b610992573d808015610958576040519150601f19603f3d011682016040523d82523d5f602084013e61095d565b606091505b5080515f0361098a57604051633250574960e11b81526001600160a01b03851660048201526024016103f5565b805160208201fd5b6001600160e01b03198116630a85bd0160e11b146109ce57604051633250574960e11b81526001600160a01b03851660048201526024016103f5565b505b5050505050565b60605f6109e383610c7a565b60010190505f8167ffffffffffffffff811115610a0257610a02611145565b6040519080825280601f01601f191660200182016040528015610a2c576020820181803683370190505b5090508181016020015b5f19016f181899199a1a9b1b9c1cb0b131b232b360811b600a86061a8153600a8504945084610a3657509392505050565b6001600160a01b03821615801590610a8757506001600160a01b03841615155b15610ac75760405162461bcd60e51b815260206004820152601060248201526f4e6f6e207472616e7366657261626c6560801b60448201526064016103f5565b61045884848484610d5b565b5f828152600260205260408120546001600160a01b0390811690831615610aff57610aff818486610e7d565b6001600160a01b03811615610b3957610b1a5f855f80610a67565b6001600160a01b0381165f90815260036020526040902080545f190190555b6001600160a01b03851615610b67576001600160a01b0385165f908152600360205260409020805460010190555b5f8481526002602052604080822080546001600160a01b0319166001600160a01b0389811691821790925591518793918516917fddf252ad1be2c89b69c2b068fc378daa952ba7f163c4a11628f55a4df523b3ef91a4949350505050565b610bcf8383610ee1565b610478335f8585856108af565b6001600160a01b038216610c0e57604051630b61174360e31b81526001600160a01b03831660048201526024016103f5565b6001600160a01b038381165f81815260056020908152604080832094871680845294825291829020805460ff191686151590811790915591519182527f17307eab39ab6107e8899845ad3d59bd9653f200f220920489ca2b5937696c31910160405180910390a3505050565b5f807a184f03e93ff9f4daa797ed6e38ed64bf6a1f0100000000000000008310610cc2577a184f03e93ff9f4daa797ed6e38ed64bf6a1f010000000000000000830492506040015b6d04ee2d6d415b85acef81000000008310610cee576d04ee2d6d415b85acef8100000000830492506020015b662386f26fc100008310610d0c57662386f26fc10000830492506010015b6305f5e1008310610d24576305f5e100830492506008015b6127108310610d3857612710830492506004015b60648310610d4a576064830492506002015b600a83106103055760010192915050565b8080610d6f57506001600160a01b03821615155b15610e4e575f610d7e846106ae565b90506001600160a01b03831615801590610daa5750826001600160a01b0316816001600160a01b031614155b8015610ddb57506001600160a01b038082165f9081526005602090815260408083209387168352929052205460ff16155b15610e045760405163a9fbf51f60e01b81526001600160a01b03841660048201526024016103f5565b8115610e4c5783856001600160a01b0316826001600160a01b03167f8c5be1e5ebec7d5bd14f71427d1e84f3dd0314c0f7b2291e5b200ac8c7c3b92560405160405180910390a45b505b50505f90815260046020526040902080546001600160a01b0319166001600160a01b0392909216919091179055565b610e88838383610f42565b610478576001600160a01b038316610eb657604051637e27328960e01b8152600481018290526024016103f5565b60405163177e802f60e01b81526001600160a01b0383166004820152602481018290526044016103f5565b6001600160a01b038216610f0a57604051633250574960e11b81525f60048201526024016103f5565b5f610f1683835f6106f3565b90506001600160a01b03811615610478576040516339e3563760e11b81525f60048201526024016103f5565b5f6001600160a01b03831615801590610fbd5750826001600160a01b0316846001600160a01b03161480610f9a57506001600160a01b038085165f9081526005602090815260408083209387168352929052205460ff165b80610fbd57505f828152600460205260409020546001600160a01b038481169116145b949350505050565b6001600160e01b0319811681146106ab575f80fd5b5f60208284031215610fea575f80fd5b813561066a81610fc5565b5f81518084528060208401602086015e5f602082860101526020601f19601f83011685010191505092915050565b602081525f61066a6020830184610ff5565b5f60208284031215611045575f80fd5b5035919050565b80356001600160a01b0381168114611062575f80fd5b919050565b5f8060408385031215611078575f80fd5b6110818361104c565b946020939093013593505050565b5f805f606084860312156110a1575f80fd5b6110aa8461104c565b92506110b86020850161104c565b929592945050506040919091013590565b5f80604083850312156110da575f80fd5b823591506110ea6020840161104c565b90509250929050565b5f60208284031215611103575f80fd5b61066a8261104c565b5f806040838503121561111d575f80fd5b6111268361104c565b91506020830135801515811461113a575f80fd5b809150509250929050565b634e487b7160e01b5f52604160045260245ffd5b5f805f806080858703121561116c575f80fd5b6111758561104c565b93506111836020860161104c565b925060408501359150606085013567ffffffffffffffff8111156111a5575f80fd5b8501601f810187136111b5575f80fd5b803567ffffffffffffffff8111156111cf576111cf611145565b604051601f8201601f19908116603f0116810167ffffffffffffffff811182821017156111fe576111fe611145565b604052818152828201602001891015611215575f80fd5b816020840160208301375f6020838301015280935050505092959194509250565b5f8060408385031215611247575f80fd5b6112508361104c565b91506110ea6020840161104c565b600181811c9082168061127257607f821691505b60208210810361129057634e487b7160e01b5f52602260045260245ffd5b50919050565b5f81518060208401855e5f93019283525090919050565b5f610fbd6112bb8386611296565b84611296565b6001600160a01b03851681526001600160a01b0384166020820152826040820152608060608201525f6112f76080830184610ff5565b9695505050505050565b5f60208284031215611311575f80fd5b815161066a81610fc556fea2646970667358221220409e78d80137bdb1d827ba4b247bb81eea0b3ca709ee341bf0eb361522c7fbb764736f6c634300081a0033","linkReferences":{}},"methodIdentifiers":{"approve(address,uint256)":"095ea7b3","balanceOf(address)":"70a08231","burnNFT(uint256,address)":"b58c8615","getApproved(uint256)":"081812fc","isApprovedForAll(address,address)":"e985e9c5","mintNFT(uint256,address)":"669f5a51","name()":"06fdde03","owner()":"8da5cb5b","ownerOf(uint256)":"6352211e","renounceOwnership()":"715018a6","safeTransferFrom(address,address,uint256)":"42842e0e","safeTransferFrom(address,address,uint256,bytes)":"b88d4fde","setApprovalForAll(address,bool)":"a22cb465","supportsInterface(bytes4)":"01ffc9a7","symbol()":"95d89b41","tokenURI(uint256)":"c87b56dd","transferFrom(address,address,uint256)":"23b872dd","transferOwnership(address)":"f2fde38b"},"id":139}