{
    "abi": [
        {
            "type": "constructor",
            "inputs": [],
            "stateMutability": "nonpayable"
        },
        {
            "type": "receive",
            "stateMutability": "payable"
        },
        {
            "type": "function",
            "name": "deposit",
            "inputs": [
                {
                    "name": "_token",
                    "type": "address",
                    "internalType": "address"
                },
                {
                    "name": "_amount",
                    "type": "uint256",
                    "internalType": "uint256"
                }
            ],
            "outputs": [
                {
                    "name": "receiptId",
                    "type": "uint256",
                    "internalType": "uint256"
                }
            ],
            "stateMutability": "nonpayable"
        },
        {
            "type": "function",
            "name": "depositNative",
            "inputs": [],
            "outputs": [
                {
                    "name": "receiptId",
                    "type": "uint256",
                    "internalType": "uint256"
                }
            ],
            "stateMutability": "payable"
        },
        {
            "type": "function",
            "name": "getBalance",
            "inputs": [
                {
                    "name": "_token",
                    "type": "address",
                    "internalType": "address"
                }
            ],
            "outputs": [
                {
                    "name": "",
                    "type": "uint256",
                    "internalType": "uint256"
                }
            ],
            "stateMutability": "view"
        },
        {
            "type": "function",
            "name": "getTransfer",
            "inputs": [
                {
                    "name": "receiptId",
                    "type": "uint256",
                    "internalType": "uint256"
                }
            ],
            "outputs": [
                {
                    "name": "",
                    "type": "tuple",
                    "internalType": "struct TreasurySimple.TransferLog",
                    "components": [
                        {
                            "name": "from",
                            "type": "address",
                            "internalType": "address"
                        },
                        {
                            "name": "token",
                            "type": "address",
                            "internalType": "address"
                        },
                        {
                            "name": "amount",
                            "type": "uint256",
                            "internalType": "uint256"
                        },
                        {
                            "name": "blockNumber",
                            "type": "uint256",
                            "internalType": "uint256"
                        }
                    ]
                }
            ],
            "stateMutability": "view"
        },
        {
            "type": "function",
            "name": "owner",
            "inputs": [],
            "outputs": [
                {
                    "name": "",
                    "type": "address",
                    "internalType": "address"
                }
            ],
            "stateMutability": "view"
        },
        {
            "type": "function",
            "name": "renounceOwnership",
            "inputs": [],
            "outputs": [],
            "stateMutability": "nonpayable"
        },
        {
            "type": "function",
            "name": "setWhitelistToken",
            "inputs": [
                {
                    "name": "_token",
                    "type": "address",
                    "internalType": "address"
                },
                {
                    "name": "_isWhitelisted",
                    "type": "bool",
                    "internalType": "bool"
                }
            ],
            "outputs": [],
            "stateMutability": "nonpayable"
        },
        {
            "type": "function",
            "name": "transfer",
            "inputs": [
                {
                    "name": "_token",
                    "type": "address",
                    "internalType": "address"
                },
                {
                    "name": "_to",
                    "type": "address",
                    "internalType": "address payable"
                },
                {
                    "name": "_amount",
                    "type": "uint256",
                    "internalType": "uint256"
                }
            ],
            "outputs": [],
            "stateMutability": "nonpayable"
        },
        {
            "type": "function",
            "name": "transferCount",
            "inputs": [],
            "outputs": [
                {
                    "name": "",
                    "type": "uint256",
                    "internalType": "uint256"
                }
            ],
            "stateMutability": "view"
        },
        {
            "type": "function",
            "name": "transferOwnership",
            "inputs": [
                {
                    "name": "newOwner",
                    "type": "address",
                    "internalType": "address"
                }
            ],
            "outputs": [],
            "stateMutability": "nonpayable"
        },
        {
            "type": "function",
            "name": "transfers",
            "inputs": [
                {
                    "name": "",
                    "type": "uint256",
                    "internalType": "uint256"
                }
            ],
            "outputs": [
                {
                    "name": "from",
                    "type": "address",
                    "internalType": "address"
                },
                {
                    "name": "token",
                    "type": "address",
                    "internalType": "address"
                },
                {
                    "name": "amount",
                    "type": "uint256",
                    "internalType": "uint256"
                },
                {
                    "name": "blockNumber",
                    "type": "uint256",
                    "internalType": "uint256"
                }
            ],
            "stateMutability": "view"
        },
        {
            "type": "function",
            "name": "whitelistedTokens",
            "inputs": [
                {
                    "name": "",
                    "type": "address",
                    "internalType": "address"
                }
            ],
            "outputs": [
                {
                    "name": "",
                    "type": "bool",
                    "internalType": "bool"
                }
            ],
            "stateMutability": "view"
        },
        {
            "type": "event",
            "name": "Deposited",
            "inputs": [
                {
                    "name": "from",
                    "type": "address",
                    "indexed": true,
                    "internalType": "address"
                },
                {
                    "name": "token",
                    "type": "address",
                    "indexed": true,
                    "internalType": "address"
                },
                {
                    "name": "amount",
                    "type": "uint256",
                    "indexed": false,
                    "internalType": "uint256"
                }
            ],
            "anonymous": false
        },
        {
            "type": "event",
            "name": "OwnershipTransferred",
            "inputs": [
                {
                    "name": "previousOwner",
                    "type": "address",
                    "indexed": true,
                    "internalType": "address"
                },
                {
                    "name": "newOwner",
                    "type": "address",
                    "indexed": true,
                    "internalType": "address"
                }
            ],
            "anonymous": false
        },
        {
            "type": "event",
            "name": "Transferred",
            "inputs": [
                {
                    "name": "to",
                    "type": "address",
                    "indexed": true,
                    "internalType": "address"
                },
                {
                    "name": "token",
                    "type": "address",
                    "indexed": true,
                    "internalType": "address"
                },
                {
                    "name": "amount",
                    "type": "uint256",
                    "indexed": false,
                    "internalType": "uint256"
                }
            ],
            "anonymous": false
        },
        {
            "type": "error",
            "name": "OwnableInvalidOwner",
            "inputs": [
                {
                    "name": "owner",
                    "type": "address",
                    "internalType": "address"
                }
            ]
        },
        {
            "type": "error",
            "name": "OwnableUnauthorizedAccount",
            "inputs": [
                {
                    "name": "account",
                    "type": "address",
                    "internalType": "address"
                }
            ]
        },
        {
            "type": "error",
            "name": "SafeERC20FailedOperation",
            "inputs": [
                {
                    "name": "token",
                    "type": "address",
                    "internalType": "address"
                }
            ]
        }
    ],
    "bytecode": {
        "object": "0x6080604052348015600e575f80fd5b503380603357604051631e4fbdf760e01b81525f600482015260240160405180910390fd5b603a816073565b505f805260036020527f3617319a054d772f909f7c479a2cebe5066e836a939412e32403c99029b92eff805460ff1916600117905560c2565b5f80546001600160a01b038381166001600160a01b0319831681178455604051919092169283917f8be0079c531659141344cd1fd0a4f28419497f9722a3daafe3b4186f6b6457e09190a35050565b610ce5806100cf5f395ff3fe6080604052600436106100a8575f3560e01c8063c16fe90711610062578063c16fe907146101af578063daf9c2101461020f578063db6b52461461024d578063e3d33fc914610255578063f2fde38b1461026a578063f8b2cb4f14610289575f80fd5b806347e7ef24146100bb578063715018a6146100ed5780637c374f99146101015780638da5cb5b146101205780639377d71114610146578063beabacc814610190575f80fd5b366100b7576100b56102a8565b005b5f80fd5b3480156100c6575f80fd5b506100da6100d5366004610b84565b6103ed565b6040519081526020015b60405180910390f35b3480156100f8575f80fd5b506100b5610603565b34801561010c575f80fd5b506100b561011b366004610bae565b610616565b34801561012b575f80fd5b505f546040516001600160a01b0390911681526020016100e4565b348015610151575f80fd5b50610165610160366004610be9565b610648565b604080516001600160a01b0395861681529490931660208501529183015260608201526080016100e4565b34801561019b575f80fd5b506100b56101aa366004610c00565b61068c565b3480156101ba575f80fd5b506101ce6101c9366004610be9565b610891565b6040516100e4919081516001600160a01b03908116825260208084015190911690820152604080830151908201526060918201519181019190915260800190565b34801561021a575f80fd5b5061023d610229366004610c3e565b60036020525f908152604090205460ff1681565b60405190151581526020016100e4565b6100da610919565b348015610260575f80fd5b506100da60025481565b348015610275575f80fd5b506100b5610284366004610c3e565b610927565b348015610294575f80fd5b506100da6102a3366004610c3e565b610964565b604080516080810182523381525f6020820181815234938301938452436060840190815260018054808201825590845293517fb10e2d527612073b26eecdfd717e6a320cf44b4afac2b0732d9fcbe2b7fa0cf6600490950294850180546001600160a01b03199081166001600160a01b039384161790915592517fb10e2d527612073b26eecdfd717e6a320cf44b4afac2b0732d9fcbe2b7fa0cf78601805490941691161790915592517fb10e2d527612073b26eecdfd717e6a320cf44b4afac2b0732d9fcbe2b7fa0cf883015591517fb10e2d527612073b26eecdfd717e6a320cf44b4afac2b0732d9fcbe2b7fa0cf99091015560028054918291906103ae83610c60565b90915550506040513481525f9033907f8752a472e571a816aea92eec8dae9baf628e840f4929fbcc2d155e6233ff68a79060200160405180910390a390565b6001600160a01b0382165f9081526003602052604081205460ff166104515760405162461bcd60e51b81526020600482015260156024820152741513d2d15397d393d517d5d2125511531254d51151605a1b60448201526064015b60405180910390fd5b6001600160a01b0383166104975760405162461bcd60e51b815260206004820152600d60248201526c24a72b20a624a22faa27a5a2a760991b6044820152606401610448565b6104ac6001600160a01b0384163330856109e6565b50604080516080810182523381526001600160a01b038481166020830190815292820184815243606084019081526001805480820182555f918252945160049095027fb10e2d527612073b26eecdfd717e6a320cf44b4afac2b0732d9fcbe2b7fa0cf6810180549686166001600160a01b031997881617905595517fb10e2d527612073b26eecdfd717e6a320cf44b4afac2b0732d9fcbe2b7fa0cf78701805491909516951694909417909255517fb10e2d527612073b26eecdfd717e6a320cf44b4afac2b0732d9fcbe2b7fa0cf8840155517fb10e2d527612073b26eecdfd717e6a320cf44b4afac2b0732d9fcbe2b7fa0cf99092019190915560028054918291906105b883610c60565b90915550506040518281526001600160a01b0384169033907f8752a472e571a816aea92eec8dae9baf628e840f4929fbcc2d155e6233ff68a79060200160405180910390a392915050565b61060b610a53565b6106145f610a7f565b565b61061e610a53565b6001600160a01b03919091165f908152600360205260409020805460ff1916911515919091179055565b60018181548110610657575f80fd5b5f91825260209091206004909102018054600182015460028301546003909301546001600160a01b0392831694509116919084565b610694610a53565b6001600160a01b0382166106de5760405162461bcd60e51b81526020600482015260116024820152701253959053125117d49150d25412515395607a1b6044820152606401610448565b6001600160a01b038316610775578047101561073c5760405162461bcd60e51b815260206004820152601b60248201527f494e53554646494349454e545f4e41544956455f42414c414e434500000000006044820152606401610448565b6040516001600160a01b0383169082156108fc029083905f818181858888f1935050505015801561076f573d5f803e3d5ffd5b5061083f565b6040516370a0823160e01b815230600482015281906001600160a01b038516906370a0823190602401602060405180830381865afa1580156107b9573d5f803e3d5ffd5b505050506040513d601f19601f820116820180604052508101906107dd9190610c84565b101561082b5760405162461bcd60e51b815260206004820152601a60248201527f494e53554646494349454e545f544f4b454e5f42414c414e43450000000000006044820152606401610448565b61083f6001600160a01b0384168383610ace565b826001600160a01b0316826001600160a01b03167fd1ba4ac2e2a11b5101f6cb4d978f514a155b421e8ec396d2d9abaf0bb02917ee8360405161088491815260200190565b60405180910390a3505050565b604080516080810182525f808252602082018190529181018290526060810191909152600182815481106108c7576108c7610c9b565b5f91825260209182902060408051608081018252600490930290910180546001600160a01b03908116845260018201541693830193909352600283015490820152600390910154606082015292915050565b5f6109226102a8565b905090565b61092f610a53565b6001600160a01b03811661095857604051631e4fbdf760e01b81525f6004820152602401610448565b61096181610a7f565b50565b5f6001600160a01b03821661097a575047919050565b6040516370a0823160e01b81523060048201526001600160a01b038316906370a0823190602401602060405180830381865afa1580156109bc573d5f803e3d5ffd5b505050506040513d601f19601f820116820180604052508101906109e09190610c84565b92915050565b6040516001600160a01b038481166024830152838116604483015260648201839052610a4d9186918216906323b872dd906084015b604051602081830303815290604052915060e01b6020820180516001600160e01b038381831617835250505050610b04565b50505050565b5f546001600160a01b031633146106145760405163118cdaa760e01b8152336004820152602401610448565b5f80546001600160a01b038381166001600160a01b0319831681178455604051919092169283917f8be0079c531659141344cd1fd0a4f28419497f9722a3daafe3b4186f6b6457e09190a35050565b6040516001600160a01b03838116602483015260448201839052610aff91859182169063a9059cbb90606401610a1b565b505050565b5f8060205f8451602086015f885af180610b23576040513d5f823e3d81fd5b50505f513d91508115610b3a578060011415610b47565b6001600160a01b0384163b155b15610a4d57604051635274afe760e01b81526001600160a01b0385166004820152602401610448565b6001600160a01b0381168114610961575f80fd5b5f8060408385031215610b95575f80fd5b8235610ba081610b70565b946020939093013593505050565b5f8060408385031215610bbf575f80fd5b8235610bca81610b70565b915060208301358015158114610bde575f80fd5b809150509250929050565b5f60208284031215610bf9575f80fd5b5035919050565b5f805f60608486031215610c12575f80fd5b8335610c1d81610b70565b92506020840135610c2d81610b70565b929592945050506040919091013590565b5f60208284031215610c4e575f80fd5b8135610c5981610b70565b9392505050565b5f60018201610c7d57634e487b7160e01b5f52601160045260245ffd5b5060010190565b5f60208284031215610c94575f80fd5b5051919050565b634e487b7160e01b5f52603260045260245ffdfea2646970667358221220c75cd32bb77fb36249a2328999b107f00c40144cd6b3c299deb4cb8b2691d0a764736f6c634300081a0033",
        "linkReferences": {}
    },
    "methodIdentifiers": {
        "deposit(address,uint256)": "47e7ef24",
        "depositNative()": "db6b5246",
        "getBalance(address)": "f8b2cb4f",
        "getTransfer(uint256)": "c16fe907",
        "owner()": "8da5cb5b",
        "renounceOwnership()": "715018a6",
        "setWhitelistToken(address,bool)": "7c374f99",
        "transfer(address,address,uint256)": "beabacc8",
        "transferCount()": "e3d33fc9",
        "transferOwnership(address)": "f2fde38b",
        "transfers(uint256)": "9377d711",
        "whitelistedTokens(address)": "daf9c210"
    },
    "id": 122
}