{"abi":[{"type":"constructor","inputs":[],"stateMutability":"nonpayable"},{"type":"function","name":"executeLaw","inputs":[{"name":"caller","type":"address","internalType":"address"},{"name":"lawId","type":"uint16","internalType":"uint16"},{"name":"lawCalldata","type":"bytes","internalType":"bytes"},{"name":"nonce","type":"uint256","internalType":"uint256"}],"outputs":[{"name":"success","type":"bool","internalType":"bool"}],"stateMutability":"nonpayable"},{"type":"function","name":"getConfig","inputs":[{"name":"powers","type":"address","internalType":"address"},{"name":"lawId","type":"uint16","internalType":"uint16"}],"outputs":[{"name":"config","type":"bytes","internalType":"bytes"}],"stateMutability":"view"},{"type":"function","name":"getInputParams","inputs":[{"name":"powers","type":"address","internalType":"address"},{"name":"lawId","type":"uint16","internalType":"uint16"}],"outputs":[{"name":"inputParams","type":"bytes","internalType":"bytes"}],"stateMutability":"view"},{"type":"function","name":"getNameDescription","inputs":[{"name":"powers","type":"address","internalType":"address"},{"name":"lawId","type":"uint16","internalType":"uint16"}],"outputs":[{"name":"nameDescription","type":"string","internalType":"string"}],"stateMutability":"view"},{"type":"function","name":"handleRequest","inputs":[{"name":"","type":"address","internalType":"address"},{"name":"powers","type":"address","internalType":"address"},{"name":"lawId","type":"uint16","internalType":"uint16"},{"name":"lawCalldata","type":"bytes","internalType":"bytes"},{"name":"nonce","type":"uint256","internalType":"uint256"}],"outputs":[{"name":"actionId","type":"uint256","internalType":"uint256"},{"name":"targets","type":"address[]","internalType":"address[]"},{"name":"values","type":"uint256[]","internalType":"uint256[]"},{"name":"calldatas","type":"bytes[]","internalType":"bytes[]"}],"stateMutability":"view"},{"type":"function","name":"initializeLaw","inputs":[{"name":"index","type":"uint16","internalType":"uint16"},{"name":"nameDescription","type":"string","internalType":"string"},{"name":"inputParams","type":"bytes","internalType":"bytes"},{"name":"config","type":"bytes","internalType":"bytes"}],"outputs":[],"stateMutability":"nonpayable"},{"type":"function","name":"laws","inputs":[{"name":"lawHash","type":"bytes32","internalType":"bytes32"}],"outputs":[{"name":"nameDescription","type":"string","internalType":"string"},{"name":"inputParams","type":"bytes","internalType":"bytes"},{"name":"config","type":"bytes","internalType":"bytes"},{"name":"powers","type":"address","internalType":"address"}],"stateMutability":"view"},{"type":"function","name":"supportsInterface","inputs":[{"name":"interfaceId","type":"bytes4","internalType":"bytes4"}],"outputs":[{"name":"","type":"bool","internalType":"bool"}],"stateMutability":"view"},{"type":"function","name":"targetContract","inputs":[{"name":"lawHash","type":"bytes32","internalType":"bytes32"}],"outputs":[{"name":"targetContract","type":"address","internalType":"address"}],"stateMutability":"view"},{"type":"event","name":"Law__Deployed","inputs":[{"name":"configParams","type":"bytes","indexed":false,"internalType":"bytes"}],"anonymous":false},{"type":"event","name":"Law__Initialized","inputs":[{"name":"powers","type":"address","indexed":true,"internalType":"address"},{"name":"index","type":"uint16","indexed":true,"internalType":"uint16"},{"name":"nameDescription","type":"string","indexed":false,"internalType":"string"},{"name":"inputParams","type":"bytes","indexed":false,"internalType":"bytes"},{"name":"config","type":"bytes","indexed":false,"internalType":"bytes"}],"anonymous":false}],"bytecode":{"object":"0x608060405234801561000f575f80fd5b505f6040516020016100789060408082526016908201527f6164647265737320546172676574436f6e7472616374000000000000000000006060820152608060208201819052600e908201526d1d5a5b9d0c8d4d88141bdbdb125960921b60a082015260c00190565b60405160208183030381529060405290507fc5389813cde4ae9e760a24ddd7e7ee31b82b36b1077e156cdcad4547bf7692e1816040516100b891906100c6565b60405180910390a1506100fb565b602081525f82518060208401528060208501604085015e5f604082850101526040601f19601f83011684010191505092915050565b611821806101085f395ff3fe608060405234801561000f575f80fd5b506004361061009f575f3560e01c8063552cb3721161007257806399130d891161005857806399130d8914610159578063c0d27aad14610199578063d8a941f4146101ac575f80fd5b8063552cb372146101235780637bf5b2fb14610146575f80fd5b806301ffc9a7146100a3578063040b1100146100cb5780630d157721146100e05780630db07d5814610100575b5f80fd5b6100b66100b1366004610e0a565b6101bf565b60405190151581526020015b60405180910390f35b6100de6100d9366004610f13565b6101f5565b005b6100f36100ee366004610fdc565b6103a2565b6040516100c2919061103d565b61011361010e36600461104f565b6104cb565b6040516100c29493929190611066565b6101366101313660046110b9565b61068d565b6040516100c294939291906111fc565b6100b6610154366004611245565b610927565b61018161016736600461104f565b60016020525f90815260409020546001600160a01b031681565b6040516001600160a01b0390911681526020016100c2565b6100f36101a7366004610fdc565b610a7e565b6100f36101ba366004610fdc565b610b24565b5f6001600160e01b03198216632ad2108960e01b14806101ef57506301ffc9a760e01b6001600160e01b03198316145b92915050565b5f808280602001905181019061020b91906112d8565b60405163195cb93f60e31b815233600482015261ffff8916602482015291935091505f9073__$da6f5012babb472fe138ca3bf3d5984061$__9063cae5c9f890604401602060405180830381865af4158015610269573d5f803e3d5ffd5b505050506040513d601f19601f8201168201806040525081019061028d9190611304565b5f818152600260209081526040808320869055600182529182902080546001600160a01b03881673ffffffffffffffffffffffffffffffffffffffff19909116179055905191925061037c91016060808252600e9082018190527f75696e7432353620506f6f6c4964000000000000000000000000000000000000608083015260a0602083018190526011908301527f616464726573732070617961626c65546f00000000000000000000000000000060c083015260e0604083018190528201527f75696e7432353620416d6f756e740000000000000000000000000000000000006101008201526101200190565b604051602081830303815290604052945061039987878787610bca565b50505050505050565b60405163195cb93f60e31b81526001600160a01b038316600482015261ffff821660248201526060905f90819073__$da6f5012babb472fe138ca3bf3d5984061$__9063cae5c9f890604401602060405180830381865af4158015610409573d5f803e3d5ffd5b505050506040513d601f19601f8201168201806040525081019061042d9190611304565b81526020019081526020015f205f0180546104479061131b565b80601f01602080910402602001604051908101604052809291908181526020018280546104739061131b565b80156104be5780601f10610495576101008083540402835291602001916104be565b820191905f5260205f20905b8154815290600101906020018083116104a157829003601f168201915b5050505050905092915050565b5f602081905290815260409020805481906104e59061131b565b80601f01602080910402602001604051908101604052809291908181526020018280546105119061131b565b801561055c5780601f106105335761010080835404028352916020019161055c565b820191905f5260205f20905b81548152906001019060200180831161053f57829003601f168201915b5050505050908060010180546105719061131b565b80601f016020809104026020016040519081016040528092919081815260200182805461059d9061131b565b80156105e85780601f106105bf576101008083540402835291602001916105e8565b820191905f5260205f20905b8154815290600101906020018083116105cb57829003601f168201915b5050505050908060020180546105fd9061131b565b80601f01602080910402602001604051908101604052809291908181526020018280546106299061131b565b80156106745780601f1061064b57610100808354040283529160200191610674565b820191905f5260205f20905b81548152906001019060200180831161065757829003601f168201915b505050600390930154919250506001600160a01b031684565b5f606080606073__$da6f5012babb472fe138ca3bf3d5984061$__630bcec8558888886040518463ffffffff1660e01b81526004016106ce93929190611353565b602060405180830381865af41580156106e9573d5f803e3d5ffd5b505050506040513d601f19601f8201168201806040525081019061070d9190611304565b60405163195cb93f60e31b81526001600160a01b038a16600482015261ffff891660248201529094505f9073__$da6f5012babb472fe138ca3bf3d5984061$__9063cae5c9f890604401602060405180830381865af4158015610772573d5f803e3d5ffd5b505050506040513d601f19601f820116820180604052508101906107969190611304565b5f8181526002602090815260408220548a51939450926107bd91908b018101908b0161137f565b505090508181146108155760405162461bcd60e51b815260206004820152600f60248201527f494e56414c49445f504f4f4c5f4944000000000000000000000000000000000060448201526064015b60405180910390fd5b60405163054591f760e11b81526001600482015273__$da6f5012babb472fe138ca3bf3d5984061$__90630a8b23ee906024015f60405180830381865af4158015610862573d5f803e3d5ffd5b505050506040513d5f823e601f3d908101601f1916820160405261088991908101906114fe565b5f868152600160205260408120548451949a509298509096506001600160a01b03909116918891906108bd576108bd6115ee565b6001600160a01b039092166020928302919091018201526040516108ec91632e16f8d960e21b918c9101611602565b604051602081830303815290604052845f8151811061090d5761090d6115ee565b602002602001018190525050505095509550955095915050565b60405163195cb93f60e31b815233600482015261ffff851660248201525f90819073__$da6f5012babb472fe138ca3bf3d5984061$__9063cae5c9f890604401602060405180830381865af4158015610982573d5f803e3d5ffd5b505050506040513d601f19601f820116820180604052508101906109a69190611304565b5f818152602081905260409020600301549091506001600160a01b03163314610a115760405162461bcd60e51b815260206004820152600b60248201527f4f6e6c7920506f77657273000000000000000000000000000000000000000000604482015260640161080c565b5f805f80610a588b338c8c8c8080601f0160208091040260200160405190810160405280939291908181526020018383808284375f920191909152508e925061068d915050565b9350935093509350610a6d8a85858585610da4565b5060019a9950505050505050505050565b60405163195cb93f60e31b81526001600160a01b038316600482015261ffff821660248201526060905f90819073__$da6f5012babb472fe138ca3bf3d5984061$__9063cae5c9f890604401602060405180830381865af4158015610ae5573d5f803e3d5ffd5b505050506040513d601f19601f82011682018060405250810190610b099190611304565b81526020019081526020015f2060020180546104479061131b565b60405163195cb93f60e31b81526001600160a01b038316600482015261ffff821660248201526060905f90819073__$da6f5012babb472fe138ca3bf3d5984061$__9063cae5c9f890604401602060405180830381865af4158015610b8b573d5f803e3d5ffd5b505050506040513d601f19601f82011682018060405250810190610baf9190611304565b81526020019081526020015f2060010180546104479061131b565b60405163195cb93f60e31b815233600482015261ffff851660248201525f9073__$da6f5012babb472fe138ca3bf3d5984061$__9063cae5c9f890604401602060405180830381865af4158015610c23573d5f803e3d5ffd5b505050506040513d601f19601f82011682018060405250810190610c479190611304565b60405163cb4a15c560e01b815290915073__$da6f5012babb472fe138ca3bf3d5984061$__9063cb4a15c590610c8790879060019060ff9060040161162d565b5f6040518083038186803b158015610c9d575f80fd5b505af4158015610caf573d5f803e3d5ffd5b50506040805160808101825287815260208082018890528183018790523360608301525f8681529081905291909120815191935091508190610cf1908261169a565b5060208201516001820190610d06908261169a565b5060408201516002820190610d1b908261169a565b50606091909101516003909101805473ffffffffffffffffffffffffffffffffffffffff19166001600160a01b0390921691909117905560405161ffff86169033907f3325fccc62d4919a3b0d34ea1fe03878a5248dd1bc36dd8d4316eafc2b8d0adf90610d8e90889088908890611755565b60405180910390a35050505050565b5050505050565b825115610d9d57604051630de6a60160e01b81523390630de6a60190610dd69088908890889088908890600401611797565b5f604051808303815f87803b158015610ded575f80fd5b505af1158015610dff573d5f803e3d5ffd5b505050505050505050565b5f60208284031215610e1a575f80fd5b81356001600160e01b031981168114610e31575f80fd5b9392505050565b803561ffff81168114610e49575f80fd5b919050565b634e487b7160e01b5f52604160045260245ffd5b604051601f8201601f1916810167ffffffffffffffff81118282101715610e8b57610e8b610e4e565b604052919050565b5f67ffffffffffffffff821115610eac57610eac610e4e565b50601f01601f191660200190565b5f610ecc610ec784610e93565b610e62565b9050828152838383011115610edf575f80fd5b828260208301375f602084830101529392505050565b5f82601f830112610f04575f80fd5b610e3183833560208501610eba565b5f805f8060808587031215610f26575f80fd5b610f2f85610e38565b9350602085013567ffffffffffffffff811115610f4a575f80fd5b8501601f81018713610f5a575f80fd5b610f6987823560208401610eba565b935050604085013567ffffffffffffffff811115610f85575f80fd5b610f9187828801610ef5565b925050606085013567ffffffffffffffff811115610fad575f80fd5b610fb987828801610ef5565b91505092959194509250565b6001600160a01b0381168114610fd9575f80fd5b50565b5f8060408385031215610fed575f80fd5b8235610ff881610fc5565b915061100660208401610e38565b90509250929050565b5f81518084528060208401602086015e5f602082860101526020601f19601f83011685010191505092915050565b602081525f610e31602083018461100f565b5f6020828403121561105f575f80fd5b5035919050565b608081525f611078608083018761100f565b828103602084015261108a818761100f565b9050828103604084015261109e818661100f565b9150506001600160a01b038316606083015295945050505050565b5f805f805f60a086880312156110cd575f80fd5b85356110d881610fc5565b945060208601356110e881610fc5565b93506110f660408701610e38565b9250606086013567ffffffffffffffff811115611111575f80fd5b61111d88828901610ef5565b95989497509295608001359392505050565b5f8151808452602084019350602083015f5b828110156111685781516001600160a01b0316865260209586019590910190600101611141565b5093949350505050565b5f8151808452602084019350602083015f5b82811015611168578151865260209586019590910190600101611184565b5f82825180855260208501945060208160051b830101602085015f5b838110156111f057601f198584030188526111da83835161100f565b60209889019890935091909101906001016111be565b50909695505050505050565b848152608060208201525f611214608083018661112f565b82810360408401526112268186611172565b9050828103606084015261123a81856111a2565b979650505050505050565b5f805f805f60808688031215611259575f80fd5b853561126481610fc5565b945061127260208701610e38565b9350604086013567ffffffffffffffff81111561128d575f80fd5b8601601f8101881361129d575f80fd5b803567ffffffffffffffff8111156112b3575f80fd5b8860208284010111156112c4575f80fd5b959894975060200195606001359392505050565b5f80604083850312156112e9575f80fd5b82516112f481610fc5565b6020939093015192949293505050565b5f60208284031215611314575f80fd5b5051919050565b600181811c9082168061132f57607f821691505b60208210810361134d57634e487b7160e01b5f52602260045260245ffd5b50919050565b61ffff84168152606060208201525f61136f606083018561100f565b9050826040830152949350505050565b5f805f60608486031215611391575f80fd5b835160208501519093506113a481610fc5565b6040949094015192959394509192915050565b5f67ffffffffffffffff8211156113d0576113d0610e4e565b5060051b60200190565b5f82601f8301126113e9575f80fd5b81516113f7610ec7826113b7565b8082825260208201915060208360051b860101925085831115611418575f80fd5b602085015b8381101561143557805183526020928301920161141d565b5095945050505050565b5f82601f83011261144e575f80fd5b815161145c610ec7826113b7565b8082825260208201915060208360051b86010192508583111561147d575f80fd5b602085015b8381101561143557805167ffffffffffffffff8111156114a0575f80fd5b8601603f810188136114b0575f80fd5b60208101516114c1610ec782610e93565b8181526040838301018a10156114d5575f80fd5b8160408401602083015e5f60208383010152808652505050602083019250602081019050611482565b5f805f60608486031215611510575f80fd5b835167ffffffffffffffff811115611526575f80fd5b8401601f81018613611536575f80fd5b8051611544610ec7826113b7565b8082825260208201915060208360051b850101925088831115611565575f80fd5b6020840193505b8284101561159057835161157f81610fc5565b82526020938401939091019061156c565b80965050505050602084015167ffffffffffffffff8111156115b0575f80fd5b6115bc868287016113da565b925050604084015167ffffffffffffffff8111156115d8575f80fd5b6115e48682870161143f565b9150509250925092565b634e487b7160e01b5f52603260045260245ffd5b6001600160e01b03198316815281515f908060208501600485015e5f92016004019182525092915050565b606081525f61163f606083018661100f565b60208301949094525060400152919050565b601f82111561169557805f5260205f20601f840160051c810160208510156116765750805b601f840160051c820191505b81811015610d9d575f8155600101611682565b505050565b815167ffffffffffffffff8111156116b4576116b4610e4e565b6116c8816116c2845461131b565b84611651565b6020601f8211600181146116fa575f83156116e35750848201515b5f19600385901b1c1916600184901b178455610d9d565b5f84815260208120601f198516915b828110156117295787850151825560209485019460019092019101611709565b508482101561174657868401515f19600387901b60f8161c191681555b50505050600190811b01905550565b606081525f611767606083018661100f565b8281036020840152611779818661100f565b9050828103604084015261178d818561100f565b9695505050505050565b61ffff8616815284602082015260a060408201525f6117b960a083018661112f565b82810360608401526117cb8186611172565b905082810360808401526117df81856111a2565b9897505050505050505056fea264697066735822122015f3fccfc30f5bad4c14e09ff4c74c0296a91c98d9fde37c1519f1ece4c3592d64736f6c634300081a0033","linkReferences":{"src/libraries/LawUtilities.sol":{"LawUtilities":[{"start":825,"length":20},{"start":1241,"length":20},{"start":1949,"length":20},{"start":2114,"length":20},{"start":2355,"length":20},{"start":2642,"length":20},{"start":2997,"length":20},{"start":3163,"length":20},{"start":3315,"length":20},{"start":3425,"length":20}]}}},"methodIdentifiers":{"executeLaw(address,uint16,bytes,uint256)":"7bf5b2fb","getConfig(address,uint16)":"c0d27aad","getInputParams(address,uint16)":"d8a941f4","getNameDescription(address,uint16)":"0d157721","handleRequest(address,address,uint16,bytes,uint256)":"552cb372","initializeLaw(uint16,string,bytes,bytes)":"040b1100","laws(bytes32)":"0db07d58","supportsInterface(bytes4)":"01ffc9a7","targetContract(bytes32)":"99130d89"},"id":169}