{"abi":[{"type":"constructor","inputs":[],"stateMutability":"nonpayable"},{"type":"receive","stateMutability":"payable"},{"type":"function","name":"deposit","inputs":[{"name":"_token","type":"address","internalType":"address"},{"name":"_amount","type":"uint256","internalType":"uint256"}],"outputs":[{"name":"receiptId","type":"uint256","internalType":"uint256"}],"stateMutability":"nonpayable"},{"type":"function","name":"depositNative","inputs":[],"outputs":[{"name":"receiptId","type":"uint256","internalType":"uint256"}],"stateMutability":"payable"},{"type":"function","name":"getBalance","inputs":[{"name":"_token","type":"address","internalType":"address"}],"outputs":[{"name":"","type":"uint256","internalType":"uint256"}],"stateMutability":"view"},{"type":"function","name":"getTransfer","inputs":[{"name":"receiptId","type":"uint256","internalType":"uint256"}],"outputs":[{"name":"","type":"tuple","internalType":"struct TreasurySimple.TransferLog","components":[{"name":"from","type":"address","internalType":"address"},{"name":"token","type":"address","internalType":"address"},{"name":"amount","type":"uint256","internalType":"uint256"},{"name":"blockNumber","type":"uint256","internalType":"uint256"}]}],"stateMutability":"view"},{"type":"function","name":"owner","inputs":[],"outputs":[{"name":"","type":"address","internalType":"address"}],"stateMutability":"view"},{"type":"function","name":"renounceOwnership","inputs":[],"outputs":[],"stateMutability":"nonpayable"},{"type":"function","name":"setWhitelistToken","inputs":[{"name":"_token","type":"address","internalType":"address"},{"name":"_isWhitelisted","type":"bool","internalType":"bool"}],"outputs":[],"stateMutability":"nonpayable"},{"type":"function","name":"transfer","inputs":[{"name":"_token","type":"address","internalType":"address"},{"name":"_to","type":"address","internalType":"address payable"},{"name":"_amount","type":"uint256","internalType":"uint256"}],"outputs":[],"stateMutability":"nonpayable"},{"type":"function","name":"transferCount","inputs":[],"outputs":[{"name":"","type":"uint256","internalType":"uint256"}],"stateMutability":"view"},{"type":"function","name":"transferOwnership","inputs":[{"name":"newOwner","type":"address","internalType":"address"}],"outputs":[],"stateMutability":"nonpayable"},{"type":"function","name":"transfers","inputs":[{"name":"","type":"uint256","internalType":"uint256"}],"outputs":[{"name":"from","type":"address","internalType":"address"},{"name":"token","type":"address","internalType":"address"},{"name":"amount","type":"uint256","internalType":"uint256"},{"name":"blockNumber","type":"uint256","internalType":"uint256"}],"stateMutability":"view"},{"type":"function","name":"whitelistedTokens","inputs":[{"name":"","type":"address","internalType":"address"}],"outputs":[{"name":"","type":"bool","internalType":"bool"}],"stateMutability":"view"},{"type":"event","name":"Deposited","inputs":[{"name":"from","type":"address","indexed":true,"internalType":"address"},{"name":"token","type":"address","indexed":true,"internalType":"address"},{"name":"amount","type":"uint256","indexed":false,"internalType":"uint256"},{"name":"receiptId","type":"uint256","indexed":false,"internalType":"uint256"}],"anonymous":false},{"type":"event","name":"OwnershipTransferred","inputs":[{"name":"previousOwner","type":"address","indexed":true,"internalType":"address"},{"name":"newOwner","type":"address","indexed":true,"internalType":"address"}],"anonymous":false},{"type":"event","name":"Transferred","inputs":[{"name":"to","type":"address","indexed":true,"internalType":"address"},{"name":"token","type":"address","indexed":true,"internalType":"address"},{"name":"amount","type":"uint256","indexed":false,"internalType":"uint256"}],"anonymous":false},{"type":"error","name":"AddressEmptyCode","inputs":[{"name":"target","type":"address","internalType":"address"}]},{"type":"error","name":"AddressInsufficientBalance","inputs":[{"name":"account","type":"address","internalType":"address"}]},{"type":"error","name":"FailedInnerCall","inputs":[]},{"type":"error","name":"OwnableInvalidOwner","inputs":[{"name":"owner","type":"address","internalType":"address"}]},{"type":"error","name":"OwnableUnauthorizedAccount","inputs":[{"name":"account","type":"address","internalType":"address"}]},{"type":"error","name":"SafeERC20FailedOperation","inputs":[{"name":"token","type":"address","internalType":"address"}]}],"bytecode":{"object":"0x6080604052348015600e575f80fd5b503380603357604051631e4fbdf760e01b81525f600482015260240160405180910390fd5b603a816073565b505f805260036020527f3617319a054d772f909f7c479a2cebe5066e836a939412e32403c99029b92eff805460ff1916600117905560c2565b5f80546001600160a01b038381166001600160a01b0319831681178455604051919092169283917f8be0079c531659141344cd1fd0a4f28419497f9722a3daafe3b4186f6b6457e09190a35050565b610ed4806100cf5f395ff3fe6080604052600436106100c6575f3560e01c8063c16fe90711610071578063e3d33fc91161004c578063e3d33fc91461027b578063f2fde38b14610290578063f8b2cb4f146102af575f80fd5b8063c16fe907146101cd578063daf9c21014610235578063db6b524614610273575f80fd5b80638da5cb5b116100a15780638da5cb5b1461013e5780639377d71114610164578063beabacc8146101ae575f80fd5b806347e7ef24146100d9578063715018a61461010b5780637c374f991461011f575f80fd5b366100d5576100d36102ce565b005b5f80fd5b3480156100e4575f80fd5b506100f86100f3366004610d25565b61041d565b6040519081526020015b60405180910390f35b348015610116575f80fd5b506100d3610653565b34801561012a575f80fd5b506100d3610139366004610d5c565b610666565b348015610149575f80fd5b505f546040516001600160a01b039091168152602001610102565b34801561016f575f80fd5b5061018361017e366004610d93565b610698565b604080516001600160a01b039586168152949093166020850152918301526060820152608001610102565b3480156101b9575f80fd5b506100d36101c8366004610daa565b6106dc565b3480156101d8575f80fd5b506101ec6101e7366004610d93565b6108ed565b60405161010291905f6080820190506001600160a01b0383511682526001600160a01b036020840151166020830152604083015160408301526060830151606083015292915050565b348015610240575f80fd5b5061026361024f366004610de8565b60036020525f908152604090205460ff1681565b6040519015158152602001610102565b6100f861097e565b348015610286575f80fd5b506100f860025481565b34801561029b575f80fd5b506100d36102aa366004610de8565b61098c565b3480156102ba575f80fd5b506100f86102c9366004610de8565b6109c9565b604080516080810182523381525f6020820181815234938301938452436060840190815260018054808201825590845293517fb10e2d527612073b26eecdfd717e6a320cf44b4afac2b0732d9fcbe2b7fa0cf6600490950294850180546001600160a01b03199081166001600160a01b039384161790915592517fb10e2d527612073b26eecdfd717e6a320cf44b4afac2b0732d9fcbe2b7fa0cf78601805490941691161790915592517fb10e2d527612073b26eecdfd717e6a320cf44b4afac2b0732d9fcbe2b7fa0cf883015591517fb10e2d527612073b26eecdfd717e6a320cf44b4afac2b0732d9fcbe2b7fa0cf9909101556002805490826103d283610e17565b909155505060025460408051348152602081018390529192505f9133917ff5681f9d0db1b911ac18ee83d515a1cf1051853a9eae418316a2fdf7dea427c5910160405180910390a390565b6001600160a01b0382165f9081526003602052604081205460ff166104895760405162461bcd60e51b815260206004820152601560248201527f544f4b454e5f4e4f545f57484954454c4953544544000000000000000000000060448201526064015b60405180910390fd5b6001600160a01b0383166104df5760405162461bcd60e51b815260206004820152600d60248201527f494e56414c49445f544f4b454e000000000000000000000000000000000000006044820152606401610480565b6104f46001600160a01b038416333085610a4b565b604080516080810182523381526001600160a01b038581166020830190815292820185815243606084019081526001805480820182555f918252945160049095027fb10e2d527612073b26eecdfd717e6a320cf44b4afac2b0732d9fcbe2b7fa0cf6810180549686166001600160a01b031997881617905595517fb10e2d527612073b26eecdfd717e6a320cf44b4afac2b0732d9fcbe2b7fa0cf78701805491909516951694909417909255517fb10e2d527612073b26eecdfd717e6a320cf44b4afac2b0732d9fcbe2b7fa0cf8840155517fb10e2d527612073b26eecdfd717e6a320cf44b4afac2b0732d9fcbe2b7fa0cf99092019190915560028054916105fc83610e17565b909155505060025460408051848152602081018390529192506001600160a01b0385169133917ff5681f9d0db1b911ac18ee83d515a1cf1051853a9eae418316a2fdf7dea427c5910160405180910390a392915050565b61065b610acd565b6106645f610af9565b565b61066e610acd565b6001600160a01b03919091165f908152600360205260409020805460ff1916911515919091179055565b600181815481106106a7575f80fd5b5f91825260209091206004909102018054600182015460028301546003909301546001600160a01b0392831694509116919084565b6106e4610acd565b6001600160a01b03821661073a5760405162461bcd60e51b815260206004820152601160248201527f494e56414c49445f524543495049454e540000000000000000000000000000006044820152606401610480565b6001600160a01b0383166107d157804710156107985760405162461bcd60e51b815260206004820152601b60248201527f494e53554646494349454e545f4e41544956455f42414c414e434500000000006044820152606401610480565b6040516001600160a01b0383169082156108fc029083905f818181858888f193505050501580156107cb573d5f803e3d5ffd5b5061089b565b6040516370a0823160e01b815230600482015281906001600160a01b038516906370a0823190602401602060405180830381865afa158015610815573d5f803e3d5ffd5b505050506040513d601f19601f820116820180604052508101906108399190610e2f565b10156108875760405162461bcd60e51b815260206004820152601a60248201527f494e53554646494349454e545f544f4b454e5f42414c414e43450000000000006044820152606401610480565b61089b6001600160a01b0384168383610b48565b826001600160a01b0316826001600160a01b03167fd1ba4ac2e2a11b5101f6cb4d978f514a155b421e8ec396d2d9abaf0bb02917ee836040516108e091815260200190565b60405180910390a3505050565b604080516080810182525f808252602082018190529181018290526060810191909152600161091c8184610e46565b8154811061092c5761092c610e59565b5f91825260209182902060408051608081018252600490930290910180546001600160a01b03908116845260018201541693830193909352600283015490820152600390910154606082015292915050565b5f6109876102ce565b905090565b610994610acd565b6001600160a01b0381166109bd57604051631e4fbdf760e01b81525f6004820152602401610480565b6109c681610af9565b50565b5f6001600160a01b0382166109df575047919050565b6040516370a0823160e01b81523060048201526001600160a01b038316906370a0823190602401602060405180830381865afa158015610a21573d5f803e3d5ffd5b505050506040513d601f19601f82011682018060405250810190610a459190610e2f565b92915050565b6040516001600160a01b038481166024830152838116604483015260648201839052610ac79186918216906323b872dd906084015b604051602081830303815290604052915060e01b6020820180517bffffffffffffffffffffffffffffffffffffffffffffffffffffffff8381831617835250505050610b7e565b50505050565b5f546001600160a01b031633146106645760405163118cdaa760e01b8152336004820152602401610480565b5f80546001600160a01b038381166001600160a01b0319831681178455604051919092169283917f8be0079c531659141344cd1fd0a4f28419497f9722a3daafe3b4186f6b6457e09190a35050565b6040516001600160a01b03838116602483015260448201839052610b7991859182169063a9059cbb90606401610a80565b505050565b5f610b926001600160a01b03841683610bdf565b905080515f14158015610bb6575080806020019051810190610bb49190610e6d565b155b15610b7957604051635274afe760e01b81526001600160a01b0384166004820152602401610480565b6060610bec83835f610bf3565b9392505050565b606081471015610c185760405163cd78605960e01b8152306004820152602401610480565b5f80856001600160a01b03168486604051610c339190610e88565b5f6040518083038185875af1925050503d805f8114610c6d576040519150601f19603f3d011682016040523d82523d5f602084013e610c72565b606091505b5091509150610c82868383610c8c565b9695505050505050565b606082610ca157610c9c82610ce8565b610bec565b8151158015610cb857506001600160a01b0384163b155b15610ce157604051639996b31560e01b81526001600160a01b0385166004820152602401610480565b5080610bec565b805115610cf85780518082602001fd5b604051630a12f52160e11b815260040160405180910390fd5b6001600160a01b03811681146109c6575f80fd5b5f8060408385031215610d36575f80fd5b8235610d4181610d11565b946020939093013593505050565b80151581146109c6575f80fd5b5f8060408385031215610d6d575f80fd5b8235610d7881610d11565b91506020830135610d8881610d4f565b809150509250929050565b5f60208284031215610da3575f80fd5b5035919050565b5f805f60608486031215610dbc575f80fd5b8335610dc781610d11565b92506020840135610dd781610d11565b929592945050506040919091013590565b5f60208284031215610df8575f80fd5b8135610bec81610d11565b634e487b7160e01b5f52601160045260245ffd5b5f60018201610e2857610e28610e03565b5060010190565b5f60208284031215610e3f575f80fd5b5051919050565b81810381811115610a4557610a45610e03565b634e487b7160e01b5f52603260045260245ffd5b5f60208284031215610e7d575f80fd5b8151610bec81610d4f565b5f82518060208501845e5f92019182525091905056fea2646970667358221220febb4035619605c28c409c6a25d511bc1ab068290ed8ba0eed2d6e479997ee5864736f6c634300081a0033","linkReferences":{}},"methodIdentifiers":{"deposit(address,uint256)":"47e7ef24","depositNative()":"db6b5246","getBalance(address)":"f8b2cb4f","getTransfer(uint256)":"c16fe907","owner()":"8da5cb5b","renounceOwnership()":"715018a6","setWhitelistToken(address,bool)":"7c374f99","transfer(address,address,uint256)":"beabacc8","transferCount()":"e3d33fc9","transferOwnership(address)":"f2fde38b","transfers(uint256)":"9377d711","whitelistedTokens(address)":"daf9c210"},"id":113}