{"abi":[{"type":"constructor","inputs":[],"stateMutability":"nonpayable"},{"type":"function","name":"executeLaw","inputs":[{"name":"caller","type":"address","internalType":"address"},{"name":"lawId","type":"uint16","internalType":"uint16"},{"name":"lawCalldata","type":"bytes","internalType":"bytes"},{"name":"nonce","type":"uint256","internalType":"uint256"}],"outputs":[{"name":"success","type":"bool","internalType":"bool"}],"stateMutability":"nonpayable"},{"type":"function","name":"getConfig","inputs":[{"name":"powers","type":"address","internalType":"address"},{"name":"lawId","type":"uint16","internalType":"uint16"}],"outputs":[{"name":"config","type":"bytes","internalType":"bytes"}],"stateMutability":"view"},{"type":"function","name":"getData","inputs":[{"name":"lawHash","type":"bytes32","internalType":"bytes32"}],"outputs":[{"name":"","type":"tuple","internalType":"struct TreasuryRoleWithTransfer.Data","components":[{"name":"treasuryContract","type":"address","internalType":"address"},{"name":"roleIdToSet","type":"uint16","internalType":"uint16"}]}],"stateMutability":"view"},{"type":"function","name":"getInputParams","inputs":[{"name":"powers","type":"address","internalType":"address"},{"name":"lawId","type":"uint16","internalType":"uint16"}],"outputs":[{"name":"inputParams","type":"bytes","internalType":"bytes"}],"stateMutability":"view"},{"type":"function","name":"getNameDescription","inputs":[{"name":"powers","type":"address","internalType":"address"},{"name":"lawId","type":"uint16","internalType":"uint16"}],"outputs":[{"name":"nameDescription","type":"string","internalType":"string"}],"stateMutability":"view"},{"type":"function","name":"getTokenConfig","inputs":[{"name":"lawHash","type":"bytes32","internalType":"bytes32"},{"name":"token","type":"address","internalType":"address"}],"outputs":[{"name":"","type":"tuple","internalType":"struct TreasuryRoleWithTransfer.TokenConfig","components":[{"name":"tokensPerBlock","type":"uint256","internalType":"uint256"}]}],"stateMutability":"view"},{"type":"function","name":"handleRequest","inputs":[{"name":"","type":"address","internalType":"address"},{"name":"powers","type":"address","internalType":"address"},{"name":"lawId","type":"uint16","internalType":"uint16"},{"name":"lawCalldata","type":"bytes","internalType":"bytes"},{"name":"nonce","type":"uint256","internalType":"uint256"}],"outputs":[{"name":"actionId","type":"uint256","internalType":"uint256"},{"name":"targets","type":"address[]","internalType":"address[]"},{"name":"values","type":"uint256[]","internalType":"uint256[]"},{"name":"calldatas","type":"bytes[]","internalType":"bytes[]"}],"stateMutability":"view"},{"type":"function","name":"initializeLaw","inputs":[{"name":"index","type":"uint16","internalType":"uint16"},{"name":"nameDescription","type":"string","internalType":"string"},{"name":"inputParams","type":"bytes","internalType":"bytes"},{"name":"config","type":"bytes","internalType":"bytes"}],"outputs":[],"stateMutability":"nonpayable"},{"type":"function","name":"laws","inputs":[{"name":"lawHash","type":"bytes32","internalType":"bytes32"}],"outputs":[{"name":"nameDescription","type":"string","internalType":"string"},{"name":"inputParams","type":"bytes","internalType":"bytes"},{"name":"config","type":"bytes","internalType":"bytes"},{"name":"powers","type":"address","internalType":"address"}],"stateMutability":"view"},{"type":"function","name":"supportsInterface","inputs":[{"name":"interfaceId","type":"bytes4","internalType":"bytes4"}],"outputs":[{"name":"","type":"bool","internalType":"bool"}],"stateMutability":"view"},{"type":"event","name":"Law__Deployed","inputs":[{"name":"configParams","type":"bytes","indexed":false,"internalType":"bytes"}],"anonymous":false},{"type":"event","name":"Law__Initialized","inputs":[{"name":"powers","type":"address","indexed":true,"internalType":"address"},{"name":"index","type":"uint16","indexed":true,"internalType":"uint16"},{"name":"nameDescription","type":"string","indexed":false,"internalType":"string"},{"name":"inputParams","type":"bytes","indexed":false,"internalType":"bytes"},{"name":"config","type":"bytes","indexed":false,"internalType":"bytes"}],"anonymous":false}],"bytecode":{"object":"0x608060405234801561000f575f80fd5b505f6040516020016100de9060808152601860808201527f61646472657373205472656173757279436f6e7472616374000000000000000060a082015260c06020820152601060c08201526f616464726573735b5d20546f6b656e7360801b60e0820152610100604082015260186101008201527f75696e743235365b5d20546f6b656e73506572426c6f636b00000000000000006101208201526101406060820152600d6101408201526c1d5a5b9d0c4d88149bdb195259609a1b6101608201525f61018082019050919050565b60405160208183030381529060405290507fc5389813cde4ae9e760a24ddd7e7ee31b82b36b1077e156cdcad4547bf7692e18160405161011e919061012c565b60405180910390a150610161565b602081525f82518060208401528060208501604085015e5f604082850101526040601f19601f83011684010191505092915050565b611d4d8061016e5f395ff3fe608060405234801561000f575f80fd5b50600436106100b9575f3560e01c806354f6127f116100725780637bf5b2fb116100585780637bf5b2fb1461023c578063c0d27aad1461024f578063d8a941f414610262575f80fd5b806354f6127f14610197578063552cb37214610219575f80fd5b80630d157721116100a25780630d157721146100fa5780630db07d581461011a57806319028aa31461013d575f80fd5b806301ffc9a7146100bd578063040b1100146100e5575b5f80fd5b6100d06100cb366004611287565b610275565b60405190151581526020015b60405180910390f35b6100f86100f336600461138c565b6102ab565b005b61010d610108366004611454565b610577565b6040516100dc91906114b9565b61012d6101283660046114cb565b6106a0565b6040516100dc94939291906114e2565b61018861014b366004611535565b60408051602080820183525f91829052938152600284528181206001600160a01b0393909316815291835290819020815192830190915254815290565b604051905181526020016100dc565b6101f16101a53660046114cb565b604080518082019091525f8082526020820152505f908152600160209081526040918290208251808401909352546001600160a01b0381168352600160a01b900461ffff169082015290565b6040805182516001600160a01b0316815260209283015161ffff1692810192909252016100dc565b61022c610227366004611558565b610862565b6040516100dc949392919061169d565b6100d061024a3660046116e6565b610daf565b61010d61025d366004611454565b610f06565b61010d610270366004611454565b610fac565b5f6001600160e01b03198216632ad2108960e01b14806102a557506301ffc9a760e01b6001600160e01b03198316145b92915050565b5f805f80848060200190518101906102c39190611867565b935093509350935081518351146103475760405162461bcd60e51b815260206004820152603a60248201527f546f6b656e7320616e6420546f6b656e73506572426c6f636b2061727261797360448201527f206d7573742068617665207468652073616d65206c656e67746800000000000060648201526084015b60405180910390fd5b82515f036103bd5760405162461bcd60e51b815260206004820152602c60248201527f4174206c65617374206f6e6520746f6b656e20636f6e66696775726174696f6e60448201527f2069732072657175697265640000000000000000000000000000000000000000606482015260840161033e565b60405163195cb93f60e31b815233600482015261ffff891660248201525f9073__$da6f5012babb472fe138ca3bf3d5984061$__9063cae5c9f890604401602060405180830381865af4158015610416573d5f803e3d5ffd5b505050506040513d601f19601f8201168201806040525081019061043a91906118f1565b5f818152600160205260408120805461ffff8616600160a01b027fffffffffffffffffffff000000000000000000000000000000000000000000009091166001600160a01b038a16171790559091505b845181101561050d5760405180602001604052808583815181106104b0576104b0611908565b602002602001015181525060025f8481526020019081526020015f205f8784815181106104df576104df611908565b6020908102919091018101516001600160a01b031682528101919091526040015f209051905560010161048a565b5060405160200161054f9060208082526011908201527f75696e7432353620726563656970744964000000000000000000000000000000604082015260600190565b604051602081830303815290604052965061056c89898989611052565b505050505050505050565b60405163195cb93f60e31b81526001600160a01b038316600482015261ffff821660248201526060905f90819073__$da6f5012babb472fe138ca3bf3d5984061$__9063cae5c9f890604401602060405180830381865af41580156105de573d5f803e3d5ffd5b505050506040513d601f19601f8201168201806040525081019061060291906118f1565b81526020019081526020015f205f01805461061c9061191c565b80601f01602080910402602001604051908101604052809291908181526020018280546106489061191c565b80156106935780601f1061066a57610100808354040283529160200191610693565b820191905f5260205f20905b81548152906001019060200180831161067657829003601f168201915b5050505050905092915050565b5f602081905290815260409020805481906106ba9061191c565b80601f01602080910402602001604051908101604052809291908181526020018280546106e69061191c565b80156107315780601f1061070857610100808354040283529160200191610731565b820191905f5260205f20905b81548152906001019060200180831161071457829003601f168201915b5050505050908060010180546107469061191c565b80601f01602080910402602001604051908101604052809291908181526020018280546107729061191c565b80156107bd5780601f10610794576101008083540402835291602001916107bd565b820191905f5260205f20905b8154815290600101906020018083116107a057829003601f168201915b5050505050908060020180546107d29061191c565b80601f01602080910402602001604051908101604052809291908181526020018280546107fe9061191c565b80156108495780601f1061082057610100808354040283529160200191610849565b820191905f5260205f20905b81548152906001019060200180831161082c57829003601f168201915b505050600390930154919250506001600160a01b031684565b5f60608060606108ea60408051610140810182525f808252825180840184528181526020808201839052808401919091528284018290526060808401839052608080850184905285519081018652838152918201839052938101829052928301529060a082019081525f60208201819052604082018190526060820181905260809091015290565b60405163195cb93f60e31b81526001600160a01b038a16600482015261ffff8916602482015273__$da6f5012babb472fe138ca3bf3d5984061$__9063cae5c9f890604401602060405180830381865af415801561094a573d5f803e3d5ffd5b505050506040513d601f19601f8201168201806040525081019061096e91906118f1565b8082525f908152600160209081526040918290208251808401845290546001600160a01b0381168252600160a01b900461ffff168183015281840152339183019190915287516109c59190890181019089016118f1565b6060820181905260208201515160405163c16fe90760e01b815260048101929092526001600160a01b03169063c16fe90790602401608060405180830381865afa158015610a15573d5f803e3d5ffd5b505050506040513d601f19601f82011682018060405250810190610a399190611954565b60a08201819052604001515f03610a925760405162461bcd60e51b815260206004820152601760248201527f5472616e7366657220646f6573206e6f74206578697374000000000000000000604482015260640161033e565b80604001516001600160a01b03168160a001515f01516001600160a01b031614610afe5760405162461bcd60e51b815260206004820152601860248201527f5472616e73666572206e6f742066726f6d2063616c6c65720000000000000000604482015260640161033e565b65ffffffffffff431660c082015280515f90815260026020908152604080832060a08501518301516001600160a01b0316845290915281205460e083018190529003610b8c5760405162461bcd60e51b815260206004820152601460248201527f546f6b656e206e6f7420636f6e66696775726564000000000000000000000000604482015260640161033e565b8060e001518160a0015160400151610ba491906119c9565b61010082018190525f03610bfa5760405162461bcd60e51b815260206004820152601c60248201527f496e73756666696369656e74207472616e7366657220616d6f756e7400000000604482015260640161033e565b8061010001518160a0015160600151610c1391906119e8565b65ffffffffffff168160c0015165ffffffffffff161115610c765760405162461bcd60e51b815260206004820152600e60248201527f4163636573732065787069726564000000000000000000000000000000000000604482015260640161033e565b60405163054591f760e11b81526001600482015273__$da6f5012babb472fe138ca3bf3d5984061$__90630a8b23ee906024015f60405180830381865af4158015610cc3573d5f803e3d5ffd5b505050506040513d5f823e601f3d908101601f19168201604052610cea9190810190611a12565b82519296509094509250899085905f90610d0657610d06611908565b6001600160a01b039283166020918202929092018101919091528281015181015160808401516040805161ffff90931660248401529316604480830191909152835180830390910181526064909101909252810180517bffffffffffffffffffffffffffffffffffffffffffffffffffffffff1663342dc12560e11b179052825183905f90610d9757610d97611908565b60200260200101819052505095509550955095915050565b60405163195cb93f60e31b815233600482015261ffff851660248201525f90819073__$da6f5012babb472fe138ca3bf3d5984061$__9063cae5c9f890604401602060405180830381865af4158015610e0a573d5f803e3d5ffd5b505050506040513d601f19601f82011682018060405250810190610e2e91906118f1565b5f818152602081905260409020600301549091506001600160a01b03163314610e995760405162461bcd60e51b815260206004820152600b60248201527f4f6e6c7920506f77657273000000000000000000000000000000000000000000604482015260640161033e565b5f805f80610ee08b338c8c8c8080601f0160208091040260200160405190810160405280939291908181526020018383808284375f920191909152508e9250610862915050565b9350935093509350610ef58a8585858561122c565b5060019a9950505050505050505050565b60405163195cb93f60e31b81526001600160a01b038316600482015261ffff821660248201526060905f90819073__$da6f5012babb472fe138ca3bf3d5984061$__9063cae5c9f890604401602060405180830381865af4158015610f6d573d5f803e3d5ffd5b505050506040513d601f19601f82011682018060405250810190610f9191906118f1565b81526020019081526020015f20600201805461061c9061191c565b60405163195cb93f60e31b81526001600160a01b038316600482015261ffff821660248201526060905f90819073__$da6f5012babb472fe138ca3bf3d5984061$__9063cae5c9f890604401602060405180830381865af4158015611013573d5f803e3d5ffd5b505050506040513d601f19601f8201168201806040525081019061103791906118f1565b81526020019081526020015f20600101805461061c9061191c565b60405163195cb93f60e31b815233600482015261ffff851660248201525f9073__$da6f5012babb472fe138ca3bf3d5984061$__9063cae5c9f890604401602060405180830381865af41580156110ab573d5f803e3d5ffd5b505050506040513d601f19601f820116820180604052508101906110cf91906118f1565b60405163cb4a15c560e01b815290915073__$da6f5012babb472fe138ca3bf3d5984061$__9063cb4a15c59061110f90879060019060ff90600401611b59565b5f6040518083038186803b158015611125575f80fd5b505af4158015611137573d5f803e3d5ffd5b50506040805160808101825287815260208082018890528183018790523360608301525f86815290819052919091208151919350915081906111799082611bc6565b506020820151600182019061118e9082611bc6565b50604082015160028201906111a39082611bc6565b50606091909101516003909101805473ffffffffffffffffffffffffffffffffffffffff19166001600160a01b0390921691909117905560405161ffff86169033907f3325fccc62d4919a3b0d34ea1fe03878a5248dd1bc36dd8d4316eafc2b8d0adf9061121690889088908890611c81565b60405180910390a35050505050565b5050505050565b82511561122557604051630de6a60160e01b81523390630de6a6019061125e9088908890889088908890600401611cc3565b5f604051808303815f87803b158015611275575f80fd5b505af115801561056c573d5f803e3d5ffd5b5f60208284031215611297575f80fd5b81356001600160e01b0319811681146112ae575f80fd5b9392505050565b61ffff811681146112c4575f80fd5b50565b634e487b7160e01b5f52604160045260245ffd5b604051601f8201601f1916810167ffffffffffffffff81118282101715611304576113046112c7565b604052919050565b5f67ffffffffffffffff821115611325576113256112c7565b50601f01601f191660200190565b5f6113456113408461130c565b6112db565b9050828152838383011115611358575f80fd5b828260208301375f602084830101529392505050565b5f82601f83011261137d575f80fd5b6112ae83833560208501611333565b5f805f806080858703121561139f575f80fd5b84356113aa816112b5565b9350602085013567ffffffffffffffff8111156113c5575f80fd5b8501601f810187136113d5575f80fd5b6113e487823560208401611333565b935050604085013567ffffffffffffffff811115611400575f80fd5b61140c8782880161136e565b925050606085013567ffffffffffffffff811115611428575f80fd5b6114348782880161136e565b91505092959194509250565b6001600160a01b03811681146112c4575f80fd5b5f8060408385031215611465575f80fd5b823561147081611440565b91506020830135611480816112b5565b809150509250929050565b5f81518084528060208401602086015e5f602082860101526020601f19601f83011685010191505092915050565b602081525f6112ae602083018461148b565b5f602082840312156114db575f80fd5b5035919050565b608081525f6114f4608083018761148b565b8281036020840152611506818761148b565b9050828103604084015261151a818661148b565b9150506001600160a01b038316606083015295945050505050565b5f8060408385031215611546575f80fd5b82359150602083013561148081611440565b5f805f805f60a0868803121561156c575f80fd5b853561157781611440565b9450602086013561158781611440565b93506040860135611597816112b5565b9250606086013567ffffffffffffffff8111156115b2575f80fd5b6115be8882890161136e565b95989497509295608001359392505050565b5f8151808452602084019350602083015f5b828110156116095781516001600160a01b03168652602095860195909101906001016115e2565b5093949350505050565b5f8151808452602084019350602083015f5b82811015611609578151865260209586019590910190600101611625565b5f82825180855260208501945060208160051b830101602085015f5b8381101561169157601f1985840301885261167b83835161148b565b602098890198909350919091019060010161165f565b50909695505050505050565b848152608060208201525f6116b560808301866115d0565b82810360408401526116c78186611613565b905082810360608401526116db8185611643565b979650505050505050565b5f805f805f608086880312156116fa575f80fd5b853561170581611440565b94506020860135611715816112b5565b9350604086013567ffffffffffffffff811115611730575f80fd5b8601601f81018813611740575f80fd5b803567ffffffffffffffff811115611756575f80fd5b886020828401011115611767575f80fd5b959894975060200195606001359392505050565b5f67ffffffffffffffff821115611794576117946112c7565b5060051b60200190565b5f82601f8301126117ad575f80fd5b81516117bb6113408261177b565b8082825260208201915060208360051b8601019250858311156117dc575f80fd5b602085015b838110156118025780516117f481611440565b8352602092830192016117e1565b5095945050505050565b5f82601f83011261181b575f80fd5b81516118296113408261177b565b8082825260208201915060208360051b86010192508583111561184a575f80fd5b602085015b8381101561180257805183526020928301920161184f565b5f805f806080858703121561187a575f80fd5b845161188581611440565b602086015190945067ffffffffffffffff8111156118a1575f80fd5b6118ad8782880161179e565b935050604085015167ffffffffffffffff8111156118c9575f80fd5b6118d58782880161180c565b92505060608501516118e6816112b5565b939692955090935050565b5f60208284031215611901575f80fd5b5051919050565b634e487b7160e01b5f52603260045260245ffd5b600181811c9082168061193057607f821691505b60208210810361194e57634e487b7160e01b5f52602260045260245ffd5b50919050565b5f6080828403128015611965575f80fd5b506040516080810167ffffffffffffffff81118282101715611989576119896112c7565b604052825161199781611440565b815260208301516119a781611440565b6020820152604083810151908201526060928301519281019290925250919050565b5f826119e357634e487b7160e01b5f52601260045260245ffd5b500490565b65ffffffffffff81811683821601908111156102a557634e487b7160e01b5f52601160045260245ffd5b5f805f60608486031215611a24575f80fd5b835167ffffffffffffffff811115611a3a575f80fd5b611a468682870161179e565b935050602084015167ffffffffffffffff811115611a62575f80fd5b611a6e8682870161180c565b925050604084015167ffffffffffffffff811115611a8a575f80fd5b8401601f81018613611a9a575f80fd5b8051611aa86113408261177b565b8082825260208201915060208360051b850101925088831115611ac9575f80fd5b602084015b83811015611b4a57805167ffffffffffffffff811115611aec575f80fd5b8501603f81018b13611afc575f80fd5b6020810151611b0d6113408261130c565b8181526040838301018d1015611b21575f80fd5b8160408401602083015e5f60208383010152808652505050602083019250602081019050611ace565b50809450505050509250925092565b606081525f611b6b606083018661148b565b60208301949094525060400152919050565b601f821115611bc157805f5260205f20601f840160051c81016020851015611ba25750805b601f840160051c820191505b81811015611225575f8155600101611bae565b505050565b815167ffffffffffffffff811115611be057611be06112c7565b611bf481611bee845461191c565b84611b7d565b6020601f821160018114611c26575f8315611c0f5750848201515b5f19600385901b1c1916600184901b178455611225565b5f84815260208120601f198516915b82811015611c555787850151825560209485019460019092019101611c35565b5084821015611c7257868401515f19600387901b60f8161c191681555b50505050600190811b01905550565b606081525f611c93606083018661148b565b8281036020840152611ca5818661148b565b90508281036040840152611cb9818561148b565b9695505050505050565b61ffff8616815284602082015260a060408201525f611ce560a08301866115d0565b8281036060840152611cf78186611613565b90508281036080840152611d0b8185611643565b9897505050505050505056fea2646970667358221220461f56dced46e4c930528a1d2b261e44df7f02959c59b625543be9dbd20618bd64736f6c634300081a0033","linkReferences":{"src/libraries/LawUtilities.sol":{"LawUtilities":[{"start":1356,"length":20},{"start":1812,"length":20},{"start":2688,"length":20},{"start":3578,"length":20},{"start":3904,"length":20},{"start":4259,"length":20},{"start":4425,"length":20},{"start":4577,"length":20},{"start":4687,"length":20}]}}},"methodIdentifiers":{"executeLaw(address,uint16,bytes,uint256)":"7bf5b2fb","getConfig(address,uint16)":"c0d27aad","getData(bytes32)":"54f6127f","getInputParams(address,uint16)":"d8a941f4","getNameDescription(address,uint16)":"0d157721","getTokenConfig(bytes32,address)":"19028aa3","handleRequest(address,address,uint16,bytes,uint256)":"552cb372","initializeLaw(uint16,string,bytes,bytes)":"040b1100","laws(bytes32)":"0db07d58","supportsInterface(bytes4)":"01ffc9a7"},"id":150}