{"abi":[{"type":"constructor","inputs":[],"stateMutability":"nonpayable"},{"type":"receive","stateMutability":"payable"},{"type":"function","name":"deposit","inputs":[{"name":"_token","type":"address","internalType":"address"},{"name":"_amount","type":"uint256","internalType":"uint256"}],"outputs":[],"stateMutability":"nonpayable"},{"type":"function","name":"depositNative","inputs":[],"outputs":[],"stateMutability":"payable"},{"type":"function","name":"getBalance","inputs":[{"name":"_token","type":"address","internalType":"address"}],"outputs":[{"name":"","type":"uint256","internalType":"uint256"}],"stateMutability":"view"},{"type":"function","name":"getTransfer","inputs":[{"name":"_index","type":"uint256","internalType":"uint256"}],"outputs":[{"name":"","type":"tuple","internalType":"struct TreasurySimple.TransferLog","components":[{"name":"from","type":"address","internalType":"address"},{"name":"token","type":"address","internalType":"address"},{"name":"amount","type":"uint256","internalType":"uint256"},{"name":"blockNumber","type":"uint256","internalType":"uint256"}]}],"stateMutability":"view"},{"type":"function","name":"owner","inputs":[],"outputs":[{"name":"","type":"address","internalType":"address"}],"stateMutability":"view"},{"type":"function","name":"renounceOwnership","inputs":[],"outputs":[],"stateMutability":"nonpayable"},{"type":"function","name":"transfer","inputs":[{"name":"_token","type":"address","internalType":"address"},{"name":"_to","type":"address","internalType":"address payable"},{"name":"_amount","type":"uint256","internalType":"uint256"}],"outputs":[],"stateMutability":"nonpayable"},{"type":"function","name":"transferCount","inputs":[],"outputs":[{"name":"","type":"uint256","internalType":"uint256"}],"stateMutability":"view"},{"type":"function","name":"transferOwnership","inputs":[{"name":"newOwner","type":"address","internalType":"address"}],"outputs":[],"stateMutability":"nonpayable"},{"type":"function","name":"transfers","inputs":[{"name":"","type":"uint256","internalType":"uint256"}],"outputs":[{"name":"from","type":"address","internalType":"address"},{"name":"token","type":"address","internalType":"address"},{"name":"amount","type":"uint256","internalType":"uint256"},{"name":"blockNumber","type":"uint256","internalType":"uint256"}],"stateMutability":"view"},{"type":"event","name":"Deposited","inputs":[{"name":"from","type":"address","indexed":true,"internalType":"address"},{"name":"token","type":"address","indexed":true,"internalType":"address"},{"name":"amount","type":"uint256","indexed":false,"internalType":"uint256"}],"anonymous":false},{"type":"event","name":"OwnershipTransferred","inputs":[{"name":"previousOwner","type":"address","indexed":true,"internalType":"address"},{"name":"newOwner","type":"address","indexed":true,"internalType":"address"}],"anonymous":false},{"type":"event","name":"Transferred","inputs":[{"name":"to","type":"address","indexed":true,"internalType":"address"},{"name":"token","type":"address","indexed":true,"internalType":"address"},{"name":"amount","type":"uint256","indexed":false,"internalType":"uint256"}],"anonymous":false},{"type":"error","name":"OwnableInvalidOwner","inputs":[{"name":"owner","type":"address","internalType":"address"}]},{"type":"error","name":"OwnableUnauthorizedAccount","inputs":[{"name":"account","type":"address","internalType":"address"}]}],"bytecode":{"object":"0x6080604052348015600e575f80fd5b503380603357604051631e4fbdf760e01b81525f600482015260240160405180910390fd5b603a81603f565b50608e565b5f80546001600160a01b038381166001600160a01b0319831681178455604051919092169283917f8be0079c531659141344cd1fd0a4f28419497f9722a3daafe3b4186f6b6457e09190a35050565b610b648061009b5f395ff3fe608060405260043610610092575f3560e01c8063c16fe90711610057578063c16fe9071461016c578063db6b5246146101cc578063e3d33fc9146101d4578063f2fde38b146101f7578063f8b2cb4f14610216575f80fd5b806347e7ef24146100a5578063715018a6146100c45780638da5cb5b146100d85780639377d71114610103578063beabacc81461014d575f80fd5b366100a15761009f610235565b005b5f80fd5b3480156100b0575f80fd5b5061009f6100bf366004610a1f565b610376565b3480156100cf575f80fd5b5061009f610587565b3480156100e3575f80fd5b505f546040516001600160a01b0390911681526020015b60405180910390f35b34801561010e575f80fd5b5061012261011d366004610a49565b61059a565b604080516001600160a01b0395861681529490931660208501529183015260608201526080016100fa565b348015610158575f80fd5b5061009f610167366004610a60565b6105de565b348015610177575f80fd5b5061018b610186366004610a49565b610841565b6040516100fa919081516001600160a01b03908116825260208084015190911690820152604080830151908201526060918201519181019190915260800190565b61009f6108c9565b3480156101df575f80fd5b506101e960025481565b6040519081526020016100fa565b348015610202575f80fd5b5061009f610211366004610a9e565b6108d1565b348015610221575f80fd5b506101e9610230366004610a9e565b61090e565b604080516080810182523381525f6020820181815234938301938452436060840190815260018054808201825590845293517fb10e2d527612073b26eecdfd717e6a320cf44b4afac2b0732d9fcbe2b7fa0cf6600490950294850180546001600160a01b03199081166001600160a01b039384161790915592517fb10e2d527612073b26eecdfd717e6a320cf44b4afac2b0732d9fcbe2b7fa0cf78601805490941691161790915592517fb10e2d527612073b26eecdfd717e6a320cf44b4afac2b0732d9fcbe2b7fa0cf883015591517fb10e2d527612073b26eecdfd717e6a320cf44b4afac2b0732d9fcbe2b7fa0cf990910155600280549161033883610ac0565b90915550506040513481525f9033907f8752a472e571a816aea92eec8dae9baf628e840f4929fbcc2d155e6233ff68a79060200160405180910390a3565b6001600160a01b0382166103c15760405162461bcd60e51b815260206004820152600d60248201526c24a72b20a624a22faa27a5a2a760991b60448201526064015b60405180910390fd5b6040516323b872dd60e01b8152336004820152306024820152604481018290526001600160a01b038316906323b872dd906064016020604051808303815f875af1158015610411573d5f803e3d5ffd5b505050506040513d601f19601f820116820180604052508101906104359190610ae4565b50604080516080810182523381526001600160a01b038481166020830190815292820184815243606084019081526001805480820182555f918252945160049095027fb10e2d527612073b26eecdfd717e6a320cf44b4afac2b0732d9fcbe2b7fa0cf6810180549686166001600160a01b031997881617905595517fb10e2d527612073b26eecdfd717e6a320cf44b4afac2b0732d9fcbe2b7fa0cf78701805491909516951694909417909255517fb10e2d527612073b26eecdfd717e6a320cf44b4afac2b0732d9fcbe2b7fa0cf8840155517fb10e2d527612073b26eecdfd717e6a320cf44b4afac2b0732d9fcbe2b7fa0cf990920191909155600280549161053e83610ac0565b90915550506040518181526001600160a01b0383169033907f8752a472e571a816aea92eec8dae9baf628e840f4929fbcc2d155e6233ff68a79060200160405180910390a35050565b61058f610990565b6105985f6109bc565b565b600181815481106105a9575f80fd5b5f91825260209091206004909102018054600182015460028301546003909301546001600160a01b0392831694509116919084565b6105e6610990565b6001600160a01b0382166106305760405162461bcd60e51b81526020600482015260116024820152701253959053125117d49150d25412515395607a1b60448201526064016103b8565b6001600160a01b0383166106c7578047101561068e5760405162461bcd60e51b815260206004820152601b60248201527f494e53554646494349454e545f4e41544956455f42414c414e4345000000000060448201526064016103b8565b6040516001600160a01b0383169082156108fc029083905f818181858888f193505050501580156106c1573d5f803e3d5ffd5b506107ef565b6040516370a0823160e01b815230600482015281906001600160a01b038516906370a0823190602401602060405180830381865afa15801561070b573d5f803e3d5ffd5b505050506040513d601f19601f8201168201806040525081019061072f9190610b03565b101561077d5760405162461bcd60e51b815260206004820152601a60248201527f494e53554646494349454e545f544f4b454e5f42414c414e434500000000000060448201526064016103b8565b60405163a9059cbb60e01b81526001600160a01b0383811660048301526024820183905284169063a9059cbb906044016020604051808303815f875af11580156107c9573d5f803e3d5ffd5b505050506040513d601f19601f820116820180604052508101906107ed9190610ae4565b505b826001600160a01b0316826001600160a01b03167fd1ba4ac2e2a11b5101f6cb4d978f514a155b421e8ec396d2d9abaf0bb02917ee8360405161083491815260200190565b60405180910390a3505050565b604080516080810182525f8082526020820181905291810182905260608101919091526001828154811061087757610877610b1a565b5f91825260209182902060408051608081018252600490930290910180546001600160a01b03908116845260018201541693830193909352600283015490820152600390910154606082015292915050565b610598610235565b6108d9610990565b6001600160a01b03811661090257604051631e4fbdf760e01b81525f60048201526024016103b8565b61090b816109bc565b50565b5f6001600160a01b038216610924575047919050565b6040516370a0823160e01b81523060048201526001600160a01b038316906370a0823190602401602060405180830381865afa158015610966573d5f803e3d5ffd5b505050506040513d601f19601f8201168201806040525081019061098a9190610b03565b92915050565b5f546001600160a01b031633146105985760405163118cdaa760e01b81523360048201526024016103b8565b5f80546001600160a01b038381166001600160a01b0319831681178455604051919092169283917f8be0079c531659141344cd1fd0a4f28419497f9722a3daafe3b4186f6b6457e09190a35050565b6001600160a01b038116811461090b575f80fd5b5f8060408385031215610a30575f80fd5b8235610a3b81610a0b565b946020939093013593505050565b5f60208284031215610a59575f80fd5b5035919050565b5f805f60608486031215610a72575f80fd5b8335610a7d81610a0b565b92506020840135610a8d81610a0b565b929592945050506040919091013590565b5f60208284031215610aae575f80fd5b8135610ab981610a0b565b9392505050565b5f60018201610add57634e487b7160e01b5f52601160045260245ffd5b5060010190565b5f60208284031215610af4575f80fd5b81518015158114610ab9575f80fd5b5f60208284031215610b13575f80fd5b5051919050565b634e487b7160e01b5f52603260045260245ffdfea264697066735822122019b9ba94e97e6ca3fbd01c880d26f8a2cd70e79f810be4c94c03d225660122bc64736f6c634300081a0033","linkReferences":{}},"methodIdentifiers":{"deposit(address,uint256)":"47e7ef24","depositNative()":"db6b5246","getBalance(address)":"f8b2cb4f","getTransfer(uint256)":"c16fe907","owner()":"8da5cb5b","renounceOwnership()":"715018a6","transfer(address,address,uint256)":"beabacc8","transferCount()":"e3d33fc9","transferOwnership(address)":"f2fde38b","transfers(uint256)":"9377d711"},"id":95}