{"abi":[{"type":"constructor","inputs":[],"stateMutability":"nonpayable"},{"type":"function","name":"executeMandate","inputs":[{"name":"caller","type":"address","internalType":"address"},{"name":"mandateId","type":"uint16","internalType":"uint16"},{"name":"mandateCalldata","type":"bytes","internalType":"bytes"},{"name":"nonce","type":"uint256","internalType":"uint256"}],"outputs":[{"name":"success","type":"bool","internalType":"bool"}],"stateMutability":"nonpayable"},{"type":"function","name":"getConfig","inputs":[{"name":"powers","type":"address","internalType":"address"},{"name":"mandateId","type":"uint16","internalType":"uint16"}],"outputs":[{"name":"config","type":"bytes","internalType":"bytes"}],"stateMutability":"view"},{"type":"function","name":"getConfigData","inputs":[{"name":"powers","type":"address","internalType":"address"},{"name":"mandateId","type":"uint16","internalType":"uint16"}],"outputs":[{"name":"","type":"tuple","internalType":"struct TreasuryPoolGovernance.ConfigData","components":[{"name":"selectedPoolTransfer","type":"address","internalType":"address"},{"name":"treasuryPools","type":"address","internalType":"address"},{"name":"proposeMandateId","type":"uint16","internalType":"uint16"},{"name":"vetoMandateId","type":"uint16","internalType":"uint16"},{"name":"votingPeriod","type":"uint32","internalType":"uint32"},{"name":"succeedAt","type":"uint8","internalType":"uint8"},{"name":"quorum","type":"uint8","internalType":"uint8"}]}],"stateMutability":"view"},{"type":"function","name":"getInputParams","inputs":[{"name":"powers","type":"address","internalType":"address"},{"name":"mandateId","type":"uint16","internalType":"uint16"}],"outputs":[{"name":"inputParams","type":"bytes","internalType":"bytes"}],"stateMutability":"view"},{"type":"function","name":"getNameDescription","inputs":[{"name":"powers","type":"address","internalType":"address"},{"name":"mandateId","type":"uint16","internalType":"uint16"}],"outputs":[{"name":"nameDescription","type":"string","internalType":"string"}],"stateMutability":"view"},{"type":"function","name":"handleRequest","inputs":[{"name":"","type":"address","internalType":"address"},{"name":"powers","type":"address","internalType":"address"},{"name":"mandateId","type":"uint16","internalType":"uint16"},{"name":"mandateCalldata","type":"bytes","internalType":"bytes"},{"name":"nonce","type":"uint256","internalType":"uint256"}],"outputs":[{"name":"actionId","type":"uint256","internalType":"uint256"},{"name":"targets","type":"address[]","internalType":"address[]"},{"name":"values","type":"uint256[]","internalType":"uint256[]"},{"name":"calldatas","type":"bytes[]","internalType":"bytes[]"}],"stateMutability":"view"},{"type":"function","name":"initializeMandate","inputs":[{"name":"index","type":"uint16","internalType":"uint16"},{"name":"nameDescription","type":"string","internalType":"string"},{"name":"inputParams","type":"bytes","internalType":"bytes"},{"name":"config","type":"bytes","internalType":"bytes"}],"outputs":[],"stateMutability":"nonpayable"},{"type":"function","name":"mandateConfig","inputs":[{"name":"mandateHash","type":"bytes32","internalType":"bytes32"}],"outputs":[{"name":"selectedPoolTransfer","type":"address","internalType":"address"},{"name":"treasuryPools","type":"address","internalType":"address"},{"name":"proposeMandateId","type":"uint16","internalType":"uint16"},{"name":"vetoMandateId","type":"uint16","internalType":"uint16"},{"name":"votingPeriod","type":"uint32","internalType":"uint32"},{"name":"succeedAt","type":"uint8","internalType":"uint8"},{"name":"quorum","type":"uint8","internalType":"uint8"}],"stateMutability":"view"},{"type":"function","name":"mandates","inputs":[{"name":"mandateHash","type":"bytes32","internalType":"bytes32"}],"outputs":[{"name":"nameDescription","type":"string","internalType":"string"},{"name":"inputParams","type":"bytes","internalType":"bytes"},{"name":"config","type":"bytes","internalType":"bytes"},{"name":"powers","type":"address","internalType":"address"}],"stateMutability":"view"},{"type":"function","name":"supportsInterface","inputs":[{"name":"interfaceId","type":"bytes4","internalType":"bytes4"}],"outputs":[{"name":"","type":"bool","internalType":"bool"}],"stateMutability":"view"},{"type":"event","name":"Mandate__Deployed","inputs":[{"name":"configParams","type":"bytes","indexed":false,"internalType":"bytes"}],"anonymous":false},{"type":"event","name":"Mandate__Initialized","inputs":[{"name":"powers","type":"address","indexed":true,"internalType":"address"},{"name":"index","type":"uint16","indexed":true,"internalType":"uint16"},{"name":"nameDescription","type":"string","indexed":false,"internalType":"string"},{"name":"inputParams","type":"bytes","indexed":false,"internalType":"bytes"},{"name":"config","type":"bytes","indexed":false,"internalType":"bytes"}],"anonymous":false},{"type":"error","name":"CannotDecodePoolId","inputs":[]},{"type":"error","name":"CannotDecodeSourceInputs","inputs":[]},{"type":"error","name":"InvalidSourceAction","inputs":[]},{"type":"error","name":"MandateNotConfigured","inputs":[]}],"bytecode":{"object":"0x608060405234801561000f575f80fd5b505f6040516020016100209061006e565b60405160208183030381529060405290507fc5389813cde4ae9e760a24ddd7e7ee31b82b36b1077e156cdcad4547bf7692e18160405161006091906101d1565b60405180910390a150610206565b60e08152601c60e08201527f616464726573732073656c6563746564506f6f6c5472616e7366657200000000610100820152610120602082015260156101208201527f61646472657373205472656173757279506f6f6c73000000000000000000000061014082015261016060408201525f6101186101608301601481527f75696e7431362070726f706f73616c4c61774964000000000000000000000000602082015260400190565b8281036060840152601081526f1d5a5b9d0c4d881d995d1bd3185dd25960821b6020820152604081018381036080850152601381527f75696e74333220766f74696e67506572696f6400000000000000000000000000602082015290506040810183810360a0850152600f81526e1d5a5b9d0e081cdd58d8d95959105d608a1b602082015290506040810183810360c0850152600c81526b75696e74382071756f72756d60a01b60208201529050604081019392505050565b602081525f82518060208401528060208501604085015e5f604082850101526040601f19601f83011684010191505092915050565b612737806102135f395ff3fe608060405234801561000f575f80fd5b50600436106100b9575f3560e01c80637bf5b2fb11610072578063d8a941f411610058578063d8a941f414610186578063e33459a314610199578063eb5a1b7c146101b9575f80fd5b80637bf5b2fb14610160578063c0d27aad14610173575f80fd5b80630d157721116100a25780630d157721146100fa5780630db07d581461011a578063552cb3721461013d575f80fd5b806301ffc9a7146100bd578063040b1100146100e5575b5f80fd5b6100d06100cb36600461194f565b61027b565b60405190151581526020015b60405180910390f35b6100f86100f3366004611a7e565b6102b1565b005b61010d610108366004611b46565b6105db565b6040516100dc9190611bab565b61012d610128366004611bbd565b610704565b6040516100dc9493929190611bd4565b61015061014b366004611c27565b6108c6565b6040516100dc9493929190611d6c565b6100d061016e366004611db5565b61104c565b61010d610181366004611b46565b6111a3565b61010d610194366004611b46565b611249565b6101ac6101a7366004611b46565b6112ef565b6040516100dc9190611e4a565b6102286101c7366004611bbd565b600160208190525f918252604090912080549101546001600160a01b039182169181169061ffff600160a01b8204811691600160b01b81049091169063ffffffff600160c01b8204169060ff600160e01b8204811691600160e81b90041687565b604080516001600160a01b03988916815297909616602088015261ffff9485169587019590955292909116606085015263ffffffff16608084015260ff90811660a08401521660c082015260e0016100dc565b5f6001600160e01b03198216632ad2108960e01b14806102ab57506301ffc9a760e01b6001600160e01b03198316145b92915050565b5f805f805f805f878060200190518101906102cc9190611f00565b96509650965096509650965096505f73__$da6f5012babb472fe138ca3bf3d5984061$__63cae5c9f8338e6040518363ffffffff1660e01b815260040161032c9291906001600160a01b0392909216825261ffff16602082015260400190565b602060405180830381865af4158015610347573d5f803e3d5ffd5b505050506040513d601f19601f8201168201806040525081019061036b9190611f8c565b905060405160200161041a9060608082526014908201527f6164647265737320546f6b656e41646472657373000000000000000000000000608082015260a060208201819052600e908201527f75696e743235362042756467657400000000000000000000000000000000000060c082015260e0604082018190526015908201527f75696e74323536204d616e61676572526f6c65496400000000000000000000006101008201526101200190565b60408051601f1981840301815260e0830182526001600160a01b03808c1684528a8116602085810191825261ffff808d168787019081528c82166060890190815263ffffffff808e1660808b0190815260ff808f1660a08d019081528e821660c08e019081525f8f81526001998a90529c909c209c518d54908b1673ffffffffffffffffffffffffffffffffffffffff19909116178d5597519b909601805494519351915197519a518716600160e81b027fffff00ffffffffffffffffffffffffffffffffffffffffffffffffffffffffff9b909716600160e01b029a909a167fffff0000ffffffffffffffffffffffffffffffffffffffffffffffffffffffff97909216600160c01b027fffffffff00000000ffffffffffffffffffffffffffffffffffffffffffffffff918616600160b01b02919091167fffffffff000000000000ffffffffffffffffffffffffffffffffffffffffffff93909516600160a01b027fffffffffffffffffffff000000000000000000000000000000000000000000009094169a9097169990991791909117161792909217169390931792909217905599506105cd8c8c8c8c61147b565b505050505050505050505050565b60405163195cb93f60e31b81526001600160a01b038316600482015261ffff821660248201526060905f90819073__$da6f5012babb472fe138ca3bf3d5984061$__9063cae5c9f890604401602060405180830381865af4158015610642573d5f803e3d5ffd5b505050506040513d601f19601f820116820180604052508101906106669190611f8c565b81526020019081526020015f205f01805461068090611fa3565b80601f01602080910402602001604051908101604052809291908181526020018280546106ac90611fa3565b80156106f75780601f106106ce576101008083540402835291602001916106f7565b820191905f5260205f20905b8154815290600101906020018083116106da57829003601f168201915b5050505050905092915050565b5f6020819052908152604090208054819061071e90611fa3565b80601f016020809104026020016040519081016040528092919081815260200182805461074a90611fa3565b80156107955780601f1061076c57610100808354040283529160200191610795565b820191905f5260205f20905b81548152906001019060200180831161077857829003601f168201915b5050505050908060010180546107aa90611fa3565b80601f01602080910402602001604051908101604052809291908181526020018280546107d690611fa3565b80156108215780601f106107f857610100808354040283529160200191610821565b820191905f5260205f20905b81548152906001019060200180831161080457829003601f168201915b50505050509080600201805461083690611fa3565b80601f016020809104026020016040519081016040528092919081815260200182805461086290611fa3565b80156108ad5780601f10610884576101008083540402835291602001916108ad565b820191905f5260205f20905b81548152906001019060200180831161089057829003601f168201915b505050600390930154919250506001600160a01b031684565b60405163195cb93f60e31b81526001600160a01b038516600482015261ffff841660248201525f9060609081908190849073__$da6f5012babb472fe138ca3bf3d5984061$__9063cae5c9f890604401602060405180830381865af4158015610931573d5f803e3d5ffd5b505050506040513d601f19601f820116820180604052508101906109559190611f8c565b5f81815260016020818152604092839020835160e08101855281546001600160a01b039081168252919093015490811691830182905261ffff600160a01b8204811694840194909452600160b01b8104909316606083015263ffffffff600160c01b840416608083015260ff600160e01b8404811660a0840152600160e81b90930490921660c0820152919250610a335760405162461bcd60e51b815260206004820152601260248201527f4c6177204e6f7420436f6e66696775726564000000000000000000000000000060448201526064015b60405180910390fd5b610a3b61183a565b60405163831af37960e01b815261ffff8b1660048201525f906001600160a01b038d169063831af3799060240161010060405180830381865afa158015610a84573d5f803e3d5ffd5b505050506040513d601f19601f82011682018060405250810190610aa89190611fdb565b9050806080015161ffff165f03610b015760405162461bcd60e51b815260206004820152601160248201527f46756c66696c6c6564206e6f74207365740000000000000000000000000000006044820152606401610a2a565b6080810151604051630bcec85560e01b815273__$da6f5012babb472fe138ca3bf3d5984061$__91630bcec85591610b4091908e908e9060040161207a565b602060405180830381865af4158015610b5b573d5f803e3d5ffd5b505050506040513d601f19601f82011682018060405250810190610b7f9190611f8c565b808352604051634583476b60e01b815260048101919091526001600160a01b038d1690634583476b9060240160e060405180830381865afa158015610bc6573d5f803e3d5ffd5b505050506040513d601f19601f82011682018060405250810190610bea91906120bb565b50505065ffffffffffff166040860181905261ffff909316602086015250505f03610c2857604051630f7f29e160e11b815260040160405180910390fd5b81516040516341bd157d60e01b815260048101919091525f60248201526001600160a01b038d16906341bd157d906044015f60405180830381865afa158015610c73573d5f803e3d5ffd5b505050506040513d5f823e601f3d908101601f19168201604052610c9a919081019061218c565b606083018190528051610cb591602091810182019101611f8c565b608083018190525f03610d0a5760405162461bcd60e51b815260206004820152601460248201527f43616e6e6f74206465636f646520706f6f6c49640000000000000000000000006044820152606401610a2a565b89806020019051810190610d1e91906121c6565b60c08501525050604080516301022e5160e61b815290516001600160a01b038e169163408b94409160048083019260209291908290030181865afa158015610d68573d5f803e3d5ffd5b505050506040513d601f19601f82011682018060405250810190610d8c91906121fa565b61ffff166101008301526080820151610da49061164e565b604051602001610db49190612215565b60405160208183030381529060405282610120018190525082602001518260800151604051602001610dfb9291906001600160a01b03929092168252602082015260400190565b60408051808303601f19018152918152610160840191825260c0808501516101a08601805191909152608087810151825163ffffffff90911660209182015260a0808a0151845160ff91821660e0909101528a8601518551911695019490945288850151835161ffff918216908401526060808b015185519216919095015284519182018552610120880151825288516001600160a01b03169082015293518484015251908301526101808401919091525163054591f760e11b81526001600482015273__$da6f5012babb472fe138ca3bf3d5984061$__90630a8b23ee906024015f60405180830381865af4158015610ef7573d5f803e3d5ffd5b505050506040513d5f823e601f3d908101601f19168201604052610f1e9190810190612368565b825192995090975095508c9088905f90610f3a57610f3a612458565b6001600160a01b039092166020928302919091019091015261018082015160405163a3a86b4760e01b91610f709160240161246c565b604051602081830303815290604052906001600160e01b0319166020820180516001600160e01b038381831617835250505050855f81518110610fb557610fb5612458565b6020908102919091010152604051630bcec85560e01b815273__$da6f5012babb472fe138ca3bf3d5984061$__90630bcec85590610ffb908e908e908e9060040161207a565b602060405180830381865af4158015611016573d5f803e3d5ffd5b505050506040513d601f19601f8201168201806040525081019061103a9190611f8c565b97505050505095509550955095915050565b60405163195cb93f60e31b815233600482015261ffff851660248201525f90819073__$da6f5012babb472fe138ca3bf3d5984061$__9063cae5c9f890604401602060405180830381865af41580156110a7573d5f803e3d5ffd5b505050506040513d601f19601f820116820180604052508101906110cb9190611f8c565b5f818152602081905260409020600301549091506001600160a01b031633146111365760405162461bcd60e51b815260206004820152600b60248201527f4f6e6c7920506f776572730000000000000000000000000000000000000000006044820152606401610a2a565b5f805f8061117d8b338c8c8c8080601f0160208091040260200160405190810160405280939291908181526020018383808284375f920191909152508e92506108c6915050565b93509350935093506111928a858585856116f3565b5060019a9950505050505050505050565b60405163195cb93f60e31b81526001600160a01b038316600482015261ffff821660248201526060905f90819073__$da6f5012babb472fe138ca3bf3d5984061$__9063cae5c9f890604401602060405180830381865af415801561120a573d5f803e3d5ffd5b505050506040513d601f19601f8201168201806040525081019061122e9190611f8c565b81526020019081526020015f20600201805461068090611fa3565b60405163195cb93f60e31b81526001600160a01b038316600482015261ffff821660248201526060905f90819073__$da6f5012babb472fe138ca3bf3d5984061$__9063cae5c9f890604401602060405180830381865af41580156112b0573d5f803e3d5ffd5b505050506040513d601f19601f820116820180604052508101906112d49190611f8c565b81526020019081526020015f20600101805461068090611fa3565b6040805160e0810182525f80825260208201819052918101829052606081018290526080810182905260a0810182905260c081019190915260405163195cb93f60e31b81526001600160a01b038416600482015261ffff831660248201525f9073__$da6f5012babb472fe138ca3bf3d5984061$__9063cae5c9f890604401602060405180830381865af4158015611389573d5f803e3d5ffd5b505050506040513d601f19601f820116820180604052508101906113ad9190611f8c565b5f81815260016020819052604090912001549091506001600160a01b03166113e857604051631546598b60e01b815260040160405180910390fd5b5f90815260016020818152604092839020835160e08101855281546001600160a01b03908116825291909301549081169183019190915261ffff600160a01b8204811693830193909352600160b01b8104909216606082015263ffffffff600160c01b830416608082015260ff600160e01b8304811660a0830152600160e81b90920490911660c0820152905092915050565b60405163195cb93f60e31b815233600482015261ffff851660248201525f9073__$da6f5012babb472fe138ca3bf3d5984061$__9063cae5c9f890604401602060405180830381865af41580156114d4573d5f803e3d5ffd5b505050506040513d601f19601f820116820180604052508101906114f89190611f8c565b60405163cb4a15c560e01b815290915073__$da6f5012babb472fe138ca3bf3d5984061$__9063cb4a15c59061153890879060019060ff90600401612543565b5f6040518083038186803b15801561154e575f80fd5b505af4158015611560573d5f803e3d5ffd5b50506040805160808101825287815260208082018890528183018790523360608301525f86815290819052919091208151919350915081906115a290826125b0565b50602082015160018201906115b790826125b0565b50604082015160028201906115cc90826125b0565b50606091909101516003909101805473ffffffffffffffffffffffffffffffffffffffff19166001600160a01b0390921691909117905560405161ffff86169033907f3325fccc62d4919a3b0d34ea1fe03878a5248dd1bc36dd8d4316eafc2b8d0adf9061163f9088908890889061266b565b60405180910390a35050505050565b60605f61165a83611759565b60010190505f8167ffffffffffffffff8111156116795761167961198f565b6040519080825280601f01601f1916602001820160405280156116a3576020820181803683370190505b5090508181016020015b5f19017f3031323334353637383961626364656600000000000000000000000000000000600a86061a8153600a85049450846116ad575b509392505050565b5050505050565b8251156116ec57604051630de6a60160e01b81523390630de6a6019061172590889088908890889088906004016126ad565b5f604051808303815f87803b15801561173c575f80fd5b505af115801561174e573d5f803e3d5ffd5b505050505050505050565b5f807a184f03e93ff9f4daa797ed6e38ed64bf6a1f01000000000000000083106117a1577a184f03e93ff9f4daa797ed6e38ed64bf6a1f010000000000000000830492506040015b6d04ee2d6d415b85acef810000000083106117cd576d04ee2d6d415b85acef8100000000830492506020015b662386f26fc1000083106117eb57662386f26fc10000830492506010015b6305f5e1008310611803576305f5e100830492506008015b612710831061181757612710830492506004015b60648310611829576064830492506002015b600a83106102ab5760010192915050565b604051806101c001604052805f81526020015f61ffff1681526020015f65ffffffffffff168152602001606081526020015f8152602001606081526020015f8152602001606081526020015f61ffff168152602001606081526020016060815260200160608152602001611909604080516080808201835260608083525f602080850182905284860183905285516101008101875282815290810182905294850181905284820181905291840182905260a0840182905260c0840182905260e084019190915290919082015290565b815260408051610100810182525f8082526020828101829052928201819052606082018190526080820181905260a0820181905260c0820181905260e082015291015290565b5f6020828403121561195f575f80fd5b81356001600160e01b031981168114611976575f80fd5b9392505050565b61ffff8116811461198c575f80fd5b50565b634e487b7160e01b5f52604160045260245ffd5b604051610100810167ffffffffffffffff811182821017156119c7576119c761198f565b60405290565b604051601f8201601f1916810167ffffffffffffffff811182821017156119f6576119f661198f565b604052919050565b5f67ffffffffffffffff821115611a1757611a1761198f565b50601f01601f191660200190565b5f611a37611a32846119fe565b6119cd565b9050828152838383011115611a4a575f80fd5b828260208301375f602084830101529392505050565b5f82601f830112611a6f575f80fd5b61197683833560208501611a25565b5f805f8060808587031215611a91575f80fd5b8435611a9c8161197d565b9350602085013567ffffffffffffffff811115611ab7575f80fd5b8501601f81018713611ac7575f80fd5b611ad687823560208401611a25565b935050604085013567ffffffffffffffff811115611af2575f80fd5b611afe87828801611a60565b925050606085013567ffffffffffffffff811115611b1a575f80fd5b611b2687828801611a60565b91505092959194509250565b6001600160a01b038116811461198c575f80fd5b5f8060408385031215611b57575f80fd5b8235611b6281611b32565b91506020830135611b728161197d565b809150509250929050565b5f81518084528060208401602086015e5f602082860101526020601f19601f83011685010191505092915050565b602081525f6119766020830184611b7d565b5f60208284031215611bcd575f80fd5b5035919050565b608081525f611be66080830187611b7d565b8281036020840152611bf88187611b7d565b90508281036040840152611c0c8186611b7d565b9150506001600160a01b038316606083015295945050505050565b5f805f805f60a08688031215611c3b575f80fd5b8535611c4681611b32565b94506020860135611c5681611b32565b93506040860135611c668161197d565b9250606086013567ffffffffffffffff811115611c81575f80fd5b611c8d88828901611a60565b95989497509295608001359392505050565b5f8151808452602084019350602083015f5b82811015611cd85781516001600160a01b0316865260209586019590910190600101611cb1565b5093949350505050565b5f8151808452602084019350602083015f5b82811015611cd8578151865260209586019590910190600101611cf4565b5f82825180855260208501945060208160051b830101602085015f5b83811015611d6057601f19858403018852611d4a838351611b7d565b6020988901989093509190910190600101611d2e565b50909695505050505050565b848152608060208201525f611d846080830186611c9f565b8281036040840152611d968186611ce2565b90508281036060840152611daa8185611d12565b979650505050505050565b5f805f805f60808688031215611dc9575f80fd5b8535611dd481611b32565b94506020860135611de48161197d565b9350604086013567ffffffffffffffff811115611dff575f80fd5b8601601f81018813611e0f575f80fd5b803567ffffffffffffffff811115611e25575f80fd5b886020828401011115611e36575f80fd5b959894975060200195606001359392505050565b5f60e0820190506001600160a01b0383511682526001600160a01b03602084015116602083015261ffff604084015116604083015261ffff606084015116606083015263ffffffff608084015116608083015260a0830151611eb160a084018260ff169052565b5060c0830151611ec660c084018260ff169052565b5092915050565b8051611ed88161197d565b919050565b805163ffffffff81168114611ed8575f80fd5b805160ff81168114611ed8575f80fd5b5f805f805f805f60e0888a031215611f16575f80fd5b8751611f2181611b32565b6020890151909750611f3281611b32565b6040890151909650611f438161197d565b6060890151909550611f548161197d565b9350611f6260808901611edd565b9250611f7060a08901611ef0565b9150611f7e60c08901611ef0565b905092959891949750929550565b5f60208284031215611f9c575f80fd5b5051919050565b600181811c90821680611fb757607f821691505b602082108103611fd557634e487b7160e01b5f52602260045260245ffd5b50919050565b5f610100828403128015611fed575f80fd5b50611ff66119a3565b8251815261200660208401611edd565b602082015261201760408401611edd565b604082015261202860608401611edd565b6060820152608083015161203b8161197d565b608082015261204c60a08401611ecd565b60a082015261205d60c08401611ef0565b60c082015261206e60e08401611ef0565b60e08201529392505050565b61ffff84168152606060208201525f6120966060830185611b7d565b9050826040830152949350505050565b805165ffffffffffff81168114611ed8575f80fd5b5f805f805f805f60e0888a0312156120d1575f80fd5b87516120dc8161197d565b96506120ea602089016120a6565b95506120f8604089016120a6565b9450612106606089016120a6565b9350612114608089016120a6565b925060a088015161212481611b32565b60c09890980151969995985093969295919492935090919050565b5f82601f83011261214e575f80fd5b815161215c611a32826119fe565b818152846020838601011115612170575f80fd5b8160208501602083015e5f918101602001919091529392505050565b5f6020828403121561219c575f80fd5b815167ffffffffffffffff8111156121b2575f80fd5b6121be8482850161213f565b949350505050565b5f805f606084860312156121d8575f80fd5b83516121e381611b32565b602085015160409095015190969495509392505050565b5f6020828403121561220a575f80fd5b81516119768161197d565b6402837b7b6160dd1b81525f82518060208501600585015e7f2045786563757465205472616e736665720000000000000000000000000000006005939091019283015250601601919050565b5f67ffffffffffffffff82111561227a5761227a61198f565b5060051b60200190565b5f82601f830112612293575f80fd5b81516122a1611a3282612261565b8082825260208201915060208360051b8601019250858311156122c2575f80fd5b602085015b838110156122df5780518352602092830192016122c7565b5095945050505050565b5f82601f8301126122f8575f80fd5b8151612306611a3282612261565b8082825260208201915060208360051b860101925085831115612327575f80fd5b602085015b838110156122df57805167ffffffffffffffff81111561234a575f80fd5b612359886020838a010161213f565b8452506020928301920161232c565b5f805f6060848603121561237a575f80fd5b835167ffffffffffffffff811115612390575f80fd5b8401601f810186136123a0575f80fd5b80516123ae611a3282612261565b8082825260208201915060208360051b8501019250888311156123cf575f80fd5b6020840193505b828410156123fa5783516123e981611b32565b8252602093840193909101906123d6565b80965050505050602084015167ffffffffffffffff81111561241a575f80fd5b61242686828701612284565b925050604084015167ffffffffffffffff811115612442575f80fd5b61244e868287016122e9565b9150509250925092565b634e487b7160e01b5f52603260045260245ffd5b602081525f82516101606020840152612489610180840182611b7d565b90506001600160a01b0360208501511660408401526040840151601f198483030160608501526124b98282611b7d565b91505060608401518051608085015263ffffffff60208201511660a085015263ffffffff60408201511660c085015263ffffffff60608201511660e0850152608081015161250e61010086018261ffff169052565b5060a081015161ffff81166101208601525060c081015160ff81166101408601525060e0015160ff81166101608501526116e4565b606081525f6125556060830186611b7d565b60208301949094525060400152919050565b601f8211156125ab57805f5260205f20601f840160051c8101602085101561258c5750805b601f840160051c820191505b818110156116ec575f8155600101612598565b505050565b815167ffffffffffffffff8111156125ca576125ca61198f565b6125de816125d88454611fa3565b84612567565b6020601f821160018114612610575f83156125f95750848201515b5f19600385901b1c1916600184901b1784556116ec565b5f84815260208120601f198516915b8281101561263f578785015182556020948501946001909201910161261f565b508482101561265c57868401515f19600387901b60f8161c191681555b50505050600190811b01905550565b606081525f61267d6060830186611b7d565b828103602084015261268f8186611b7d565b905082810360408401526126a38185611b7d565b9695505050505050565b61ffff8616815284602082015260a060408201525f6126cf60a0830186611c9f565b82810360608401526126e18186611ce2565b905082810360808401526126f58185611d12565b9897505050505050505056fea2646970667358221220bfe43035b8873aab06dba35d8e1713de7f371b4151c9aea9d3fb21dfe74d36c064736f6c634300081a0033","linkReferences":{"src/libraries/MandateUtilities.sol":{"MandateUtilities":[{"start":1264,"length":20},{"start":2077,"length":20},{"start":2828,"length":20},{"start":3368,"length":20},{"start":4307,"length":20},{"start":4578,"length":20},{"start":4738,"length":20},{"start":5093,"length":20},{"start":5259,"length":20},{"start":5476,"length":20},{"start":5807,"length":20},{"start":5917,"length":20}]}}},"methodIdentifiers":{"executeMandate(address,uint16,bytes,uint256)":"7bf5b2fb","getConfig(address,uint16)":"c0d27aad","getConfigData(address,uint16)":"e33459a3","getInputParams(address,uint16)":"d8a941f4","getNameDescription(address,uint16)":"0d157721","handleRequest(address,address,uint16,bytes,uint256)":"552cb372","initializeMandate(uint16,string,bytes,bytes)":"040b1100","mandateConfig(bytes32)":"eb5a1b7c","mandates(bytes32)":"0db07d58","supportsInterface(bytes4)":"01ffc9a7"},"id":168}