{
    "abi": [
        {
            "type": "receive",
            "stateMutability": "payable"
        },
        {
            "type": "function",
            "name": "createPool",
            "inputs": [
                {
                    "name": "_tokenAddress",
                    "type": "address",
                    "internalType": "address"
                },
                {
                    "name": "_initialBudget",
                    "type": "uint256",
                    "internalType": "uint256"
                },
                {
                    "name": "_roleId",
                    "type": "uint256",
                    "internalType": "uint256"
                }
            ],
            "outputs": [],
            "stateMutability": "nonpayable"
        },
        {
            "type": "function",
            "name": "deletePool",
            "inputs": [
                {
                    "name": "_poolId",
                    "type": "uint256",
                    "internalType": "uint256"
                }
            ],
            "outputs": [],
            "stateMutability": "nonpayable"
        },
        {
            "type": "function",
            "name": "deposit",
            "inputs": [
                {
                    "name": "_token",
                    "type": "address",
                    "internalType": "address"
                },
                {
                    "name": "_amount",
                    "type": "uint256",
                    "internalType": "uint256"
                }
            ],
            "outputs": [],
            "stateMutability": "nonpayable"
        },
        {
            "type": "function",
            "name": "depositNative",
            "inputs": [],
            "outputs": [],
            "stateMutability": "payable"
        },
        {
            "type": "function",
            "name": "getBalance",
            "inputs": [
                {
                    "name": "_token",
                    "type": "address",
                    "internalType": "address"
                }
            ],
            "outputs": [
                {
                    "name": "",
                    "type": "uint256",
                    "internalType": "uint256"
                }
            ],
            "stateMutability": "view"
        },
        {
            "type": "function",
            "name": "getPool",
            "inputs": [
                {
                    "name": "_poolId",
                    "type": "uint256",
                    "internalType": "uint256"
                }
            ],
            "outputs": [
                {
                    "name": "",
                    "type": "tuple",
                    "internalType": "struct TreasuryPools.Pool",
                    "components": [
                        {
                            "name": "tokenAddress",
                            "type": "address",
                            "internalType": "address"
                        },
                        {
                            "name": "budget",
                            "type": "uint256",
                            "internalType": "uint256"
                        },
                        {
                            "name": "roleId",
                            "type": "uint256",
                            "internalType": "uint256"
                        }
                    ]
                }
            ],
            "stateMutability": "view"
        },
        {
            "type": "function",
            "name": "getTransfer",
            "inputs": [
                {
                    "name": "_index",
                    "type": "uint256",
                    "internalType": "uint256"
                }
            ],
            "outputs": [
                {
                    "name": "",
                    "type": "tuple",
                    "internalType": "struct TreasurySimple.TransferLog",
                    "components": [
                        {
                            "name": "from",
                            "type": "address",
                            "internalType": "address"
                        },
                        {
                            "name": "token",
                            "type": "address",
                            "internalType": "address"
                        },
                        {
                            "name": "amount",
                            "type": "uint256",
                            "internalType": "uint256"
                        },
                        {
                            "name": "blockNumber",
                            "type": "uint256",
                            "internalType": "uint256"
                        }
                    ]
                }
            ],
            "stateMutability": "view"
        },
        {
            "type": "function",
            "name": "increaseBudget",
            "inputs": [
                {
                    "name": "_poolId",
                    "type": "uint256",
                    "internalType": "uint256"
                },
                {
                    "name": "_amount",
                    "type": "uint256",
                    "internalType": "uint256"
                }
            ],
            "outputs": [],
            "stateMutability": "nonpayable"
        },
        {
            "type": "function",
            "name": "owner",
            "inputs": [],
            "outputs": [
                {
                    "name": "",
                    "type": "address",
                    "internalType": "address"
                }
            ],
            "stateMutability": "view"
        },
        {
            "type": "function",
            "name": "poolCount",
            "inputs": [],
            "outputs": [
                {
                    "name": "",
                    "type": "uint256",
                    "internalType": "uint256"
                }
            ],
            "stateMutability": "view"
        },
        {
            "type": "function",
            "name": "pools",
            "inputs": [
                {
                    "name": "",
                    "type": "uint256",
                    "internalType": "uint256"
                }
            ],
            "outputs": [
                {
                    "name": "tokenAddress",
                    "type": "address",
                    "internalType": "address"
                },
                {
                    "name": "budget",
                    "type": "uint256",
                    "internalType": "uint256"
                },
                {
                    "name": "roleId",
                    "type": "uint256",
                    "internalType": "uint256"
                }
            ],
            "stateMutability": "view"
        },
        {
            "type": "function",
            "name": "renounceOwnership",
            "inputs": [],
            "outputs": [],
            "stateMutability": "nonpayable"
        },
        {
            "type": "function",
            "name": "totalAllocatedBudgets",
            "inputs": [
                {
                    "name": "",
                    "type": "address",
                    "internalType": "address"
                }
            ],
            "outputs": [
                {
                    "name": "",
                    "type": "uint256",
                    "internalType": "uint256"
                }
            ],
            "stateMutability": "view"
        },
        {
            "type": "function",
            "name": "transfer",
            "inputs": [
                {
                    "name": "_token",
                    "type": "address",
                    "internalType": "address"
                },
                {
                    "name": "_to",
                    "type": "address",
                    "internalType": "address payable"
                },
                {
                    "name": "_amount",
                    "type": "uint256",
                    "internalType": "uint256"
                }
            ],
            "outputs": [],
            "stateMutability": "nonpayable"
        },
        {
            "type": "function",
            "name": "transfer",
            "inputs": [
                {
                    "name": "_poolId",
                    "type": "uint256",
                    "internalType": "uint256"
                },
                {
                    "name": "_to",
                    "type": "address",
                    "internalType": "address payable"
                },
                {
                    "name": "_amount",
                    "type": "uint256",
                    "internalType": "uint256"
                }
            ],
            "outputs": [],
            "stateMutability": "nonpayable"
        },
        {
            "type": "function",
            "name": "transferCount",
            "inputs": [],
            "outputs": [
                {
                    "name": "",
                    "type": "uint256",
                    "internalType": "uint256"
                }
            ],
            "stateMutability": "view"
        },
        {
            "type": "function",
            "name": "transferOwnership",
            "inputs": [
                {
                    "name": "newOwner",
                    "type": "address",
                    "internalType": "address"
                }
            ],
            "outputs": [],
            "stateMutability": "nonpayable"
        },
        {
            "type": "function",
            "name": "transfers",
            "inputs": [
                {
                    "name": "",
                    "type": "uint256",
                    "internalType": "uint256"
                }
            ],
            "outputs": [
                {
                    "name": "from",
                    "type": "address",
                    "internalType": "address"
                },
                {
                    "name": "token",
                    "type": "address",
                    "internalType": "address"
                },
                {
                    "name": "amount",
                    "type": "uint256",
                    "internalType": "uint256"
                },
                {
                    "name": "blockNumber",
                    "type": "uint256",
                    "internalType": "uint256"
                }
            ],
            "stateMutability": "view"
        },
        {
            "type": "event",
            "name": "BudgetIncreased",
            "inputs": [
                {
                    "name": "poolId",
                    "type": "uint256",
                    "indexed": true,
                    "internalType": "uint256"
                },
                {
                    "name": "amount",
                    "type": "uint256",
                    "indexed": false,
                    "internalType": "uint256"
                }
            ],
            "anonymous": false
        },
        {
            "type": "event",
            "name": "Deposited",
            "inputs": [
                {
                    "name": "from",
                    "type": "address",
                    "indexed": true,
                    "internalType": "address"
                },
                {
                    "name": "token",
                    "type": "address",
                    "indexed": true,
                    "internalType": "address"
                },
                {
                    "name": "amount",
                    "type": "uint256",
                    "indexed": false,
                    "internalType": "uint256"
                }
            ],
            "anonymous": false
        },
        {
            "type": "event",
            "name": "OwnershipTransferred",
            "inputs": [
                {
                    "name": "previousOwner",
                    "type": "address",
                    "indexed": true,
                    "internalType": "address"
                },
                {
                    "name": "newOwner",
                    "type": "address",
                    "indexed": true,
                    "internalType": "address"
                }
            ],
            "anonymous": false
        },
        {
            "type": "event",
            "name": "PoolCreated",
            "inputs": [
                {
                    "name": "poolId",
                    "type": "uint256",
                    "indexed": true,
                    "internalType": "uint256"
                },
                {
                    "name": "tokenAddress",
                    "type": "address",
                    "indexed": true,
                    "internalType": "address"
                },
                {
                    "name": "budget",
                    "type": "uint256",
                    "indexed": false,
                    "internalType": "uint256"
                },
                {
                    "name": "roleId",
                    "type": "uint256",
                    "indexed": false,
                    "internalType": "uint256"
                }
            ],
            "anonymous": false
        },
        {
            "type": "event",
            "name": "PoolDeleted",
            "inputs": [
                {
                    "name": "poolId",
                    "type": "uint256",
                    "indexed": true,
                    "internalType": "uint256"
                }
            ],
            "anonymous": false
        },
        {
            "type": "event",
            "name": "Transferred",
            "inputs": [
                {
                    "name": "poolId",
                    "type": "uint256",
                    "indexed": true,
                    "internalType": "uint256"
                },
                {
                    "name": "to",
                    "type": "address",
                    "indexed": true,
                    "internalType": "address"
                },
                {
                    "name": "amount",
                    "type": "uint256",
                    "indexed": false,
                    "internalType": "uint256"
                }
            ],
            "anonymous": false
        },
        {
            "type": "event",
            "name": "Transferred",
            "inputs": [
                {
                    "name": "to",
                    "type": "address",
                    "indexed": true,
                    "internalType": "address"
                },
                {
                    "name": "token",
                    "type": "address",
                    "indexed": true,
                    "internalType": "address"
                },
                {
                    "name": "amount",
                    "type": "uint256",
                    "indexed": false,
                    "internalType": "uint256"
                }
            ],
            "anonymous": false
        },
        {
            "type": "error",
            "name": "OwnableInvalidOwner",
            "inputs": [
                {
                    "name": "owner",
                    "type": "address",
                    "internalType": "address"
                }
            ]
        },
        {
            "type": "error",
            "name": "OwnableUnauthorizedAccount",
            "inputs": [
                {
                    "name": "account",
                    "type": "address",
                    "internalType": "address"
                }
            ]
        }
    ],
    "bytecode": {
        "object": "0x6080604052348015600e575f80fd5b503380603357604051631e4fbdf760e01b81525f600482015260240160405180910390fd5b603a81603f565b50608e565b5f80546001600160a01b038381166001600160a01b0319831681178455604051919092169283917f8be0079c531659141344cd1fd0a4f28419497f9722a3daafe3b4186f6b6457e09190a35050565b61130f8061009b5f395ff3fe608060405260043610610108575f3560e01c8063beabacc811610092578063f2fde38b11610062578063f2fde38b14610389578063f525cb68146103a8578063f6c2d292146103bd578063f8548e36146103dc578063f8b2cb4f146103fb575f80fd5b8063beabacc8146102ed578063c16fe9071461030c578063db6b52461461036c578063e3d33fc914610374575f80fd5b806392fcb94c116100d857806392fcb94c146101c35780639377d711146101fc578063ac4afa3814610246578063b039ddf6146102af578063b26590f3146102ce575f80fd5b8063068bcd8d1461011b57806347e7ef241461016a578063715018a6146101895780638da5cb5b1461019d575f80fd5b366101175761011561041a565b005b5f80fd5b348015610126575f80fd5b5061013a6101353660046110ec565b61055b565b6040805182516001600160a01b031681526020808401519082015291810151908201526060015b60405180910390f35b348015610175575f80fd5b50610115610184366004611117565b6105c6565b348015610194575f80fd5b506101156105d4565b3480156101a8575f80fd5b505f546040516001600160a01b039091168152602001610161565b3480156101ce575f80fd5b506101ee6101dd366004611141565b60056020525f908152604090205481565b604051908152602001610161565b348015610207575f80fd5b5061021b6102163660046110ec565b6105e7565b604080516001600160a01b039586168152949093166020850152918301526060820152608001610161565b348015610251575f80fd5b5061028a6102603660046110ec565b60046020525f90815260409020805460018201546002909201546001600160a01b03909116919083565b604080516001600160a01b039094168452602084019290925290820152606001610161565b3480156102ba575f80fd5b506101156102c9366004611163565b61062b565b3480156102d9575f80fd5b506101156102e8366004611195565b61078e565b3480156102f8575f80fd5b506101156103073660046111b5565b6108e0565b348015610317575f80fd5b5061032b6103263660046110ec565b610b43565b604051610161919081516001600160a01b03908116825260208084015190911690820152604080830151908201526060918201519181019190915260800190565b610115610bcb565b34801561037f575f80fd5b506101ee60025481565b348015610394575f80fd5b506101156103a3366004611141565b610bd3565b3480156103b3575f80fd5b506101ee60035481565b3480156103c8575f80fd5b506101156103d73660046110ec565b610c10565b3480156103e7575f80fd5b506101156103f63660046111f3565b610ce1565b348015610406575f80fd5b506101ee610415366004611141565b610de3565b604080516080810182523381525f6020820181815234938301938452436060840190815260018054808201825590845293517fb10e2d527612073b26eecdfd717e6a320cf44b4afac2b0732d9fcbe2b7fa0cf6600490950294850180546001600160a01b03199081166001600160a01b039384161790915592517fb10e2d527612073b26eecdfd717e6a320cf44b4afac2b0732d9fcbe2b7fa0cf78601805490941691161790915592517fb10e2d527612073b26eecdfd717e6a320cf44b4afac2b0732d9fcbe2b7fa0cf883015591517fb10e2d527612073b26eecdfd717e6a320cf44b4afac2b0732d9fcbe2b7fa0cf990910155600280549161051d8361122b565b90915550506040513481525f9033907f8752a472e571a816aea92eec8dae9baf628e840f4929fbcc2d155e6233ff68a79060200160405180910390a3565b61058560405180606001604052805f6001600160a01b031681526020015f81526020015f81525090565b505f90815260046020908152604091829020825160608101845281546001600160a01b03168152600182015492810192909252600201549181019190915290565b6105d08282610e65565b5050565b6105dc611071565b6105e55f61109d565b565b600181815481106105f6575f80fd5b5f91825260209091206004909102018054600182015460028301546003909301546001600160a01b0392831694509116919084565b610633611071565b5f61063d84610de3565b6001600160a01b0385165f908152600560205260409020549091508190610665908590611243565b11156106b15760405162461bcd60e51b81526020600482015260166024820152754255444745545f455843454544535f42414c414e434560501b60448201526064015b60405180910390fd5b60038054905f6106c08361122b565b9091555050604080516060810182526001600160a01b0386811680835260208084018881528486018881526003545f90815260048452878120965187546001600160a01b0319169616959095178655905160018601555160029094019390935581526005909152908120805485929061073a908490611243565b909155505060035460408051858152602081018590526001600160a01b03871692917f154511729012ef776b8a51ae96d7429fa768546e62bec65af546cb3a5ff8f8ac91015b60405180910390a350505050565b610796611071565b5f82815260046020526040902080546001600160a01b03161515806107be57505f8160010154115b6107da5760405162461bcd60e51b81526004016106a890611256565b80545f906107f0906001600160a01b0316610de3565b82546001600160a01b03165f908152600560205260409020549091508190610819908590611243565b11156108605760405162461bcd60e51b81526020600482015260166024820152754255444745545f455843454544535f42414c414e434560501b60448201526064016106a8565b82826001015f8282546108739190611243565b909155505081546001600160a01b03165f90815260056020526040812080548592906108a0908490611243565b909155505060405183815284907f5e846d4c47d20e1c7a8cf49b4eeb3de20e7c6f1438e393f47ff4c16f8401eb759060200160405180910390a250505050565b6108e8611071565b6001600160a01b0382166109325760405162461bcd60e51b81526020600482015260116024820152701253959053125117d49150d25412515395607a1b60448201526064016106a8565b6001600160a01b0383166109c957804710156109905760405162461bcd60e51b815260206004820152601b60248201527f494e53554646494349454e545f4e41544956455f42414c414e4345000000000060448201526064016106a8565b6040516001600160a01b0383169082156108fc029083905f818181858888f193505050501580156109c3573d5f803e3d5ffd5b50610af1565b6040516370a0823160e01b815230600482015281906001600160a01b038516906370a0823190602401602060405180830381865afa158015610a0d573d5f803e3d5ffd5b505050506040513d601f19601f82011682018060405250810190610a31919061127c565b1015610a7f5760405162461bcd60e51b815260206004820152601a60248201527f494e53554646494349454e545f544f4b454e5f42414c414e434500000000000060448201526064016106a8565b60405163a9059cbb60e01b81526001600160a01b0383811660048301526024820183905284169063a9059cbb906044016020604051808303815f875af1158015610acb573d5f803e3d5ffd5b505050506040513d601f19601f82011682018060405250810190610aef9190611293565b505b826001600160a01b0316826001600160a01b03167fd1ba4ac2e2a11b5101f6cb4d978f514a155b421e8ec396d2d9abaf0bb02917ee83604051610b3691815260200190565b60405180910390a3505050565b604080516080810182525f80825260208201819052918101829052606081019190915260018281548110610b7957610b796112b2565b5f91825260209182902060408051608081018252600490930290910180546001600160a01b03908116845260018201541693830193909352600283015490820152600390910154606082015292915050565b6105e561041a565b610bdb611071565b6001600160a01b038116610c0457604051631e4fbdf760e01b81525f60048201526024016106a8565b610c0d8161109d565b50565b610c18611071565b5f81815260046020526040902080546001600160a01b0316151580610c4057505f8160010154115b610c5c5760405162461bcd60e51b81526004016106a890611256565b600181015481546001600160a01b03165f9081526005602052604081208054909190610c899084906112c6565b90915550505f8281526004602052604080822080546001600160a01b0319168155600181018390556002018290555183917fa73d55d8eafb650619255c4a52c8099e389e98a45f57310c086f0e802099b21b91a25050565b610ce9611071565b5f83815260046020526040902080546001600160a01b0316151580610d1157505f8160010154115b610d2d5760405162461bcd60e51b81526004016106a890611256565b8060010154821115610d795760405162461bcd60e51b8152602060048201526015602482015274105353d5539517d15610d1515114d7d0955111d155605a1b60448201526064016106a8565b81816001015f828254610d8c91906112c6565b90915550508054610da7906001600160a01b031684846108e0565b826001600160a01b0316847fb34d4539a6d4489f4f5bba338e04ed7b691e9ac32a25b992080584523f990c4b8460405161078091815260200190565b5f6001600160a01b038216610df9575047919050565b6040516370a0823160e01b81523060048201526001600160a01b038316906370a0823190602401602060405180830381865afa158015610e3b573d5f803e3d5ffd5b505050506040513d601f19601f82011682018060405250810190610e5f919061127c565b92915050565b6001600160a01b038216610eab5760405162461bcd60e51b815260206004820152600d60248201526c24a72b20a624a22faa27a5a2a760991b60448201526064016106a8565b6040516323b872dd60e01b8152336004820152306024820152604481018290526001600160a01b038316906323b872dd906064016020604051808303815f875af1158015610efb573d5f803e3d5ffd5b505050506040513d601f19601f82011682018060405250810190610f1f9190611293565b50604080516080810182523381526001600160a01b038481166020830190815292820184815243606084019081526001805480820182555f918252945160049095027fb10e2d527612073b26eecdfd717e6a320cf44b4afac2b0732d9fcbe2b7fa0cf6810180549686166001600160a01b031997881617905595517fb10e2d527612073b26eecdfd717e6a320cf44b4afac2b0732d9fcbe2b7fa0cf78701805491909516951694909417909255517fb10e2d527612073b26eecdfd717e6a320cf44b4afac2b0732d9fcbe2b7fa0cf8840155517fb10e2d527612073b26eecdfd717e6a320cf44b4afac2b0732d9fcbe2b7fa0cf99092019190915560028054916110288361122b565b90915550506040518181526001600160a01b0383169033907f8752a472e571a816aea92eec8dae9baf628e840f4929fbcc2d155e6233ff68a79060200160405180910390a35050565b5f546001600160a01b031633146105e55760405163118cdaa760e01b81523360048201526024016106a8565b5f80546001600160a01b038381166001600160a01b0319831681178455604051919092169283917f8be0079c531659141344cd1fd0a4f28419497f9722a3daafe3b4186f6b6457e09190a35050565b5f602082840312156110fc575f80fd5b5035919050565b6001600160a01b0381168114610c0d575f80fd5b5f8060408385031215611128575f80fd5b823561113381611103565b946020939093013593505050565b5f60208284031215611151575f80fd5b813561115c81611103565b9392505050565b5f805f60608486031215611175575f80fd5b833561118081611103565b95602085013595506040909401359392505050565b5f80604083850312156111a6575f80fd5b50508035926020909101359150565b5f805f606084860312156111c7575f80fd5b83356111d281611103565b925060208401356111e281611103565b929592945050506040919091013590565b5f805f60608486031215611205575f80fd5b8335925060208401356111e281611103565b634e487b7160e01b5f52601160045260245ffd5b5f6001820161123c5761123c611217565b5060010190565b80820180821115610e5f57610e5f611217565b6020808252600c908201526b1413d3d317d111531155115160a21b604082015260600190565b5f6020828403121561128c575f80fd5b5051919050565b5f602082840312156112a3575f80fd5b8151801515811461115c575f80fd5b634e487b7160e01b5f52603260045260245ffd5b81810381811115610e5f57610e5f61121756fea26469706673582212206164635b17843fcb9d4b3543a21781f34e455fb06fcfc8f4d3154f5d1a1df5b264736f6c634300081a0033",
        "linkReferences": {}
    },
    "methodIdentifiers": {
        "createPool(address,uint256,uint256)": "b039ddf6",
        "deletePool(uint256)": "f6c2d292",
        "deposit(address,uint256)": "47e7ef24",
        "depositNative()": "db6b5246",
        "getBalance(address)": "f8b2cb4f",
        "getPool(uint256)": "068bcd8d",
        "getTransfer(uint256)": "c16fe907",
        "increaseBudget(uint256,uint256)": "b26590f3",
        "owner()": "8da5cb5b",
        "poolCount()": "f525cb68",
        "pools(uint256)": "ac4afa38",
        "renounceOwnership()": "715018a6",
        "totalAllocatedBudgets(address)": "92fcb94c",
        "transfer(address,address,uint256)": "beabacc8",
        "transfer(uint256,address,uint256)": "f8548e36",
        "transferCount()": "e3d33fc9",
        "transferOwnership(address)": "f2fde38b",
        "transfers(uint256)": "9377d711"
    },
    "id": 116
}