{"abi":[{"type":"constructor","inputs":[],"stateMutability":"nonpayable"},{"type":"receive","stateMutability":"payable"},{"type":"function","name":"createPool","inputs":[{"name":"_tokenAddress","type":"address","internalType":"address"},{"name":"_initialBudget","type":"uint256","internalType":"uint256"}],"outputs":[{"name":"poolId","type":"uint256","internalType":"uint256"}],"stateMutability":"nonpayable"},{"type":"function","name":"deletePool","inputs":[{"name":"_poolId","type":"uint256","internalType":"uint256"}],"outputs":[],"stateMutability":"nonpayable"},{"type":"function","name":"deposit","inputs":[{"name":"_token","type":"address","internalType":"address"},{"name":"_amount","type":"uint256","internalType":"uint256"}],"outputs":[{"name":"receiptId","type":"uint256","internalType":"uint256"}],"stateMutability":"nonpayable"},{"type":"function","name":"depositNative","inputs":[],"outputs":[{"name":"receiptId","type":"uint256","internalType":"uint256"}],"stateMutability":"payable"},{"type":"function","name":"getBalance","inputs":[{"name":"_token","type":"address","internalType":"address"}],"outputs":[{"name":"","type":"uint256","internalType":"uint256"}],"stateMutability":"view"},{"type":"function","name":"getPool","inputs":[{"name":"_poolId","type":"uint256","internalType":"uint256"}],"outputs":[{"name":"","type":"tuple","internalType":"struct TreasuryPools.Pool","components":[{"name":"tokenAddress","type":"address","internalType":"address"},{"name":"budget","type":"uint256","internalType":"uint256"}]}],"stateMutability":"view"},{"type":"function","name":"getTransfer","inputs":[{"name":"receiptId","type":"uint256","internalType":"uint256"}],"outputs":[{"name":"","type":"tuple","internalType":"struct TreasurySimple.TransferLog","components":[{"name":"from","type":"address","internalType":"address"},{"name":"token","type":"address","internalType":"address"},{"name":"amount","type":"uint256","internalType":"uint256"},{"name":"blockNumber","type":"uint256","internalType":"uint256"}]}],"stateMutability":"view"},{"type":"function","name":"increaseBudget","inputs":[{"name":"_poolId","type":"uint256","internalType":"uint256"},{"name":"_amount","type":"uint256","internalType":"uint256"}],"outputs":[],"stateMutability":"nonpayable"},{"type":"function","name":"owner","inputs":[],"outputs":[{"name":"","type":"address","internalType":"address"}],"stateMutability":"view"},{"type":"function","name":"poolCount","inputs":[],"outputs":[{"name":"","type":"uint256","internalType":"uint256"}],"stateMutability":"view"},{"type":"function","name":"poolTransfer","inputs":[{"name":"_poolId","type":"uint256","internalType":"uint256"},{"name":"_to","type":"address","internalType":"address payable"},{"name":"_amount","type":"uint256","internalType":"uint256"}],"outputs":[],"stateMutability":"nonpayable"},{"type":"function","name":"pools","inputs":[{"name":"","type":"uint256","internalType":"uint256"}],"outputs":[{"name":"tokenAddress","type":"address","internalType":"address"},{"name":"budget","type":"uint256","internalType":"uint256"}],"stateMutability":"view"},{"type":"function","name":"renounceOwnership","inputs":[],"outputs":[],"stateMutability":"nonpayable"},{"type":"function","name":"setWhitelistToken","inputs":[{"name":"_token","type":"address","internalType":"address"},{"name":"_isWhitelisted","type":"bool","internalType":"bool"}],"outputs":[],"stateMutability":"nonpayable"},{"type":"function","name":"totalAllocatedBudgets","inputs":[{"name":"","type":"address","internalType":"address"}],"outputs":[{"name":"","type":"uint256","internalType":"uint256"}],"stateMutability":"view"},{"type":"function","name":"transfer","inputs":[{"name":"_token","type":"address","internalType":"address"},{"name":"_to","type":"address","internalType":"address payable"},{"name":"_amount","type":"uint256","internalType":"uint256"}],"outputs":[],"stateMutability":"nonpayable"},{"type":"function","name":"transferCount","inputs":[],"outputs":[{"name":"","type":"uint256","internalType":"uint256"}],"stateMutability":"view"},{"type":"function","name":"transferOwnership","inputs":[{"name":"newOwner","type":"address","internalType":"address"}],"outputs":[],"stateMutability":"nonpayable"},{"type":"function","name":"transfers","inputs":[{"name":"","type":"uint256","internalType":"uint256"}],"outputs":[{"name":"from","type":"address","internalType":"address"},{"name":"token","type":"address","internalType":"address"},{"name":"amount","type":"uint256","internalType":"uint256"},{"name":"blockNumber","type":"uint256","internalType":"uint256"}],"stateMutability":"view"},{"type":"function","name":"whitelistedTokens","inputs":[{"name":"","type":"address","internalType":"address"}],"outputs":[{"name":"","type":"bool","internalType":"bool"}],"stateMutability":"view"},{"type":"event","name":"BudgetIncreased","inputs":[{"name":"poolId","type":"uint256","indexed":true,"internalType":"uint256"},{"name":"amount","type":"uint256","indexed":false,"internalType":"uint256"}],"anonymous":false},{"type":"event","name":"Deposited","inputs":[{"name":"from","type":"address","indexed":true,"internalType":"address"},{"name":"token","type":"address","indexed":true,"internalType":"address"},{"name":"amount","type":"uint256","indexed":false,"internalType":"uint256"}],"anonymous":false},{"type":"event","name":"OwnershipTransferred","inputs":[{"name":"previousOwner","type":"address","indexed":true,"internalType":"address"},{"name":"newOwner","type":"address","indexed":true,"internalType":"address"}],"anonymous":false},{"type":"event","name":"PoolCreated","inputs":[{"name":"poolId","type":"uint256","indexed":true,"internalType":"uint256"},{"name":"tokenAddress","type":"address","indexed":true,"internalType":"address"},{"name":"budget","type":"uint256","indexed":false,"internalType":"uint256"}],"anonymous":false},{"type":"event","name":"PoolDeleted","inputs":[{"name":"poolId","type":"uint256","indexed":true,"internalType":"uint256"}],"anonymous":false},{"type":"event","name":"Transferred","inputs":[{"name":"poolId","type":"uint256","indexed":true,"internalType":"uint256"},{"name":"to","type":"address","indexed":true,"internalType":"address"},{"name":"amount","type":"uint256","indexed":false,"internalType":"uint256"}],"anonymous":false},{"type":"event","name":"Transferred","inputs":[{"name":"to","type":"address","indexed":true,"internalType":"address"},{"name":"token","type":"address","indexed":true,"internalType":"address"},{"name":"amount","type":"uint256","indexed":false,"internalType":"uint256"}],"anonymous":false},{"type":"error","name":"OwnableInvalidOwner","inputs":[{"name":"owner","type":"address","internalType":"address"}]},{"type":"error","name":"OwnableUnauthorizedAccount","inputs":[{"name":"account","type":"address","internalType":"address"}]},{"type":"error","name":"SafeERC20FailedOperation","inputs":[{"name":"token","type":"address","internalType":"address"}]}],"bytecode":{"object":"0x608060405234801561000f575f80fd5b50338061003657604051631e4fbdf760e01b81525f60048201526024015b60405180910390fd5b61003f81610082565b505f805260036020527f3617319a054d772f909f7c479a2cebe5066e836a939412e32403c99029b92eff805460ff1916600117905561007d336100d1565b61013c565b5f80546001600160a01b038381166001600160a01b0319831681178455604051919092169283917f8be0079c531659141344cd1fd0a4f28419497f9722a3daafe3b4186f6b6457e09190a35050565b6100d961010e565b6001600160a01b03811661010257604051631e4fbdf760e01b81525f600482015260240161002d565b61010b81610082565b50565b5f546001600160a01b0316331461013a5760405163118cdaa760e01b815233600482015260240161002d565b565b611441806101495f395ff3fe60806040526004361061011e575f3560e01c8063b85be3641161009d578063e3d33fc911610062578063e3d33fc914610433578063f2fde38b14610448578063f525cb6814610467578063f6c2d2921461047c578063f8b2cb4f1461049b575f80fd5b8063b85be3641461034f578063beabacc81461036e578063c16fe9071461038d578063daf9c210146103ed578063db6b52461461042b575f80fd5b80638da5cb5b116100e35780638da5cb5b1461023857806392fcb94c1461025e5780639377d71114610289578063ac4afa38146102d3578063b26590f314610330575f80fd5b8063068bcd8d1461013157806312d36171146101b957806347e7ef24146101e6578063715018a6146102055780637c374f9914610219575f80fd5b3661012d5761012b6104ba565b005b5f80fd5b34801561013c575f80fd5b5061019061014b36600461125a565b604080518082019091525f8082526020820152505f90815260056020908152604091829020825180840190935280546001600160a01b03168352600101549082015290565b6040805182516001600160a01b0316815260209283015192810192909252015b60405180910390f35b3480156101c4575f80fd5b506101d86101d3366004611285565b6105ff565b6040519081526020016101b0565b3480156101f1575f80fd5b506101d8610200366004611285565b61075b565b348015610210575f80fd5b5061012b61096c565b348015610224575f80fd5b5061012b6102333660046112af565b61097f565b348015610243575f80fd5b505f546040516001600160a01b0390911681526020016101b0565b348015610269575f80fd5b506101d86102783660046112ea565b60066020525f908152604090205481565b348015610294575f80fd5b506102a86102a336600461125a565b6109b1565b604080516001600160a01b0395861681529490931660208501529183015260608201526080016101b0565b3480156102de575f80fd5b506103116102ed36600461125a565b60056020525f9081526040902080546001909101546001600160a01b039091169082565b604080516001600160a01b0390931683526020830191909152016101b0565b34801561033b575f80fd5b5061012b61034a36600461130c565b6109f5565b34801561035a575f80fd5b5061012b61036936600461132c565b610b66565b348015610379575f80fd5b5061012b610388366004611361565b610c93565b348015610398575f80fd5b506103ac6103a736600461125a565b610e98565b6040516101b0919081516001600160a01b03908116825260208084015190911690820152604080830151908201526060918201519181019190915260800190565b3480156103f8575f80fd5b5061041b6104073660046112ea565b60036020525f908152604090205460ff1681565b60405190151581526020016101b0565b6101d8610f20565b34801561043e575f80fd5b506101d860025481565b348015610453575f80fd5b5061012b6104623660046112ea565b610f2e565b348015610472575f80fd5b506101d860045481565b348015610487575f80fd5b5061012b61049636600461125a565b610f6b565b3480156104a6575f80fd5b506101d86104b53660046112ea565b611054565b604080516080810182523381525f6020820181815234938301938452436060840190815260018054808201825590845293517fb10e2d527612073b26eecdfd717e6a320cf44b4afac2b0732d9fcbe2b7fa0cf6600490950294850180546001600160a01b03199081166001600160a01b039384161790915592517fb10e2d527612073b26eecdfd717e6a320cf44b4afac2b0732d9fcbe2b7fa0cf78601805490941691161790915592517fb10e2d527612073b26eecdfd717e6a320cf44b4afac2b0732d9fcbe2b7fa0cf883015591517fb10e2d527612073b26eecdfd717e6a320cf44b4afac2b0732d9fcbe2b7fa0cf99091015560028054918291906105c0836113a2565b90915550506040513481525f9033907f8752a472e571a816aea92eec8dae9baf628e840f4929fbcc2d155e6233ff68a79060200160405180910390a390565b5f6106086110d0565b811561068e575f61061884611054565b6001600160a01b0385165f9081526006602052604090205490915081906106409085906113ba565b111561068c5760405162461bcd60e51b81526020600482015260166024820152754275646765745f657863656564735f62616c616e636560501b60448201526064015b60405180910390fd5b505b60048054905f61069d836113a2565b90915550506040805180820182526001600160a01b0385811680835260208084018781526004545f90815260058352868120955186546001600160a01b0319169516949094178555516001909401939093558152600690915290812080548492906107099084906113ba565b90915550506004546040518381526001600160a01b03851691907f8ea7f11ad0ca1b5ddc29b74323cc33342a10c8e5a15b76bd73bd8db01ea449ef9060200160405180910390a3506004545b92915050565b6001600160a01b0382165f9081526003602052604081205460ff166107ba5760405162461bcd60e51b81526020600482015260156024820152741513d2d15397d393d517d5d2125511531254d51151605a1b6044820152606401610683565b6001600160a01b0383166108005760405162461bcd60e51b815260206004820152600d60248201526c24a72b20a624a22faa27a5a2a760991b6044820152606401610683565b6108156001600160a01b0384163330856110fc565b50604080516080810182523381526001600160a01b038481166020830190815292820184815243606084019081526001805480820182555f918252945160049095027fb10e2d527612073b26eecdfd717e6a320cf44b4afac2b0732d9fcbe2b7fa0cf6810180549686166001600160a01b031997881617905595517fb10e2d527612073b26eecdfd717e6a320cf44b4afac2b0732d9fcbe2b7fa0cf78701805491909516951694909417909255517fb10e2d527612073b26eecdfd717e6a320cf44b4afac2b0732d9fcbe2b7fa0cf8840155517fb10e2d527612073b26eecdfd717e6a320cf44b4afac2b0732d9fcbe2b7fa0cf9909201919091556002805491829190610921836113a2565b90915550506040518281526001600160a01b0384169033907f8752a472e571a816aea92eec8dae9baf628e840f4929fbcc2d155e6233ff68a79060200160405180910390a392915050565b6109746110d0565b61097d5f611169565b565b6109876110d0565b6001600160a01b03919091165f908152600360205260409020805460ff1916911515919091179055565b600181815481106109c0575f80fd5b5f91825260209091206004909102018054600182015460028301546003909301546001600160a01b0392831694509116919084565b6109fd6110d0565b5f82815260056020526040902080546001600160a01b0316151580610a2557505f8160010154115b610a605760405162461bcd60e51b815260206004820152600c60248201526b141bdbdb17d9195b195d195960a21b6044820152606401610683565b80545f90610a76906001600160a01b0316611054565b82546001600160a01b03165f908152600660205260409020549091508190610a9f9085906113ba565b1115610ae65760405162461bcd60e51b81526020600482015260166024820152754275646765745f657863656564735f62616c616e636560501b6044820152606401610683565b82826001015f828254610af991906113ba565b909155505081546001600160a01b03165f9081526006602052604081208054859290610b269084906113ba565b909155505060405183815284907f5e846d4c47d20e1c7a8cf49b4eeb3de20e7c6f1438e393f47ff4c16f8401eb759060200160405180910390a250505050565b610b6e6110d0565b5f83815260056020526040902080546001600160a01b0316151580610b9657505f8160010154115b610bcf5760405162461bcd60e51b815260206004820152600a602482015269506f6f6c5f656d70747960b01b6044820152606401610683565b8060010154821115610c1b5760405162461bcd60e51b8152602060048201526015602482015274105b5bdd5b9d17d95e18d959591cd7d89d5919d95d605a1b6044820152606401610683565b81816001015f828254610c2e91906113cd565b90915550508054610c49906001600160a01b03168484610c93565b826001600160a01b0316847fb34d4539a6d4489f4f5bba338e04ed7b691e9ac32a25b992080584523f990c4b84604051610c8591815260200190565b60405180910390a350505050565b610c9b6110d0565b6001600160a01b038216610ce55760405162461bcd60e51b81526020600482015260116024820152701253959053125117d49150d25412515395607a1b6044820152606401610683565b6001600160a01b038316610d7c5780471015610d435760405162461bcd60e51b815260206004820152601b60248201527f494e53554646494349454e545f4e41544956455f42414c414e434500000000006044820152606401610683565b6040516001600160a01b0383169082156108fc029083905f818181858888f19350505050158015610d76573d5f803e3d5ffd5b50610e46565b6040516370a0823160e01b815230600482015281906001600160a01b038516906370a0823190602401602060405180830381865afa158015610dc0573d5f803e3d5ffd5b505050506040513d601f19601f82011682018060405250810190610de491906113e0565b1015610e325760405162461bcd60e51b815260206004820152601a60248201527f494e53554646494349454e545f544f4b454e5f42414c414e43450000000000006044820152606401610683565b610e466001600160a01b03841683836111b8565b826001600160a01b0316826001600160a01b03167fd1ba4ac2e2a11b5101f6cb4d978f514a155b421e8ec396d2d9abaf0bb02917ee83604051610e8b91815260200190565b60405180910390a3505050565b604080516080810182525f80825260208201819052918101829052606081019190915260018281548110610ece57610ece6113f7565b5f91825260209182902060408051608081018252600490930290910180546001600160a01b03908116845260018201541693830193909352600283015490820152600390910154606082015292915050565b5f610f296104ba565b905090565b610f366110d0565b6001600160a01b038116610f5f57604051631e4fbdf760e01b81525f6004820152602401610683565b610f6881611169565b50565b610f736110d0565b5f81815260056020526040902080546001600160a01b0316151580610f9b57505f8160010154115b610fd65760405162461bcd60e51b815260206004820152600c60248201526b141bdbdb17d9195b195d195960a21b6044820152606401610683565b600181015481546001600160a01b03165f90815260066020526040812080549091906110039084906113cd565b90915550505f8281526005602052604080822080546001600160a01b03191681556001018290555183917fa73d55d8eafb650619255c4a52c8099e389e98a45f57310c086f0e802099b21b91a25050565b5f6001600160a01b03821661106a575047919050565b6040516370a0823160e01b81523060048201526001600160a01b038316906370a0823190602401602060405180830381865afa1580156110ac573d5f803e3d5ffd5b505050506040513d601f19601f8201168201806040525081019061075591906113e0565b5f546001600160a01b0316331461097d5760405163118cdaa760e01b8152336004820152602401610683565b6040516001600160a01b0384811660248301528381166044830152606482018390526111639186918216906323b872dd906084015b604051602081830303815290604052915060e01b6020820180516001600160e01b0383818316178352505050506111ee565b50505050565b5f80546001600160a01b038381166001600160a01b0319831681178455604051919092169283917f8be0079c531659141344cd1fd0a4f28419497f9722a3daafe3b4186f6b6457e09190a35050565b6040516001600160a01b038381166024830152604482018390526111e991859182169063a9059cbb90606401611131565b505050565b5f8060205f8451602086015f885af18061120d576040513d5f823e3d81fd5b50505f513d91508115611224578060011415611231565b6001600160a01b0384163b155b1561116357604051635274afe760e01b81526001600160a01b0385166004820152602401610683565b5f6020828403121561126a575f80fd5b5035919050565b6001600160a01b0381168114610f68575f80fd5b5f8060408385031215611296575f80fd5b82356112a181611271565b946020939093013593505050565b5f80604083850312156112c0575f80fd5b82356112cb81611271565b9150602083013580151581146112df575f80fd5b809150509250929050565b5f602082840312156112fa575f80fd5b813561130581611271565b9392505050565b5f806040838503121561131d575f80fd5b50508035926020909101359150565b5f805f6060848603121561133e575f80fd5b83359250602084013561135081611271565b929592945050506040919091013590565b5f805f60608486031215611373575f80fd5b833561137e81611271565b9250602084013561135081611271565b634e487b7160e01b5f52601160045260245ffd5b5f600182016113b3576113b361138e565b5060010190565b808201808211156107555761075561138e565b818103818111156107555761075561138e565b5f602082840312156113f0575f80fd5b5051919050565b634e487b7160e01b5f52603260045260245ffdfea2646970667358221220c67fda60d29b01a71e2a40ac6d8f1bc21a22b435a056ff0dad68cd8b1c17390664736f6c634300081a0033","linkReferences":{}},"methodIdentifiers":{"createPool(address,uint256)":"12d36171","deletePool(uint256)":"f6c2d292","deposit(address,uint256)":"47e7ef24","depositNative()":"db6b5246","getBalance(address)":"f8b2cb4f","getPool(uint256)":"068bcd8d","getTransfer(uint256)":"c16fe907","increaseBudget(uint256,uint256)":"b26590f3","owner()":"8da5cb5b","poolCount()":"f525cb68","poolTransfer(uint256,address,uint256)":"b85be364","pools(uint256)":"ac4afa38","renounceOwnership()":"715018a6","setWhitelistToken(address,bool)":"7c374f99","totalAllocatedBudgets(address)":"92fcb94c","transfer(address,address,uint256)":"beabacc8","transferCount()":"e3d33fc9","transferOwnership(address)":"f2fde38b","transfers(uint256)":"9377d711","whitelistedTokens(address)":"daf9c210"},"id":121}