{"abi":[{"type":"constructor","inputs":[],"stateMutability":"nonpayable"},{"type":"function","name":"executeLaw","inputs":[{"name":"caller","type":"address","internalType":"address"},{"name":"lawId","type":"uint16","internalType":"uint16"},{"name":"lawCalldata","type":"bytes","internalType":"bytes"},{"name":"nonce","type":"uint256","internalType":"uint256"}],"outputs":[{"name":"success","type":"bool","internalType":"bool"}],"stateMutability":"nonpayable"},{"type":"function","name":"getConfig","inputs":[{"name":"powers","type":"address","internalType":"address"},{"name":"lawId","type":"uint16","internalType":"uint16"}],"outputs":[{"name":"config","type":"bytes","internalType":"bytes"}],"stateMutability":"view"},{"type":"function","name":"getData","inputs":[{"name":"lawHash","type":"bytes32","internalType":"bytes32"}],"outputs":[{"name":"","type":"tuple","internalType":"struct TreasuryRoleWithTransfer.Data","components":[{"name":"treasuryContract","type":"address","internalType":"address"},{"name":"roleIdToSet","type":"uint16","internalType":"uint16"}]}],"stateMutability":"view"},{"type":"function","name":"getInputParams","inputs":[{"name":"powers","type":"address","internalType":"address"},{"name":"lawId","type":"uint16","internalType":"uint16"}],"outputs":[{"name":"inputParams","type":"bytes","internalType":"bytes"}],"stateMutability":"view"},{"type":"function","name":"getNameDescription","inputs":[{"name":"powers","type":"address","internalType":"address"},{"name":"lawId","type":"uint16","internalType":"uint16"}],"outputs":[{"name":"nameDescription","type":"string","internalType":"string"}],"stateMutability":"view"},{"type":"function","name":"getTokenConfig","inputs":[{"name":"lawHash","type":"bytes32","internalType":"bytes32"},{"name":"token","type":"address","internalType":"address"}],"outputs":[{"name":"","type":"tuple","internalType":"struct TreasuryRoleWithTransfer.TokenConfig","components":[{"name":"tokensPerBlock","type":"uint256","internalType":"uint256"}]}],"stateMutability":"view"},{"type":"function","name":"handleRequest","inputs":[{"name":"caller","type":"address","internalType":"address"},{"name":"powers","type":"address","internalType":"address"},{"name":"lawId","type":"uint16","internalType":"uint16"},{"name":"lawCalldata","type":"bytes","internalType":"bytes"},{"name":"nonce","type":"uint256","internalType":"uint256"}],"outputs":[{"name":"actionId","type":"uint256","internalType":"uint256"},{"name":"targets","type":"address[]","internalType":"address[]"},{"name":"values","type":"uint256[]","internalType":"uint256[]"},{"name":"calldatas","type":"bytes[]","internalType":"bytes[]"}],"stateMutability":"view"},{"type":"function","name":"initializeLaw","inputs":[{"name":"index","type":"uint16","internalType":"uint16"},{"name":"nameDescription","type":"string","internalType":"string"},{"name":"inputParams","type":"bytes","internalType":"bytes"},{"name":"config","type":"bytes","internalType":"bytes"}],"outputs":[],"stateMutability":"nonpayable"},{"type":"function","name":"laws","inputs":[{"name":"lawHash","type":"bytes32","internalType":"bytes32"}],"outputs":[{"name":"nameDescription","type":"string","internalType":"string"},{"name":"inputParams","type":"bytes","internalType":"bytes"},{"name":"config","type":"bytes","internalType":"bytes"},{"name":"powers","type":"address","internalType":"address"}],"stateMutability":"view"},{"type":"function","name":"supportsInterface","inputs":[{"name":"interfaceId","type":"bytes4","internalType":"bytes4"}],"outputs":[{"name":"","type":"bool","internalType":"bool"}],"stateMutability":"view"},{"type":"event","name":"Law__Deployed","inputs":[{"name":"configParams","type":"bytes","indexed":false,"internalType":"bytes"}],"anonymous":false},{"type":"event","name":"Law__Initialized","inputs":[{"name":"powers","type":"address","indexed":true,"internalType":"address"},{"name":"index","type":"uint16","indexed":true,"internalType":"uint16"},{"name":"nameDescription","type":"string","indexed":false,"internalType":"string"},{"name":"inputParams","type":"bytes","indexed":false,"internalType":"bytes"},{"name":"config","type":"bytes","indexed":false,"internalType":"bytes"}],"anonymous":false}],"bytecode":{"object":"0x608060405234801561000f575f80fd5b505f6040516020016100de9060808152601860808201527f61646472657373205472656173757279436f6e7472616374000000000000000060a082015260c06020820152601060c08201526f616464726573735b5d20546f6b656e7360801b60e0820152610100604082015260186101008201527f75696e743235365b5d20546f6b656e73506572426c6f636b00000000000000006101208201526101406060820152600d6101408201526c1d5a5b9d0c4d88149bdb195259609a1b6101608201525f61018082019050919050565b60405160208183030381529060405290507fc5389813cde4ae9e760a24ddd7e7ee31b82b36b1077e156cdcad4547bf7692e18160405161011e919061012c565b60405180910390a150610161565b602081525f82518060208401528060208501604085015e5f604082850101526040601f19601f83011684010191505092915050565b611dec8061016e5f395ff3fe608060405234801561000f575f80fd5b50600436106100b9575f3560e01c806354f6127f116100725780637bf5b2fb116100585780637bf5b2fb1461023c578063c0d27aad1461024f578063d8a941f414610262575f80fd5b806354f6127f14610197578063552cb37214610219575f80fd5b80630d157721116100a25780630d157721146100fa5780630db07d581461011a57806319028aa31461013d575f80fd5b806301ffc9a7146100bd578063040b1100146100e5575b5f80fd5b6100d06100cb3660046112fa565b610275565b60405190151581526020015b60405180910390f35b6100f86100f33660046113ff565b6102ab565b005b61010d6101083660046114c7565b610577565b6040516100dc919061152c565b61012d61012836600461153e565b6106a0565b6040516100dc9493929190611555565b61018861014b3660046115a8565b60408051602080820183525f91829052938152600284528181206001600160a01b0393909316815291835290819020815192830190915254815290565b604051905181526020016100dc565b6101f16101a536600461153e565b604080518082019091525f8082526020820152505f908152600160209081526040918290208251808401909352546001600160a01b0381168352600160a01b900461ffff169082015290565b6040805182516001600160a01b0316815260209283015161ffff1692810192909252016100dc565b61022c6102273660046115cb565b610862565b6040516100dc9493929190611710565b6100d061024a366004611759565b610e22565b61010d61025d3660046114c7565b610f79565b61010d6102703660046114c7565b61101f565b5f6001600160e01b03198216632ad2108960e01b14806102a557506301ffc9a760e01b6001600160e01b03198316145b92915050565b5f805f80848060200190518101906102c391906118da565b935093509350935081518351146103475760405162461bcd60e51b815260206004820152603a60248201527f546f6b656e7320616e6420546f6b656e73506572426c6f636b2061727261797360448201527f206d7573742068617665207468652073616d65206c656e67746800000000000060648201526084015b60405180910390fd5b82515f036103bd5760405162461bcd60e51b815260206004820152602c60248201527f4174206c65617374206f6e6520746f6b656e20636f6e66696775726174696f6e60448201527f2069732072657175697265640000000000000000000000000000000000000000606482015260840161033e565b60405163195cb93f60e31b815233600482015261ffff891660248201525f9073__$da6f5012babb472fe138ca3bf3d5984061$__9063cae5c9f890604401602060405180830381865af4158015610416573d5f803e3d5ffd5b505050506040513d601f19601f8201168201806040525081019061043a9190611964565b5f818152600160205260408120805461ffff8616600160a01b027fffffffffffffffffffff000000000000000000000000000000000000000000009091166001600160a01b038a16171790559091505b845181101561050d5760405180602001604052808583815181106104b0576104b061197b565b602002602001015181525060025f8481526020019081526020015f205f8784815181106104df576104df61197b565b6020908102919091018101516001600160a01b031682528101919091526040015f209051905560010161048a565b5060405160200161054f9060208082526011908201527f75696e7432353620726563656970744964000000000000000000000000000000604082015260600190565b604051602081830303815290604052965061056c898989896110c5565b505050505050505050565b60405163195cb93f60e31b81526001600160a01b038316600482015261ffff821660248201526060905f90819073__$da6f5012babb472fe138ca3bf3d5984061$__9063cae5c9f890604401602060405180830381865af41580156105de573d5f803e3d5ffd5b505050506040513d601f19601f820116820180604052508101906106029190611964565b81526020019081526020015f205f01805461061c9061198f565b80601f01602080910402602001604051908101604052809291908181526020018280546106489061198f565b80156106935780601f1061066a57610100808354040283529160200191610693565b820191905f5260205f20905b81548152906001019060200180831161067657829003601f168201915b5050505050905092915050565b5f602081905290815260409020805481906106ba9061198f565b80601f01602080910402602001604051908101604052809291908181526020018280546106e69061198f565b80156107315780601f1061070857610100808354040283529160200191610731565b820191905f5260205f20905b81548152906001019060200180831161071457829003601f168201915b5050505050908060010180546107469061198f565b80601f01602080910402602001604051908101604052809291908181526020018280546107729061198f565b80156107bd5780601f10610794576101008083540402835291602001916107bd565b820191905f5260205f20905b8154815290600101906020018083116107a057829003601f168201915b5050505050908060020180546107d29061198f565b80601f01602080910402602001604051908101604052809291908181526020018280546107fe9061198f565b80156108495780601f1061082057610100808354040283529160200191610849565b820191905f5260205f20905b81548152906001019060200180831161082c57829003601f168201915b505050600390930154919250506001600160a01b031684565b5f60608060606108ea60408051610140810182525f808252825180840184528181526020808201839052808401919091528284018290526060808401839052608080850184905285519081018652838152918201839052938101829052928301529060a082019081525f60208201819052604082018190526060820181905260809091015290565b60405163195cb93f60e31b81526001600160a01b038a16600482015261ffff8916602482015273__$da6f5012babb472fe138ca3bf3d5984061$__9063cae5c9f890604401602060405180830381865af415801561094a573d5f803e3d5ffd5b505050506040513d601f19601f8201168201806040525081019061096e9190611964565b8082525f908152600160209081526040918290208251808401845290546001600160a01b0381168252600160a01b900461ffff16818301529083015251630bcec85560e01b815273__$da6f5012babb472fe138ca3bf3d5984061$__90630bcec855906109e3908b908b908b906004016119c7565b602060405180830381865af41580156109fe573d5f803e3d5ffd5b505050506040513d601f19601f82011682018060405250810190610a229190611964565b3360408301528751909550610a409088016020908101908901611964565b6060820181905260208201515160405163c16fe90760e01b815260048101929092526001600160a01b03169063c16fe90790602401608060405180830381865afa158015610a90573d5f803e3d5ffd5b505050506040513d601f19601f82011682018060405250810190610ab491906119f3565b60a08201819052604001515f03610b0d5760405162461bcd60e51b815260206004820152601760248201527f5472616e7366657220646f6573206e6f74206578697374000000000000000000604482015260640161033e565b896001600160a01b03168160a001515f01516001600160a01b031614610b755760405162461bcd60e51b815260206004820152601860248201527f5472616e73666572206e6f742066726f6d2063616c6c65720000000000000000604482015260640161033e565b65ffffffffffff431660c082015280515f90815260026020908152604080832060a08501518301516001600160a01b0316845290915281205460e083018190529003610c035760405162461bcd60e51b815260206004820152601460248201527f546f6b656e206e6f7420636f6e66696775726564000000000000000000000000604482015260640161033e565b8060e001518160a0015160400151610c1b9190611a68565b61010082018190525f03610c715760405162461bcd60e51b815260206004820152601c60248201527f496e73756666696369656e74207472616e7366657220616d6f756e7400000000604482015260640161033e565b8061010001518160a0015160600151610c8a9190611a87565b65ffffffffffff168160c0015165ffffffffffff161115610ced5760405162461bcd60e51b815260206004820152600e60248201527f4163636573732065787069726564000000000000000000000000000000000000604482015260640161033e565b60405163054591f760e11b81526001600482015273__$da6f5012babb472fe138ca3bf3d5984061$__90630a8b23ee906024015f60405180830381865af4158015610d3a573d5f803e3d5ffd5b505050506040513d5f823e601f3d908101601f19168201604052610d619190810190611ab1565b82519296509094509250899085905f90610d7d57610d7d61197b565b6001600160a01b03928316602091820292909201810191909152828101518101516040805161ffff9092166024830152928d16604480830191909152835180830390910181526064909101909252810180517bffffffffffffffffffffffffffffffffffffffffffffffffffffffff1663342dc12560e11b179052825183905f90610e0a57610e0a61197b565b60200260200101819052505095509550955095915050565b60405163195cb93f60e31b815233600482015261ffff851660248201525f90819073__$da6f5012babb472fe138ca3bf3d5984061$__9063cae5c9f890604401602060405180830381865af4158015610e7d573d5f803e3d5ffd5b505050506040513d601f19601f82011682018060405250810190610ea19190611964565b5f818152602081905260409020600301549091506001600160a01b03163314610f0c5760405162461bcd60e51b815260206004820152600b60248201527f4f6e6c7920506f77657273000000000000000000000000000000000000000000604482015260640161033e565b5f805f80610f538b338c8c8c8080601f0160208091040260200160405190810160405280939291908181526020018383808284375f920191909152508e9250610862915050565b9350935093509350610f688a8585858561129f565b5060019a9950505050505050505050565b60405163195cb93f60e31b81526001600160a01b038316600482015261ffff821660248201526060905f90819073__$da6f5012babb472fe138ca3bf3d5984061$__9063cae5c9f890604401602060405180830381865af4158015610fe0573d5f803e3d5ffd5b505050506040513d601f19601f820116820180604052508101906110049190611964565b81526020019081526020015f20600201805461061c9061198f565b60405163195cb93f60e31b81526001600160a01b038316600482015261ffff821660248201526060905f90819073__$da6f5012babb472fe138ca3bf3d5984061$__9063cae5c9f890604401602060405180830381865af4158015611086573d5f803e3d5ffd5b505050506040513d601f19601f820116820180604052508101906110aa9190611964565b81526020019081526020015f20600101805461061c9061198f565b60405163195cb93f60e31b815233600482015261ffff851660248201525f9073__$da6f5012babb472fe138ca3bf3d5984061$__9063cae5c9f890604401602060405180830381865af415801561111e573d5f803e3d5ffd5b505050506040513d601f19601f820116820180604052508101906111429190611964565b60405163cb4a15c560e01b815290915073__$da6f5012babb472fe138ca3bf3d5984061$__9063cb4a15c59061118290879060019060ff90600401611bf8565b5f6040518083038186803b158015611198575f80fd5b505af41580156111aa573d5f803e3d5ffd5b50506040805160808101825287815260208082018890528183018790523360608301525f86815290819052919091208151919350915081906111ec9082611c65565b50602082015160018201906112019082611c65565b50604082015160028201906112169082611c65565b50606091909101516003909101805473ffffffffffffffffffffffffffffffffffffffff19166001600160a01b0390921691909117905560405161ffff86169033907f3325fccc62d4919a3b0d34ea1fe03878a5248dd1bc36dd8d4316eafc2b8d0adf9061128990889088908890611d20565b60405180910390a35050505050565b5050505050565b82511561129857604051630de6a60160e01b81523390630de6a601906112d19088908890889088908890600401611d62565b5f604051808303815f87803b1580156112e8575f80fd5b505af115801561056c573d5f803e3d5ffd5b5f6020828403121561130a575f80fd5b81356001600160e01b031981168114611321575f80fd5b9392505050565b61ffff81168114611337575f80fd5b50565b634e487b7160e01b5f52604160045260245ffd5b604051601f8201601f1916810167ffffffffffffffff811182821017156113775761137761133a565b604052919050565b5f67ffffffffffffffff8211156113985761139861133a565b50601f01601f191660200190565b5f6113b86113b38461137f565b61134e565b90508281528383830111156113cb575f80fd5b828260208301375f602084830101529392505050565b5f82601f8301126113f0575f80fd5b611321838335602085016113a6565b5f805f8060808587031215611412575f80fd5b843561141d81611328565b9350602085013567ffffffffffffffff811115611438575f80fd5b8501601f81018713611448575f80fd5b611457878235602084016113a6565b935050604085013567ffffffffffffffff811115611473575f80fd5b61147f878288016113e1565b925050606085013567ffffffffffffffff81111561149b575f80fd5b6114a7878288016113e1565b91505092959194509250565b6001600160a01b0381168114611337575f80fd5b5f80604083850312156114d8575f80fd5b82356114e3816114b3565b915060208301356114f381611328565b809150509250929050565b5f81518084528060208401602086015e5f602082860101526020601f19601f83011685010191505092915050565b602081525f61132160208301846114fe565b5f6020828403121561154e575f80fd5b5035919050565b608081525f61156760808301876114fe565b828103602084015261157981876114fe565b9050828103604084015261158d81866114fe565b9150506001600160a01b038316606083015295945050505050565b5f80604083850312156115b9575f80fd5b8235915060208301356114f3816114b3565b5f805f805f60a086880312156115df575f80fd5b85356115ea816114b3565b945060208601356115fa816114b3565b9350604086013561160a81611328565b9250606086013567ffffffffffffffff811115611625575f80fd5b611631888289016113e1565b95989497509295608001359392505050565b5f8151808452602084019350602083015f5b8281101561167c5781516001600160a01b0316865260209586019590910190600101611655565b5093949350505050565b5f8151808452602084019350602083015f5b8281101561167c578151865260209586019590910190600101611698565b5f82825180855260208501945060208160051b830101602085015f5b8381101561170457601f198584030188526116ee8383516114fe565b60209889019890935091909101906001016116d2565b50909695505050505050565b848152608060208201525f6117286080830186611643565b828103604084015261173a8186611686565b9050828103606084015261174e81856116b6565b979650505050505050565b5f805f805f6080868803121561176d575f80fd5b8535611778816114b3565b9450602086013561178881611328565b9350604086013567ffffffffffffffff8111156117a3575f80fd5b8601601f810188136117b3575f80fd5b803567ffffffffffffffff8111156117c9575f80fd5b8860208284010111156117da575f80fd5b959894975060200195606001359392505050565b5f67ffffffffffffffff8211156118075761180761133a565b5060051b60200190565b5f82601f830112611820575f80fd5b815161182e6113b3826117ee565b8082825260208201915060208360051b86010192508583111561184f575f80fd5b602085015b83811015611875578051611867816114b3565b835260209283019201611854565b5095945050505050565b5f82601f83011261188e575f80fd5b815161189c6113b3826117ee565b8082825260208201915060208360051b8601019250858311156118bd575f80fd5b602085015b838110156118755780518352602092830192016118c2565b5f805f80608085870312156118ed575f80fd5b84516118f8816114b3565b602086015190945067ffffffffffffffff811115611914575f80fd5b61192087828801611811565b935050604085015167ffffffffffffffff81111561193c575f80fd5b6119488782880161187f565b925050606085015161195981611328565b939692955090935050565b5f60208284031215611974575f80fd5b5051919050565b634e487b7160e01b5f52603260045260245ffd5b600181811c908216806119a357607f821691505b6020821081036119c157634e487b7160e01b5f52602260045260245ffd5b50919050565b61ffff84168152606060208201525f6119e360608301856114fe565b9050826040830152949350505050565b5f6080828403128015611a04575f80fd5b506040516080810167ffffffffffffffff81118282101715611a2857611a2861133a565b6040528251611a36816114b3565b81526020830151611a46816114b3565b6020820152604083810151908201526060928301519281019290925250919050565b5f82611a8257634e487b7160e01b5f52601260045260245ffd5b500490565b65ffffffffffff81811683821601908111156102a557634e487b7160e01b5f52601160045260245ffd5b5f805f60608486031215611ac3575f80fd5b835167ffffffffffffffff811115611ad9575f80fd5b611ae586828701611811565b935050602084015167ffffffffffffffff811115611b01575f80fd5b611b0d8682870161187f565b925050604084015167ffffffffffffffff811115611b29575f80fd5b8401601f81018613611b39575f80fd5b8051611b476113b3826117ee565b8082825260208201915060208360051b850101925088831115611b68575f80fd5b602084015b83811015611be957805167ffffffffffffffff811115611b8b575f80fd5b8501603f81018b13611b9b575f80fd5b6020810151611bac6113b38261137f565b8181526040838301018d1015611bc0575f80fd5b8160408401602083015e5f60208383010152808652505050602083019250602081019050611b6d565b50809450505050509250925092565b606081525f611c0a60608301866114fe565b60208301949094525060400152919050565b601f821115611c6057805f5260205f20601f840160051c81016020851015611c415750805b601f840160051c820191505b81811015611298575f8155600101611c4d565b505050565b815167ffffffffffffffff811115611c7f57611c7f61133a565b611c9381611c8d845461198f565b84611c1c565b6020601f821160018114611cc5575f8315611cae5750848201515b5f19600385901b1c1916600184901b178455611298565b5f84815260208120601f198516915b82811015611cf45787850151825560209485019460019092019101611cd4565b5084821015611d1157868401515f19600387901b60f8161c191681555b50505050600190811b01905550565b606081525f611d3260608301866114fe565b8281036020840152611d4481866114fe565b90508281036040840152611d5881856114fe565b9695505050505050565b61ffff8616815284602082015260a060408201525f611d8460a0830186611643565b8281036060840152611d968186611686565b90508281036080840152611daa81856116b6565b9897505050505050505056fea264697066735822122070d71bf586521becd3cdf21f3cc7190d54d91362971f772d27a141ac197b4c6564736f6c634300081a0033","linkReferences":{"src/libraries/LawUtilities.sol":{"LawUtilities":[{"start":1356,"length":20},{"start":1812,"length":20},{"start":2688,"length":20},{"start":2853,"length":20},{"start":3697,"length":20},{"start":4019,"length":20},{"start":4374,"length":20},{"start":4540,"length":20},{"start":4692,"length":20},{"start":4802,"length":20}]}}},"methodIdentifiers":{"executeLaw(address,uint16,bytes,uint256)":"7bf5b2fb","getConfig(address,uint16)":"c0d27aad","getData(bytes32)":"54f6127f","getInputParams(address,uint16)":"d8a941f4","getNameDescription(address,uint16)":"0d157721","getTokenConfig(bytes32,address)":"19028aa3","handleRequest(address,address,uint16,bytes,uint256)":"552cb372","initializeLaw(uint16,string,bytes,bytes)":"040b1100","laws(bytes32)":"0db07d58","supportsInterface(bytes4)":"01ffc9a7"},"id":170}