{"abi":[{"type":"constructor","inputs":[],"stateMutability":"nonpayable"},{"type":"receive","stateMutability":"payable"},{"type":"function","name":"createPool","inputs":[{"name":"_tokenAddress","type":"address","internalType":"address"},{"name":"_initialBudget","type":"uint256","internalType":"uint256"}],"outputs":[{"name":"poolId","type":"uint256","internalType":"uint256"}],"stateMutability":"nonpayable"},{"type":"function","name":"deletePool","inputs":[{"name":"_poolId","type":"uint256","internalType":"uint256"}],"outputs":[],"stateMutability":"nonpayable"},{"type":"function","name":"deposit","inputs":[{"name":"_token","type":"address","internalType":"address"},{"name":"_amount","type":"uint256","internalType":"uint256"}],"outputs":[{"name":"receiptId","type":"uint256","internalType":"uint256"}],"stateMutability":"nonpayable"},{"type":"function","name":"depositNative","inputs":[],"outputs":[{"name":"receiptId","type":"uint256","internalType":"uint256"}],"stateMutability":"payable"},{"type":"function","name":"getBalance","inputs":[{"name":"_token","type":"address","internalType":"address"}],"outputs":[{"name":"","type":"uint256","internalType":"uint256"}],"stateMutability":"view"},{"type":"function","name":"getPool","inputs":[{"name":"_poolId","type":"uint256","internalType":"uint256"}],"outputs":[{"name":"","type":"tuple","internalType":"struct TreasuryPools.Pool","components":[{"name":"tokenAddress","type":"address","internalType":"address"},{"name":"budget","type":"uint256","internalType":"uint256"}]}],"stateMutability":"view"},{"type":"function","name":"getTransfer","inputs":[{"name":"receiptId","type":"uint256","internalType":"uint256"}],"outputs":[{"name":"","type":"tuple","internalType":"struct TreasurySimple.TransferLog","components":[{"name":"from","type":"address","internalType":"address"},{"name":"token","type":"address","internalType":"address"},{"name":"amount","type":"uint256","internalType":"uint256"},{"name":"blockNumber","type":"uint256","internalType":"uint256"}]}],"stateMutability":"view"},{"type":"function","name":"increaseBudget","inputs":[{"name":"_poolId","type":"uint256","internalType":"uint256"},{"name":"_amount","type":"uint256","internalType":"uint256"}],"outputs":[],"stateMutability":"nonpayable"},{"type":"function","name":"owner","inputs":[],"outputs":[{"name":"","type":"address","internalType":"address"}],"stateMutability":"view"},{"type":"function","name":"poolCount","inputs":[],"outputs":[{"name":"","type":"uint256","internalType":"uint256"}],"stateMutability":"view"},{"type":"function","name":"poolTransfer","inputs":[{"name":"_poolId","type":"uint256","internalType":"uint256"},{"name":"_to","type":"address","internalType":"address payable"},{"name":"_amount","type":"uint256","internalType":"uint256"}],"outputs":[],"stateMutability":"nonpayable"},{"type":"function","name":"pools","inputs":[{"name":"","type":"uint256","internalType":"uint256"}],"outputs":[{"name":"tokenAddress","type":"address","internalType":"address"},{"name":"budget","type":"uint256","internalType":"uint256"}],"stateMutability":"view"},{"type":"function","name":"renounceOwnership","inputs":[],"outputs":[],"stateMutability":"nonpayable"},{"type":"function","name":"setWhitelistToken","inputs":[{"name":"_token","type":"address","internalType":"address"},{"name":"_isWhitelisted","type":"bool","internalType":"bool"}],"outputs":[],"stateMutability":"nonpayable"},{"type":"function","name":"totalAllocatedBudgets","inputs":[{"name":"","type":"address","internalType":"address"}],"outputs":[{"name":"","type":"uint256","internalType":"uint256"}],"stateMutability":"view"},{"type":"function","name":"transfer","inputs":[{"name":"_token","type":"address","internalType":"address"},{"name":"_to","type":"address","internalType":"address payable"},{"name":"_amount","type":"uint256","internalType":"uint256"}],"outputs":[],"stateMutability":"nonpayable"},{"type":"function","name":"transferCount","inputs":[],"outputs":[{"name":"","type":"uint256","internalType":"uint256"}],"stateMutability":"view"},{"type":"function","name":"transferOwnership","inputs":[{"name":"newOwner","type":"address","internalType":"address"}],"outputs":[],"stateMutability":"nonpayable"},{"type":"function","name":"transfers","inputs":[{"name":"","type":"uint256","internalType":"uint256"}],"outputs":[{"name":"from","type":"address","internalType":"address"},{"name":"token","type":"address","internalType":"address"},{"name":"amount","type":"uint256","internalType":"uint256"},{"name":"blockNumber","type":"uint256","internalType":"uint256"}],"stateMutability":"view"},{"type":"function","name":"whitelistedTokens","inputs":[{"name":"","type":"address","internalType":"address"}],"outputs":[{"name":"","type":"bool","internalType":"bool"}],"stateMutability":"view"},{"type":"event","name":"BudgetIncreased","inputs":[{"name":"poolId","type":"uint256","indexed":true,"internalType":"uint256"},{"name":"amount","type":"uint256","indexed":false,"internalType":"uint256"}],"anonymous":false},{"type":"event","name":"Deposited","inputs":[{"name":"from","type":"address","indexed":true,"internalType":"address"},{"name":"token","type":"address","indexed":true,"internalType":"address"},{"name":"amount","type":"uint256","indexed":false,"internalType":"uint256"}],"anonymous":false},{"type":"event","name":"OwnershipTransferred","inputs":[{"name":"previousOwner","type":"address","indexed":true,"internalType":"address"},{"name":"newOwner","type":"address","indexed":true,"internalType":"address"}],"anonymous":false},{"type":"event","name":"PoolCreated","inputs":[{"name":"poolId","type":"uint256","indexed":true,"internalType":"uint256"},{"name":"tokenAddress","type":"address","indexed":true,"internalType":"address"},{"name":"budget","type":"uint256","indexed":false,"internalType":"uint256"}],"anonymous":false},{"type":"event","name":"PoolDeleted","inputs":[{"name":"poolId","type":"uint256","indexed":true,"internalType":"uint256"}],"anonymous":false},{"type":"event","name":"Transferred","inputs":[{"name":"poolId","type":"uint256","indexed":true,"internalType":"uint256"},{"name":"to","type":"address","indexed":true,"internalType":"address"},{"name":"amount","type":"uint256","indexed":false,"internalType":"uint256"}],"anonymous":false},{"type":"event","name":"Transferred","inputs":[{"name":"to","type":"address","indexed":true,"internalType":"address"},{"name":"token","type":"address","indexed":true,"internalType":"address"},{"name":"amount","type":"uint256","indexed":false,"internalType":"uint256"}],"anonymous":false},{"type":"error","name":"AddressEmptyCode","inputs":[{"name":"target","type":"address","internalType":"address"}]},{"type":"error","name":"AddressInsufficientBalance","inputs":[{"name":"account","type":"address","internalType":"address"}]},{"type":"error","name":"FailedInnerCall","inputs":[]},{"type":"error","name":"OwnableInvalidOwner","inputs":[{"name":"owner","type":"address","internalType":"address"}]},{"type":"error","name":"OwnableUnauthorizedAccount","inputs":[{"name":"account","type":"address","internalType":"address"}]},{"type":"error","name":"SafeERC20FailedOperation","inputs":[{"name":"token","type":"address","internalType":"address"}]}],"bytecode":{"object":"0x608060405234801561000f575f80fd5b50338061003657604051631e4fbdf760e01b81525f60048201526024015b60405180910390fd5b61003f81610082565b505f805260036020527f3617319a054d772f909f7c479a2cebe5066e836a939412e32403c99029b92eff805460ff1916600117905561007d336100d1565b61013c565b5f80546001600160a01b038381166001600160a01b0319831681178455604051919092169283917f8be0079c531659141344cd1fd0a4f28419497f9722a3daafe3b4186f6b6457e09190a35050565b6100d961010e565b6001600160a01b03811661010257604051631e4fbdf760e01b81525f600482015260240161002d565b61010b81610082565b50565b5f546001600160a01b0316331461013a5760405163118cdaa760e01b815233600482015260240161002d565b565b61162e806101495f395ff3fe60806040526004361061015a575f3560e01c8063b85be364116100bb578063e3d33fc911610071578063f525cb6811610057578063f525cb68146104ab578063f6c2d292146104c0578063f8b2cb4f146104df575f80fd5b8063e3d33fc914610477578063f2fde38b1461048c575f80fd5b8063c16fe907116100a1578063c16fe907146103c9578063daf9c21014610431578063db6b52461461046f575f80fd5b8063b85be3641461038b578063beabacc8146103aa575f80fd5b80638da5cb5b116101105780639377d711116100f65780639377d711146102c5578063ac4afa381461030f578063b26590f31461036c575f80fd5b80638da5cb5b1461027457806392fcb94c1461029a575f80fd5b806347e7ef241161014057806347e7ef2414610222578063715018a6146102415780637c374f9914610255575f80fd5b8063068bcd8d1461016d57806312d36171146101f5575f80fd5b36610169576101676104fe565b005b5f80fd5b348015610178575f80fd5b506101cc610187366004611414565b604080518082019091525f8082526020820152505f90815260056020908152604091829020825180840190935280546001600160a01b03168352600101549082015290565b6040805182516001600160a01b0316815260209283015192810192909252015b60405180910390f35b348015610200575f80fd5b5061021461020f36600461143f565b610643565b6040519081526020016101ec565b34801561022d575f80fd5b5061021461023c36600461143f565b6107a6565b34801561024c575f80fd5b506101676109cf565b348015610260575f80fd5b5061016761026f366004611476565b6109e2565b34801561027f575f80fd5b505f546040516001600160a01b0390911681526020016101ec565b3480156102a5575f80fd5b506102146102b43660046114ad565b60066020525f908152604090205481565b3480156102d0575f80fd5b506102e46102df366004611414565b610a14565b604080516001600160a01b0395861681529490931660208501529183015260608201526080016101ec565b34801561031a575f80fd5b5061034d610329366004611414565b60056020525f9081526040902080546001909101546001600160a01b039091169082565b604080516001600160a01b0390931683526020830191909152016101ec565b348015610377575f80fd5b506101676103863660046114c8565b610a58565b348015610396575f80fd5b506101676103a53660046114e8565b610bd0565b3480156103b5575f80fd5b506101676103c436600461151d565b610d05565b3480156103d4575f80fd5b506103e86103e3366004611414565b610f16565b6040516101ec91905f6080820190506001600160a01b0383511682526001600160a01b036020840151166020830152604083015160408301526060830151606083015292915050565b34801561043c575f80fd5b5061045f61044b3660046114ad565b60036020525f908152604090205460ff1681565b60405190151581526020016101ec565b610214610f9e565b348015610482575f80fd5b5061021460025481565b348015610497575f80fd5b506101676104a63660046114ad565b610fac565b3480156104b6575f80fd5b5061021460045481565b3480156104cb575f80fd5b506101676104da366004611414565b610fe9565b3480156104ea575f80fd5b506102146104f93660046114ad565b6110d2565b604080516080810182523381525f6020820181815234938301938452436060840190815260018054808201825590845293517fb10e2d527612073b26eecdfd717e6a320cf44b4afac2b0732d9fcbe2b7fa0cf6600490950294850180546001600160a01b03199081166001600160a01b039384161790915592517fb10e2d527612073b26eecdfd717e6a320cf44b4afac2b0732d9fcbe2b7fa0cf78601805490941691161790915592517fb10e2d527612073b26eecdfd717e6a320cf44b4afac2b0732d9fcbe2b7fa0cf883015591517fb10e2d527612073b26eecdfd717e6a320cf44b4afac2b0732d9fcbe2b7fa0cf99091015560028054918291906106048361155e565b90915550506040513481525f9033907f8752a472e571a816aea92eec8dae9baf628e840f4929fbcc2d155e6233ff68a79060200160405180910390a390565b5f61064c61114e565b81156106d9575f61065c846110d2565b6001600160a01b0385165f908152600660205260409020549091508190610684908590611576565b11156106d75760405162461bcd60e51b815260206004820152601660248201527f416d6f756e745f657863656564735f62616c616e63650000000000000000000060448201526064015b60405180910390fd5b505b60048054905f6106e88361155e565b90915550506040805180820182526001600160a01b0385811680835260208084018781526004545f90815260058352868120955186546001600160a01b031916951694909417855551600190940193909355815260069091529081208054849290610754908490611576565b90915550506004546040518381526001600160a01b03851691907f8ea7f11ad0ca1b5ddc29b74323cc33342a10c8e5a15b76bd73bd8db01ea449ef9060200160405180910390a3506004545b92915050565b6001600160a01b0382165f9081526003602052604081205460ff1661080d5760405162461bcd60e51b815260206004820152601560248201527f544f4b454e5f4e4f545f57484954454c4953544544000000000000000000000060448201526064016106ce565b6001600160a01b0383166108635760405162461bcd60e51b815260206004820152600d60248201527f494e56414c49445f544f4b454e0000000000000000000000000000000000000060448201526064016106ce565b6108786001600160a01b03841633308561117a565b50604080516080810182523381526001600160a01b038481166020830190815292820184815243606084019081526001805480820182555f918252945160049095027fb10e2d527612073b26eecdfd717e6a320cf44b4afac2b0732d9fcbe2b7fa0cf6810180549686166001600160a01b031997881617905595517fb10e2d527612073b26eecdfd717e6a320cf44b4afac2b0732d9fcbe2b7fa0cf78701805491909516951694909417909255517fb10e2d527612073b26eecdfd717e6a320cf44b4afac2b0732d9fcbe2b7fa0cf8840155517fb10e2d527612073b26eecdfd717e6a320cf44b4afac2b0732d9fcbe2b7fa0cf99092019190915560028054918291906109848361155e565b90915550506040518281526001600160a01b0384169033907f8752a472e571a816aea92eec8dae9baf628e840f4929fbcc2d155e6233ff68a79060200160405180910390a392915050565b6109d761114e565b6109e05f6111fc565b565b6109ea61114e565b6001600160a01b03919091165f908152600360205260409020805460ff1916911515919091179055565b60018181548110610a23575f80fd5b5f91825260209091206004909102018054600182015460028301546003909301546001600160a01b0392831694509116919084565b610a6061114e565b5f82815260056020526040902080546001600160a01b0316151580610a8857505f8160010154115b610ac35760405162461bcd60e51b815260206004820152600c60248201526b141bdbdb17d9195b195d195960a21b60448201526064016106ce565b80545f90610ad9906001600160a01b03166110d2565b82546001600160a01b03165f908152600660205260409020549091508190610b02908590611576565b1115610b505760405162461bcd60e51b815260206004820152601660248201527f416d6f756e745f657863656564735f62616c616e63650000000000000000000060448201526064016106ce565b82826001015f828254610b639190611576565b909155505081546001600160a01b03165f9081526006602052604081208054859290610b90908490611576565b909155505060405183815284907f5e846d4c47d20e1c7a8cf49b4eeb3de20e7c6f1438e393f47ff4c16f8401eb759060200160405180910390a250505050565b610bd861114e565b5f83815260056020526040902080546001600160a01b0316151580610c0057505f8160010154115b610c395760405162461bcd60e51b815260206004820152600a602482015269506f6f6c5f656d70747960b01b60448201526064016106ce565b8060010154821115610c8d5760405162461bcd60e51b815260206004820152601560248201527f416d6f756e745f657863656564735f627564676574000000000000000000000060448201526064016106ce565b81816001015f828254610ca09190611589565b90915550508054610cbb906001600160a01b03168484610d05565b826001600160a01b0316847fb34d4539a6d4489f4f5bba338e04ed7b691e9ac32a25b992080584523f990c4b84604051610cf791815260200190565b60405180910390a350505050565b610d0d61114e565b6001600160a01b038216610d635760405162461bcd60e51b815260206004820152601160248201527f494e56414c49445f524543495049454e5400000000000000000000000000000060448201526064016106ce565b6001600160a01b038316610dfa5780471015610dc15760405162461bcd60e51b815260206004820152601b60248201527f494e53554646494349454e545f4e41544956455f42414c414e4345000000000060448201526064016106ce565b6040516001600160a01b0383169082156108fc029083905f818181858888f19350505050158015610df4573d5f803e3d5ffd5b50610ec4565b6040516370a0823160e01b815230600482015281906001600160a01b038516906370a0823190602401602060405180830381865afa158015610e3e573d5f803e3d5ffd5b505050506040513d601f19601f82011682018060405250810190610e62919061159c565b1015610eb05760405162461bcd60e51b815260206004820152601a60248201527f494e53554646494349454e545f544f4b454e5f42414c414e434500000000000060448201526064016106ce565b610ec46001600160a01b038416838361124b565b826001600160a01b0316826001600160a01b03167fd1ba4ac2e2a11b5101f6cb4d978f514a155b421e8ec396d2d9abaf0bb02917ee83604051610f0991815260200190565b60405180910390a3505050565b604080516080810182525f80825260208201819052918101829052606081019190915260018281548110610f4c57610f4c6115b3565b5f91825260209182902060408051608081018252600490930290910180546001600160a01b03908116845260018201541693830193909352600283015490820152600390910154606082015292915050565b5f610fa76104fe565b905090565b610fb461114e565b6001600160a01b038116610fdd57604051631e4fbdf760e01b81525f60048201526024016106ce565b610fe6816111fc565b50565b610ff161114e565b5f81815260056020526040902080546001600160a01b031615158061101957505f8160010154115b6110545760405162461bcd60e51b815260206004820152600c60248201526b141bdbdb17d9195b195d195960a21b60448201526064016106ce565b600181015481546001600160a01b03165f9081526006602052604081208054909190611081908490611589565b90915550505f8281526005602052604080822080546001600160a01b03191681556001018290555183917fa73d55d8eafb650619255c4a52c8099e389e98a45f57310c086f0e802099b21b91a25050565b5f6001600160a01b0382166110e8575047919050565b6040516370a0823160e01b81523060048201526001600160a01b038316906370a0823190602401602060405180830381865afa15801561112a573d5f803e3d5ffd5b505050506040513d601f19601f820116820180604052508101906107a0919061159c565b5f546001600160a01b031633146109e05760405163118cdaa760e01b81523360048201526024016106ce565b6040516001600160a01b0384811660248301528381166044830152606482018390526111f69186918216906323b872dd906084015b604051602081830303815290604052915060e01b6020820180517bffffffffffffffffffffffffffffffffffffffffffffffffffffffff8381831617835250505050611281565b50505050565b5f80546001600160a01b038381166001600160a01b0319831681178455604051919092169283917f8be0079c531659141344cd1fd0a4f28419497f9722a3daafe3b4186f6b6457e09190a35050565b6040516001600160a01b0383811660248301526044820183905261127c91859182169063a9059cbb906064016111af565b505050565b5f6112956001600160a01b038416836112e2565b905080515f141580156112b95750808060200190518101906112b791906115c7565b155b1561127c57604051635274afe760e01b81526001600160a01b03841660048201526024016106ce565b60606112ef83835f6112f6565b9392505050565b60608147101561131b5760405163cd78605960e01b81523060048201526024016106ce565b5f80856001600160a01b0316848660405161133691906115e2565b5f6040518083038185875af1925050503d805f8114611370576040519150601f19603f3d011682016040523d82523d5f602084013e611375565b606091505b509150915061138586838361138f565b9695505050505050565b6060826113a45761139f826113eb565b6112ef565b81511580156113bb57506001600160a01b0384163b155b156113e457604051639996b31560e01b81526001600160a01b03851660048201526024016106ce565b50806112ef565b8051156113fb5780518082602001fd5b604051630a12f52160e11b815260040160405180910390fd5b5f60208284031215611424575f80fd5b5035919050565b6001600160a01b0381168114610fe6575f80fd5b5f8060408385031215611450575f80fd5b823561145b8161142b565b946020939093013593505050565b8015158114610fe6575f80fd5b5f8060408385031215611487575f80fd5b82356114928161142b565b915060208301356114a281611469565b809150509250929050565b5f602082840312156114bd575f80fd5b81356112ef8161142b565b5f80604083850312156114d9575f80fd5b50508035926020909101359150565b5f805f606084860312156114fa575f80fd5b83359250602084013561150c8161142b565b929592945050506040919091013590565b5f805f6060848603121561152f575f80fd5b833561153a8161142b565b9250602084013561150c8161142b565b634e487b7160e01b5f52601160045260245ffd5b5f6001820161156f5761156f61154a565b5060010190565b808201808211156107a0576107a061154a565b818103818111156107a0576107a061154a565b5f602082840312156115ac575f80fd5b5051919050565b634e487b7160e01b5f52603260045260245ffd5b5f602082840312156115d7575f80fd5b81516112ef81611469565b5f82518060208501845e5f92019182525091905056fea264697066735822122035fd8f0bc9d90c64bd50dfb784e2f07433d191b56c59d5ee119d697877cc153c64736f6c634300081a0033","linkReferences":{}},"methodIdentifiers":{"createPool(address,uint256)":"12d36171","deletePool(uint256)":"f6c2d292","deposit(address,uint256)":"47e7ef24","depositNative()":"db6b5246","getBalance(address)":"f8b2cb4f","getPool(uint256)":"068bcd8d","getTransfer(uint256)":"c16fe907","increaseBudget(uint256,uint256)":"b26590f3","owner()":"8da5cb5b","poolCount()":"f525cb68","poolTransfer(uint256,address,uint256)":"b85be364","pools(uint256)":"ac4afa38","renounceOwnership()":"715018a6","setWhitelistToken(address,bool)":"7c374f99","totalAllocatedBudgets(address)":"92fcb94c","transfer(address,address,uint256)":"beabacc8","transferCount()":"e3d33fc9","transferOwnership(address)":"f2fde38b","transfers(uint256)":"9377d711","whitelistedTokens(address)":"daf9c210"},"id":112}