{"abi":[{"type":"constructor","inputs":[],"stateMutability":"nonpayable"},{"type":"function","name":"executeLaw","inputs":[{"name":"caller","type":"address","internalType":"address"},{"name":"lawId","type":"uint16","internalType":"uint16"},{"name":"lawCalldata","type":"bytes","internalType":"bytes"},{"name":"nonce","type":"uint256","internalType":"uint256"}],"outputs":[{"name":"success","type":"bool","internalType":"bool"}],"stateMutability":"nonpayable"},{"type":"function","name":"getConfig","inputs":[{"name":"powers","type":"address","internalType":"address"},{"name":"lawId","type":"uint16","internalType":"uint16"}],"outputs":[{"name":"config","type":"bytes","internalType":"bytes"}],"stateMutability":"view"},{"type":"function","name":"getConfigData","inputs":[{"name":"powers","type":"address","internalType":"address"},{"name":"lawId","type":"uint16","internalType":"uint16"}],"outputs":[{"name":"","type":"tuple","internalType":"struct TreasuryPoolGovernance.ConfigData","components":[{"name":"selectedPoolTransfer","type":"address","internalType":"address"},{"name":"treasuryPools","type":"address","internalType":"address"},{"name":"proposeLawId","type":"uint16","internalType":"uint16"},{"name":"vetoLawId","type":"uint16","internalType":"uint16"},{"name":"votingPeriod","type":"uint32","internalType":"uint32"},{"name":"succeedAt","type":"uint8","internalType":"uint8"},{"name":"quorum","type":"uint8","internalType":"uint8"}]}],"stateMutability":"view"},{"type":"function","name":"getInputParams","inputs":[{"name":"powers","type":"address","internalType":"address"},{"name":"lawId","type":"uint16","internalType":"uint16"}],"outputs":[{"name":"inputParams","type":"bytes","internalType":"bytes"}],"stateMutability":"view"},{"type":"function","name":"getNameDescription","inputs":[{"name":"powers","type":"address","internalType":"address"},{"name":"lawId","type":"uint16","internalType":"uint16"}],"outputs":[{"name":"nameDescription","type":"string","internalType":"string"}],"stateMutability":"view"},{"type":"function","name":"handleRequest","inputs":[{"name":"","type":"address","internalType":"address"},{"name":"powers","type":"address","internalType":"address"},{"name":"lawId","type":"uint16","internalType":"uint16"},{"name":"lawCalldata","type":"bytes","internalType":"bytes"},{"name":"nonce","type":"uint256","internalType":"uint256"}],"outputs":[{"name":"actionId","type":"uint256","internalType":"uint256"},{"name":"targets","type":"address[]","internalType":"address[]"},{"name":"values","type":"uint256[]","internalType":"uint256[]"},{"name":"calldatas","type":"bytes[]","internalType":"bytes[]"}],"stateMutability":"view"},{"type":"function","name":"initializeLaw","inputs":[{"name":"index","type":"uint16","internalType":"uint16"},{"name":"nameDescription","type":"string","internalType":"string"},{"name":"inputParams","type":"bytes","internalType":"bytes"},{"name":"config","type":"bytes","internalType":"bytes"}],"outputs":[],"stateMutability":"nonpayable"},{"type":"function","name":"lawConfig","inputs":[{"name":"lawHash","type":"bytes32","internalType":"bytes32"}],"outputs":[{"name":"selectedPoolTransfer","type":"address","internalType":"address"},{"name":"treasuryPools","type":"address","internalType":"address"},{"name":"proposeLawId","type":"uint16","internalType":"uint16"},{"name":"vetoLawId","type":"uint16","internalType":"uint16"},{"name":"votingPeriod","type":"uint32","internalType":"uint32"},{"name":"succeedAt","type":"uint8","internalType":"uint8"},{"name":"quorum","type":"uint8","internalType":"uint8"}],"stateMutability":"view"},{"type":"function","name":"laws","inputs":[{"name":"lawHash","type":"bytes32","internalType":"bytes32"}],"outputs":[{"name":"nameDescription","type":"string","internalType":"string"},{"name":"inputParams","type":"bytes","internalType":"bytes"},{"name":"config","type":"bytes","internalType":"bytes"},{"name":"powers","type":"address","internalType":"address"}],"stateMutability":"view"},{"type":"function","name":"supportsInterface","inputs":[{"name":"interfaceId","type":"bytes4","internalType":"bytes4"}],"outputs":[{"name":"","type":"bool","internalType":"bool"}],"stateMutability":"view"},{"type":"event","name":"Law__Deployed","inputs":[{"name":"configParams","type":"bytes","indexed":false,"internalType":"bytes"}],"anonymous":false},{"type":"event","name":"Law__Initialized","inputs":[{"name":"powers","type":"address","indexed":true,"internalType":"address"},{"name":"index","type":"uint16","indexed":true,"internalType":"uint16"},{"name":"nameDescription","type":"string","indexed":false,"internalType":"string"},{"name":"inputParams","type":"bytes","indexed":false,"internalType":"bytes"},{"name":"config","type":"bytes","indexed":false,"internalType":"bytes"}],"anonymous":false},{"type":"error","name":"CannotDecodePoolId","inputs":[]},{"type":"error","name":"CannotDecodeSourceInputs","inputs":[]},{"type":"error","name":"InvalidSourceAction","inputs":[]},{"type":"error","name":"LawNotConfigured","inputs":[]}],"bytecode":{"object":"0x608060405234801561000f575f80fd5b505f6040516020016100209061006e565b60405160208183030381529060405290507fc5389813cde4ae9e760a24ddd7e7ee31b82b36b1077e156cdcad4547bf7692e18160405161006091906101d1565b60405180910390a150610206565b60e08152601c60e08201527f616464726573732073656c6563746564506f6f6c5472616e7366657200000000610100820152610120602082015260156101208201527f61646472657373205472656173757279506f6f6c73000000000000000000000061014082015261016060408201525f6101186101608301601481527f75696e7431362070726f706f73616c4c61774964000000000000000000000000602082015260400190565b8281036060840152601081526f1d5a5b9d0c4d881d995d1bd3185dd25960821b6020820152604081018381036080850152601381527f75696e74333220766f74696e67506572696f6400000000000000000000000000602082015290506040810183810360a0850152600f81526e1d5a5b9d0e081cdd58d8d95959105d608a1b602082015290506040810183810360c0850152600c81526b75696e74382071756f72756d60a01b60208201529050604081019392505050565b602081525f82518060208401528060208501604085015e5f604082850101526040601f19601f83011684010191505092915050565b6125c3806102135f395ff3fe608060405234801561000f575f80fd5b506004361061009b575f3560e01c80637bf5b2fb116100635780637bf5b2fb14610142578063c0d27aad14610155578063d8a941f414610168578063e33459a31461017b578063eb5a1b7c1461019b575f80fd5b806301ffc9a71461009f578063040b1100146100c75780630d157721146100dc5780630db07d58146100fc578063552cb3721461011f575b5f80fd5b6100b26100ad3660046117da565b61025d565b60405190151581526020015b60405180910390f35b6100da6100d5366004611906565b610293565b005b6100ef6100ea3660046119cb565b6104fd565b6040516100be9190611a30565b61010f61010a366004611a42565b610617565b6040516100be9493929190611a59565b61013261012d366004611aab565b6107d9565b6040516100be9493929190611bef565b6100b2610150366004611c38565b610f2f565b6100ef6101633660046119cb565b61106f565b6100ef6101763660046119cb565b611106565b61018e6101893660046119cb565b61119d565b6040516100be9190611ccb565b61020a6101a9366004611a42565b600160208190525f918252604090912080549101546001600160a01b039182169181169061ffff600160a01b8204811691600160b01b81049091169063ffffffff600160c01b8204169060ff600160e01b8204811691600160e81b90041687565b604080516001600160a01b03988916815297909616602088015261ffff9485169587019590955292909116606085015263ffffffff16608084015260ff90811660a08401521660c082015260e0016100be565b5f6001600160e01b03198216632ad2108960e01b148061028d57506301ffc9a760e01b6001600160e01b03198316145b92915050565b5f805f805f805f878060200190518101906102ae9190611d7f565b96509650965096509650965096505f73__$da6f5012babb472fe138ca3bf3d5984061$__63cae5c9f8338e6040518363ffffffff1660e01b81526004016102f6929190611e0b565b602060405180830381865af4158015610311573d5f803e3d5ffd5b505050506040513d601f19601f820116820180604052508101906103359190611e28565b90506040516020016103c4906060808252601490820152736164647265737320546f6b656e4164647265737360601b608082015260a060208201819052600e908201526d1d5a5b9d0c8d4d88109d5919d95d60921b60c082015260e060408201819052601590820152741d5a5b9d0c8d4d8813585b9859d95c949bdb195259605a1b6101008201526101200190565b60408051601f1981840301815260e0830182526001600160a01b03808c1684528a8116602085810191825261ffff808d168787019081528c82166060890190815263ffffffff808e1660808b0190815260ff808f1660a08d019081528e821660c08e019081525f8f81526001998a90529c909c209c518d54908b166001600160a01b0319909116178d5597519b909601805494519351915197519a518716600160e81b0260ff60e81b199b909716600160e01b029a909a1661ffff60e01b1997909216600160c01b0263ffffffff60c01b19918616600160b01b029190911665ffffffffffff60b01b1993909516600160a01b026001600160b01b03199094169a9097169990991791909117161792909217169390931792909217905599506104ef8c8c8c8c61131d565b505050505050505050505050565b60605f8073__$da6f5012babb472fe138ca3bf3d5984061$__63cae5c9f886866040518363ffffffff1660e01b815260040161053a929190611e0b565b602060405180830381865af4158015610555573d5f803e3d5ffd5b505050506040513d601f19601f820116820180604052508101906105799190611e28565b81526020019081526020015f205f01805461059390611e3f565b80601f01602080910402602001604051908101604052809291908181526020018280546105bf90611e3f565b801561060a5780601f106105e15761010080835404028352916020019161060a565b820191905f5260205f20905b8154815290600101906020018083116105ed57829003601f168201915b5050505050905092915050565b5f6020819052908152604090208054819061063190611e3f565b80601f016020809104026020016040519081016040528092919081815260200182805461065d90611e3f565b80156106a85780601f1061067f576101008083540402835291602001916106a8565b820191905f5260205f20905b81548152906001019060200180831161068b57829003601f168201915b5050505050908060010180546106bd90611e3f565b80601f01602080910402602001604051908101604052809291908181526020018280546106e990611e3f565b80156107345780601f1061070b57610100808354040283529160200191610734565b820191905f5260205f20905b81548152906001019060200180831161071757829003601f168201915b50505050509080600201805461074990611e3f565b80601f016020809104026020016040519081016040528092919081815260200182805461077590611e3f565b80156107c05780601f10610797576101008083540402835291602001916107c0565b820191905f5260205f20905b8154815290600101906020018083116107a357829003601f168201915b505050600390930154919250506001600160a01b031684565b5f60608060605f73__$da6f5012babb472fe138ca3bf3d5984061$__63cae5c9f88a8a6040518363ffffffff1660e01b8152600401610819929190611e0b565b602060405180830381865af4158015610834573d5f803e3d5ffd5b505050506040513d601f19601f820116820180604052508101906108589190611e28565b5f81815260016020818152604092839020835160e08101855281546001600160a01b039081168252919093015490811691830182905261ffff600160a01b8204811694840194909452600160b01b8104909316606083015263ffffffff600160c01b840416608083015260ff600160e01b8404811660a0840152600160e81b90930490921660c082015291925061092b5760405162461bcd60e51b815260206004820152601260248201527113185dc8139bdd0810dbdb999a59dd5c995960721b60448201526064015b60405180910390fd5b6109336116b4565b60405163831af37960e01b815261ffff8b1660048201525f906001600160a01b038d169063831af3799060240161010060405180830381865afa15801561097c573d5f803e3d5ffd5b505050506040513d601f19601f820116820180604052508101906109a09190611e77565b9050806080015161ffff165f036109ed5760405162461bcd60e51b8152602060048201526011602482015270119d5b199a5b1b1959081b9bdd081cd95d607a1b6044820152606401610922565b6080810151604051630bcec85560e01b815273__$da6f5012babb472fe138ca3bf3d5984061$__91630bcec85591610a2c91908e908e90600401611f16565b602060405180830381865af4158015610a47573d5f803e3d5ffd5b505050506040513d601f19601f82011682018060405250810190610a6b9190611e28565b808352604051634583476b60e01b815260048101919091526001600160a01b038d1690634583476b9060240160e060405180830381865afa158015610ab2573d5f803e3d5ffd5b505050506040513d601f19601f82011682018060405250810190610ad69190611f57565b50505065ffffffffffff166040860181905261ffff909316602086015250505f03610b1457604051630f7f29e160e11b815260040160405180910390fd5b81516040516341bd157d60e01b815260048101919091525f60248201526001600160a01b038d16906341bd157d906044015f60405180830381865afa158015610b5f573d5f803e3d5ffd5b505050506040513d5f823e601f3d908101601f19168201604052610b869190810190612028565b606083018190528051610ba191602091810182019101611e28565b608083018190525f03610bed5760405162461bcd60e51b815260206004820152601460248201527310d85b9b9bdd08191958dbd919481c1bdbdb125960621b6044820152606401610922565b89806020019051810190610c019190612061565b60c08501525050604080516301022e5160e61b815290516001600160a01b038e169163408b94409160048083019260209291908290030181865afa158015610c4b573d5f803e3d5ffd5b505050506040513d601f19601f82011682018060405250810190610c6f9190612095565b61ffff166101008301526080820151610c87906114e0565b604051602001610c9791906120b0565b60405160208183030381529060405282610120018190525082602001518260800151604051602001610cde9291906001600160a01b03929092168252602082015260400190565b60408051808303601f19018152918152610160840191825260c0808501516101a08601805191909152608087810151825163ffffffff90911660209182015260a0808a0151845160ff91821660e0909101528a8601518551911695019490945288850151835161ffff918216908401526060808b015185519216919095015284519182018552610120880151825288516001600160a01b03169082015293518484015251908301526101808401919091525163054591f760e11b81526001600482015273__$da6f5012babb472fe138ca3bf3d5984061$__90630a8b23ee906024015f60405180830381865af4158015610dda573d5f803e3d5ffd5b505050506040513d5f823e601f3d908101601f19168201604052610e0191908101906121f5565b825192995090975095508c9088905f90610e1d57610e1d6122e2565b6001600160a01b039092166020928302919091019091015261018082015160405163a3a86b4760e01b91610e53916024016122f6565b604051602081830303815290604052906001600160e01b0319166020820180516001600160e01b038381831617835250505050855f81518110610e9857610e986122e2565b6020908102919091010152604051630bcec85560e01b815273__$da6f5012babb472fe138ca3bf3d5984061$__90630bcec85590610ede908e908e908e90600401611f16565b602060405180830381865af4158015610ef9573d5f803e3d5ffd5b505050506040513d601f19601f82011682018060405250810190610f1d9190611e28565b97505050505095509550955095915050565b5f8073__$da6f5012babb472fe138ca3bf3d5984061$__63cae5c9f833886040518363ffffffff1660e01b8152600401610f6a929190611e0b565b602060405180830381865af4158015610f85573d5f803e3d5ffd5b505050506040513d601f19601f82011682018060405250810190610fa99190611e28565b5f818152602081905260409020600301549091506001600160a01b031633146110025760405162461bcd60e51b815260206004820152600b60248201526a4f6e6c7920506f7765727360a81b6044820152606401610922565b5f805f806110498b338c8c8c8080601f0160208091040260200160405190810160405280939291908181526020018383808284375f920191909152508e92506107d9915050565b935093509350935061105e8a85858585611577565b5060019a9950505050505050505050565b60605f8073__$da6f5012babb472fe138ca3bf3d5984061$__63cae5c9f886866040518363ffffffff1660e01b81526004016110ac929190611e0b565b602060405180830381865af41580156110c7573d5f803e3d5ffd5b505050506040513d601f19601f820116820180604052508101906110eb9190611e28565b81526020019081526020015f20600201805461059390611e3f565b60605f8073__$da6f5012babb472fe138ca3bf3d5984061$__63cae5c9f886866040518363ffffffff1660e01b8152600401611143929190611e0b565b602060405180830381865af415801561115e573d5f803e3d5ffd5b505050506040513d601f19601f820116820180604052508101906111829190611e28565b81526020019081526020015f20600101805461059390611e3f565b6040805160e0810182525f80825260208201819052918101829052606081018290526080810182905260a0810182905260c081019190915260405163195cb93f60e31b81525f9073__$da6f5012babb472fe138ca3bf3d5984061$__9063cae5c9f8906112109087908790600401611e0b565b602060405180830381865af415801561122b573d5f803e3d5ffd5b505050506040513d601f19601f8201168201806040525081019061124f9190611e28565b5f81815260016020819052604090912001549091506001600160a01b031661128a57604051631546598b60e01b815260040160405180910390fd5b5f90815260016020818152604092839020835160e08101855281546001600160a01b03908116825291909301549081169183019190915261ffff600160a01b8204811693830193909352600160b01b8104909216606082015263ffffffff600160c01b830416608082015260ff600160e01b8304811660a0830152600160e81b90920490911660c0820152905092915050565b60405163195cb93f60e31b81525f9073__$da6f5012babb472fe138ca3bf3d5984061$__9063cae5c9f8906113589033908990600401611e0b565b602060405180830381865af4158015611373573d5f803e3d5ffd5b505050506040513d601f19601f820116820180604052508101906113979190611e28565b60405163cb4a15c560e01b815290915073__$da6f5012babb472fe138ca3bf3d5984061$__9063cb4a15c5906113d790879060019060ff906004016123d0565b5f6040518083038186803b1580156113ed575f80fd5b505af41580156113ff573d5f803e3d5ffd5b50506040805160808101825287815260208082018890528183018790523360608301525f8681529081905291909120815191935091508190611441908261243d565b5060208201516001820190611456908261243d565b506040820151600282019061146b908261243d565b5060609190910151600390910180546001600160a01b0319166001600160a01b0390921691909117905560405161ffff86169033907f3325fccc62d4919a3b0d34ea1fe03878a5248dd1bc36dd8d4316eafc2b8d0adf906114d1908890889088906124f7565b60405180910390a35050505050565b60605f6114ec836115dd565b60010190505f816001600160401b0381111561150a5761150a61181a565b6040519080825280601f01601f191660200182016040528015611534576020820181803683370190505b5090508181016020015b5f19016f181899199a1a9b1b9c1cb0b131b232b360811b600a86061a8153600a850494508461153e575b509392505050565b5050505050565b82511561157057604051630de6a60160e01b81523390630de6a601906115a99088908890889088908890600401612539565b5f604051808303815f87803b1580156115c0575f80fd5b505af11580156115d2573d5f803e3d5ffd5b505050505050505050565b5f8072184f03e93ff9f4daa797ed6e38ed64bf6a1f0160401b831061161b5772184f03e93ff9f4daa797ed6e38ed64bf6a1f0160401b830492506040015b6d04ee2d6d415b85acef81000000008310611647576d04ee2d6d415b85acef8100000000830492506020015b662386f26fc10000831061166557662386f26fc10000830492506010015b6305f5e100831061167d576305f5e100830492506008015b612710831061169157612710830492506004015b606483106116a3576064830492506002015b600a831061028d5760010192915050565b604051806101c001604052805f81526020015f61ffff1681526020015f65ffffffffffff168152602001606081526020015f8152602001606081526020015f8152602001606081526020015f61ffff16815260200160608152602001606081526020016060815260200161178f6040518060800160405280606081526020015f6001600160a01b03168152602001606081526020016117d560408051610100810182525f80825260208201819052918101829052606081018290526080810182905260a0810182905260c0810182905260e081019190915290565b815260408051610100810182525f8082526020828101829052928201819052606082018190526080820181905260a0820181905260c0820181905260e082015291015290565b905290565b5f602082840312156117ea575f80fd5b81356001600160e01b031981168114611801575f80fd5b9392505050565b61ffff81168114611817575f80fd5b50565b634e487b7160e01b5f52604160045260245ffd5b60405161010081016001600160401b03811182821017156118515761185161181a565b60405290565b604051601f8201601f191681016001600160401b038111828210171561187f5761187f61181a565b604052919050565b5f6001600160401b0382111561189f5761189f61181a565b50601f01601f191660200190565b5f6118bf6118ba84611887565b611857565b90508281528383830111156118d2575f80fd5b828260208301375f602084830101529392505050565b5f82601f8301126118f7575f80fd5b611801838335602085016118ad565b5f805f8060808587031215611919575f80fd5b843561192481611808565b935060208501356001600160401b0381111561193e575f80fd5b8501601f8101871361194e575f80fd5b61195d878235602084016118ad565b93505060408501356001600160401b03811115611978575f80fd5b611984878288016118e8565b92505060608501356001600160401b0381111561199f575f80fd5b6119ab878288016118e8565b91505092959194509250565b6001600160a01b0381168114611817575f80fd5b5f80604083850312156119dc575f80fd5b82356119e7816119b7565b915060208301356119f781611808565b809150509250929050565b5f81518084528060208401602086015e5f602082860101526020601f19601f83011685010191505092915050565b602081525f6118016020830184611a02565b5f60208284031215611a52575f80fd5b5035919050565b608081525f611a6b6080830187611a02565b8281036020840152611a7d8187611a02565b90508281036040840152611a918186611a02565b91505060018060a01b038316606083015295945050505050565b5f805f805f60a08688031215611abf575f80fd5b8535611aca816119b7565b94506020860135611ada816119b7565b93506040860135611aea81611808565b925060608601356001600160401b03811115611b04575f80fd5b611b10888289016118e8565b95989497509295608001359392505050565b5f8151808452602084019350602083015f5b82811015611b5b5781516001600160a01b0316865260209586019590910190600101611b34565b5093949350505050565b5f8151808452602084019350602083015f5b82811015611b5b578151865260209586019590910190600101611b77565b5f82825180855260208501945060208160051b830101602085015f5b83811015611be357601f19858403018852611bcd838351611a02565b6020988901989093509190910190600101611bb1565b50909695505050505050565b848152608060208201525f611c076080830186611b22565b8281036040840152611c198186611b65565b90508281036060840152611c2d8185611b95565b979650505050505050565b5f805f805f60808688031215611c4c575f80fd5b8535611c57816119b7565b94506020860135611c6781611808565b935060408601356001600160401b03811115611c81575f80fd5b8601601f81018813611c91575f80fd5b80356001600160401b03811115611ca6575f80fd5b886020828401011115611cb7575f80fd5b959894975060200195606001359392505050565b5f60e08201905060018060a01b03835116825260018060a01b03602084015116602083015261ffff604084015116604083015261ffff606084015116606083015263ffffffff608084015116608083015260a0830151611d3060a084018260ff169052565b5060c0830151611d4560c084018260ff169052565b5092915050565b8051611d5781611808565b919050565b805163ffffffff81168114611d57575f80fd5b805160ff81168114611d57575f80fd5b5f805f805f805f60e0888a031215611d95575f80fd5b8751611da0816119b7565b6020890151909750611db1816119b7565b6040890151909650611dc281611808565b6060890151909550611dd381611808565b9350611de160808901611d5c565b9250611def60a08901611d6f565b9150611dfd60c08901611d6f565b905092959891949750929550565b6001600160a01b0392909216825261ffff16602082015260400190565b5f60208284031215611e38575f80fd5b5051919050565b600181811c90821680611e5357607f821691505b602082108103611e7157634e487b7160e01b5f52602260045260245ffd5b50919050565b5f610100828403128015611e89575f80fd5b50611e9261182e565b82518152611ea260208401611d5c565b6020820152611eb360408401611d5c565b6040820152611ec460608401611d5c565b60608201526080830151611ed781611808565b6080820152611ee860a08401611d4c565b60a0820152611ef960c08401611d6f565b60c0820152611f0a60e08401611d6f565b60e08201529392505050565b61ffff84168152606060208201525f611f326060830185611a02565b9050826040830152949350505050565b805165ffffffffffff81168114611d57575f80fd5b5f805f805f805f60e0888a031215611f6d575f80fd5b8751611f7881611808565b9650611f8660208901611f42565b9550611f9460408901611f42565b9450611fa260608901611f42565b9350611fb060808901611f42565b925060a0880151611fc0816119b7565b60c09890980151969995985093969295919492935090919050565b5f82601f830112611fea575f80fd5b8151611ff86118ba82611887565b81815284602083860101111561200c575f80fd5b8160208501602083015e5f918101602001919091529392505050565b5f60208284031215612038575f80fd5b81516001600160401b0381111561204d575f80fd5b61205984828501611fdb565b949350505050565b5f805f60608486031215612073575f80fd5b835161207e816119b7565b602085015160409095015190969495509392505050565b5f602082840312156120a5575f80fd5b815161180181611808565b6402837b7b6160dd1b81525f82518060208501600585015e701022bc32b1baba32902a3930b739b332b960791b6005939091019283015250601601919050565b5f6001600160401b038211156121085761210861181a565b5060051b60200190565b5f82601f830112612121575f80fd5b815161212f6118ba826120f0565b8082825260208201915060208360051b860101925085831115612150575f80fd5b602085015b8381101561216d578051835260209283019201612155565b5095945050505050565b5f82601f830112612186575f80fd5b81516121946118ba826120f0565b8082825260208201915060208360051b8601019250858311156121b5575f80fd5b602085015b8381101561216d5780516001600160401b038111156121d7575f80fd5b6121e6886020838a0101611fdb565b845250602092830192016121ba565b5f805f60608486031215612207575f80fd5b83516001600160401b0381111561221c575f80fd5b8401601f8101861361222c575f80fd5b805161223a6118ba826120f0565b8082825260208201915060208360051b85010192508883111561225b575f80fd5b6020840193505b82841015612286578351612275816119b7565b825260209384019390910190612262565b8096505050505060208401516001600160401b038111156122a5575f80fd5b6122b186828701612112565b92505060408401516001600160401b038111156122cc575f80fd5b6122d886828701612177565b9150509250925092565b634e487b7160e01b5f52603260045260245ffd5b602081525f82516101606020840152612313610180840182611a02565b60208501516001600160a01b0316604085810191909152850151848203601f190160608601529091506123468282611a02565b91505060608401518051608085015263ffffffff60208201511660a085015263ffffffff60408201511660c085015263ffffffff60608201511660e0850152608081015161239b61010086018261ffff169052565b5060a081015161ffff81166101208601525060c081015160ff81166101408601525060e0015160ff8116610160850152611568565b606081525f6123e26060830186611a02565b60208301949094525060400152919050565b601f82111561243857805f5260205f20601f840160051c810160208510156124195750805b601f840160051c820191505b81811015611570575f8155600101612425565b505050565b81516001600160401b038111156124565761245661181a565b61246a816124648454611e3f565b846123f4565b6020601f82116001811461249c575f83156124855750848201515b5f19600385901b1c1916600184901b178455611570565b5f84815260208120601f198516915b828110156124cb57878501518255602094850194600190920191016124ab565b50848210156124e857868401515f19600387901b60f8161c191681555b50505050600190811b01905550565b606081525f6125096060830186611a02565b828103602084015261251b8186611a02565b9050828103604084015261252f8185611a02565b9695505050505050565b61ffff8616815284602082015260a060408201525f61255b60a0830186611b22565b828103606084015261256d8186611b65565b905082810360808401526125818185611b95565b9897505050505050505056fea26469706673582212203fe8f0aea20bb0aacc1574fbac15eb32597dbe44cf74162b3b7d0be4c633020864736f6c634300081a0033","linkReferences":{"src/libraries/LawUtilities.sol":{"LawUtilities":[{"start":1234,"length":20},{"start":1814,"length":20},{"start":2549,"length":20},{"start":3092,"length":20},{"start":4022,"length":20},{"start":4293,"length":20},{"start":4422,"length":20},{"start":4744,"length":20},{"start":4895,"length":20},{"start":5113,"length":20},{"start":5441,"length":20},{"start":5564,"length":20}]}}},"methodIdentifiers":{"executeLaw(address,uint16,bytes,uint256)":"7bf5b2fb","getConfig(address,uint16)":"c0d27aad","getConfigData(address,uint16)":"e33459a3","getInputParams(address,uint16)":"d8a941f4","getNameDescription(address,uint16)":"0d157721","handleRequest(address,address,uint16,bytes,uint256)":"552cb372","initializeLaw(uint16,string,bytes,bytes)":"040b1100","lawConfig(bytes32)":"eb5a1b7c","laws(bytes32)":"0db07d58","supportsInterface(bytes4)":"01ffc9a7"},"id":157}