{"abi":[{"type":"constructor","inputs":[],"stateMutability":"nonpayable"},{"type":"function","name":"executeLaw","inputs":[{"name":"caller","type":"address","internalType":"address"},{"name":"lawId","type":"uint16","internalType":"uint16"},{"name":"lawCalldata","type":"bytes","internalType":"bytes"},{"name":"nonce","type":"uint256","internalType":"uint256"}],"outputs":[{"name":"success","type":"bool","internalType":"bool"}],"stateMutability":"nonpayable"},{"type":"function","name":"getConfig","inputs":[{"name":"powers","type":"address","internalType":"address"},{"name":"lawId","type":"uint16","internalType":"uint16"}],"outputs":[{"name":"config","type":"bytes","internalType":"bytes"}],"stateMutability":"view"},{"type":"function","name":"getInputParams","inputs":[{"name":"powers","type":"address","internalType":"address"},{"name":"lawId","type":"uint16","internalType":"uint16"}],"outputs":[{"name":"inputParams","type":"bytes","internalType":"bytes"}],"stateMutability":"view"},{"type":"function","name":"getNameDescription","inputs":[{"name":"powers","type":"address","internalType":"address"},{"name":"lawId","type":"uint16","internalType":"uint16"}],"outputs":[{"name":"nameDescription","type":"string","internalType":"string"}],"stateMutability":"view"},{"type":"function","name":"handleRequest","inputs":[{"name":"","type":"address","internalType":"address"},{"name":"powers","type":"address","internalType":"address"},{"name":"lawId","type":"uint16","internalType":"uint16"},{"name":"lawCalldata","type":"bytes","internalType":"bytes"},{"name":"nonce","type":"uint256","internalType":"uint256"}],"outputs":[{"name":"actionId","type":"uint256","internalType":"uint256"},{"name":"targets","type":"address[]","internalType":"address[]"},{"name":"values","type":"uint256[]","internalType":"uint256[]"},{"name":"calldatas","type":"bytes[]","internalType":"bytes[]"}],"stateMutability":"view"},{"type":"function","name":"initializeLaw","inputs":[{"name":"index","type":"uint16","internalType":"uint16"},{"name":"nameDescription","type":"string","internalType":"string"},{"name":"inputParams","type":"bytes","internalType":"bytes"},{"name":"config","type":"bytes","internalType":"bytes"}],"outputs":[],"stateMutability":"nonpayable"},{"type":"function","name":"laws","inputs":[{"name":"lawHash","type":"bytes32","internalType":"bytes32"}],"outputs":[{"name":"nameDescription","type":"string","internalType":"string"},{"name":"inputParams","type":"bytes","internalType":"bytes"},{"name":"config","type":"bytes","internalType":"bytes"},{"name":"powers","type":"address","internalType":"address"}],"stateMutability":"view"},{"type":"function","name":"supportsInterface","inputs":[{"name":"interfaceId","type":"bytes4","internalType":"bytes4"}],"outputs":[{"name":"","type":"bool","internalType":"bool"}],"stateMutability":"view"},{"type":"function","name":"targetContract","inputs":[{"name":"lawHash","type":"bytes32","internalType":"bytes32"}],"outputs":[{"name":"targetContract","type":"address","internalType":"address"}],"stateMutability":"view"},{"type":"event","name":"Law__Deployed","inputs":[{"name":"configParams","type":"bytes","indexed":false,"internalType":"bytes"}],"anonymous":false},{"type":"event","name":"Law__Initialized","inputs":[{"name":"powers","type":"address","indexed":true,"internalType":"address"},{"name":"index","type":"uint16","indexed":true,"internalType":"uint16"},{"name":"nameDescription","type":"string","indexed":false,"internalType":"string"},{"name":"inputParams","type":"bytes","indexed":false,"internalType":"bytes"},{"name":"config","type":"bytes","indexed":false,"internalType":"bytes"}],"anonymous":false}],"bytecode":{"object":"0x608060405234801561000f575f80fd5b505f6040516020016100789060408082526016908201527f6164647265737320546172676574436f6e7472616374000000000000000000006060820152608060208201819052600e908201526d1d5a5b9d0c8d4d88141bdbdb125960921b60a082015260c00190565b60405160208183030381529060405290507fc5389813cde4ae9e760a24ddd7e7ee31b82b36b1077e156cdcad4547bf7692e1816040516100b891906100c6565b60405180910390a1506100fb565b602081525f82518060208401528060208501604085015e5f604082850101526040601f19601f83011684010191505092915050565b611774806101085f395ff3fe608060405234801561000f575f80fd5b5060043610610090575f3560e01c8063552cb37211610063578063552cb372146101145780637bf5b2fb1461013757806399130d891461014a578063c0d27aad1461018a578063d8a941f41461019d575f80fd5b806301ffc9a714610094578063040b1100146100bc5780630d157721146100d15780630db07d58146100f1575b5f80fd5b6100a76100a2366004610d4f565b6101b0565b60405190151581526020015b60405180910390f35b6100cf6100ca366004610e56565b6101e6565b005b6100e46100df366004610f1c565b610357565b6040516100b39190610f7d565b6101046100ff366004610f8f565b610471565b6040516100b39493929190610fa6565b610127610122366004610ff8565b610633565b6040516100b3949392919061113a565b6100a7610145366004611183565b6108b1565b610172610158366004610f8f565b60016020525f90815260409020546001600160a01b031681565b6040516001600160a01b0390911681526020016100b3565b6100e4610198366004610f1c565b6109f1565b6100e46101ab366004610f1c565b610a88565b5f6001600160e01b03198216632ad2108960e01b14806101e057506301ffc9a760e01b6001600160e01b03198316145b92915050565b5f80828060200190518101906101fc9190611214565b915091505f73__$da6f5012babb472fe138ca3bf3d5984061$__63cae5c9f833896040518363ffffffff1660e01b815260040161023a929190611240565b602060405180830381865af4158015610255573d5f803e3d5ffd5b505050506040513d601f19601f82011682018060405250810190610279919061125d565b5f818152600260209081526040808320869055600182529182902080546001600160a01b0388166001600160a01b0319909116179055905191925061033191016060808252600e9082018190526d1d5a5b9d0c8d4d88141bdbdb125960921b608083015260a06020830181905260119083015270616464726573732070617961626c65546f60781b60c083015260e0604083018190528201526d1d5a5b9d0c8d4d88105b5bdd5b9d60921b6101008201526101200190565b604051602081830303815290604052945061034e87878787610b1f565b50505050505050565b60605f8073__$da6f5012babb472fe138ca3bf3d5984061$__63cae5c9f886866040518363ffffffff1660e01b8152600401610394929190611240565b602060405180830381865af41580156103af573d5f803e3d5ffd5b505050506040513d601f19601f820116820180604052508101906103d3919061125d565b81526020019081526020015f205f0180546103ed90611274565b80601f016020809104026020016040519081016040528092919081815260200182805461041990611274565b80156104645780601f1061043b57610100808354040283529160200191610464565b820191905f5260205f20905b81548152906001019060200180831161044757829003601f168201915b5050505050905092915050565b5f6020819052908152604090208054819061048b90611274565b80601f01602080910402602001604051908101604052809291908181526020018280546104b790611274565b80156105025780601f106104d957610100808354040283529160200191610502565b820191905f5260205f20905b8154815290600101906020018083116104e557829003601f168201915b50505050509080600101805461051790611274565b80601f016020809104026020016040519081016040528092919081815260200182805461054390611274565b801561058e5780601f106105655761010080835404028352916020019161058e565b820191905f5260205f20905b81548152906001019060200180831161057157829003601f168201915b5050505050908060020180546105a390611274565b80601f01602080910402602001604051908101604052809291908181526020018280546105cf90611274565b801561061a5780601f106105f15761010080835404028352916020019161061a565b820191905f5260205f20905b8154815290600101906020018083116105fd57829003601f168201915b505050600390930154919250506001600160a01b031684565b5f606080606073__$da6f5012babb472fe138ca3bf3d5984061$__630bcec8558888886040518463ffffffff1660e01b8152600401610674939291906112ac565b602060405180830381865af415801561068f573d5f803e3d5ffd5b505050506040513d601f19601f820116820180604052508101906106b3919061125d565b93505f73__$da6f5012babb472fe138ca3bf3d5984061$__63cae5c9f88a8a6040518363ffffffff1660e01b81526004016106ef929190611240565b602060405180830381865af415801561070a573d5f803e3d5ffd5b505050506040513d601f19601f8201168201806040525081019061072e919061125d565b5f8181526002602090815260408220548a519394509261075591908b018101908b016112d8565b5050905081811461079f5760405162461bcd60e51b815260206004820152600f60248201526e1253959053125117d413d3d317d251608a1b60448201526064015b60405180910390fd5b60405163054591f760e11b81526001600482015273__$da6f5012babb472fe138ca3bf3d5984061$__90630a8b23ee906024015f60405180830381865af41580156107ec573d5f803e3d5ffd5b505050506040513d5f823e601f3d908101601f191682016040526108139190810190611455565b5f868152600160205260408120548451949a509298509096506001600160a01b039091169188919061084757610847611542565b6001600160a01b0390921660209283029190910182015260405161087691632e16f8d960e21b918c9101611556565b604051602081830303815290604052845f8151811061089757610897611542565b602002602001018190525050505095509550955095915050565b5f8073__$da6f5012babb472fe138ca3bf3d5984061$__63cae5c9f833886040518363ffffffff1660e01b81526004016108ec929190611240565b602060405180830381865af4158015610907573d5f803e3d5ffd5b505050506040513d601f19601f8201168201806040525081019061092b919061125d565b5f818152602081905260409020600301549091506001600160a01b031633146109845760405162461bcd60e51b815260206004820152600b60248201526a4f6e6c7920506f7765727360a81b6044820152606401610796565b5f805f806109cb8b338c8c8c8080601f0160208091040260200160405190810160405280939291908181526020018383808284375f920191909152508e9250610633915050565b93509350935093506109e08a85858585610ce9565b5060019a9950505050505050505050565b60605f8073__$da6f5012babb472fe138ca3bf3d5984061$__63cae5c9f886866040518363ffffffff1660e01b8152600401610a2e929190611240565b602060405180830381865af4158015610a49573d5f803e3d5ffd5b505050506040513d601f19601f82011682018060405250810190610a6d919061125d565b81526020019081526020015f2060020180546103ed90611274565b60605f8073__$da6f5012babb472fe138ca3bf3d5984061$__63cae5c9f886866040518363ffffffff1660e01b8152600401610ac5929190611240565b602060405180830381865af4158015610ae0573d5f803e3d5ffd5b505050506040513d601f19601f82011682018060405250810190610b04919061125d565b81526020019081526020015f2060010180546103ed90611274565b60405163195cb93f60e31b81525f9073__$da6f5012babb472fe138ca3bf3d5984061$__9063cae5c9f890610b5a9033908990600401611240565b602060405180830381865af4158015610b75573d5f803e3d5ffd5b505050506040513d601f19601f82011682018060405250810190610b99919061125d565b60405163cb4a15c560e01b815290915073__$da6f5012babb472fe138ca3bf3d5984061$__9063cb4a15c590610bd990879060019060ff90600401611581565b5f6040518083038186803b158015610bef575f80fd5b505af4158015610c01573d5f803e3d5ffd5b50506040805160808101825287815260208082018890528183018790523360608301525f8681529081905291909120815191935091508190610c4390826115ee565b5060208201516001820190610c5890826115ee565b5060408201516002820190610c6d90826115ee565b5060609190910151600390910180546001600160a01b0319166001600160a01b0390921691909117905560405161ffff86169033907f3325fccc62d4919a3b0d34ea1fe03878a5248dd1bc36dd8d4316eafc2b8d0adf90610cd3908890889088906116a8565b60405180910390a35050505050565b5050505050565b825115610ce257604051630de6a60160e01b81523390630de6a60190610d1b90889088908890889088906004016116ea565b5f604051808303815f87803b158015610d32575f80fd5b505af1158015610d44573d5f803e3d5ffd5b505050505050505050565b5f60208284031215610d5f575f80fd5b81356001600160e01b031981168114610d76575f80fd5b9392505050565b803561ffff81168114610d8e575f80fd5b919050565b634e487b7160e01b5f52604160045260245ffd5b604051601f8201601f191681016001600160401b0381118282101715610dcf57610dcf610d93565b604052919050565b5f6001600160401b03821115610def57610def610d93565b50601f01601f191660200190565b5f610e0f610e0a84610dd7565b610da7565b9050828152838383011115610e22575f80fd5b828260208301375f602084830101529392505050565b5f82601f830112610e47575f80fd5b610d7683833560208501610dfd565b5f805f8060808587031215610e69575f80fd5b610e7285610d7d565b935060208501356001600160401b03811115610e8c575f80fd5b8501601f81018713610e9c575f80fd5b610eab87823560208401610dfd565b93505060408501356001600160401b03811115610ec6575f80fd5b610ed287828801610e38565b92505060608501356001600160401b03811115610eed575f80fd5b610ef987828801610e38565b91505092959194509250565b6001600160a01b0381168114610f19575f80fd5b50565b5f8060408385031215610f2d575f80fd5b8235610f3881610f05565b9150610f4660208401610d7d565b90509250929050565b5f81518084528060208401602086015e5f602082860101526020601f19601f83011685010191505092915050565b602081525f610d766020830184610f4f565b5f60208284031215610f9f575f80fd5b5035919050565b608081525f610fb86080830187610f4f565b8281036020840152610fca8187610f4f565b90508281036040840152610fde8186610f4f565b91505060018060a01b038316606083015295945050505050565b5f805f805f60a0868803121561100c575f80fd5b853561101781610f05565b9450602086013561102781610f05565b935061103560408701610d7d565b925060608601356001600160401b0381111561104f575f80fd5b61105b88828901610e38565b95989497509295608001359392505050565b5f8151808452602084019350602083015f5b828110156110a65781516001600160a01b031686526020958601959091019060010161107f565b5093949350505050565b5f8151808452602084019350602083015f5b828110156110a65781518652602095860195909101906001016110c2565b5f82825180855260208501945060208160051b830101602085015f5b8381101561112e57601f19858403018852611118838351610f4f565b60209889019890935091909101906001016110fc565b50909695505050505050565b848152608060208201525f611152608083018661106d565b828103604084015261116481866110b0565b9050828103606084015261117881856110e0565b979650505050505050565b5f805f805f60808688031215611197575f80fd5b85356111a281610f05565b94506111b060208701610d7d565b935060408601356001600160401b038111156111ca575f80fd5b8601601f810188136111da575f80fd5b80356001600160401b038111156111ef575f80fd5b886020828401011115611200575f80fd5b959894975060200195606001359392505050565b5f8060408385031215611225575f80fd5b825161123081610f05565b6020939093015192949293505050565b6001600160a01b0392909216825261ffff16602082015260400190565b5f6020828403121561126d575f80fd5b5051919050565b600181811c9082168061128857607f821691505b6020821081036112a657634e487b7160e01b5f52602260045260245ffd5b50919050565b61ffff84168152606060208201525f6112c86060830185610f4f565b9050826040830152949350505050565b5f805f606084860312156112ea575f80fd5b835160208501519093506112fd81610f05565b6040949094015192959394509192915050565b5f6001600160401b0382111561132857611328610d93565b5060051b60200190565b5f82601f830112611341575f80fd5b815161134f610e0a82611310565b8082825260208201915060208360051b860101925085831115611370575f80fd5b602085015b8381101561138d578051835260209283019201611375565b5095945050505050565b5f82601f8301126113a6575f80fd5b81516113b4610e0a82611310565b8082825260208201915060208360051b8601019250858311156113d5575f80fd5b602085015b8381101561138d5780516001600160401b038111156113f7575f80fd5b8601603f81018813611407575f80fd5b6020810151611418610e0a82610dd7565b8181526040838301018a101561142c575f80fd5b8160408401602083015e5f602083830101528086525050506020830192506020810190506113da565b5f805f60608486031215611467575f80fd5b83516001600160401b0381111561147c575f80fd5b8401601f8101861361148c575f80fd5b805161149a610e0a82611310565b8082825260208201915060208360051b8501019250888311156114bb575f80fd5b6020840193505b828410156114e65783516114d581610f05565b8252602093840193909101906114c2565b8096505050505060208401516001600160401b03811115611505575f80fd5b61151186828701611332565b92505060408401516001600160401b0381111561152c575f80fd5b61153886828701611397565b9150509250925092565b634e487b7160e01b5f52603260045260245ffd5b6001600160e01b03198316815281515f908060208501600485015e5f92016004019182525092915050565b606081525f6115936060830186610f4f565b60208301949094525060400152919050565b601f8211156115e957805f5260205f20601f840160051c810160208510156115ca5750805b601f840160051c820191505b81811015610ce2575f81556001016115d6565b505050565b81516001600160401b0381111561160757611607610d93565b61161b816116158454611274565b846115a5565b6020601f82116001811461164d575f83156116365750848201515b5f19600385901b1c1916600184901b178455610ce2565b5f84815260208120601f198516915b8281101561167c578785015182556020948501946001909201910161165c565b508482101561169957868401515f19600387901b60f8161c191681555b50505050600190811b01905550565b606081525f6116ba6060830186610f4f565b82810360208401526116cc8186610f4f565b905082810360408401526116e08185610f4f565b9695505050505050565b61ffff8616815284602082015260a060408201525f61170c60a083018661106d565b828103606084015261171e81866110b0565b9050828103608084015261173281856110e0565b9897505050505050505056fea2646970667358221220c09fd41b82ff78964ff38069b159625a0f97a0d933cf75300a64330ba1bc564964736f6c634300081a0033","linkReferences":{"src/libraries/LawUtilities.sol":{"LawUtilities":[{"start":779,"length":20},{"start":1125,"length":20},{"start":1859,"length":20},{"start":1984,"length":20},{"start":2237,"length":20},{"start":2493,"length":20},{"start":2815,"length":20},{"start":2966,"length":20},{"start":3128,"length":20},{"start":3251,"length":20}]}}},"methodIdentifiers":{"executeLaw(address,uint16,bytes,uint256)":"7bf5b2fb","getConfig(address,uint16)":"c0d27aad","getInputParams(address,uint16)":"d8a941f4","getNameDescription(address,uint16)":"0d157721","handleRequest(address,address,uint16,bytes,uint256)":"552cb372","initializeLaw(uint16,string,bytes,bytes)":"040b1100","laws(bytes32)":"0db07d58","supportsInterface(bytes4)":"01ffc9a7","targetContract(bytes32)":"99130d89"},"id":122}